:020000040000FA
:1000000030A10010F9000000010100000301000010
:1000100005010000070100000901000000000000C8
:100020000000000000000000000000000B010000C4
:100030000D010000000000000F010000433000002F
:100040001301000013010000130100001301000060
:100050001301000013010000130100001301000050
:100060001301000013010000130100001301000040
:100070001301000000000000130100001301000044
:100080001301000013010000130100001301000020
:100090001301000013010000130100001301000010
:1000A0001301000013010000130100001301000000
:1000B00013010000130100001301000013010000F0
:1000C00013010000130100001301000013010000E0
:1000D00013010000130100001301000013010000D0
:1000E00013010000DFF80CD000F0FCFB00480047D3
:1000F000794F000030A100100648804706480047AD
:10010000FEE7FEE7FEE7FEE7FEE7FEE7FEE7FEE7C7
:10011000FEE7FEE765300000E50000002DE9F05F36
:100120000546002092469B46884606468146402466
:100130001BE0284641464746224600F0F0FA534667
:100140005A46C01A914110D311461846224600F073
:10015000D7FA2D1A67EB01084F46224601200021ED
:1001600000F0CEFA17EB00094E41201EA4F1010465
:10017000DFDC484631462A464346BDE8F09FF0B4EE
:1001800080EA0102D40F4200B2EB410F02D20246D4
:10019000084611464A0042D0C30DDDB2C1F3C75232
:1001A000AD1A202D35DAC1F3160141F4000204B175
:1001B0005242C5F1200602FA06F12A411044B3EB7F
:1001C000D05F23D0C4B1012DA0EBC35009DCF0BC3B
:1001D0004FF0004202EAC35200F50000DBB200F02B
:1001E000C9BA400000F1807000EBC350A0F18070EC
:1001F00040EAD170490009E0490841EAC071A0EB2A
:10020000C35000F50000400800EBC350F0BC00F004
:10021000A8BA6142012202EB4101001BF6E7F0BCE3
:10022000704781F00041AAE780F00040A7E780EA2C
:10023000010210B502F00043400026D04A0023D04E
:100240004FEA106101EB1261C0F35600C2F356028F
:1002500040F4000042F40002A0FB0220A1F17F0163
:100260004FEA0040140401D000F1010050EA1240AE
:1002700001D44000491EC2B20C0604EBD010401C51
:100280004008802A02D003E0002010BD20F00100C9
:10029000002900DA0020184310BDC10F80EAE07089
:1002A0000844CA079623002100F064BA962300226E
:1002B000114600F05FBA00F0004220F00040C10D8E
:1002C000C0F3160040F400007F2901DA00207047D7
:1002D000962903DCC1F19601C84001E096398840B7
:1002E000002AF4D040427047002801DBC0F10040F2
:1002F000002901DBC1F1004188427047FFFFFFFF89
:100300002DE9FE4F804681EA0300C00F0C460090A5
:1003100021F0004123F00045B8EB0200A94105D2CD
:100320004046214690461C460B46024623F00040BC
:10033000104304D14046214603B0BDE8F08F270D9D
:10034000C7F30A00C3F30A510290401A01904028F3
:1003500066DAC3F3130040F4801B0098924620B184
:100360000023D2EB030A63EB0B0B01985946C0F153
:100370004002504600F0C4F906460D465046594624
:10038000019A00F0DCF910EB08006141002487EAD3
:10039000115284EAE7731A433BD0009A3AB3019AA8
:1003A000012A4FEA075210DC001B61EB02014FF0FB
:1003B000004202EA0752CDE90042001C41F58011DB
:1003C00032462B4600F010FAB6E7001B61EB020143
:1003D000001C41F5801300185B412018A2F500179E
:1003E00047EB030140EAD570B6196D4111E06D0885
:1003F0004FEA360645EAC0754FEA0752001B61EB2B
:100400000201001C41F5801149084FEA3000001933
:10041000514132462B4603B0BDE8F04F00F0D7B94A
:100420000098012240000023D0EB020263EBE0734E
:10043000009821464FEAE074B8EB000061EB04013C
:10044000E9E783F000435BE781F0004158E72DE9DD
:10045000FE4F81EA030404F0004421F000410094BF
:100460004FF0000B23F0004350EA010402D052EA9F
:10047000030404D10020014603B0BDE8F08FC3F3AC
:100480000A54C1F30A552C44A4F2F3340194A0FB9E
:100490000254C1F3130141F48011C3F3130343F475
:1004A000801301FB024400FB034E840A970A44EACE
:1004B000815447EA8357A4FB076802958D0A05FB20
:1004C00007854FEA932C04FB0C542705029D4FEA45
:1004D000065847EA1637B5EB08056EEB070C870E92
:1004E000920E47EA811742EA8312A7FB0201B6EB9C
:1004F0000B0164EB00042B0D43EA0C335E1844EB54
:100500001C50DA465146E7FB0201C5F313044FEADB
:100510000B3343EA14534FEA0432019C43EA0603C7
:10052000A4F10C040294009CCDE900B400F05CF945
:10053000A2E72DE9F04D81EA030404F0004B21F01D
:10054000004514464FF0000A23F0004150EA05022E
:1005500020D054EA01021DD0C5F30A570246C5F364
:100560001303C1F31300C1F30A5640F4801543F49A
:100570008013A7EB0608101BD64608F2FD3873EB74
:10058000050002D308F1010801E092185B41B8F1BF
:10059000000F03DA00200146BDE8F08D00204FF483
:1005A0008011064684460EE0171B73EB050705D342
:1005B000121B63EB050306434CEA010C49084FEAA2
:1005C000300092185B4150EA0107EDD152EA030076
:1005D00012D082EA040083EA0501084303D1002215
:1005E0004FF0004308E0101BAB4102D20122002370
:1005F00002E06FF0010253101AEB06004CEB0851B9
:1006000010EB0A0041EB0B01BDE8F04D00F0DFB844
:1006100020F00040C10DC0F3160040F400007F2917
:1006200001DA00207047962903DCC1F19601C84029
:10063000704796398840704770B5C1F30A5201F08F
:1006400000450024C1F3130140F2FF3341F480114F
:100650009A4201DA002070BD40F233439A42A2F27E
:10066000334203DC524200F05AF800E090402C4341
:10067000F1D0404270BD00F0004230F000400AD09E
:10068000C10D01F56071C0F3160042EA0151C208C4
:1006900040071143704700200146704701F00043B6
:1006A00030B421F0004150EA010206D00A0DA2F553
:1006B0006072C1F31301002A02DC30BC00207047D5
:1006C000440F44EAC104C100E01830BC00EBC25042
:1006D00000F047B830B50B46014600202022012427
:1006E00009E021FA02F59D4205D303FA02F5491B00
:1006F00004FA02F52844151EA2F10102F1DC30BD16
:10070000202A04DB203A00FA02F1002070479140D1
:10071000C2F1200320FA03F3194390407047202AC6
:1007200004DB203A21FA02F00021704721FA02F39B
:10073000D040C2F120029140084319467047202A58
:1007400006DBCB17203A41FA02F043EAE07306E0F9
:1007500041FA02F3D040C2F1200291400843194609
:1007600070470029A8BF7047401C490008BF20F00F
:100770000100704710B4B0FA80FC00FA0CF050EAA7
:10078000010404BF10BC704749B1CCF1200421FA28
:1007900004F411FA0CF118BF012121430843A3EB23
:1007A0000C01CB1D0106000A002BBEBF002010BCAF
:1007B000704700EBC35010440029A4BF10BC704721
:1007C000401C490008BF20F0010010BC704710B564
:1007D000002B08DA401C41F1000192185B411A43DA
:1007E00001D120F0010010BD2DE9F04D92469B464D
:1007F00011B1B1FA81F202E0B0FA80F220329046F3
:10080000FFF77EFF04460F4640EA0A0041EA0B016B
:1008100053465A46084303D120463946BDE8F08D79
:10082000114653EA010015D0C8F140025046FFF7C7
:1008300076FF05460E46504659464246FFF760FF92
:10084000084301D0012000E00020054346EAE0769D
:100850002C4337430A984FEA4453A0EB08004FEA71
:10086000D4240A304FF0000244EA47544FEAD72517
:1008700002D500200146D1E7010510196941DDE9E3
:10088000084500196941BDE8F04DA0E7C1F30A52DF
:10089000C1F3130140F2FF3341F480119A4202DAAE
:1008A00000200146704740F233439A42A2F233429D
:1008B00002DC5242FFF733BFFFF722BF30B50029F9
:1008C00004DB4FF00044404264EB0101002B04DBE9
:1008D0004FF00044524264EB0303994208BF904238
:1008E00030BD0000064C074D06E0E06840F0010313
:1008F00094E8070098471034AC42F6D3FFF7F6FBB4
:10090000085F0100285F010082B02DE9FF1FEFF3AF
:10091000038001B4684600F1400000E901400C4842
:100920000168C1F800D00B48D0F800D001BC80F3BA
:100930000388BDE8FF1F01B000BD0648D0F800D015
:1009400001BC80F30388BDE8FF1F01B000BD0000BB
:10095000200000101C00001001461F2202EA114076
:100960004FF6FF7202EA80103F2202EA1122104382
:100970004FF6FF7202EA401001F01F021043704769
:1009800030B5034601E003F8011B1400A2F1010594
:10099000AAB2F8D130BD0000012907D1084A126877
:1009A00042EA0002074BC3F8C42007E031B9044A09
:1009B000126822EA0002034BC3F8C420704700000B
:1009C000C4C00F4000C00F40014631B1012907D01B
:1009D000022908D003290CD108E0074800687047B5
:1009E00006480068FBE706480068F8E70548006825
:1009F000F5E700BFFEE70000000000100400001053
:100A0000080000100C00001070B505460C46284682
:100A100000F0BCFB0646204600F0B8FB864201D041
:100A2000002070BD07E015F8011B14F8012B91425E
:100A300001D00020F5E7287810B120780028F2D105
:100A40000120EEE70FB42DE9F04186B00025012624
:100A50000027B00201F01EFD044640480078FF2840
:100A600001D1012000E000203C4909783C4A12787D
:100A7000914201D1012100E00021084368D00DA876
:100A800005902046059A0C9903F0FEFD0020059084
:100A90000DA8059069460C9800F0B3FA06462AE0C6
:100AA0002846691CCDB21DF80000012804D0022898
:100AB00006D003281AD115E0059880C8059019E0E2
:100AC0000598C01D20F007000590D0E90021DDF851
:100AD00014C00CF1080C1046CDF814C0FFF7ACFDA3
:100AE000074607E0059880C8059003E0059880C890
:100AF000059000BF00BF3000A6F10106D0D10598D7
:100B000080C805900020059016480078FF2801D184
:100B1000012000E0002013490978B94201DB0121DE
:100B200000E00021084310D021460FA002F033FA64
:100B30000E48006848B1204600F028FB00F0FF088E
:100B400041462046094A12689047204601F07CFC45
:100B500006B0BDE8F0015DF814FB00004C00001089
:100B60002C0000104E0000100D0A00005000001074
:100B700010B50020154908704FF4A07001F08AFCF0
:100B80001349086000241DE000201149096801EBA9
:100B90004411486103200E49096801EB44110872B1
:100BA00000200B49096801EB4411086108490968F4
:100BB00001EB4411C8600649096801EB44118861E2
:100BC000601CC4B20A2CDFDB10BD00004400001022
:100BD000480000102DE9FC4F05460E4617461C46FE
:100BE000DDE90CABA9464FF000080EE0CDE900AB03
:100BF00019F8010B224639460B9B00F00AF8601CDD
:100C000084B208F101001FFA80F8B045EEDBBDE8C0
:100C1000FC8F2DE9F04706460C4617469846DDE95D
:100C2000089A002514E00120A840304205D0424631
:100C30003946204600F090FC06E0D14504D04A46F3
:100C40003946204600F088FC601C84B2681CC5B29E
:100C5000082DE8DBBDE8F08770B504460025107864
:100C600020B116782068B0FBF6F085B22068084401
:100C700020601078984203DA1078401C107002E06F
:100C80002068401B206016782068B0FBF6F080B228
:100C900070BD0FB438B5044606A800902046009AEF
:100CA000059903F0F1FC0020009038BC5DF814FBBE
:100CB00070B5064600250DE0002406E032462946C0
:100CC000204600F03BF9601C84B2B4F5F07FF5DB00
:100CD000681C85B2B5F5887FEEDB70BD10B50522C6
:100CE0000C21022001F04EFC07220621022001F017
:100CF00049FC07221146022001F044FC072208218A
:100D0000022001F03FFC07220921022001F03AFCF9
:100D100007221421012001F035FC072215210120B2
:100D200001F030FC07221621012001F02BFC0722E4
:100D30001721012001F026FC07221821012001F0D3
:100D400021FC07221921012001F01CFC07220D21A2
:100D5000022001F017FC07221A21012001F012FCE9
:100D600007221B21012001F00DFC07221C2101207C
:100D700001F008FC07221D21012001F003FC0722DD
:100D80000221084601F0FEFB07220021022001F0AB
:100D9000F9FB07220521022001F0F4FB07220321C1
:100DA000022001F0EFFB07220421022001F0EAFB00
:100DB00001220221084600F006F90221084600F04F
:100DC00016F901210846FFF7E7FD3C48006820F0CE
:100DD00001003A4908600020394988610846806965
:100DE00020F00E0088610846806940F00C008861A0
:100DF0000846806940F0200088610846806940F418
:100E00008070886100202F4908602F4800F058FB4F
:100E10002B49896808432A498860084680688860A9
:100E20000846806840F4006088600846806840F4A6
:100E3000805088600846806888600846806823493A
:100E400008431F498860002008600846006840F099
:100E5000740008600846006840F49850086008462E
:100E6000006840F4803008600846006840F08070F8
:100E70000860002048600846406840F20F110843AF
:100E80000F4948600846406840F460504860084692
:100E9000406840F4003048600846406840F0007008
:100EA00048600B4808614861002404E000210948BB
:100EB00040F82410641C802CF8D310BD008C08204E
:100EC00000800820B8C10F4000127A000000DF0146
:100ED000000010A00082082008B5B0B11649896949
:100EE00041F00101144A916142F21071009102E057
:100EF0000099491E009100990029F9D10E4989698C
:100F000041F400610C4A916115E00B49896921F4B3
:100F10000061094A916142F21071009102E000996A
:100F2000491E009100990029F9D10349896921F0EE
:100F30000101014A916108BD0080082010B5044BF1
:100F4000C1EB011400EB441423F8142010BD000081
:100F5000000010A070B506460C46304600F004F8BC
:100F6000054605B1EC6170BD01460020062915D289
:100F7000DFE801F00305080B0E110A480FE00948ED
:100F800020300CE00748403009E00648603006E0B9
:100F90000448803003E00348A03000E000BF00BFF9
:100FA000704700000080092070B505460E461446C3
:100FB00024B931462846FFF7CDFF03E031462846E5
:100FC00000F015F870BD2DE9F04107460D461646B4
:100FD0003846FFF7C9FF04463CB11EB120682843DC
:100FE000206002E02068A8432060BDE8F08170B571
:100FF00006460C463046FFF7B7FF054605B1AC6123
:1010000070BDF0B504460A460023002000252146A5
:1010100033E00E78252E02D10125461CB0B2012DF9
:101020002AD10E78642E06D1AC461E465F1CBBB298
:1010300002F806C000250E78662E07D14FF0020C8C
:101040001E465F1CBBB202F806C000250E78732E48
:1010500007D14FF0030C1E465F1CBBB202F806C05E
:1010600000250E78632E07D14FF0040C1E465F1C3E
:10107000BBB202F806C00025491C0E78002EC8D16C
:10108000F0BD0246002105E0505C08B908467047F3
:10109000481C81B24FF6FF708142F5DB00BFF6E7D6
:1010A0000FB438B5044606A800902046009A05996A
:1010B00003F0EAFA00200090204600F067F8C0B282
:1010C00038BC5DF814FB00002DE9FC5F05460026E6
:1010D000B346B1464FF07E5A44E015F8014B2D2C33
:1010E00001D101263EE02E2C02D14FF0010B39E058
:1010F000302C2EDB392C2CDCBBF1000F0ED11F491C
:101100004846FFF794F88146A4F13000FFF7C5F890
:1011100007464946FFF733F8814623E05046FFF77C
:10112000AAFA0746164A174BFFF791F9CDE90001D5
:10113000FFF7B4FA8246A4F13000FFF7AEF880461C
:101140005146FFF774F807464946FFF718F88146FD
:1011500008E026B10C494846FFF769F88146484641
:10116000BDE8FC9F28780028B7DC26B10649484630
:10117000FFF75DF881464846F2E700000000204195
:101180009A9999999999B93F000080BF10B5014685
:1011900000200A4601E0431C98B212F8014B002CD3
:1011A000F9D110BD10B50246104605E00378802B3A
:1011B00001DD801C00E0401C0B00A1F10104E1B244
:1011C000F4D110BD02460B4600210AE0505C984263
:1011D00001D108467047505C08B90020FAE7481C66
:1011E000C1B2F3E730B503460C46002113E0585C6A
:1011F000802805DA585C2578A84201D1084630BD20
:10120000585C802805DB585A2588A84201D1084639
:10121000F5E7481CC1B21000A2F10105EAB2E6D11F
:10122000FF20ECE72DE9F043B3B007460E46144625
:10123000C822002101A8FFF7A3FB14F0010F03D07F
:1012400001A92FA001F0A7FE14F0020F03D001A9FD
:101250002CA001F0A0FE14F0040F03D001A92AA0D5
:1012600001F099FE14F0080F03D001A929A001F0A4
:1012700092FE14F0100F03D001A92DA001F08BFEF7
:1012800014F0200F07D002F07BFD01A9D0F81090D8
:10129000484601F080FE14F0400F03D001A92BA0B6
:1012A00001F079FE01A92AA001F075FE01A8FFF75F
:1012B0006DFF00F0FF08262F0ED1317801A8FFF74F
:1012C00081FF0546681CC5B2A8F10100A84200DCF8
:1012D000002501A8405D3070282F0DD1317801A87C
:1012E000FFF770FF054615B9A8F10100C5B2681EE9
:1012F000C5B201A8405D307033B0BDE8F083000096
:101300002E0000002D0000003031323334353637E6
:10131000383900006162636465666768696A6B6C8E
:101320006D6E6F707172737475767778797A00006C
:101330004142434445464748494A4B4C4D4E4F5025
:101340005152535455565758595A00000D0A00002F
:101350000A0000002DE9F047B2B0804689461546E4
:101360004E46C82200216846FFF70AFB15F0010F20
:1013700003D069463CA001F00EFE15F0020F03D029
:1013800069463AA001F007FE15F0040F03D0694644
:1013900037A001F000FE15F0080F03D0694637A012
:1013A00001F0F9FD15F0100F03D069463AA001F0E5
:1013B000F2FD15F0200F07D002F0E2FC6946D0F8EC
:1013C00010A0504601F0E7FD6846FFF7DFFEC7B208
:1013D000781CC7B23A4631466846FFF703FF044619
:1013E000FF2C00D10024B8F1260F16D11DF80400FF
:1013F000802802DA601CC4B201E0A01CC4B2BC4266
:1014000000DB00241DF80400802803DA1DF8040026
:10141000307002E03DF804003080B8F1280F17D199
:10142000A01E1DF80000802802DA601EC4B201E090
:10143000A01EC4B2FF2C00D13C461DF80400802839
:1014400003DA1DF80400307002E03DF8040030803B
:101450003A4631466846FFF7C5FE0446FF2C00D1E8
:10146000002432B0BDE8F0872E0000002D000000FF
:1014700030313233343536373839000061626364D5
:1014800065666768696A6B6C6D6E6F707172737494
:1014900075767778797A000041424344454647485B
:1014A000494A4B4C4D4E4F50515253545556575834
:1014B000595A000010B504462046FFF7F9FB10BD4D
:1014C00010B50246012100E0491C0A4B1B68B3FB22
:1014D000F1F3934201D93F29F6D9012902D84FF0FF
:1014E000806005E001F01F03C1F3441443EAC460C7
:1014F00010BD000000000010F0B504460F46154670
:101500001E4606E02046621C94B23246394600F080
:1015100023F82800A5F101018DB2F3D1F0BDF0B59B
:1015200007460C4615461E4606E02146621C94B24C
:101530003246384600F010F82800A5F101018DB2BE
:10154000F3D1F0BD10B50020FFF7C6FCFFF7C6FBD6
:101550000120FFF7C1FC10BD10B5044BC1EB011415
:1015600000EB441423F8142010BD0000000010A06C
:101570007047000010B50446484800680078FF280E
:1015800001D101F001FE01F009FE44480068406904
:1015900042490968896988421DD0012000F056FD42
:1015A0003E490968886900F025FE002000F04EFDE4
:1015B0003A490968486900F01DFE384800684069EA
:1015C00036490968886135480068007820F00100D4
:1015D00032490968087031480068007810F0010F3E
:1015E0000FD0002000F032FD2C490968486900F056
:1015F00001FE2A480068007820F0010027490968A8
:101600000870264800680069A04219D0012000F047
:101610001DFD22490968086900F042F8002000F029
:1016200015FD204600F03CF81C48006804611B488A
:101630000068007820F0020018490968087015E079
:1016400016480068007810F0020F0FD0002000F05C
:10165000FDFC12490968C86800F022F80F480068CC
:10166000007820F002000D49096808700B480068F6
:10167000007810F0080F0FD0002000F0E7FC0749B9
:101680000968C86800F00CF804480068007820F089
:10169000080002490968087010BD000074000010BD
:1016A000F0B59BB0064634460CB91BB0F0BD4F49AF
:1016B000887F01F0CBFF00204D4F00903F687B8C6E
:1016C0004B4F3F683A8C4A4F3F68F98B484F3F6811
:1016D000B88B02F083F84648006881794448006876
:1016E000401C405C4249096891F8241090FBF1F0DD
:1016F000C5B23F48006890F82400684300EB400002
:1017000004EB80043B48007885422FD002F03EFB7A
:101710008789DFF8DCC00097DCF800C0BCF822C085
:10172000ACF1020C1FFA8CF3DFF8C4C0DCF800C087
:10173000BCF820C0ACF1020C1FFA8CF2DFF8B0C08C
:10174000DCF800C0BCF81EC00CF1010C1FFA8CF1D3
:10175000DFF89CC0DCF800C0BCF81CC00CF1010C28
:101760001FFA8CF001F002FF22480570012533E0DA
:101770001F480068C1681E48006882791C480068DC
:10178000401C805C00EB400001EB8000A04204D1D3
:1017900002F0FCFA0121417003E002F0F7FA0021A7
:1017A0004170214602A800F039FA02A800F06CFF4F
:1017B000681CC0B205460E49096891F82410884299
:1017C00000DD0CE00C3402F0E1FA811D02F0D8FAE1
:1017D00000780A8810440880207A0028C8D100BF09
:1017E00002F0D4FA0021417000BF5EE7EC9C0010CB
:1017F000740000106400001070B50446207A0B28B5
:1018000046D007DC072837D2DFE800F0990D37997A
:101810007162510016380728F5D2DFE800F03390E6
:1018200071908A7A820047480068C0684549096813
:101830000861607A43490968897988420CDD607AD9
:1018400040490968887100213E48006882793D4816
:101850000068401C815403E0607A3A490968887145
:10186000384960680968C86036480068007840F008
:10187000020034490968087061E0606808B1606876
:1018800080475CE0606810B1607A6168884756E024
:1018900061680878FEF70AFD0646617A042200F0C6
:1018A000EBFA0546FEF7B4FE6168087047E0616830
:1018B00091F90000FEF7F1FC0646617A062200F07D
:1018C000DBFA0546FEF7F7FC40B26168087036E0C7
:1018D00061680888FEF7EAFC0646617A042200F097
:1018E000CBFA0546FEF794FE6168088027E0617A2E
:1018F00062681068072200F0BFFA616808601EE0A5
:101900006068007808B9012000E000206168087074
:1019100015E061680868052100F0F0F8616808606A
:101920000DE061680888052100F048F861680880CA
:1019300005E0617A3722606800F01CFA00BF00BF42
:1019400070BD0000740000102DE9FE4F04460E46E5
:1019500015461F46DDE90C9A17480068C0890290B9
:1019600000200190281B1FFA80F8B81B1FFA80FB8B
:10197000D8451EDD1BE008FB0AF090FBF9F2019848
:10198000411C89B20191824203DA0B4800688089C8
:10199000029002983B46224631460090204601F0D4
:1019A00031FF2046611C8CB2A84200DB00E0E2E778
:1019B00000BFBDE8FE8F0000680000102DE9F04375
:1019C00089B00746884600240C263DA000F02AFB7B
:1019D0001222002104A8FEF7D3FFB8B201F0BCFB2D
:1019E0000390B8B201F0B8FB0290B8B201F0B4FBBA
:1019F00001909DF80E0000909DF809309DF804209C
:101A000031A104A8FFF74CFB4BE0002000F01EFBC7
:101A1000701CC1B2224604A800F076FE002000F03F
:101A2000EBF80546252D02D10CB1601EC4B2272D5E
:101A300003D1B44201DA601CC4B2B44216D1262DDF
:101A400001D1012000E00020282D01D1012100E07A
:101A5000002108430AD000208DF81B0004A801F0E3
:101A6000BBFA8146FEF778FF07461BE064B9262DD6
:101A700001D1012000E00020282D01D1012100E04A
:101A80000021084300D00DE0B44206DA601E04AA2B
:101A9000811842462846FFF7C5FB0021701E04AAA4
:101AA0001154B2E700BF012000F0D0FA701CC1B29F
:101AB000012204A800F028FE384609B0BDE8F083F2
:101AC000507574496E000000253033642E25303384
:101AD000642E25303364000030B507480068C468C0
:101AE00005490968C86800F091FA054605EB45000C
:101AF00004EB800030BD000074000010F3B587B027
:101B00000F460024102635A000F08CFA1222002186
:101B100002A8FEF735FF9DF81C009DF81D10CDE9C9
:101B200000109DF81E309DF81F202EA102A8FFF77F
:101B3000B7FA45E0002000F089FA701CC1B22246D5
:101B400002A800F0E1FD002000F056F80546252D22
:101B500002D10CB1601EC4B2272D03D1B44201DA08
:101B6000601CC4B2B44210D1262D01D1012000E086
:101B70000020282D01D1012100E00021084304D0DC
:101B800002A801F029FA07901BE064B9262D01D1C3
:101B9000012000E00020282D01D1012100E00021DA
:101BA000084300D00DE0B44206DA601E02AA811894
:101BB0003A462846FFF736FB0021701E02AA115450
:101BC000B8E700BF012000F041FA701CC1B2012249
:101BD00002A800F099FD079809B0F0BD507574494E
:101BE0006E000000253033642E253033642E2530FE
:101BF00033642E253033640070B5054625B1284680
:101C000002F01AFB044602E002F0E0FA044614B1C6
:101C10006668707870BD0020FCE700002DE9FF4188
:101C200005460C46207A0C2837D008DC78D2DFE84D
:101C300000F096159696282161969647961A1A28CE
:101C400038D006DC0D282FD0172840D0182867D1AF
:101C500046E01B2856D01C28F9D162E028462168AE
:101C6000FFF717F880E06068027828462168FFF7E0
:101C700010F879E06068028828462168FFF709F8C3
:101C800072E061680868FEF7F6FC06460B463246CD
:101C900028462168FEF7FDFF66E060680278284666
:101CA0002168FEF7F6FF5FE02846D4E90012FEF750
:101CB000F0FF59E02846D4E90012FEF7EAFF53E0AE
:101CC0006068026828462168FEF7E3FF4CE0606820
:101CD00080470646324628462168FEF7DAFF43E091
:101CE00060680078224B53F8202028462168FEF7D0
:101CF000D0FF39E0606890F9002028462168FEF79F
:101D0000C8FF31E06068007861684978CDE900106B
:101D100060688378C27828462168FEF7BAFF23E01E
:101D20001DE06168098888B201F016FA03906168C5
:101D3000098888B201F010FA02906168098888B2B7
:101D400001F00AFA01909DF80E0000909DF809300C
:101D50009DF8042028462168FEF79BFF04E02846F2
:101D60002168FEF796FF00BF00BFBDE8FF810000BD
:101D7000580000102DE9F04786B080460E46914687
:101D800000243BA000F04EF91222002101A8FEF72A
:101D9000F7FD01A9404601F0ECF85BE0002000F0FF
:101DA00055F9B01CC7B201A8805D802802DD2D2046
:101DB00001A98855701E01A9085C802801DA00205D
:101DC000885523463A46314601A800F065FD0020BB
:101DD000FFF712FF0546252D02D10CB1601EC4B2DB
:101DE000272D04D1781EA04201DD601CC4B2781EEC
:101DF000A04210D1262D01D1012000E00020282D85
:101E000001D1012100E00021084304D0414601A88E
:101E100001F0AFF81FE064B9262D01D1012000E0E8
:101E20000020282D01D1012100E00021084300D02D
:101E300011E0BC420ADA601EC1B201A8FFF7B2F994
:101E400082464A4651462846FFF784FA0021781E0A
:101E500001AA1154A2E700BF012000F0F7F82346C1
:101E60003A46314601A800F017FD06B0BDE8F087FC
:101E7000507574496E0000002DE9FE4F81460D46F5
:101E800092460024681CC5B233A000F0CBF80A22A9
:101E900000216846FEF774FD4846FEF7ECFB074656
:101EA0003A460B462EA16846FFF7FAF845E00020B7
:101EB00000F0CCF8681CC1B22246684600F024FC51
:101EC0000020FFF799FE0646252E02D10CB1601EB8
:101ED000C4B2272E03D1AC4201DA601CC4B2AC42BA
:101EE00010D1262E01D1012000E00020282E01D1A2
:101EF000012100E00021084304D06846FFF7E4F820
:101F000081461BE064B9262E01D1012000E00020AB
:101F1000282E01D1012100E00021084300D00DE06E
:101F2000AC4206DA601E6A46811852463046FFF718
:101F300079F90021681E0DF80010B8E700BF0120F4
:101F400000F084F8681CC1B20122684600F0DCFB96
:101F50004846BDE8FE8F0000507574496E000000D1
:101F6000252E33660000000070B50546FF20244989
:101F70000968087023A0224909684861002406E026
:101F800000211F480068401C0155601CC4B2052C8C
:101F9000F6DB00201A490968887119480068C56095
:101FA0001949887F01F052FB002015490968888390
:101FB000322013490968C88340F2DF1010490968CC
:101FC000088440F20F100E490968488401F0D8FED9
:101FD00000780B490968498C094A1268D28B891A22
:101FE00091FBF0F00649096881F8240002200449B9
:101FF000096881F82500012001F05EFB70BD00003A
:102000007400001020000000EC9C0010014600202D
:102010000A4602E00C32431CD8B2137A002BF9D1E5
:102020007047000010B5044607480068007840F08B
:1020300002000549096808700348006844610020EF
:10204000FFF798FA10BD00007400001030B5044688
:1020500034B9084D6B8BEA8A298BA88A01F0E6FA1D
:10206000012C06D1034D6B8BEA8AE98AE88A01F0DC
:10207000DDFA30BDEC9C00100646B146282000F089
:1020800009FA5B490860092000F004FA804618202C
:1020900000F000FA0746002507E005EB4500404444
:1020A00007EBC5014860681CC5B2032DF5DB0321B1
:1020B000384601F0E7FF01F071F8002001F0AFFCB5
:1020C00001F0D6FC0120FFF7C1FF01F05DF84846A2
:1020D000FFF74AFF8AE0FFF7FFFC00684449096800
:1020E000486143490968C868FFF744FA40490968EC
:1020F000C868FFF78BFF3E490968C87128244FF470
:10210000967001F0EFFF282C25D139480068C0797E
:10211000401E374909688A7935490968491C895C34
:10212000884210DD32480068817931480068401CDF
:10213000405C401CC1B22E48006882792C4800687F
:10214000401C815407E00021294800688279284812
:102150000068401C8154262C24D1254800688179D0
:1021600023480068401C405C80B1214800688179A8
:102170001F480068401C405C401EC1B21C480068FB
:1021800082791B480068401C81540BE018480068A5
:10219000C079401EC1B216480068827914480068B0
:1021A000401C8154272C0FD111490968CA68104975
:1021B00009688B790E490968491CC95C01EB41012A
:1021C00002EB8100FFF718FB252C07D100210848FE
:1021D0000068827906480068401C81540448006801
:1021E000007840F0020002490968087073E70000B7
:1021F0007400001038B5044604B938BD174DAB8BD8
:10220000174D2D682A8C164D2D68E98B144D2D68BD
:10221000A88BFFF771F91148808B00901048006877
:10222000438C0F480068028C0021084601F01EF91B
:102230000A49C87F01F00AFA0420009008480068A3
:10224000C38B07480068028C0021084601F0C6FADB
:10225000204600F019FA00BFCFE70000EC9C001008
:10226000740000102DE9FC4706460D463046FFF786
:10227000D9FE002483E00020FFF7E8FE1E20DFF8EF
:10228000C0C1CDE90004DCF800C0BCF822C0DFF812
:10229000B091D9F80090B9F81E90ACEB090808EBA2
:1022A000D87CDFF89C91D9F80090B9F81E9009EB22
:1022B0006C0C0CF10A0C1FFA8CF3DFF884C1DCF80B
:1022C00000C0BCF822C0DFF87891D9F80090B9F8C6
:1022D0001E90ACEB090707EBD77CDFF86491D9F8C7
:1022E0000090B9F81E9009EB6C0C1FFA8CF1DFF826
:1022F00050C1DCF800C0BCF820C0ACF1020C1FFAE1
:102300008CF2DFF83CC1DCF800C0BCF81CC00CF15A
:10231000010C1FFA8CF0FFF717FB4A49887F01F088
:1023200095F947480068008C60431E2190FBF1F04E
:10233000283087B20120009041480068408C404A14
:102340001268D28BA0EB020808EBD8703C4A1268E6
:10235000D28B02EB60000A3081B239480068438CAE
:102360003A46002001F03AFA0020FFF76FFE2846B7
:1023700001F0B8FE0120FFF769FE601CC4B21E2CFC
:10238000FFF679AF01F002FDB0F80C90DFF8B0C0B5
:10239000CDF80090DCF800C0BCF822C0DFF8A0A0A7
:1023A000DAF800A0BAF81EA0ACEB0A0707EBD77C5E
:1023B000DFF88CA0DAF800A0BAF81EA00AEB6C0CCB
:1023C0000CF10A0C1FFA8CF3DFF874C0DCF800C0C3
:1023D000BCF822C0DFF868A0DAF800A0BAF81EA0A6
:1023E000ACEB0A0808EBD87CDFF854A0DAF800A0C0
:1023F000BAF81EA00AEB6C0C1FFA8CF1DFF840C093
:10240000DCF800C0BCF820C0ACF1020C1FFA8CF262
:10241000DFF82CC0DCF800C0BCF81CC00CF1010CCB
:102420001FFA8CF001F0A2F8FF2005490968087036
:1024300003490968C868FFF79DF8BDE8FC870000FC
:1024400074000010EC9C001002460A4B1868002132
:1024500006E0A2F10803834200D107E001460068CC
:102460000368002BF5D101B10B60704703680B6066
:1024700000BFFAE740000010054908600021044A47
:10248000126811600821024A12685160704700000A
:102490004000001010B503461048016803F1080021
:1024A00083B20FE00868401A4C68001B984208D3BA
:1024B000486842185360086810600A6002F108001A
:1024C00010BD096808680028ECD14868421800204F
:1024D000106053600A6002F10800F1E7400000104C
:1024E0002DE9FE43002600270025F020FFF7D2FF4C
:1024F000804600F049FE2DE0002729461AA000F092
:10250000EDF800260FE04FF4FC601F21CA02002303
:10251000CDE9002102903246F0214046FEF75AFBF9
:1025200006F1080086B2B6F5A07FECDB0020FFF7CD
:1025300063FB0446252C03D1002D01DD681E85B206
:10254000272C01D1681C85B2282C00D103E0262C51
:1025500000D100E0D0E700BF4046FFF775FF01F073
:102560006FFABDE8FE83000050616765496E6465DF
:10257000785B25645D205570446F776E457869748B
:10258000000000002DE9F04106460F4615460024E4
:102590003946304600F01AF88046B8F1050F02D1EE
:1025A0000948BDE8F0813946304600F061F804463C
:1025B000206820F00700206005F00701206808432C
:1025C00020600020EDE70000010000100246052019
:1025D000062A4AD2DFE802F0032F393A3B3D0629AA
:1025E00007DD0A2901DB0B2903DD0E2903DB162990
:1025F00001DC00201EE00C2905D00D2903D017298D
:1026000003DB1A2901DC012014E01D2903D01E2957
:1026100001D01F2901D102200CE01B2901D01C2967
:1026200001D1032006E0072903D0082901D0092998
:1026300000D104201AE01D2901DC002004E01E293D
:1026400001D01F2900D1012010E000BF00BF0020F1
:102650000CE0012901DD042901D1002004E0022958
:1026600001D0032900D1032000E000BF00BF704764
:1026700010B50246002001EB4213024C04EB83002C
:1026800010BD000000C002400FB410B5C4B047A890
:10269000439003A8439A469901F0F6FF0E4800685C
:1026A00080780D490968097D03AA0B4CCDE900210A
:1026B000029024686389084C24682289064C2468A7
:1026C000E188054C2468A08800F0C8FD00204390F4
:1026D00044B010BC5DF814FB680000100FB400B5E6
:1026E0008FB011A80E9001A80E9A109901F0CCFF9E
:1026F0004FF47A7101A800F095F800200E900120A7
:102700000FB05DF814FB00002DE9FC4707460D46AD
:102710001646404991F8200000F098FF01F030FB88
:1027200040783D4A1268128C00FB152101EBD170F4
:10273000C0F34F0801242FE001F022FB4178601C18
:1027400000FB01801FFA80F901F01AFB407804FBBE
:1027500000801FFA80FA032000902F480068438C05
:102760004A460021504601F039F8601E385C8DF869
:10277000040000208DF80500B44204D101F006FBEE
:102780000121417003E001F001FB0021417001A82B
:10279000FFF77AFF601CC4B2681EA042CCDC0320A5
:1027A00000901D480068438C1B480068008C801E08
:1027B00082B20021084601F011F826B901F0E6FACC
:1027C0000121417003E001F0E1FA0021417013A002
:1027D000FFF75AFF052000900F480068438C0E4811
:1027E0000068008C801E82B20021084600F0F6FFCF
:1027F000681EB04204D101F0C9FA0121417003E022
:1028000001F0C4FA0021417005A0FFF73DFFBDE8CB
:10281000FC870000EC9C0010740000104E6F00005C
:102820005965730038B505460C4617A0FFF7FAFB4B
:10283000174991F8200000F009FF04200090154886
:102840000068438C13480068028C0021084600F0A1
:10285000C5FF0020FFF7FAFB2846FFF715FF2046CB
:1028600001F040FC0120FFF7F1FB2846FFF70CFFC9
:10287000FF2008490968087006490968C868FEF71A
:1028800079FE012038BD0000496E666F72000000BD
:10289000EC9C0010740000102DE9FF5F054689468E
:1028A00017461E464FF0010800200390554991F845
:1028B000200000F0CBFE01F063FA4078524A126823
:1028C000128C00FB192101EBD170C0F34F0A0124D7
:1028D00056E0B04504D101F059FA0121417003E0FE
:1028E00001F054FA0021417001F04AFA4178601C6D
:1028F00000FB01A01FFA80FB01F042FA407804FBC4
:1029000000A080B20190032000903F480068438CF3
:102910005A460021019800F061FF601E285C802863
:1029200010DD601E285C8DF80800285D8DF8090018
:1029300000208DF80A00A01CC4B208F1010000F0CC
:10294000FF080CE0601E285C8DF8080000208DF860
:102950000900601CC4B208F1010000F0FF089DF8F6
:10296000080008B9012003900398012805D1202010
:102970008DF8080000208DF8090002A8FFF784FEFA
:10298000781EA042A5DC032000901F480068438CFD
:102990001D480068008C801E82B20021084600F0AD
:1029A0001DFF26B901F0F2F90121417003E001F0A9
:1029B000EDF90021417015A0FFF766FE052000909B
:1029C00011480068438C10480068008C801E82B259
:1029D0000021084600F002FF781EB04204D101F049
:1029E000D5F90121417003E001F0D0F900214170D7
:1029F00007A0FFF749FE01F0C9F900214170BDE8C9
:102A0000FF9F0000EC9C0010740000104E6F00004F
:102A10005965730038B505462846FFF703FB204982
:102A200091F8200000F012FE1FE00020FFF70EFBDF
:102A3000042000901B480068438C1A480068028CF0
:102A40000021084600F0CAFE01F0A0F90121417002
:102A500015A0FFF719FE0020FFF7CEF80446262C3C
:102A600000D103E0282C00D100E0DEE700BF012008
:102A7000FFF7ECFA042000900A480068438C0948EC
:102A80000068028C0021084600F0A8FE01F07EF9E3
:102A90000021417004A0FFF7F7FD012038BD0000C0
:102AA000EC9C0010740000104F6B00002DE9F843FF
:102AB0008146002500264846FFF7B4FA354991F8CB
:102AC000200000F0C3FD5BE03046FFF7BFFA0320B3
:102AD000314900900968098C01EB4107F91707EBB0
:102AE0009171C1F38F022C490968B1F820804FEA37
:102AF000E87108EB91718810274909684B8C002117
:102B000000F06CFE01F042F9457024A0FFF7BCFD17
:102B10000520214900900968098C01EB4107F9174C
:102B200007EB9171C1F38F021B490968B1F820804E
:102B30004FEAE87108EB91718810174909684B8CCE
:102B4000002100F04BFE01F021F90DB9012100E058
:102B50000021417012A0FFF797FD06B111E01EB9E8
:102B60000020FFF749F80446262C00D10126282C26
:102B700000D10126252C00D10125272C00D10025CC
:102B8000A2E700BF01F002F9002141702846BDE82C
:102B9000F8830000EC9C0010740000104F6B0000E4
:102BA0004E6F00002DE9FE43002600270025F0208F
:102BB000FFF770FC804600F0E7FA2CE0002729467A
:102BC00019A0FFF78BFD00260FE04FF4FC601F21DA
:102BD000CA020023CDE9002102903246F02140468E
:102BE000FDF7F8FF06F1080086B2022EEDDB0020AB
:102BF000FFF702F80446252C03D1002D01DD681EE5
:102C000085B2272C01D1681C85B2282C00D103E0A5
:102C1000262C00D100E0D1E700BF4046FFF714FCAE
:102C200000F00EFFBDE8FE8350616765496E646584
:102C3000785B25645D205570446F776E45786974C4
:102C4000000000002DE9FE43002600270025F020AB
:102C5000FFF720FC804600F097FA2DE00027294678
:102C60001AA0FFF73BFD00260FE04FF4FC601F2188
:102C7000CA020023CDE9002102903246F0214046ED
:102C8000FDF7A8FF06F1080086B2B6F5A07FECDBE1
:102C90000020FEF7B1FF0446252C03D1002D01DDF5
:102CA000681E85B2272C01D1681C85B2282C00D162
:102CB00003E0262C00D100E0D0E700BF4046FFF73C
:102CC000C3FB00F0BDFEBDE8FE83000050616765F8
:102CD000496E6465785B25645D205570446F776E3E
:102CE00045786974000000001CB501221021022003
:102CF000FFF748FC012211210220FFF743FC0122CB
:102D000012210220FFF73EFC012214210220FFF7CE
:102D100039FC012218210220FFF734FC01221C217A
:102D20000220FFF72FFC01221D210220FFF72AFCC1
:102D3000012219210420FFF725FC0020019008E062
:102D40000198C1B201220320FFF71CFC0198401C2E
:102D5000019001981028F3D30020019008E0019819
:102D6000C1B201220420FFF70DFC0198401C019024
:102D700001980F28F3D34748006840F400604649A3
:102D8000C1F8C4000846D0F8DC0140F00800C1F8E2
:102D9000DC010846D0F8DC0140F40060C1F8DC0139
:102DA0000846D0F8DC0140F400203C4908604FF0B0
:102DB00001003B49086088624FF00000C1F804013F
:102DC0000846D0F8040140F44070C1F804010846F8
:102DD000D0F8040140F00300324908604FF00300CE
:102DE0002F4908634FF0060048634FF009008863DD
:102DF0004FF00100C8634FF0060008644FF0030075
:102E000048644FF008008864C8644FF00900086502
:102E10004FF0020048654FF0030088654FF4D06022
:102E20002149086040F283101D49086241F2707028
:102E3000019002E00198401E019001980028F9D10C
:102E400040F203101649086202204862C001019056
:102E500002E00198401E019001980028F9D13A2023
:102E60000F494862832008621048006800900020E3
:102E700008620D48006840F40020C1F800010C48C9
:102E8000019002E00198401E019001980028F9D1BC
:102E90001CBD0000C4C00F4000C00F40DCC10F408B
:102EA00000C0092004C1092000C10920003003A08E
:102EB000A08601004FF0E020006920F480304FF040
:102EC000E02108617047012808D14FF0E02109692D
:102ED00041F001014FF0E022116107E04FF0E021E5
:102EE000096921F001014FF0E022116170470128CA
:102EF00008D14FF0E021096941F002014FF0E022D2
:102F0000116107E04FF0E021096921F002014FF063
:102F1000E022116170472DE9F04104460020FDF7E1
:102F200053FD05464FF47A70B5FBF0F04FF0807119
:102F3000B1FBF0F73846FDF7B9F906462046FDF734
:102F4000B5F907463146FDF7CFF901D200BFFEE7DC
:102F50004FF0E020006940F004004FF0E0210861EC
:102F60004FF47A70B5FBF0F06043401E4861BDE855
:102F7000F08130B503460C4600201946224605E094
:102F800011F8015B02F8015B451CA8B20D78002D19
:102F9000F6D1157030BD2DE9F04106460D462C46A0
:102FA00037462846FEF7F2F804443046FEF7EEF8BE
:102FB000804618F1010001D1BDE8F08103E017F867
:102FC000010B04F8010B5FEA0800A8F10108F6D133
:102FD00004F8010B00BFEFE730B5014600230022E3
:102FE000002027E00C78302C01DB012400E00024D5
:102FF0000D78392D01DC012500E000252C4209D097
:1030000002EB82044FF6FF7505EA44020C78303C6F
:103010001444A2B20C782E2C05D10002FF2A00DD48
:10302000FF2210430022491C1C465D1CEBB20F2CF2
:1030300000DD02E00C78002CD4D100BF0002104368
:1030400030BD10B5FFF736FF00F05AFF10BD10B5C8
:103050000120FFF760FF0120FFF749FF0120FFF784
:1030600032FF10BD21202C49086000BF2A480068AB
:1030700010F0400FFAD00120284908604FF00900F5
:103080002749C1F884004FF00100264908604FF03D
:10309000AA00254908604FF05500086000BF23488A
:1030A000006810F4806FFAD02320214908604FF0A7
:1030B00001001B49C1F8A0004FF0AA001D4908609B
:1030C0004FF055001649C1F8AC0000BF1A4800681F
:1030D00010F4806FFAD040F201101849086040F2F5
:1030E00001200F49C1F808014FF0010014490860A0
:1030F0004FF00200134908601348144908604FF468
:1031000080701349086045F23A00054908604FF0A5
:103110000000104908607047A0C10F400CC10F406B
:1031200000C00F4080C00F408CC00F4088C00F40CF
:10313000A4C00F40ACC00F40A8C00F4004C10F4056
:1031400000C10F40A8C10F40DE872804C4C00F4053
:10315000C8C10F4008ED00E008B501461F2000EA95
:10316000E1208DF800003F2000EA61108DF8010099
:1031700001F01F008DF80200BDF8002010469DF8F8
:10318000022040EA024008BD00B503490968888969
:10319000FEF790F900BD00006800001003480449E4
:1031A000086004480449086070470000B89C00109B
:1031B00068000010D09C00106C0000102DE9FE4F3C
:1031C00004460F469046A8F1200522480068007981
:1031D000454320480068806805441E4909684978CD
:1031E000081DC11700EB51714FEAE10B00262CE0DE
:1031F000194800684078012808D117480068B0F8DD
:10320000109015480068B0F80EA007E0124800685A
:10321000B0F80E9010480068B0F80CA00E48006896
:10322000408A0C4ACDE9009A029012681178094A46
:103230001268127806FB02503B462246FDF7CAFC94
:1032400004F1080084B2701CC6B25E45D0DBBDE854
:10325000FE8F00006C000010680000102DE9FE4F8A
:1032600005460E4617469846DDF830A0012000902E
:10327000A81C85B2B81E87B2002002908346504633
:1032800000F08EF9044614F4004F06D0C4F30E0487
:103290007448006890F8029003E07248006890F863
:1032A00000900D98092872D2DFE800F0050C182074
:1032B0002E4150596700681C80B20290701C1FFAA2
:1032C00080FB64E0791B081B00EBD07105EB61010A
:1032D00089B20291701C1FFA80FB58E0381B401E17
:1032E00080B20290701C1FFA80FB50E0681C80B214
:1032F0000290A8EB0601A1EB090000EBD07106EBF0
:1033000061011FFA81FB42E0791B081B00EBD071C1
:1033100005EB610189B20291A8EB0601A1EB09005E
:1033200000EBD07106EB61011FFA81FB2FE0381B27
:10333000401E80B20290A8EB0601A1EB090000EB51
:10334000D07106EB61011FFA81FB20E0681C80B29E
:103350000290A8EB0B00401E1FFA80FB17E0791BC0
:10336000081B00EBD07105EB610189B20291A8EB5B
:103370000B00401E1FFA80FB09E0381B401E80B284
:103380000290A8EB0B00401E1FFA80FB00BF00BF9D
:1033900061E01AF8014B802C17DD4FF6FF7000EA50
:1033A00004249AF8000004430AF1010A2D48006839
:1033B000C078019022465946029800F07DF8DDE978
:1033C0000110084480B2029021E00A2C0FD102952E
:1033D0000BEB09001FFA80FB234800688588224810
:1033E0000068C088484420490968C8800FE00D2C57
:1033F0000DD01C480068407801902246594602983A
:10340000FFF7DCFEDDE90110084480B202909AF873
:103410000040802C07DD13480068C17802980844FA
:1034200080B2019006E00F48006841780298084495
:1034300080B201900198B8420DDD02950BEB0900B6
:103440001FFA80FBC34501DDBDE8FE8F0098401CDC
:10345000C0B2009000BF9AF80000002899DC00BFBD
:10346000F2E700006C000010680000102DE9F04148
:1034700006460F4614461D46DDF81880A01B82B292
:10348000434639463046FEF737F8A01B82B2434622
:1034900029463046FEF730F8E81B82B243463946EB
:1034A0003046FEF73CF8E81B82B2434639462046D8
:1034B000FEF735F8BDE8F0812DE9FE4705460F46D9
:1034C0009046404600F088F8064626480068C088C6
:1034D000464324480068C0680644224A1268D178EE
:1034E000CA1701EB5272D2101E4B1B68D878C31753
:1034F00000EB5373DB10B0EBC30301D0012300E0FA
:1035000000231A441FFA82F9002427E016480068B5
:103510004078012804D114480068B0F810A003E0F6
:1035200011480068B0F80EA00F480068418A0E48A4
:10353000006880890B4ACDE900A002911268917859
:10354000084A1268927804FB02603B462A46FDF75F
:1035500041FB05F1080085B2601C84B24C45D5DB07
:10356000BDE8FE876C000010680000102DE9F043F4
:1035700005460C4616461F46DDF81C80701B401C95
:103580001FFA80F907E02146621C94B243464A467E
:103590002846FDF7B1FFBC42F5DDBDE8F083000031
:1035A0000146002011E011F8013B802B08DD491C89
:1035B000084A1268D278024490B240F4004004E015
:1035C000044A12685278024490B20A78002AEADC6F
:1035D000704700006C00001010B50346002100BFCA
:1035E0001AE0114800680069425C4FF6FF7000EA7B
:1035F00002220D4800680469481C205C104482B215
:10360000934205D10C4601EBD470C0F34F0010BDBE
:10361000481C81B2481C81B203480068808A8842F5
:10362000DFDC0020F3E700006C00001010B5064C52
:103630002468E081044C2468A281034C2468218220
:10364000014C2468638210BD6800001010B5044668
:10365000124800680470072C1DD2DFE804F01C0437
:10366000080C101418000E4800F02CF813E00D4858
:1036700000F028F80FE00C4800F024F80BE00B48AD
:1036800000F020F807E00A4800F01CF803E00948C1
:1036900000F018F800BF00BF10BD00006800001067
:1036A0008455000098550000AC550000C05500003E
:1036B000D4550000E855000001490968887070473A
:1036C0006800001010B50446434800688461424811
:1036D0000068806940784049096808703E48006881
:1036E000806900783C49096848703B4800688069F7
:1036F00040783949096888703748006880690078DF
:103700004006000E34490968C870334A126851787F
:10371000CA1701EB5272D2102F4B1B685878C3178F
:1037200000EB5373DB10B0EBC30301D0012300E0C7
:1037300000231A44284B1B689B695B785A43264B2D
:103740001B681A71244A1268D178CA1701EB5272A9
:10375000D210214B1B68D878C31700EB5373DB10D2
:10376000B0EBC30301D0012300E000231A441A4B3D
:103770001B689B695B785A43174B1B68DA801648B5
:1037800000688069406814490968886012480068C8
:103790008069C06810490968C8600F48006880697E
:1037A00000690D49096808610B4909680869FDF756
:1037B00068FC094909688882074800688069806850
:1037C00040B10549096889698868FDF7DFFC02494D
:1037D0000968C88210BD00006C00001030B5039C61
:1037E000074D2D68A880064D2D68E980044D2D6891
:1037F0002A81034D2D686B81014D2D68AC8230BD4F
:10380000680000102DE9F04F0746884691469A4619
:10381000DDF824B0A9EB0706AAEB0805002E66DB4D
:10382000002D31DBAE4217DB304606EBD071A5EB45
:1038300061040EE05A4641463846FDF78DFE002CE5
:1038400004DD08F101001FFA80F8A41B781C87B280
:103850002C444F45EEDDB1E0284605EBD071A6EBD8
:1038600061040EE05A4641463846FDF775FE002CCD
:1038700002DD781C87B2641B08F101001FFA80F892
:103880003444D045EEDD99E06D42AE4217DB304660
:1038900006EBD071A5EB61040EE05A46414638466E
:1038A000FDF75AFE002C04DDA8F101001FFA80F894
:1038B000A41B781C87B22C444F45EEDD7EE02846E1
:1038C00005EBD071A6EB61040EE05A46414638463E
:1038D000FDF742FE002C02DD781C87B2641BA8F1C4
:1038E00001001FFA80F83444D045EEDA66E07642F3
:1038F000002D31DBAE4217DB304606EBD071A5EB75
:1039000061040EE05A4641463846FDF725FE002C7C
:1039100004DD08F101001FFA80F8A41B781E87B2AD
:103920002C444F45EEDA49E0284605EBD071A6EB72
:1039300061040EE05A4641463846FDF70DFE002C64
:1039400002DD781E87B2641B08F101001FFA80F8BF
:103950003444D045EEDD31E06D42AE4217DB3046F7
:1039600006EBD071A5EB61040EE05A46414638469D
:10397000FDF7F2FD002C04DDA8F101001FFA80F82C
:10398000A41B781E87B22C444F45EEDA16E0284679
:1039900005EBD071A6EB61040EE05A46414638466D
:1039A000FDF7DAFD002C02DD781E87B2641BA8F15A
:1039B00001001FFA80F83444D045EEDABDE8F08FFC
:1039C000FFF792F9FDF7BEFD4FF4FC60FDF770F9CB
:1039D00002E0642000F086FBFBE70121C803FCF74E
:1039E000DBFF012251050220FDF7EDFA00224FF422
:1039F00000110220FDF7D8FA10E000224FF4001168
:103A00000220FDF7D1FA642000F06CFB0122510581
:103A10000220FDF7C9FA642000F064FBEDE710B561
:103A2000044614B1204600F071F900F009F810BD09
:103A300010B50446032000F069F900F001F810BD4C
:103A400000B5FF2009490968087000F099F900786D
:103A500006490968498C054A1268D28B891A91FB7C
:103A6000F0F00249096881F8240000BD74000010DC
:103A700010B500210B48C1824FF4784101834FF407
:103A8000FC60084988821F21064841834FF6FF7178
:103A90008183042181770621C177002000F004F89A
:103AA00010BD0000EC9C001010B5044640200349F6
:103AB000088014B1204600F029F910BDEC9C0010DC
:103AC00010B50446402003490880032000F01EF989
:103AD00010BD0000EC9C001010B50446044884772B
:103AE0000146887FFFF7B2FDFFF7AAFF10BD000077
:103AF000EC9C001010B50446064880F820400146B2
:103B000091F82000FFF7A2FD4FF47A7102A0FEF7B2
:103B100089FE10BDEC9C001053616D706C65000057
:103B200000B503460248C377FFF78AFF00BD0000D7
:103B3000EC9C001010B502A0FEF76CFF10BD000059
:103B40004265696E672052657365740010B504465E
:103B5000642004FB00F102A0FEF764FE10BD00002B
:103B600048656C6C6F21000010B50A2408A0FEF7B0
:103B700059FA062405E04FF4967000F0B3FA601E7F
:103B8000C4B2002CF7D10120FEF760FA10BD00008E
:103B900041626F757420544F5300000010B508A0A7
:103BA000FEF784FF28B14FF47A7107A0FEF73AFEC2
:103BB00004E04FF47A7107A0FEF734FE10BD000058
:103BC000537572653F00000043686F6F736520593D
:103BD0006573000043686F6F7365204E6F000000CF
:103BE00070B505462B4800F0D7F8C4B235B1012DA9
:103BF0001CD0022D1BD0032D49D130E0FF2C05D164
:103C00004FF47A7124A0FEF70DFE70BD204600F03F
:103C100095FA28B14FF47A7123A0FEF703FE04E071
:103C20004FF47A7124A0FEF7FDFD30E02FE0FF2C69
:103C300005D14FF47A7118A0FEF7F4FDE5E72046B0
:103C400000F060FC28B14FF47A711FA0FEF7EAFD86
:103C500004E04FF47A7121A0FEF7E4FD17E0FF2C99
:103C600005D14FF47A710CA0FEF7DCFDCDE72046BC
:103C700000F078FB28B14FF47A711CA0FEF7D2FD5A
:103C800004E04FF47A711DA0FEF7CCFD00BF00BF29
:103C900000BFBAE7F09C00104E6F2046696E6420AA
:103CA0005461736B0000000044656C6574652053BB
:103CB000756363656564210044656C6574652046C1
:103CC00061696C210000000053757370656E64209B
:103CD000537563636565642100000000537573705C
:103CE000656E64204661696C210000005265737541
:103CF0006D65205375636365656421005265737556
:103D00006D65204661696C210000000010B5044615
:103D1000214602A0FEF7A6FA10BD000057616974A3
:103D2000696E670010B510480078132804D00F485A
:103D30000078401C0D4908700D480078401C0C4963
:103D400008700846007864280DDD002008701423F0
:103D5000084A064801780848FCF77EFF07490870C2
:103D600000200249087010BD2C000010180000103F
:103D700010000010110000101400001024000010AA
:103D800001480068704700006C000010014800689E
:103D9000704700006800001070B50546002413E06D
:103DA00004EB4400094A126802EB0010C16A28467D
:103DB000FCF72AFE08B1204670BD601C80B20446A4
:103DC000142801DBFF20F7E7EAE7000034000010C9
:103DD00010B54FF47070FEF75DFB1E4908600220BD
:103DE0001D49487000204860002428E0012004EBB1
:103DF0004401184A126802EB01110881002004EB0B
:103E00004401144A126802EB01118861002104EB9D
:103E10004400104A126802EB00100160002004EB1D
:103E200044010C4A126802EB0111C86104EB440121
:103E3000084A126802EB01110884601CC4B2142CF9
:103E4000D4DB1320054908700020054908600549A6
:103E5000086010BD34000010240000102C00001079
:103E6000380000103C00001070B50446FFF7B0FFAA
:103E700004E094E80F0000F0D3F810342068002824
:103E8000F7D100F025F870BD04E0642000F02AF9B5
:103E900000F002F8F9E7000010B50C48046804B916
:103EA00010BD0EE02468A07A10F0010F09D0A07AAE
:103EB00010F0020F05D0E0688047A07A20F00200E1
:103EC000A07220680028EDD100BFE9E73C00001097
:103ED00008B5FFF7BCF84FF4FA6005A300220749C4
:103EE0000090132000F034F8132000F0D3FA08BD3E
:103EF0005461736B526F6F7400000000893E0000C4
:103F000010B5FFF70FFF00F0CDF9084840784028C2
:103F100005D1032106A0FCF795FDFDF729FB0B4811
:103F2000006808B100F086FB10BD000024000010FE
:103F30005461736B2054696D654F75742057696CBB
:103F40006C20544F53205265736574003C00001080
:103F50002DE9F04704460D4691461F46DDF82080C6
:103F60000DB9BDE8F08704EB44002C49096801EB6A
:103F700000100089012800D0F3E704EB4400274932
:103F8000096801EB0010008C98B91FFA88F0FEF761
:103F900081FA064604EB4401204A126802EB011143
:103FA000A1F8208004EB44011C4A126802EB0111C5
:103FB000CE6104EB4402194B1B6803EB0212118C17
:103FC00004EB4402154B1B6803EB0212D06900F0AE
:103FD00027FB8246022104EB4400104A126802EBE0
:103FE0000010018104EB44000C49096801EB00104A
:103FF000456004EB44000949096801EB0010C76201
:104000004A462946504600F00DFA04EB4401034AA3
:10401000126802EB0111086000BFA2E73400001033
:104020002DE9F84305460E461746984600241AE047
:1040300004EB44001249096801EB0010008900B943
:1040400012E004EB44000E49096801EB00100089FE
:10405000012800D108E0601C80B20446142802DB6D
:104060000020BDE8F883E3E700BFE0B23B463246FC
:104070002946CDF80080FFF76BFF0120F1E7000033
:104080003400001010B5154A127802EB4202144BAE
:104090001B6803EB02129062104A127802EB420294
:1040A0000F4B1B6803EB021282F8231000220B4B0C
:1040B0001B7803EB43030A4C246804EB031383F8D7
:1040C00024200023054A127802EB4202044C2468A3
:1040D00004EB021282F8253010BD00002C00001005
:1040E0003400001010B504461148407801281ED055
:1040F00000201049097801EB41010F4A126802EBD8
:10410000011188610B48007800EB40000A490968FA
:1041100001EB0010446110210648007800EB4000DC
:10412000054A126802EB0010018100F029FA10BD67
:10413000240000102C0000103400001010B50446BC
:10414000142C01DB002010BD04EB44001E4909685B
:1041500001EB00100089012801D10020F3E70020C5
:1041600004EB4401184A126802EB0111C8620021F5
:1041700004EB4400144A126802EB00108161002035
:1041800004EB4401104A126802EB0111486101205E
:1041900004EB44010C4A126802EB0111088104EBA4
:1041A0004401094A126802EB0111C869FEF74CF993
:1041B000002104EB4400044A126802EB0010018461
:1041C00000F0DEF90120BEE73400001070B5184899
:1041D000007800EB40001749096801EB0014A06A61
:1041E00008B9002070BD94F8250018B9104800786F
:1041F00000F062F994F8250008B90020F2E704F114
:104200002304D4F80500617800EBC105607800F163
:104210000100217890FBF1F201FB12006070A078A0
:10422000A0F10100A070A4F123042846DAE7000001
:104230002C0000103400001070B5064617480078B6
:1042400000EB40001649096801EB0014A06A08B9A8
:10425000002070BD94F8250010B93046FFF742FFEA
:1042600094F8250008B90020F3E704F12304D4F8FA
:104270000500617800EBC105607800F1010021784C
:1042800090FBF1F201FB12006070A078A0F1010038
:10429000A070A4F123042846DBE700002C000010E6
:1042A00034000010002056E000EB40012B4A126859
:1042B00002EB01110989022902D0102947D11DE022
:1042C00000EB4001254A126802EB01118969491C83
:1042D00000EB4002214B1B6803EB0212916100EBE3
:1042E00040011E4A126802EB0111896944F62062FE
:1042F000914202D940211A4A517029E0002100EB75
:104300004002164B1B6803EB0212916100EB400167
:10431000124A126802EB0111496941B9022100EB0E
:1043200040020E4B1B6803EB021211810EE000EB02
:1043300040010A4A126802EB01114969491E00EB6B
:104340004002064B1B6803EB0212516100E000BF04
:1043500000BF411CC8B21428A6DB7047340000100F
:104360002400001010B50446142C01DB002010BD01
:1043700004EB44001549096801EB0010008901288D
:1043800001D10020F3E704EB44001049096801EB78
:1043900000100089102801D10020E8E704EB440058
:1043A0000A49096801EB00100089022801D10020A8
:1043B000DDE7022004EB4401044A126802EB01111C
:1043C000088100F0DDF80120D1E700003400001082
:1043D00010B504460F480078A04200D110BD0D482A
:1043E000007800EB40000C49096801EB00100B4914
:1043F000086008480470007800EB4000064909682E
:1044000001EB0010006806490860FCF77DFA00BF68
:10441000E4E700002C000010340000102000001021
:104420001C00001030B503461846041F20462160CA
:10443000041F204623600025041F20462560041F1A
:1044400020462560041F20462560041F2046256065
:10445000041F20462560041F20462560041F2046B7
:104460002560041F20462560041F20462560041F88
:1044700020462560041F20462560041F2046256035
:10448000041F204622604FF08075041F20462560DF
:1044900030BD000010B5044604EB4400044909682F
:1044A00001EB0010006803490860FCF746FA10BDF4
:1044B000340000101C00001010B50446142C00DB62
:1044C00010BD04EB44000E49096801EB001000899F
:1044D000012800D1F4E7042004EB4401084A1268E3
:1044E00002EB01110881002104EB4400044A126828
:1044F00002EB0010416100F043F800BFE0E700006C
:104500003400001010B50446142C01DB002010BD4F
:1045100004EB44001949096801EB001000890128E7
:1045200001D10020F3E704EB44001449096801EBD2
:1045300000100089042801D10020E8E704EB4400C2
:104540000E49096801EB00100089082801D10020FC
:10455000DDE7082004EB4401084A126802EB011170
:104560000881002004EB4401044A126802EB0111A7
:10457000486100F005F80120C9E700003400001090
:1045800010B5022123480068A0F8981300243DE0EC
:1045900004EB44001F49096801EB00100089022860
:1045A00002D020282ED107E01B480078A04202D07C
:1045B0002046FFF70DFF10BD04EB440015490968C4
:1045C00001EB001090F822001449096801EB40103B
:1045D000007A012815D1102004EB44010D4A12681D
:1045E00002EB01110881032004EB4401094A12681F
:1045F00002EB011191F82210084A126802EB4111F6
:10460000087200E000BF00BF601CC4B2142CBFDB06
:1046100000BFD0E7340000102C000010480000104C
:104620000246501820F00303A3F1300020F00700E9
:104630007047000010B51348006800B910BD11485C
:104640000068E0B10F480068807A10F0010F16D0C2
:104650000C48006800890B4909688988884207DB93
:1046600008490968C8688047002006490968088128
:10467000044800680089401C02490968088100BF9D
:10468000DCE700003C00001037B514460846064B36
:104690006A46214600F0C8F804466946002000F04A
:1046A00066FC20463EBD00006F4F000002E008C8D7
:1046B000121F08C1002AFAD170477047002001E09C
:1046C00001C1121F002AFBD1704700002DE9FF5FD6
:1046D000DDE90220010DDDF838B0024310D10F985A
:1046E00001244CA2012808D0002100980F9BC0E9AA
:1046F0000021C0E90243BDE8FF9F6FEA0B01F4E728
:10470000A1F2FF3144F6105041430D140F980128D7
:104710000ED0A5EB0B00401C4FF000043E4EDFF81E
:10472000FC90B0F1000AA04605DACAF1000717E0D4
:10473000CBF10000F0E7074612E0F80707D0224669
:10474000334640464946FBF782FE8046894622466C
:10475000334610461946FBF77AFE04460E467F1094
:10476000002FEAD1DDE90201BAF1000F42464B46C3
:1047700002DAFBF76CFE01E0FBF7DBFE04460E46B7
:104780000022274BFCF79AF803D84FF0FF30014680
:1047900007E00022234B20463146FBF7B1FDFCF732
:1047A00075F8102409E0002C0ADB0A220023FBF72D
:1047B000B5FC019B30321A55641E50EA0102F2D159
:1047C000641C019AC4F1110314440F9A012A09D000
:1047D0000122084301D15B450FDD4FF0000205F1D6
:1047E00001050DE0084303D1A3EB0B056D1E09E0A5
:1047F00000204FF0110B0F9088E701DA00226D1EA8
:10480000002A83D000980F99C0E90231C0E9004521
:1048100071E7000030000000000024400000F03F7D
:104820000000F0430000E03F2DE9FF4F95B09B46AC
:1048300089460646002512E2252878D10024761CF8
:10484000F94A2746012105943378203B01FA03F009
:10485000104202D00443761CF6E730782A2811D0A3
:104860006FF02F033078A0F13002092A16D8059A8C
:1048700044F0020402EB820203EB42021044761C75
:104880000590EFE759F8042B0592002A03DA50420D
:1048900044F40054059044F00204761C30782E282D
:1048A00016D116F8010F44F004042A280DD06FF039
:1048B0002F023078A0F13003092B09D807EB8703CA
:1048C00002EB4303C718761CF3E759F8047B761C08
:1048D00030786C280FD006DC4C2817D068280DD013
:1048E0006A2814D104E0742810D07A280FD10DE082
:1048F00044F400140AE044F4801401E044F4401449
:104900007278824202D1761C04F58014761C3078CD
:1049100066280BD013DC582877D009DC002875D026
:104920004528F6D04628F4D047281AD19FE118E050
:10493000632835D0642879D0652812D197E1702892
:1049400073D008DC6728F1D069286FD06E280DD0AD
:104950006F2806D1B5E073282CD0752875D078283B
:1049600074D05A46179990476D1C76E1C4F30250F3
:10497000022809D003280DD0D9F8001004280DD042
:104980000D6009F1040968E1D9F80010EA17C1E9DE
:104990000052F6E7D9F800100D80F2E70D70F0E74D
:1049A00019F8041B8DF8001000208DF80100EA466C
:1049B000012003E059F804AB4FF0FF3061074FF0DE
:1049C000000102D40DE008F101018846B9420FDA76
:1049D0008045F8DB1AF808100029F4D108E008F146
:1049E000010188468142FADB1AF808100029F6D145
:1049F00005985B46A0EB080721463846179A00F059
:104A00009EFA284400EB080507E04DE02BE10DE09D
:104A10001AF8010B5A4617999047B8F10108F7D2D6
:104A20005B4621463846179A14E142E00A2200927A
:104A3000C4F302524FF0000A022A08D059F804CBFE
:104A4000032A4FEAEC710AD00DE029E02AE009F1CF
:104A5000070121F00702F2E802C1914609E00FFACE
:104A60008CFC4FEAEC71042A03D14FFA8CFC4FEA1C
:104A7000EC71002907DA0A460021DCF1000C61EB39
:104A800002012D2202E0220504D52B228DF80420FC
:104A9000012203E0E20701D02022F7E7904653E02D
:104AA0000A2102E010220DE010214FF0000A0091CF
:104AB0000BE010224FF0000A44F004040827009293
:104AC00003E008224FF0000A0092C4F30252022AC7
:104AD00005D059F804CB0021032A08D009E009F1D8
:104AE000070121F00702F2E802C1914605E01FFA32
:104AF0008CFC042A01D10CF0FF0C4FF000082207B7
:104B000022D5702827D0009B83F0100353EA0A03B4
:104B100009D15CEA010206D030228DF804208DF81C
:104B2000050002229046009B83F0080353EA0A0323
:104B30000AD15CEA010201D1620705D530228DF865
:104B400004204FF001087F1E582809D037A0039099
:104B50000EA8029013E040228DF804200122E1E724
:104B600037A0F4E753466046009AFBF7D7FA84462D
:104B70000398825C0298A0F10100029002705CEA46
:104B80000100EFD1029806A9A1EB000000F1200A74
:104B9000600702D524F4803400E00127574502DD88
:104BA000A7EB0A0000E0002000EB0A010090059846
:104BB0004144A0EB01000590E00306D45B4621468A
:104BC000179A059800F0BBF90544002706E001A8F4
:104BD0005A46C05D179990476D1C7F1C4745F6DB10
:104BE000E0030CD55B462146179A059800F0A7F91B
:104BF000054404E030205A46179990476D1C0099EF
:104C0000481E00900029F5DC08E0029802995A46F7
:104C10000078491C0291179990476D1CBAF1000168
:104C2000AAF1010AF1DC6BE10928010030313233CD
:104C300034353637383961626364656600000000D8
:104C400030313233343536373839414243444546C2
:104C50000000000000F060F9054406F1010630781C
:104C600000287FF4E9AD19B02846BDE8F08F62074F
:104C700000D4062709F1070222F0070CFCE8022302
:104C8000E14603F000485FEA080C02D00FF27C2CEA
:104C90000DE05FEA045C02D50FF2742C07E05FEAD6
:104CA000C47C02D00FF26C2C01E0AFF2700C4FF01C
:104CB000FF3823F00043CDF850C065280CD006DC47
:104CC000452809D046281DD047283ED13EE0662819
:104CD00018D0672839D139E00021112F01DB1120CC
:104CE00000E0781CCDE9000106A90EA8FFF7EEFC54
:104CF000DDE90F010E9A03910021009207F1010AEC
:104D000004914EE04FF000400097CDE9011006A954
:104D10000EA8FFF7DBFCDDE90F0203920E9B119951
:104D20000022DDF80CA00093049219B907F10101EB
:104D300000EB010AB7EB0A0004D4C0F1FF3007F121
:104D4000010A0490AAEB0700019046E0012F00DA67
:104D500001270021112F01DD112000E03846CDE9A7
:104D6000000106A90EA8FFF7B1FCDDE90F010E9ABC
:104D70000391002104910092BA4621070CD40399B3
:104D8000514500DA8A46BAF1010F05DD009AAAF111
:104D90000101515C302908D0B84202DA10F1040F49
:104DA00006DA0121CDE9011017E0AAF10101E9E7D6
:104DB000002805DC049901440491AAEB000102E0FB
:104DC000411C514500DD8A460499A0EB010000F129
:104DD000010001904FF000400290200704D4019898
:104DE000504501DBCDF8048000208DF84F0002987B
:104DF0000DF14F07B0F1004F25D02B200E900298F7
:104E00004FF0020800280CDA404202902D200E904C
:104E100007E00A210298FBF75DFC3031029007F8A9
:104E2000011DB8F10001A8F10108F2DC0298002888
:104E3000EFD1791E0E980870307800F0200040F015
:104E4000450007F8020D12A8A0EB070000F10708C3
:104E50001498007800B1012000EB0A01019801EBE1
:104E6000E07105984144A0EB0100A0F1010005901C
:104E7000E00306D45B462146179A059800F05FF8D8
:104E800005441498007820B15A461799904705F1C7
:104E90000105E00323D55B462146179A059800F0EB
:104EA0004EF805441BE00498002807DBDDE9030108
:104EB000884203DD0098405C179901E01799302083
:104EC0005A46904704986D1C401C04900198401E5F
:104ED000019004D12E205A46179990476D1CBAF1C3
:104EE0000001AAF1010ADEDC05E017F8010B5A46C1
:104EF000179990476D1CB8F10001A8F10108F4DC86
:104F00005B462146179A0598A4E600002D00000094
:104F10002B000000200000002DE9F0410446002590
:104F20001E461746880405D406E039462020B047BF
:104F300005F10105641EF8D52846BDE8F0812DE98C
:104F4000F041044600251E469046C80301D530278F
:104F500000E02027880405D506E041463846B047E2
:104F600005F10105641EF8D52846BDE8F0810A6800
:104F7000531C0B60107070470448FDF77DFAFBF777
:104F8000F7FD0348FEF770FF00BFFEE77800001052
:104F9000F0590100000000000000000000000000C7
:104FA00000000000000000183C3C3C1818001818D5
:104FB00000000000000000666666000000000000BF
:104FC0000000000000000036367F3636367F363669
:104FD000000000000018183C666030180C06663CA3
:104FE00018180000000070D8DA760C18306E5B1BC1
:104FF0000E000000000000386C6C38606F66663B85
:105000000000000000000018181800000000000058
:10501000000000000000000C18183030303030184C
:10502000180C00000000003018180C0C0C0C0C18A8
:10503000183000000000000000361C7F1C36000005
:1050400000000000000000000018187E1818000082
:1050500000000000000000000000000000001C1C18
:105060000C180000000000000000007E000000009E
:1050700000000000000000000000000000001C1CF8
:105080000000000000000006060C0C18183030600C
:10509000600000000000001E333737333B3B331EF7
:1050A000000000000000000C1C7C0C0C0C0C0C0C14
:1050B000000000000000003C6666060C1830607EB0
:1050C000000000000000003C6666061C0666663CA8
:1050D000000000000000003030363636667F0606DD
:1050E000000000000000007E6060607C06060C7816
:1050F000000000000000001C18307C666666663CFC
:10510000000000000000007E060C0C181830303043
:10511000000000000000003C6666763C6E66663C5F
:10512000000000000000003C666666663E0C183811
:105130000000000000000000001C1C0000001C1CFF
:105140000000000000000000001C1C0000001C1CEF
:105150000C180000000000060C18306030180C0617
:10516000000000000000000000007E007E00000043
:10517000000000000000006030180C060C183060C1
:10518000000000000000003C66660C1818001818AB
:10519000000000000000007EC3C3CFDBDBCFC07F78
:1051A00000000000000000183C6666667E666666C9
:1051B000000000000000007C6666667C6666667C17
:1051C000000000000000003C666660606066663CAF
:1051D00000000000000000786C66666666666C7809
:1051E000000000000000007E6060607C6060607E07
:1051F000000000000000007E6060607C6060606015
:10520000000000000000003C666660606E66663E5E
:1052100000000000000000666666667E66666666E0
:10522000000000000000003C181818181818183C5E
:105230000000000000000006060606060666663C42
:105240000000000000000066666C6C786C6C66669E
:105250000000000000000060606060606060607ED0
:10526000000000000000006363776B6B6B63636397
:10527000000000000000006363737B6F676363637B
:10528000000000000000003C666666666666663CDC
:10529000000000000000007C6666667C6060606064
:1052A000000000000000003C666666666666663CBC
:1052B0000C0600000000007C6666667C6C66666614
:1052C000000000000000003C666030180C06663CE0
:1052D000000000000000007E181818181818181890
:1052E0000000000000000066666666666666663C52
:1052F00000000000000000666666666666663C1890
:10530000000000000000006363636B6B6B36363691
:105310000000000000000066663418182C666666FF
:1053200000000000000000666666663C1818181849
:10533000000000000000007E06060C183060607E51
:10534000000000000000003C3030303030303030A1
:1053500030303C000000006060303018180C0C0643
:10536000060000000000003C0C0C0C0C0C0C0C0C9B
:105370000C0C3C0000183C6600000000000000001F
:10538000000000000000000000000000000000001D
:105390000000FF00000000181818000000000000C6
:1053A0000000000000000000003C06063E66663E6D
:1053B0000000000000000060607C66666666667C37
:1053C0000000000000000000003C66606060663C79
:1053D0000000000000000006063E66666666663E47
:1053E0000000000000000000003C66667E60603C3B
:1053F000000000000000001E3030307E30303030C1
:105400000000000000000000003E66666666663E22
:1054100006067C0000000060607C66666666666664
:105420000000000000001818007818181818187EDE
:105430000000000000000C0C003C0C0C0C0C0C0CD0
:105440000C0C7800000000606066666C786C666624
:105450000000000000000078181818181818187EAE
:105460000000000000000000007E6B6B6B6B6B6344
:105470000000000000000000007C6666666666664C
:105480000000000000000000003C66666666663CA6
:105490000000000000000000007C66666666667C16
:1054A0006060600000000000003E66666666663E62
:1054B000060606000000000000666E706060606016
:1054C0000000000000000000003E60603C06067C1A
:1054D0000000000000000030307E30303030301EE0
:1054E0000000000000000000006666666666663E1A
:1054F00000000000000000000066666666663C185A
:10550000000000000000000000636B6B6B6B363620
:1055100000000000000000000066663C183C666663
:105520000000000000000000006666666666663CDB
:105530000C18F00000000000007E060C1830607EA1
:10554000000000000000000C181818306030181817
:10555000180C00000000001818181818181818184F
:1055600018181800000000301818180C060C18182D
:105570001830000000000071DB8E00000000000009
:1055800000000000060C0000FC55000000000000B8
:105590007F5A0000705A000008100000275B0000CE
:1055A00000000000206100001761000008180000E2
:1055B000A061000000000000916A0000886A0000FD
:1055C0000C180000516B0000000000002A7D000054
:1055D000217D0000102000004A7E00000000000035
:1055E000139600000A96000018300000139800007F
:1055F000000000008CCD000083CD00000000000002
:105600000000000000000000000004040404040086
:105610000004000014140A00000000000000000054
:1056200000000A0A1F0A0A1F0A0A000000040E15D9
:1056300005060C14150E0400000012150D152E2C75
:105640002A1200000000040A0A3615152916000067
:105650000202010000000000000000001008080421
:1056600004040404080810000204040808080808D8
:105670000404020000000004150E0E1504000000D2
:1056800000000008083E08080000000000000000BC
:10569000000000000202010000000000003F0000C6
:1056A00000000000000000000000000000020000F8
:1056B00000201010080804040202010000000E116E
:1056C00011111111110E000000000406040404045D
:1056D000040E000000000E1111080402011F00005A
:1056E00000000E11100C1010110E00000000080C2C
:1056F0000C0A091F081C000000001F01010F1110F7
:10570000110E000000000C12010D1311110E00000B
:1057100000001E10080804040404000000000E111C
:10572000110E1111110E000000000E1111191610AA
:105730000906000000000000040000000004000052
:105740000000000000040000000404000000100835
:105750000402020408100000000000003F003F00A7
:1057600000000000000002040810100804020000FD
:1057700000000E11110804040004000000001C22A7
:10578000292D2D1D221C0000000004040C0A0A1EF5
:105790001233000000000F12120E1212120F00003E
:1057A00000001E1101010101110E000000000F1286
:1057B00012121212120F000000001F120A0E0A022B
:1057C000121F000000001F120A0E0A02020700004A
:1057D00000001C1201013911120C000000003312EC
:1057E000121E12121233000000001F0404040404ED
:1057F000041F000000003E08080808080808090700
:10580000000037120A060A121237000000000702D1
:1058100002020202223F000000003B1B1B1B151569
:105820001535000000003B1216161A1A1217000058
:1058300000000E1111111111110E000000000F12C5
:10584000120E02020207000000000E1111111117C2
:10585000190E180000000F12120E0A121237000063
:1058600000001E1101060810110F000000001F1596
:1058700004040404040E0000000033121212121279
:10588000120C000000003312120A0A0C040400007B
:105890000000151515150E0A0A0A000000001B0A63
:1058A0000A04040A0A1B000000001B0A0A0A040476
:1058B000040E000000001F0908040402121F00006B
:1058C0001C0404040404040404041C000002020474
:1058D00004040808081010000E0808080808080842
:1058E00008080E00040A000000000000000000008C
:1058F00000000000000000000000003F0204000063
:10590000000000000000000000000000000C121C5D
:10591000123C000000030202020E1212120E0000DE
:1059200000000000001C1202120C000000181010F1
:10593000101C1212123C000000000000000C121E8D
:10594000021C000000182404041E0404041E0000AD
:1059500000000000003C120C021C221C000302028A
:10596000020E1212123700000004040000060404A4
:10597000040E000000080800000C080808080807CA
:1059800000030202021A0A060A13000000070404B8
:1059900004040404041F000000000000000F15159B
:1059A0001515000000000000000F12121237000051
:1059B00000000000000C1212120C00000000000099
:1059C000000F1212120E020700000000001C12123B
:1059D000121C103800000000001B06020207000025
:1059E00000000000001E020C101E00000000000459
:1059F000041E0404041C000000000000001B12121E
:105A0000123C000000000000001B0A0A0404000011
:105A1000000000000015150E0A0A0000000000003A
:105A2000001B0A040A1B00000000000000331212D1
:105A30000C08040300000000001E0804041E0000FF
:105A400018080808080C08080808180008080808BA
:105A500008080808080808080604040404080404E0
:105A60000404060016090000000000000000000009
:105A7000B2E2CAD4D7D6CCE5CDAFBEAAD3EE0000F1
:105A80007D465454555654541229440404050505C2
:105A9000050505050404060102F000037222222216
:105AA000623602050107010101010101050604102A
:105AB00020FF0100FC8040FF202038000007040088
:105AC00001000007000000444442FA43E2524A4603
:105AD000F242420000000300000102040100002025
