:020000040000FA
:10000000A8AC0010F900000001010000030100008D
:1000100005010000070100000901000000000000C8
:100020000000000000000000000000000B010000C4
:100030000D010000000000000F010000C92F0100A9
:1000400013010000130100006539010013010000D5
:1000500013010000414A01001301000013010000D8
:100060001301000013010000130100001301000040
:100070001301000000000000130100001301000044
:100080001301000013010000130100001301000020
:100090001301000013010000130100001301000010
:1000A0001301000013010000130100001301000000
:1000B00013010000130100001301000013010000F0
:1000C00013010000130100001301000013010000E0
:1000D00013010000130100001301000013010000D0
:1000E00013010000DFF80CD00FF0A4FB004800471C
:1000F000F95D0100A8AC001006488047064800479B
:10010000FEE7FEE7FEE7FEE7FEE7FEE7FEE7FEE7C7
:10011000FEE7FEE7FD2F0100E50000002649C0F3E1
:100120000742525CC0F30723DFF890C013F80C308D
:1001300002EB4312C0B2405C02EBC02070474FF6A6
:10014000FF707047F0B41D4C1B4D50F8046BC6F3A4
:1001500007477F5DC6F3072C1CF804C007EB4C175C
:10016000F6B2765D07EBC6260E805918521EECD10A
:10017000F0BC7047F0B4541E03FB040001EB820195
:10018000091F5B420E4C0F4D0688F7127F5D4FEA48
:10019000661C0CF03F0C1CF804C007EB0C2706F0A3
:1001A0001F06765D07EB064641F804691818521ED3
:1001B000EAD1F0BC70470000F8720200F873020048
:1001C00018750200F874020010B500240648006893
:1001D000010002D0804700B1012403F00CFD00B102
:1001E0000124204610BD000058A1001010B50024C5
:1001F00000E00124FFF7E8FF0028FAD1204610BDF7
:1002000010B5044604F080FA204604F09CFF06E096
:1002100010B5044604F078FA204604F098FFBDE8D3
:10022000104004F069BA30B585B0044610461D464A
:10023000A2690492B4F908200392628A0292002211
:1002400001920091B4F91030B4F90E20B4F90C10F9
:100250006918B4F90A50401906F01BFB054661689D
:1002600006F070FB284605B030BD30B587B01446A7
:100270001D460A9A83690693059242680492B0F972
:1002800008200392428A0292002201920091B0F962
:100290001030B0F90E20B0F90C106918B0F90A004E
:1002A000201802F057FB07B030BD30B585B01446BA
:1002B0001D4682690492B0F908200392428A029294
:1002C000002201920091B0F91030B0F90E20B0F97F
:1002D0000C106918B0F90A00201806F0F4FD05B0FA
:1002E00030BD00000248407C024951F820007047B0
:1002F00078A0001090A10010FEE77047FFFFFFFFFD
:1003000070B5044660680F26DFF8B05705F1780233
:10031000D36B984203D2761E083A002EF8D529688E
:1003200081423CBF0FF2A070FFF7E6FF28686168CA
:10033000401A286005EBC600403004F108010A6845
:10034000496802B1516009B10A6070BD026070BDB8
:10035000F8B505460E46AA19DFF86047606BA1683C
:100360000818401E904206D3106820B950684519FD
:100370001046FFF7C5FF606BB0420AD256F8040C76
:10038000371A386828B9786845193846FFF7B8FF32
:100390003E460F2004F17801CA6B954203D2401EFD
:1003A00008390028F8D504EBC000016C0022326047
:1003B0007560B1603661A91941F8045C06F1080165
:1003C00050F8402F02B151600A6000224A6001607B
:1003D0002068281820602846F2BD2DE9FD4C82B027
:1003E000DFF8D846656BA0684019401E01906E6822
:1003F0001EB90FF23070FFF77FFF2868002839D14F
:1004000070190199884235D200908346DBF804A028
:10041000DBF8000020B90FF26470FFF76DFF29E0F0
:10042000216B11F83010012924D1A16A88420CBF38
:10043000012700272846FFF763FFDBF80000216B48
:1004400001EBC00045605246009928460EF0F2FDCF
:1004500027B1206B0099401A281820630AEB050188
:100460003046FFF775FF029919B1884201D3002089
:1004700005E05646751901988542B8D3012005B0AC
:10048000BDE8F08CF0B58A080023FF24054600265D
:1004900062B11F46B7FBF4FCCCEB0C2CA7EB0C0CA9
:1004A00045F804CB761C7F1C9642F3D30646002504
:1004B0001F4601E06D1C7F1C95420BD256F804CB01
:1004C000B7FBF4FECEEB0E2EA7EB0E0EF445F1D0EB
:1004D0000320F0BD5B1C022BD8D34A08002305463D
:1004E000002662B11F46B7FBF4FCCCEB0C2CA7EB4B
:1004F0000C0C25F802CB761C7F1C9642F3D30646E3
:1005000000251F4601E06D1C7F1C95420DD236F878
:1005100002CBB7FBF4FECEEB0E2EA7EB0E0E1FFAAE
:100520008EFEF445EFD00220F0BD5B1C022BD6D32B
:1005300000230246002559B11E46B6FBF4F7C7EB6F
:100540000727F71B02F8017B6D1C761C8D42F4D344
:10055000024600251E4601E06D1C761C8D420AD223
:1005600012F8017BB6FBF4FCB4445FFA8CFC6745DF
:10057000F2D00120F0BD5B1C022BDAD309B10EF0E2
:1005800080FD0020F0BD10B5DFF83045002084F874
:1005900024008022002104F13C0004F073FABC2204
:1005A0000021204604F06EFADFF814450C220021E9
:1005B000204604F067FA2020A06010BD2DE9F0412C
:1005C000DFF8F844A06A40B9DFF8F40441688068B5
:1005D0000830B1FBF0F0851C05E0E0680A21B0FBB3
:1005E000F1F10818451CE80000F08FF85FEA0008F8
:1005F0002BD0216B01EBC800406800F10806A76A08
:10060000E068C20030460EF015FD2663C4F828806D
:10061000E068691E884207D206EBC002121D401C2A
:1006200042F8080B8842FAD306EBC0000021416073
:10063000E068206260682818E168401A6060E56040
:1006400017B1384600F0F4F9E4E00120BDE8F0818C
:1006500070B5DFF8684494F82400002854D10120D4
:1006600084F82400DFF858546968B1F5205F88BF2A
:100670004FF420512868FFF705FF18B10FF25450CE
:10068000FFF73AFE286818B90FF28450FFF734FEDE
:10069000DFF83004E86005F10C0000F0DEFB201DFF
:1006A0005A21816100212246102303FA01F6D66304
:1006B000491C08321029F8D329686A685218143A7C
:1006C0000223836004F12406F2606A6842603161AB
:1006D0000021002204E0491CF368D3185960083255
:1006E00083685B1E9942F6D30121C1616360316961
:1006F0004068FFF72DFEFFF761FF18B10FF2605061
:10070000FFF7FAFD0120B06070BD2DE9F04105460C
:10071000FFF79EFFDFF8A443E06B854202D3E81C9D
:100720008008800000F10C052068A84218D3E06A18
:100730006168884207D3401EE062FFF73FFFE16A2D
:10074000491CE16260B96068401E6060266A206BE7
:1007500000EBC60149682162012100F8361006B994
:1007600058E00F2104F17802D36B9D4203D2491E59
:10077000083A0029F8D5102917D204EBC102C1F1BB
:100780001001136C63B19F687B68AB420CD2BB68ED
:1007900033B19F687B68AB4206D2002FF7D100E0EF
:1007A00000270832491EECD19FB905F10C00FFF774
:1007B00014FE0028D5D06068401C6060206B00EB00
:1007C000C600216A4160206B002100F836102662C5
:1007D00020E0D7F80480A8EB0500E16B0C318842DB
:1007E00038BF45463846FFF78BFD206B00EBC6004F
:1007F00047603E607D600020B8603F61E91941F8C4
:10080000045C4545BCBFA8EB0500FFF7A1FD3046E1
:10081000BDE8F0810020BDE8F08150F8080C704779
:1008200028B1A6498A6B026002B1506088637047A4
:100830002DE9F8430446FFF70BFFE01C8008800019
:10084000061D9E4CE06B864238BF0646A56B00E055
:100850002D6895B155F8040CB042F9D16DB12868F6
:1008600008B169684160686808B129680160A06BD7
:10087000A84235D12868A06332E0606BA16801EB23
:100880000008A8F10409D9F80000A8EB00073968AE
:1008900069B1796881421CBF0FF22040FFF72CFD3F
:1008A0000020FFF79AFDD9F80000A8EB0007386890
:1008B000B0B97868B04213DB7142C0190818051D41
:1008C0003846FFF71DFDA068801BA0602069301826
:1008D000206139467868801BFFF73AFD45F8046CC3
:1008E0002846BDE8F28310B5040001D1002010BDF8
:1008F00003F00AFF2046FFF708FF04466CE028B12A
:100900006E49096B01EBC0004068083070476B49C5
:100910008A69521C8A61096B01EBC0010A78521C7A
:100920000A70ECE76549026852F8082C0B6B03EB80
:10093000C2021378022B03D38B690BB15B1E8B6150
:100940001178491E117000210160002070475B483A
:1009500000680C380128B8BF00207047574840682D
:100960007047564881680068081A70475348C16844
:100970004068081A704710B50024FFF769FE0F2081
:100980004E4901F17802136C1BB101EBC000006C01
:1009900004E0401E083A0028F5D508E0836833B12A
:1009A0005868844238BF044698680028F6D1A4F1FC
:1009B0000C0010BD10B503F0A7FEFFF7DCFF3F49A8
:1009C000C9696422B0F5800F87BF90FBF2F001FB8C
:1009D00000F44843B0FBF2F403F08EFE204610BD55
:1009E00036484169491C4161704734484169491E94
:1009F00041617047324A106088088000506070473B
:100A00002F49112805D34A685208904202D3104654
:100A100000E0102088607047002138B12749096B39
:100A200001EBC00040684068A0F10C010846704727
:100A300038B504001ED003F067FE204D286B10F877
:100A4000341099B1022911D200EBC4004168486802
:100A5000FFF77EFC6868401C6860286B00EBC401EF
:100A60002A6A4A60002100F834102C62BDE8314047
:100A700003F042BE31BD10B5044603F045FE2068C8
:100A8000FFF7D6FF00202060BDE8104003F034BE21
:100A900038B504460D46012D05DB2046FFF7EBFF78
:100AA000241D6D1EF9D131BDA0F10A015B2903D2CD
:100AB0000249C8610020704701207047BC9F0010A8
:100AC000B00000108705000074656D705C536F7591
:100AD0007263655C4755495F416C6C6F632E633A86
:100AE0000A496C6C6567616C206D656D6F72792069
:100AF0006F7065726174696F6E20696E205F5265F8
:100B00006D6F766546726565426C6F636B28292E42
:100B100020457865637574696F6E2073746F7070AB
:100B20006564210074656D705C536F757263655CFC
:100B30004755495F416C6C6F632E633A0A496C6C90
:100B40006567616C20626C6F636B2073697A6520E6
:100B5000696E205F52656D6F7665486F6C65734E88
:100B6000657728292E20457865637574696F6E2036
:100B700073746F70706564210000000074656D709F
:100B80005C536F757263655C4755495F416C6C6F70
:100B9000632E633A0A496C6C6567616C2066726506
:100BA0006520626C6F636B20696E205F52656D6FAC
:100BB0007665486F6C65734E657728292E204578D9
:100BC00065637574696F6E2073746F7070656421EE
:100BD0000000000074656D705C536F757263655C36
:100BE0004755495F416C6C6F632E633A0A4D656DE2
:100BF0006F72792074657374206661696C65642016
:100C0000696E205F496E69744F6E636528292E00F6
:100C100074656D705C536F757263655C4755495FB1
:100C2000416C6C6F632E633A0A4E6F206D656D6F79
:100C3000727920617661696C61626C6520696E20F1
:100C40005F496E69744F6E636528292E204578656B
:100C5000637574696F6E2073746F707065642100C2
:100C600074656D705C536F757263655C4755495F61
:100C7000416C6C6F632E633A0A4E6F206D656D6F29
:100C8000727920666F7220626C6F636B732061767D
:100C900061696C61626C6520696E205F496E697480
:100CA0004F6E636528292E20457865637574696FDA
:100CB0006E2073746F7070656421000074656D70D0
:100CC0005C536F757263655C4755495F416C6C6F2F
:100CD000632E633A496C6C6567616C20626C6F636C
:100CE0006B2073697A6520696E204755495F414CD6
:100CF0004C4F435F4765744669786564426C6F6327
:100D00006B28292E20457865637574696F6E207392
:100D1000746F7070656400005A480021C160E02261
:100D2000594803F0AFBE5949886070472DE9FC412E
:100D300005460E461746984603F0E6FC042003F0ED
:100D400033FF04465048016C4D19406C8619CF1989
:100D50008044ADF80050ADF80470ADF80260ADF815
:100D6000068000A802F0B5FC48B143463A46314639
:100D7000284603F091FF02F092FC0028F5D12046AE
:100D800003F012FF03F0B8FCBDE8F38180B5002149
:100D9000002003F0E2FA3E4940F6FF72134608468F
:100DA000BDE80050C2E710B5364CE06850B90120EC
:100DB000E0600FF031FD10F007F836482060A068C1
:100DC0006060A46010BD70B5FFF7EDFF2F4C2E20C2
:100DD00020700FF03FFD2C4E06F11405A86B002883
:100DE000FDD0A0680028FCD006F108007061707C7E
:100DF00006EB8000C06C06F10801C268126B9047D8
:100E00000FF29800C6F8D800A068A86006F10800A4
:100E1000706101202871FFF765FAA862032086F847
:100E2000DC006FF07040E8612862002004F08BF96C
:100E30006FF07F4004F08BF91748606003F0A5FC69
:100E400004F01AF904460021002003F02FFC02F000
:100E5000D6FF03F0B8FC204670BD0A498A6842609C
:100E60008860704710B5074CA06848B1A06800685A
:100E7000010018BF8047A0684068A0600028F5D135
:100E800010BD00006CA1001078A00010C40000107C
:100E900001F0FFFF190D00008C4800000D4C000010
:100EA000B34B000010280BDA504A02EB8000C06CF4
:100EB00000E0006820B1C26812688A42F9D1704728
:100EC00000207047102801DB00207047474901EBE4
:100ED0008000C06C00E0006800281EBFC16809687F
:100EE0000029F8D17047FFF79BBCF8B504460F46C0
:100EF00015461E46102E03DA1C20FFF799FC08B990
:100F00000020F2BD0FB107610BE0384901EB86010B
:100F1000C96C31B100E011460A68002AFBD10969A9
:100F2000016186618582C460002101604160816049
:100F3000F2BD81692D4A02EB8101CA6C824204BF75
:100F40000268CA64416809B102680A60016809B1AF
:100F500042684A60002101604160704730B450B37C
:100F60008169102927DA214A02EB8102D16C11B97B
:100F7000D06425E019464B68002BFBD1D9B1CB6872
:100F80001B68C46825689D42B8BF0968F6DBAB42A0
:100F900004BF838A012B06D10B6823B11946CB68A5
:100FA0001B68AB42F8DA4B68002B1DBF18604A681B
:100FB0004260D06402E0012030BC704748600160AC
:100FC000002030BC704738B51C46FFF78EFF050087
:100FD00018BFFFF7C3FFE868006820B9034800EBBB
:100FE0008400C0F88C50284632BD000078A0001064
:100FF00070478449C861704782484069704781489A
:10100000806970477F48002141608160C160016153
:1010100070472DE9F04780460C4615461E46DFF81E
:10102000E89199F81100774F397F490707D400F00C
:101030000BF9824699F8110000F008F906E000F07B
:1010400005F9824699F8110000F0FEF8B8F1000F9A
:101050000CBFAAF10100401E089AB11A48BF4942CC
:10106000142904DB611B48BF4942142902DA01201C
:10107000BDE8F08707EBC8012B1B921B04FB02F5B0
:1010800095FBF3F5751B4D60001B504390FBF3F08F
:1010900080198860B86879688142BABF0A460146FB
:1010A0000246B9627A623869F9688142BABF0A4673
:1010B000014602463963FA62012038620020BDE829
:1010C000F087504B03EBC00043680B6080681060F2
:1010D00070472DE9F0414B4C206A48B96060A06030
:1010E000E0602061A06260622063E0620120206213
:1010F000207838B90FF06CFBA0610FF0F7FA207878
:10110000401C7CE00FF040FB60610FF09FFA6069CB
:10111000616A8842A4BFA16A814206DBA169E26AD2
:101120009142A4BF226B8A4205DA4FF0FF30606320
:10113000A063014660E06168451A334E707C217FF0
:10114000490702D400F080F801E000F07FF8401E6B
:101150006843A1686268891A90FBF1F5A069E168AB
:10116000471A707C217F490702D400F06FF801E034
:1011700000F06AF8401E78432169E268891A90FB02
:10118000F1F7707C217F490711D400F05DF88046AB
:10119000707C00F05BF8E169CA0744BFA8EB050268
:1011A000551E890752BF3A46C01B421E11E000F08F
:1011B0004DF88046707C00F047F8E169CA0746BFE9
:1011C000A8EB0502521E2A46890746BFC01B451ED2
:1011D0003D4615F1010F18BF12F1010F07D0606BEA
:1011E00010F1010F1CBFA16B11F1010F02D14FF0E3
:1011F000FF3001466563A26303F016FB00202070F8
:10120000BDE8F081D000001078A0001038B50C4681
:101210000025102807DAFFF755FE20B12146C268E5
:10122000926A90470546284632BD70B504460025AF
:101230000F2621463046FFF7E9FF8542B8BF054635
:10124000761EF6D5284670BD0121DFE70221DDE7D5
:101250000321DBE70421D9E70821D7E70921D5E7F6
:101260000A21D3E70B21D1E70C21CFE70D21CDE7F0
:101270000E21CBE7012100E002212348407CC5E795
:101280000321FAE70421F8E70821F6E70921F4E74A
:101290000A21F2E70B21F0E70C21EEE70D21ECE744
:1012A0000E21EAE7184901EB8000C06C0821C268F2
:1012B000926A104780B5FFF705FE28B10221C26887
:1012C000D26ABDE80840104702BD0F48407CF1E7F4
:1012D00080B5FFF7F7FD08B10069406802BD0A4913
:1012E00001EB8000C06C00694068704780B5FFF773
:1012F000E9FD08B10069006802BD034901EB800007
:10130000C06C00690068704778A0001001208CE76D
:1013100002208AE7032088E7042086E7082084E784
:10132000B0B34108490001D101207047810889000C
:1013300001D102207047C108C90001D103207047C4
:101340000109090101D1042070474109490101D176
:1013500005207047010A090201D108207047410A9F
:10136000490208D0010B090305D0C10BC90302D003
:10137000010C090401D110207047810C890401D1AE
:101380001220704710F07F4F01D1182070472020A5
:10139000704710B50024FFF7C3FF012808BF0124E0
:1013A0000ED0811E072938BF082409D3A0F10901F6
:1013B000082938BF102403D31138102838BF20243F
:1013C000204610BD38B50C460125FFF77BFD009087
:1013D00058B1022100A8009AD268526A90470200D0
:1013E00003D02146009890470025284632BD38B5E5
:1013F0000C460125FFF766FD009058B1092100A8B1
:10140000009AD268526A9047020003D021460098A1
:1014100090470025284632BD70B582B00C4615466F
:101420000126FFF74FFD009060B10A2100A8009A45
:10143000D268526A9047030004D02A462146009899
:1014400098470026304676BD70B582B00C461546EA
:101450000126FFF737FD009060B10B2100A8009A2C
:10146000D268526A9047030004D02A462146009869
:1014700098470026304676BD38B50C460125FFF763
:1014800021FD009058B1062100A8009AD268526A46
:101490009047020003D02146009890470025284637
:1014A00032BD70B582B00C4615460126FFF70AFD25
:1014B000009060B1032100A8009AD268526A904758
:1014C000030004D02A46214600989847002630465B
:1014D00076BD38B50C460125FFF7F4FC009058B1F5
:1014E000132100A8009AD268526A9047020003D0E4
:1014F0002146009890470025284632BD38B50C4655
:101500000125FFF7DFFC009058B1142100A8009AD4
:10151000D268526A9047020003D021460098904753
:101520000025284632BD70B582B00C46154601260E
:10153000FFF7C8FC009060B1152100A8009AD2689E
:10154000526A9047030004D02A46214600989847E3
:101550000026304676BD70B582B00C461546012691
:10156000FFF7B0FC009060B1102100A8009AD2688B
:10157000526A9047030004D02A46214600989847B3
:101580000026304676BD70B582B00C461546012661
:10159000FFF798FC009060B1042100A8009AD2687F
:1015A000526A9047030004D02A4621460098984783
:1015B0000026304676BD10B582B00124FFF782FCCC
:1015C000009050B1172100A8009AD268526A904743
:1015D000010002D0009888470024204616BD01462D
:1015E0001948407CEEE601461748407CFFE60A4673
:1015F00001461548407C0FE70A4601461248407CE8
:1016000022E701461048407C36E70A4601460E486C
:10161000407C46E701460C48407C5AE701460A48B0
:10162000407C6BE70A4601460748407C7BE70A4658
:1016300001460548407C8EE70A4601460248407C48
:10164000A1E70148407CB6E778A0001070B582B0F1
:101650000C4615460126FFF735FC009060B11621B7
:1016600000A8009AD268526A9047030004D02A4624
:101670002146009898470026304676BD10B50446AE
:10168000A06838B94020FFF7D3F8A06040220021BD
:1016900003F0F8F9A06808B1002010BD012010BDCA
:1016A000806800220A804A804269521E8A808069CE
:1016B000401EC88070477CB504460D4616460FF69E
:1016C0007030D0E90023CDE900232046FFF7D6FF94
:1016D000A06840B1056246620095019600AA082103
:1016E000A0690FF0A7FB73BD70B504460D46164602
:1016F000FFF7C4FFA06818B1016A2960406A306032
:1017000070BD38B504460D460FF62C3000680090C9
:101710002046FFF7B3FFA06830B18562009500AAAC
:101720000A21A0690FF086FB31BD38B504460D468D
:101730000FF60830006800902046FFF79FFFA06872
:1017400030B1C562009500AA0921A0690FF072FBB3
:1017500031BD38B50446FFF791FF0546002201214F
:10176000A0690FF067FB284332BD0022052101E08C
:101770000022062180690FF05DBB80B5009100AAB0
:101780000B2103E080B5009100AA0C2180690FF0C5
:1017900051FB01BD30B583B00FF6A423D3E900455A
:1017A000CDE900450091019200AA0D2180690FF05A
:1017B00041FB03B030BD2DE9F04104460D46904693
:1017C000FFF75CFFA768002F18BF45451AD0082116
:1017D0002046E268926A9047F9683A695143484363
:1017E000C208786808FB02067B6B190004D04246E9
:1017F0002946A069984704E005FB020130460DF038
:1018000019FC3E60BDE8F08138B504460D460FF680
:101810003820006800902046FFF730FFA06828B10C
:10182000009500AA0E21A0690FF004FB31BD70B530
:1018300004460D461646FFF721FFA06878B1192D22
:1018400008D0202D08D0212D02D0232D06D070BD28
:10185000466370BD066370BD866370BDC66370BDB0
:101860002DE9FC4104460D4616460FF6E010D0E97E
:101870000023CDE90023A768A069FFF7F5FC8046A7
:10188000A069FFF7F3FC48EA4008A069FFF7F0FC05
:1018900048EA8000072833D8DFE800F004060D137B
:1018A0001D1F2628009504E07869F968401A401B3E
:1018B0000090019624E00095B8693969401A801BB0
:1018C0001DE07869F968401A401B0090B8693969D1
:1018D000401A801B13E0009604E0B8693969401A89
:1018E000801B009001950BE0009604E0B86939690F
:1018F000401A801B00907869F968401A401B0190DB
:1019000000AA0321A0690FF095FABDE8F38138B56C
:1019100004460D460FF63C10006800902046FFF785
:10192000ADFEA06838B145600560009500AA0221AF
:10193000A0690FF07FFA31BDF8B504460D46164692
:10194000FFF79CFEA7684FB1A069FFF791FC002844
:101950007D61BE6101D0FE61F1BDFD61F1BDF0B5FB
:1019600083B004460D4616460FF6EC00D0E900237E
:10197000CDE900232046FFF781FEA7688FB1F86903
:1019800030B9A069FFF774FC002814BFFE61FD6147
:10199000FD603E610095019600AA0721A0690FF045
:1019A00049FA03B0F0BDF0B4049F8668DFF8280858
:1019B00000680568F06940104FEA510C00FB02CC4A
:1019C000366806EB8C065B1A5B1CBA1A521CDFF8F1
:1019D0000C783F7CFF0739D5C9070DD51100344677
:1019E00008D0DFF8FC5727686F40276004EB8004BD
:1019F000491EF8D1361D5B1E022B17DB110011D0DA
:101A00001F46491E01FB00F406EB84044FF0FF3C27
:101A100025688CEA050544F8045BBF1E022FF7DA3F
:101A20000029EDD1264623F001015B1A012B66DB6C
:101A30001100344663D04FF6FF7223685340236091
:101A400004EB8004491EF8D1F0BC7047C9070CD5DF
:101A50001100344607D0276865F31F47276004EB61
:101A60008004491EF7D1361D5B1E05EB054C102B7B
:101A700022DB103B110019D01F46491E01FB00F468
:101A800006EB840444F804CB44F804CB44F804CBBC
:101A900044F804CB44F804CB44F804CB44F804CB1A
:101AA00044F804CB103FEDD50029E5D1264603F1DB
:101AB000100121F00F03CB1A022B12DB11000CD006
:101AC0001F46491E01FB00F406EB840444F804CBD6
:101AD000BF1E022FFADA0029F2D1264623F00101B7
:101AE0005B1A012B0BDB1100344608D02268120C64
:101AF00055EA0242226004EB8004491EF6D1F0BC94
:101B000070478068D0F81CC00CFB0211006820F8F8
:101B1000113070478068C36903FB0211006830F818
:101B200011007047F8B505460E461746FFF7F2FF5D
:101B30000446286980688047A968CA6902FB076271
:101B40000968604021F81200F1BD7CB58468256BFE
:101B5000069C2E0008D0DFF880663668366801964D
:101B600000948069A84773BD0094FFF71CFF73BD04
:101B700080B5009202E080B500930B46FFF7E5FFC9
:101B800001BD2DE9F0479A4685680A9E3368D6F86C
:101B900004C0DDF820E0EE6906FB02110EEB010641
:101BA000CEF10807DFF83C869AF8001011F808100B
:101BB00041FA0EF9099CDFF82416097C11F00301A3
:101BC00006D0022924D037D3032935D0BDE8F087C9
:101BD0003846A74288BF204601462A6802EB4602E3
:101BE0005FEAC97E4CBFE6469E4622F802EB761CB1
:101BF0004FEA5909491EF3D13F1A241A27B91AF896
:101C0000010F10F808900827002CE1D1BDE8F087FB
:101C10005FEAC97044BF286820F816C0761C7F1E92
:101C20004FEA590904D11AF8010F10F80890082753
:101C3000641EEDD1BDE8F08700698068804729689F
:101C400001EB46015FEAC97202D50A8842400A8068
:101C50007F1E4FEA590904D11AF8012F12F8089093
:101C60000827641E891C002CECD1BDE8F0872DE903
:101C7000F04793F80080089C6118099EDDF828E081
:101C8000DFF858753F7C17F0030703D0022F47D0C9
:101C9000BDE8F087C027BEF1000F22D0C4F1030CCD
:101CA0004FEA4C0CD0F80890D9F81C5005FB0215EF
:101CB000D9F80090CCF1060A47FA0AFA0AEA080AAB
:101CC0002AFA0CFC5EF82CC029F815C0491C641CCB
:101CD000042C04BF002413F8018F761EDED1BDE86A
:101CE000F087C4F1030C4FEA4C0C8568D5F81CE072
:101CF0000EFB021E2D68CCF1060947FA09F909EA24
:101D0000080929FA0CFC25F81EC0491C641C042C87
:101D100004BF002413F8018F761EE2D1BDE8F087DE
:101D2000C027BEF1000F21D0C4F1030C4FEA4C0CC8
:101D3000CCF1060547FA05F505EA080535FA0CFC6D
:101D400009D08568D5F81C9009FB02192D685EF84A
:101D50002CC025F819C0491C641C042C04BF0024A5
:101D600013F8018F761EDFD1BDE8F087C4F1030CB4
:101D70004FEA4C05C5F1060E47FA0EFE0EEA080EB4
:101D80003EFA05FC09D0D0F808E0DEF81C5005FB4F
:101D90000215DEF800E02EF815C0491C641C042C66
:101DA00004BF002413F8018F761EDFD1BDE8F08751
:101DB0002DE9F04793F80080089C6118099EDDF832
:101DC00028E0DFF818743F7C17F0030703D0022FD8
:101DD00047D0BDE8F087F027BEF1000F22D0C4F154
:101DE000010C4FEA8C0CD0F80890D9F81C5005FB78
:101DF0000215D9F80090CCF1040A47FA0AFA0AEA67
:101E0000080A2AFA0CFC5EF82CC029F815C0491CF7
:101E1000641C022C04BF002413F8018F761EDED14F
:101E2000BDE8F087C4F1010C4FEA8C0C8568D5F849
:101E30001CE00EFB021E2D68CCF1040947FA09F9DB
:101E400009EA080929FA0CFC25F81EC0491C641C83
:101E5000022C04BF002413F8018F761EE2D1BDE8E6
:101E6000F087F027BEF1000F21D0C4F1010C4FEA3A
:101E70008C0CCCF1040547FA05F505EA080535FA9E
:101E80000CFC09D08568D5F81C9009FB02192D6857
:101E90005EF82CC025F819C0491C641C022C04BF34
:101EA000002413F8018F761EDFD1BDE8F087C4F15E
:101EB000010C4FEA8C05C5F1040E47FA0EFE0EEA3E
:101EC000080E3EFA05FC09D0D0F808E0DEF81C50F8
:101ED00005FB0215DEF800E02EF815C0491C641C55
:101EE000022C04BF002413F8018F761EDFD1BDE859
:101EF000F08730B4039C002C76D08068C56905FB60
:101F00000211006800EB41000299B44A127C12F001
:101F1000030234D0022A65D030BC704713F8012B7D
:101F200054F8222020F8022B13F8012B54F8222019
:101F300020F8022B13F8012B54F8222020F8022B52
:101F400013F8012B54F8222020F8022B13F8012B50
:101F500054F8222020F8022B13F8012B54F82220E9
:101F600020F8022B13F8012B54F8222020F8022B22
:101F700013F8012B54F8222020F8022B08390829E5
:101F8000CCDA04291ADB13F8012B54F8222020F8AC
:101F9000022B13F8012B54F8222020F8022B13F8FF
:101FA000012B54F8222020F8022B13F8012B54F8AF
:101FB000222020F8022B091F0429E4DA00291FBF80
:101FC00013F8012B54F8222020F8022B491EF5D1DA
:101FD00030BC70471A7812B154F822200280491E92
:101FE0005B1C801C0129F5DA30BC70472DE9F04FED
:101FF00083B081468B4614461F460D980C9EDDF833
:102000003880DDF83CA010991091119D012808D06E
:10201000022817D0042826D0082835D0102842D00E
:1020200054E0012E52DB0295019710980090534620
:10203000224659464846FFF7A4FDC244641C761E5A
:10204000F1D143E0012E41DB0295019710980090F9
:102050005346224659464846FFF709FEC244641CCF
:10206000761EF1D132E0012E30DB029501971098F7
:1020700000905346224659464846FFF799FEC2440F
:10208000641C761EF1D121E0012E1FDB0195009723
:102090005346224659464846FFF72BFFC244641C6C
:1020A000761EF3D112E0012E10DB7F00D9F8080074
:1020B0003A465146C36903FB04B3006800EB430092
:1020C0000CF0B8FFC244641C761EEFD103B0BDE82B
:1020D000F08F00008068491E0D2916D8DFE801F056
:1020E00007090B0D1515150F131111131313C068E4
:1020F00070470069704740697047806970471020D9
:10210000704701207047002070474FF0FF30704744
:10211000012901D13448704700207047F0B4059C74
:1021200080680D46049E5F1A7F1CD0F81CC00CFB13
:1021300002114900D0F800C031F80CC024F802CBDD
:102140007F1E891C002FF5D1294617467A1CB742FD
:10215000E9DBF0BC70470000491E222939D8DFE8CE
:1021600001F0361C181A381E38381214162038227E
:102170002438383826282A3038383838383838382B
:1021800038382C2E320019487047194870471948C2
:1021900070471948704719487047194870471948DF
:1021A00070471948704719487047194870471948CF
:1021B00070471948704719487047194870471948BF
:1021C00070471948704700688068C06B70471748AF
:1021D0007047002070470000E001001078A0001058
:1021E0000000FFFF64750200FC6000000F19000092
:1021F000391900005F190000B7160000E916000049
:10220000031700002B170000531700006B17000086
:10221000711700007B17000085170000951700005C
:10222000B7170000091800002F1800001D2100003A
:10223000000000000000000000000000000000009E
:10224000000000000000000000000000000000008E
:10225000000000000000000000000000000000007E
:10226000034800687047024A1168106008467047CA
:102270000C01001070B584B000AA002300241D4694
:102280001E4678C22A220092039100A900F097FF0F
:1022900004B070BD30B585B000A9002200231446FB
:1022A00015463CC12A21009100A900F088FF03983F
:1022B00005B030BD2DE9F84304460E4617465FEAE7
:1022C0000308089DDDF8249002D1FEF70BF8804644
:1022D00000974B462A46414620462768B8470700E4
:1022E0001DD005F08AFB0546618A384605F0B0F836
:1022F000384605F0E0FD284605F0DDFD761E012E8E
:1023000014DB1C340020009000230246294620469E
:10231000D4F800C0E04728B9384601F06EF8002034
:10232000BDE8F28305F0C7FD761EEAD11D212846DF
:1023300005F044FC18F1010F1CBF384605F03CFDC8
:102340003846BDE8F28338B504460D46FFF7A2FFD4
:1023500010B145600121016002F0D6F9204601F07C
:102360003FFCBDE8314002F0C7B900B583B00FF2C1
:102370004001D1E90023CDE9002300A9FFF77AFF4E
:1023800004E0FDF733FF08B902F097FA009800283F
:10239000F7D0019803B000BD30B583B0069C079D0F
:1023A00001950094FFF786FF03B0BDE83040DCE7FD
:1023B000000000000000000038B504460D46FEF79E
:1023C000A6FA0090B0F87C0000F0080125B169B9C8
:1023D000009940F0080004E041B100994FF6F7720F
:1023E0001040A1F87C00204600F050FF00A8FEF746
:1023F00099FA31BD2DE9F04385B006467568284647
:1024000005F021FB0746FEF782FA0090D0F86480C1
:10241000D0F84890D0F8804000A8FEF783FA3068E2
:102420000E282FD00F280BD014281CBF15281728D2
:102430004DD01E2817D01F281FD022283DD03FE0A6
:102440006FF07040814504D0484602F07CFEFEF7F4
:102450009DFC5FEA08003DD001A81ECE1EC002957B
:1024600001A8C04736E0F068A0B3002C18BFAC420A
:1024700015D0204605F00CFC2CE03146384605F01E
:1024800023F827E0F0684168012919DB0068092872
:1024900005D00A2814D1284605F09CFC02E0284605
:1024A00005F08AFC04463846FEF731FA0090C0F881
:1024B000804000A8FEF736FA0CE0C6F80C9009E060
:1024C0005FEA080003D077603046C04702E030463C
:1024D00001F04FFC05B0BDE8F08370B58AB0054649
:1024E0000E46FEF714FA0090C06D846800A8FEF74F
:1024F00019FA01952EB1022E07D004D3032E06D06F
:1025000007E0182004E0162002E0152000E0172064
:10251000029001A8616888470AB070BD014600209A
:1025200091F83220920600D4704780B5B1F954007A
:1025300018B9486B01F0FAFE801C02BD2DE9F0438A
:1025400083B081460C461546FEF7E1F90190C06D57
:1025500087680198B0F90060B0F9028001A8FEF721
:10256000E1F9002148463A6890470746484605F099
:1025700050FA0AE020688142A4BF481C206000A8ED
:10258000FEF7D0F9484605F051FA5FEA00091BD082
:10259000FEF7BDF90090B0F90000801B0099B1F979
:1025A0000410891B009AB2F90220A2EB0802BA4279
:1025B000E5D1009A92F828201206DBD529688142DD
:1025C000DDDB401E2860DAE703B0BDE8F0832DE9CB
:1025D000F04F87B080460D4600260396FEF797F928
:1025E0000090C06D846801214046226890470746EC
:1025F0000321404622689047059002214046226808
:102600009047049000214046226890470446009875
:1026100005F026FA8146009805F027FA82460098D0
:1026200090F83200800603D50098B0F95800039066
:102630000098FFF773FF83460098C06E10B105F055
:102640002FFA0646A5F800B06E80AF800598A9EB7A
:102650000000401E28810399091959447118E98026
:102660000499AAEB0101491E6981AF812882EC819E
:102670000BEB0400401E688200A8FEF753F9B5F981
:102680000C000290B5F91000019001AA02A9404681
:10269000FFF754FF0298A8810198288207B0BDE88F
:1026A000F08F70B586B00646FEF731F90090846E63
:1026B000C56E00A8FEF736F955EA040025D001A939
:1026C0003046FFF784FFACB1BDF90A20BDF9081010
:1026D000204605F03AFABDF90E00BDF90A10401A7D
:1026E000421CBDF90C00BDF90810401A411C2046DF
:1026F00005F0A2FB4DB1BDF90A00BDF90610421A62
:10270000BDF90810284605F020FA06B070BD2DE985
:10271000F0478CB004460026D4F804804046FEF70B
:10272000F6F800905C30C56A476AD0F80C90B0F8B3
:1027300020A00098C06D00B1066800A8FEF7F2F86E
:1027400006E0204669688847002840F000812D682F
:10275000002DF6D120680B2800F0E7800C283BD034
:102760000D2800F0B6800F2830D011280DD0142885
:1027700066D017286ED01E287DD0202800F0B780A4
:1027800026286AD02A2813D0D9E0E6684046FEF70A
:10279000BEF80190717A002904BF317A012905D170
:1027A000B0F87C1041F48071A0F87C1001A8C4E05E
:1027B0004046FEF7ACF80090E168002912BFC0F86F
:1027C0008410D0F88400E06000A836E0300000F00B
:1027D000B6804046B047B2E0E6684046FEF797F85C
:1027E0000190B0F87C7001A8FEF79CF8E068002822
:1027F00000F0AD80307AA0B138075CBF404605F0EC
:1028000047FA404605F06CF807F4C870B0F5887FC9
:1028100040F09D80002305223146404605F0EEF948
:1028200095E04046FEF773F80190B0F87C104FF643
:10283000FF621140A0F87C1001A8FEF773F886E053
:1028400006A94046FFF7C3FEE068DDE90723C0E9BB
:1028500000237CE0C4F80C9079E0E068022876D18F
:10286000CDF81080E06805902720029002A9A068AA
:1028700005F076FE6BE0E068012825D1384605F0CA
:1028800037F958B1384605F003FA384605F020F913
:1028900088B10121384604F0DBFD0CE0484605F024
:1028A0008BFA07464046FEF732F80090C0F8807079
:1028B00000A8FEF737F80121404600F03FF9002F4D
:1028C00045D10020E06042E00021404600F036F9AA
:1028D0003DE05FEA0A7032D4E068C06800281CBF9F
:1028E000007A00282BD0404605F0D2F927E0E668B0
:1028F0002EB34146706805F02DFE20B101214046FF
:10290000FFF75AFD1BE000214046FFF755FD414609
:10291000306805F00DFE90B14046FDF7F8FF0190DC
:102920003168C0F8801001A807E04046FDF7EFFFCE
:1029300000907030FEF79FF800A8FDF7F3FF2146E6
:10294000404604F0C1FD10B1204601F012FA0CB06F
:10295000BDE8F0872DE9F74F8AB09946DDF858A019
:10296000179D189F199CDDF868801B9EDDF870B0DC
:1029700001F0CAFE45F480550BF160000390314828
:1029800002900195CDF800A04B460C9A0B990A983D
:1029900000F07EFC5FEA00094ED0FDF7B8FF04901E
:1029A0003022214604F089FD274C0498343021461A
:1029B00028220CF03FFB04985C30866007840021DD
:1029C00041620161C1620498A16AC16504A8FDF772
:1029D000A9FF05A94846FFF7FAFDBDF91800BDF9A2
:1029E0001A1000220392194A029241F28272019255
:1029F000CDF80090BDF91E20521A531CBDF91C20C1
:102A0000121A521C00F044FC07464846A16A496865
:102A100088474846FDF77BFF0490876604A8FDF7CA
:102A200081FF42F20400054204BF484605F079F8F0
:102A30004146484600F028F801F05EFE48460DB0D9
:102A4000BDE8F08F0F27000010010010F5230000F3
:102A50002DE9F04188B00E9C0F9D109E119FDDF86E
:102A600048C0DDF84CE04FF00008CDF81880CDF8F4
:102A700014E0CDF810C00397029601950094FFF77B
:102A800069FF08B0BDE8F08130B583B004000D46A1
:102A90001DD001F039FE2046FDF739FF0090006F90
:102AA000019000A8FDF73EFF294601A802F014F8A6
:102AB00058B12046FDF72BFF00900199016700A84F
:102AC000FDF730FF204600F0E1FB01F015FE03B0FA
:102AD00030BD38B504000D4614D001F015FE204677
:102AE000FDF715FF0090B0F95A00A84205D00098F4
:102AF000A0F85A50204600F0C9FB00A8FDF712FFCD
:102B000001F0FAFD31BD38B504000D4615D001F0D5
:102B1000FBFD2046FDF7FBFE0090B0F87C10002D79
:102B200012BF41F010014FF6EF721140A0F87C1077
:102B300000A8FDF7F7FE01F0DFFD31BD38B5040058
:102B40000D4609D001F0E0FD29462046FFF734FC90
:102B5000BDE8314001F0D0BD31BD8C2305F0C6BCCD
:102B60008C2305F0A5BC30B587B014461D4682699C
:102B7000059242680492B0F908200392428A0292B8
:102B8000022201920091B0F91030B0F90E20B0F994
:102B90000C106918B0F90A00201804F041FB07B0C6
:102BA00030BD000070B504460D4616462846FDF7B8
:102BB000A6FE806AC0034CBF4FF4804320233246F8
:102BC00029462046BDE87040CDE1F0B583B0064609
:102BD0000C461546FDF793FE0090876AB80738D576
:102BE000204600F011FA00281EBF40F601003840D0
:102BF00001282ED03046FDF78AFE0090024621467D
:102C000001A801F0ADFE01A800F0FEF9F0B10098B6
:102C1000806A44F22001084207D001AA009800F11E
:102C20000801083001F0A8FB10E00098DDE901235D
:102C3000C0E902230098806A284300998862DFF87F
:102C4000A00C8188491C818001F031FE00A8FDF7AD
:102C500069FE03B0F0BD2022B7E738B505460C4643
:102C600003E0044600A8FDF75DFE2046FDF74FFE99
:102C7000009090F82800800703D400A8FDF752FECA
:102C800027E00099284601F04BFE00988069002853
:102C9000E7D100A8FDF746FE0020DFF8481C51F8F8
:102CA000042B944203D1002813D4012032BD401CD0
:102CB00051F8042B94421EBF401C51F8042B94423F
:102CC0001EBF401C51F8042B9442ECD0401C10282D
:102CD000E5DB002032BD70B586B0DFF80C5C05F195
:102CE0003804207CE0B1A86B28B9DFF8000C02F0B2
:102CF000B3FB06B070BDD0E90023CDE90123DFF8B6
:102D0000E06B706E00B96068FDF701FE009001A9EC
:102D100000F0BCF800A8FDF705FEDFF8D01B26E0A8
:102D20006068FDF7F4FD0390D0E90023CDE90423AA
:102D300003A8FDF7F7FDDFF8A86B716E11B104A8C9
:102D4000FFF78BFFA86B08B904A814E0D0E90023B3
:102D5000CDE90123706E00B96068FDF7D8FD0090E1
:102D600001A900F093F800A8FDF7DCFD04A901A873
:102D700001F0D6FD01A802F06FFB06B070BD70B582
:102D800084B004460D004CD0FDF7C1FD0090002139
:102D90000162009885612846FDF7B9FD0290009810
:102DA00090F8280000F008050298C6692EB9C461A1
:102DB00000A8FDF7B7FD02A831E03046FDF7A7FDFA
:102DC00001907DB990F8280000070BD500980662A5
:102DD0000298C46100A8FDF7A5FD02A8FDF7A2FDB9
:102DE00001A81CE002A8FDF79DFD01A8FDF79AFDD2
:102DF0003046FDF784FD01900198066A0EB9046221
:102E00000CE03046FDF77BFD002DF4D190F8281042
:102E10000907F0D5019804620098066200A8FDF742
:102E200081FD04B070BD70B50446FDF768FD054630
:102E3000A869A0B1FDF763FD0646F169A14205D17D
:102E40000846FDF75CFD006AF06170BD39B10846C7
:102E5000FDF755FD016AA142F8D1296A016270BDF2
:102E600010B582B00446FDF752FD0090816949B16A
:102E70002023026A00F077F82046FFF7D4FF00987D
:102E80000021816100A8FDF74DFD13BD0B46B0F98F
:102E90000220B0F90010184601F09CBA10B50446A3
:102EA000DFF83C0AC06802E0FDF729FD406910B177
:102EB000A042F9D1012010BD10B582B004001FD08E
:102EC000FDF725FD009090F82800800715D50098A3
:102ED000406A20B102F07BFB00980021416220464D
:102EE00004F097FD044606E02046FFF7E5FF204684
:102EF000FDF705FD046A002CF6D100A8FDF712FDD0
:102F000013BD70B584B004000D46164629D0FDF7F8
:102F1000FEFC009090F82800800705D5009A29460D
:102F200001A801F01DFD20B900A8FDF7FBFC04B0CD
:102F300070BD00A8FDF7F6FC324601A92046FFF758
:102F400044FE204604F065FD044608E0324601A92F
:102F50002046FFF7D6FF2046FDF7D1FC046A002C7F
:102F6000F4D104B070BD2DE9F04184B006460F00E5
:102F70001446984631D03846FDF7C9FC0090856A62
:102F8000A80727D5009A314601A801F0E9FC08B34B
:102F900040F601002840012807D143460098026A04
:102FA000816901A8FFF7DFFF04E0424601A9384626
:102FB000FFF70BFE0098C66908E0424601A93046BB
:102FC000FFF79FFF3046FDF79AFC066A002E18BFF8
:102FD000A642F2D100A8FDF7A5FC04B0BDE8F0813F
:102FE0002023C0E738B50446DFF8F408C06850B1C4
:102FF000FDF785FC05466869A042F8D12046FDF73B
:103000007EFC4069686131BDB0F90410B0F9002060
:103010009142A2BFB0F90610B0F90200814201DA74
:10302000002070470120704770B584B006460C46FA
:1030300015460FE001AA21463046FFF7F5FF30465E
:10304000FDF75DFC066A002EF4D10098066A00A820
:10305000FDF768FCA6B33046FDF759FC0090866A80
:10306000B007F2D52DB12A46009901A801F078FCED
:1030700004E00098D0E90023CDE9012301A920460E
:1030800001F046FA0028E0D0F00716D4B4F90600A3
:10309000B4F90210009AB2F90220914207DABDF9A0
:1030A00006104A1E8242D0DA481EE080CDE7BDF904
:1030B0000A108142C9DAE180C7E70098C669C2E711
:1030C00004B070BDF0B583B007460C461546002627
:1030D00011E001AA21463846FFF7F4FF00B10126AE
:1030E0003846FDF70CFC076A002FF2D10098076AFA
:1030F00000A8FDF717FC1FB33846FDF708FC009049
:10310000876AB807F2D52DB12A46009901A801F0C7
:1031100027FC04E0009AD2E90001CDE9010101A9F0
:10312000204601F0F5F90028E0D0F80705D4BDF8F5
:103130000800401C20800126D8E70098C769D3E723
:10314000304603B0F0BD70B584B006460C46154657
:103150000FE001AA21463046FFF7F5FF3046FDF7A4
:10316000CEFB066A002EF4D10098066A00A8FDF78F
:10317000D9FB16B33046FDF7CAFB0090866AB0074C
:10318000F2D52DB12A46009901A801F0E9FB04E02F
:103190000098D0E90023CDE9012301A9204601F0E0
:1031A000B7F90028E0D0F00704D4BDF80400401EB1
:1031B000A080D9E70098C669D4E704B070BD38B5DF
:1031C00004000D4609D001F09FFA2946204605F07B
:1031D000C7F9BDE8314001F08FBA31BD00B585B007
:1031E0000190009100A905F0BBF905B000BD0022D7
:1031F0004A800A8082880388D21A8A80C2884088DE
:10320000101AC880704770B586B004000D463BD0D8
:1032100001F07AFA2046FDF77AFB0090866AB00743
:103220002DD50098D0E90023CDE90123F00344BF58
:103230002046FFF741FE5DB1D5E90001CDE903016C
:1032400003A90098FFF722FE03A901A801F068FB7B
:10325000214601A8FFF701FD88B140F6010030408A
:10326000012807D120230098026A816901A8FFF78D
:103270007AFE04E0202201A92046FFF7A6FC00A860
:10328000FDF750FB01F038FA06B070BD0021BAE737
:103290002DE9F04F83B00746884691469A460D9D2A
:1032A000DDF83CB001F030FADFF8104C606D0543FA
:1032B0000C9E3EB9608850B3DFF82C06407C04EBCE
:1032C0008000466916F1010F08BF00261FD0F6B135
:1032D0003046FDF71CFB0190B0F90010CF19B0F992
:1032E00002008044B9F1000F05D1019AB2F904201F
:1032F000511A01F10109BAF1000F05D10199B1F993
:103300000610081A00F1010A01A8FDF70BFB0BF1EA
:103310002C0000F0D5FE5FEA000B5AD06088401CFC
:1033200060805846FDF7F3FA009007800098A0F8F7
:10333000028009EB0700401E009988800AEB080014
:10334000401E0099C88000980E9901610098806A1B
:10335000DFF86C1B294008430099886200A8FDF73C
:10336000E1FAE06850B1FDF7CAFA07465846FDF7A2
:10337000C6FA79694161C7F814B001E0C4F80CB02D
:1033800031465846FFF7FBFCA80644BF584600F0FC
:10339000C8F8E80702D5206E401C2066680644BFC6
:1033A000584604F055FAA8070FD55846FDF7AFFA6E
:1033B0000090806A40F002000099886200A8FDF742
:1033C000B1FA00215846FFF71EFF01215846FFF7CA
:1033D00005FF01F091F9584603B0BDE8F08F70B5D4
:1033E00084B0089C099D0A9E0396029501940024CE
:1033F0000094FFF74DFF04B070BD70B582B00400BB
:1034000062D001F081F92046FFF748FD002859D02D
:103410000B212046FFF7E2FE204604F07FFD204608
:10342000FDF775FA0090406A08B102F0D0F8DFF8B5
:103430008C5A0020A866A868DFF8881A01EB800281
:10344000136CA34204BF0023136451F82020A2424E
:1034500004BF002241F82020286905E04168A1420C
:1034600004BF0021416000680028F7D107212046F1
:1034700004F09AFB009EF069FFF7BFFFF069002897
:10348000F9D12046FFF7ECFC2046FFF7ABFD009892
:10349000806AC10702D5296E491E2966800602D5B9
:1034A000A888401EA88000A8FDF73CFA6888401E46
:1034B00068802046FDF7BCFAA86805EB80004069EB
:1034C00000F02FF801F018F973BD10B50446FDF7B0
:1034D00016FA80690028F9D1DFF8EC1951F8042BAD
:1034E00094421EBF401C51F8042B94421EBF401C46
:1034F00051F8042B944209D0401C51F8042B9442FB
:1035000004D0401C1028E9DB4FF0FF3010BD80B51F
:10351000FFF7DBFF00285CBFBDE8024001F022B8E6
:1035200001BD70B5044601F0EFF8DFF8BC53EE6B57
:1035300014B9DFF88809C468EC632046FFF7E7FF99
:1035400001F091FD2046FDF7DAF9B0F90010296489
:10355000B0F90200686401F0CFF8304670BDDFF8C2
:103560006C09C06B704770B584B0DFF86449D4E96A
:103570000201CDE90001206920B92088ADF80000E2
:10358000608811E0A089401CADF800006089ADF8AA
:103590000200B4F90400BDF90010884206DA208860
:1035A000ADF80000E089401CADF80200B4F9060057
:1035B000BDF90210884268DBDFF81059E86BFDF7AF
:1035C000A6F90290BDF90000B4F90010884218D1A4
:1035D000E088ADF80600A088ADF80400E86B08E0CC
:1035E000FDF78DF90646002200A9306AFFF71CFDA1
:1035F000B0690028F4D1002200A90298C069FFF741
:1036000013FDBDF80000ADF80400E86B0AE0FDF71B
:1036100076F90646002200A9306AFFF753FD00281C
:10362000EFD1B0690028F2D1002200A90298C06948
:10363000FFF748FD0028E4D1B4F90400ADF8040018
:10364000BDF90010884207DADDE90001C4E9020192
:1036500002A8FDF767F9A2E7E86B08E0FDF74FF96C
:103660000546002200A9286AFFF76DFDA869002819
:10367000F4D1002200A90298C069FFF764FD02A8F6
:10368000FDF750F92069C92802DB002004B070BDA5
:10369000DDE90001C4E90201012004B070BD9248D7
:1036A00090F8480000B9704710B5DFF82448606909
:1036B000022805DA2069401C2061FFF754FF20B979
:1036C0006069401E6061002010BDFFF704FB01200F
:1036D00010BDF0B587B00646834F07F13804207C53
:1036E00010B9FFF7F8FA06E0DFF8E4576869401C04
:1036F0006861022802DB012007B0F0BD6068FDF7B9
:1037000006F900904FF0FF302861287E30B3009A10
:10371000D2E90201CDE902011EB1314602A801F051
:10372000FFF8B86BDFF8946740B300990191D0E9D6
:103730000023CDE90423706E30B101A8FDF7F2F843
:10374000706EFDF7E4F8019004A90198FFF79EFB65
:1037500004A902A801F0E4F801A810E0009890F88C
:103760002800800703D5009AD2E90001D2E76869F2
:10377000401E686100A8FDF7D5F810E000A8FDF72D
:10378000D1F8716E19B102A8FFF767FA20B161682C
:1037900002A8FFF762FA28B96869401E6861002034
:1037A00007B0F0BDDDE90201C5E90001FFF777FFD1
:1037B00007B0F0BD80B500F04FFFDFF81007002123
:1037C000816301BD70B588B00446FDF7A0F8009094
:1037D000866A0569D0E90223CDE9012300A8FDF737
:1037E000A1F895B3B00730D52E21204604F0E6F9B4
:1037F000DFF8DC56287E401C2876F0040BD50494B4
:103800000F20039001A80690FFF7D4FF03A92046DC
:1038100004F0A6FE12E001A8FFF75BFF70B104946C
:103820000F20039001A80690FFF7C4FF03A92046CC
:1038300004F096FEFFF733FF0028F0D1287E401EEB
:1038400028762F21204604F0B9F908B070BD2DE983
:10385000FC418046244DE86BFDF759F80190404645
:10386000FDF755F8009001460198083000F050FE31
:1038700068B32E6C6F6C019800F10802009901F199
:10388000080001F06DF801A8FDF74CF8144CC4F8DD
:1038900064800098B0F9000028640098B0F9020034
:1038A000686400A8FDF73EF84046FDF728F8806AF6
:1038B000C0034CBFDFF81C16DFF81C1640468847D3
:1038C000002060662E646F640120BDE8F68101A8C7
:1038D000FDF728F800A8FDF725F80020BDE8F681DF
:1038E0007CA1001090A1001078A00010C0A20010D0
:1038F000F0B583B00646FDF70AF8009090F828006E
:10390000800741D50098C7693CE03846FCF7FFFFC7
:10391000019090F8280000F0030003282DD10098B2
:1039200000F10801019800F0F3FD30B30098D0E9F0
:10393000024500A8FCF7F6FF01A8FCF7F3FF3846A4
:10394000FFF785FF70B13846FCF7D9FF0190384684
:10395000FFF7CEFF3846FCF7D2FF01903046FCF768
:10396000CEFF00903046FCF7D2FF00903846FCF7BF
:10397000CEFF01900098C0E902450198076A01A8AE
:10398000FCF7D0FF002FC0D100A8FCF7CBFF03B09D
:10399000F0BD2DE9FC410746DFF83065F06BFCF720
:1039A000B6FF0090D0E90248D6E90223C0E902231D
:1039B00000A8FCF7B7FF3F683846FCF7A8FF019066
:1039C000806A40F60101084001280ED001A8FCF7EA
:1039D000A9FF3846FCF793FF806AC0034CBFDFF8AD
:1039E000F414DFF8F41438468847DFF8D004006E8A
:1039F00020B33846FFF77CFF3846FCF780FF876925
:103A0000056A19E02846FCF77AFF90F8280000F0D4
:103A10000300032804BF2846FFF719FF2846FFF7D5
:103A200067FF2846FCF76BFF056A002DEAD1384690
:103A3000FCF765FF056A8769002FF6D1F06BFCF78C
:103A400066FF0090C0E9024800A8FCF76BFFBDE8E4
:103A5000F381F1B584B00024FCF759FF0190D0E95F
:103A60000223CDE902230198856A8669076901A8C6
:103A7000FCF758FF44F22000054276D0002F5ED0BC
:103A8000049902A8FFF7E9F8002858D00498FFF736
:103A900048FD68070FD5002E0EBF012005F001007C
:103AA00080F001000090002304AADFF8301402A87F
:103AB00002F03EFB43E0049C2046FCF728FF009008
:103AC000806A40F60101084001280ED000A8FCF7EA
:103AD00029FF2046FCF713FF806AC0034CBFDFF8C4
:103AE000F413DFF8F41320468847DFF8D003006EA4
:103AF00020B32046FFF7FCFE2046FCF700FF846958
:103B0000056A19E02846FCF7FAFE90F8280000F054
:103B10000300032804BF2846FFF799FE2846FFF755
:103B2000E7FE2846FCF7EBFE056A002DEAD12046A9
:103B3000FCF7E5FE056A8469002CF6D1012404989F
:103B4000FCF7E5FE0190816ADFF894231140816261
:103B50008A0444BF41F00401816201A8FCF7E2FE3F
:103B6000DFF858038188491E8180204605B0F0BDEA
:103B70002DE9F043B9B00124D04DAE6E06B9EE6820
:103B800000A800F0E1FCD14FD7F83080D7F834908E
:103B90004EB90CE03046FFF75CFF00B1641E3046C2
:103BA000FCF7ADFE4669002E18BF002CF2D1AE66C0
:103BB0004046FCF72DFB4846FCF722FB402207F16C
:103BC0004C0113A80BF036FA402207F18C0123A810
:103BD0000BF030FA00A800F0BBFC39B0BDE8F08370
:103BE00080B5FCF78CFE816A41F400418162B348E4
:103BF0000121C16601BD2DE9F04182B0002500F030
:103C000083FDB24CAD4E00E00125F06EF0B100F046
:103C10007BFDF76807E0B846074600A8FCF782FE80
:103C20004046FFF7EAFB6FB13846FCF770FE0090A4
:103C300040690099896A0904EDD4074600A8FCF799
:103C400071FEF0E70020F06600F056FDB06D010057
:103C500018BF8047A3480068010002D080470028B1
:103C6000D2D194F8480080B100F0FAFB0028CBD103
:103C700094F8480000281CBFB088002805D0012710
:103C8000F06D20B10068804704E0002702E00120C9
:103C900000F0F0FE00F030FD00E0012594F848004F
:103CA00050B1B08840B100F02FFDFFF761FF00F088
:103CB00023FDB0880028F0D100F026FD37B1F06D6B
:103CC00010B14068804701E000F0D4FE00F014FD20
:103CD0002846BDE8F68110B5044620680E2802D0BB
:103CE0000F2809D02EE0E068416801292ED1006834
:103CF000BDE8104000F081BB60680021724A52F8B4
:103D0000043B98421EBF491C52F8043B98421EBF18
:103D1000491C52F8043B984209D0491C52F8043B14
:103D2000984204D0491C1029E9DB4FF0FF316E485E
:103D300050F821006FF07041884203D0FCF760FA20
:103D4000FDF724F82046BDE8104012E010BD5F48A2
:103D5000012180F84810704780B55C48002180F848
:103D6000481000F0D1FC01F07EF9BDE8014000F000
:103D7000C3BC10B50446606821680E290FD0142911
:103D800006D0172909D022290ED028290FD002E009
:103D9000E16803F0FBFD0020E060E06010BD21461B
:103DA000BDE8104003F017BF6FF07040F5E7002149
:103DB000BDE81040FFF727BA10B440480021017059
:103DC000C16601613F4901F140020423002442F829
:103DD000044B41F8044B42F8044B41F8044B42F8C1
:103DE000044B41F8044B42F8044B41F8044B5B1E72
:103DF000EDD1046644664465C46510BC70472DE986
:103E0000F04F85B02D4C2078002853D1E060A0669B
:103E1000DFF8B880C8F83800A0806080002604F180
:103E20001407314D6FF0704940F6FF7ADFF8BCB0EF
:103E30003046FDF747F8A0B100200390CDF808B058
:103E4000022001904FF0FF3000905346524600216F
:103E50000020FFF71DFA3860C5F800900021FFF739
:103E6000D2F9761C2D1D3F1D102EE1DB204E214F77
:103E7000214D4FF01009304603F070FD384603F035
:103E80006DFD284603F06AFD083508370836B9F19C
:103E90000109F0D16069FFF744FB012088F8480070
:103EA00020701648206704F1700005B0BDE8F04F9F
:103EB000FCF7D3BF05B0BDE8F08F00007CA1001077
:103EC0009F3F070034A2001090A1001078A00010BE
:103ED000B8A2001043660000C53700009339000007
:103EE000DFBFFFFF5CA10010F4A10010D73C000071
:103EF0002CA40010ACA400102CA50010B93D0000AB
:103F000070B582B00C460025FCF701FD0090C66933
:103F100000A8FCF707FD03E03046FCF7F0FC066A5A
:103F200066B1304600F01CF8A04201D1304676BDA3
:103F300021463046FFF7E4FF0500EDD0284676BD68
:103F400070B504460D46002644B100F0DDFB29465D
:103F50002046FFF7D5FF064600F0CEFB304670BD89
:103F600030B585B000A900220023144615463CC197
:103F70001521009100A9FFF722F9039805B030BD83
:103F80000849C0F3C422525CC0F34513DFF818C0DF
:103F900013F80C3002EB032200F01F00405C02EB30
:103FA00000407047F87402001875020038B50446E6
:103FB0000D4600F009F82B460022C1B2204601B0A0
:103FC000BDE8304000F01FB80121020002D5524286
:103FD00000E0491C0FF2C00353F821309A4201D38C
:103FE0000A29F6DB002848BF491C0846704701280B
:103FF00008DB0A68521C0A602B2302F8013D09689D
:1040000000220A70704770B410F1004F0AD10124E9
:104010006FF000401D686D1C1D602D2605F8016DB8
:10402000491E0DE00024002808D51D686D1C1D6088
:104030002D2605F8016D4042012500E00025491BB1
:1040400062B1491E0AE006FB150009B904B16D1CF6
:104050001E68761C1E60303506F8015DC9B2A1B13C
:104060000D46691E954206D11D686D1C1D60094EE6
:10407000367805F8016DC9B20FF21C0555F82160BC
:1040800090FBF6F5EDB20A2DDDD318680021017022
:1040900070BC7047C4000010010000000A0000005E
:1040A00064000000E803000010270000A086010063
:1040B00040420F008096980000E1F50500CA9A3B47
:1040C00038B5044600F020FB2046FCF70CFC050048
:1040D00009D0FCF71CFC00902246002100F0D2FC25
:1040E00000A8FCF71FFC00F007FB284632BD0000CB
:1040F00000E0806828B10288914224BF42888A4249
:10410000F7D370472DE9F04387B00546384CB4F932
:104110002A602946E069C069FFF7EAFF00284CD011
:104120000188691A406800EBC105AF78304600F09D
:104130003BFD8146E0692F49096805916968049152
:10414000039701210291C17E0191817E0091037E3E
:104150002A78B4F92410B4F9220000F0A1FEE06935
:10416000417E027E8A421DD2C07E00FB01F700FB29
:1041700002F8022E16D005F019F8064605F00AF8E6
:10418000FCF746F8B4F92200B4F924107B182A7819
:10419000E769FF7E07FB0202414400F07DFD3046E7
:1041A000FCF736F8484600F0FFFCB4F922006978C5
:1041B000E269927E02FB0100608407B0BDE8F083F3
:1041C00070B505460C460A48C6692946F069FFF7EE
:1041D0008FFF60B1B17E0288AA1A436803EBC20068
:1041E000407848431CB113F832205143216070BD20
:1041F00078A00010DC01001001200880704780B515
:10420000C069FFF775FF00B1012002BD2DE9F04F35
:1042100083B0040072D000F077FA04F0F2FA054699
:10422000384EB6F9228004F0D6FA0746B08CC01B8F
:10423000B08447F6FF792078002856D049462046BA
:1042400004F00BFB82465146204604F02EFB8346C9
:1042500096F82C0000F00300012806D0022806BFC3
:104260000BEBDB704010002000E05846718C081A00
:104270007084ADF80000BDF800005844401EADF851
:104280000400B6F92400ADF802004019401EADF854
:10429000060000AA5146204604F02FFBBDF802009C
:1042A000B0845146204606F0D6F8041920780A2832
:1042B00018BF0D2811D196F82C0000F00300401E05
:1042C000012894BF4046B6F92000708420780A285F
:1042D00007D1B08C2818B08403E0BDF80000584422
:1042E000708414F8010B0028A5D1B08C3818B08464
:1042F000B08D20F00300B08500F0FEF903B0BDE8FA
:10430000F08F00BF78A0001070B504460D46164629
:1043100000F0FAF90448458486842046FFF776FFCA
:10432000BDE8704000F0E8B978A00010017E00E020
:10433000417EC07E4843704710B5044600F0E4F962
:104340000C48848405E010B5044600F0DDF9094806
:10435000448400F0D1F9002010BD38B504460D4664
:1043600000F0D2F903484484858400F0C5F90020A8
:1043700032BD000078A0001000B9704710B411B32E
:1043800012B3B2F90030B1F900409C42B8BF2346E5
:104390000380B1F90230B2F90240A342C8BF2346FC
:1043A0004380B2F90430B1F90440A342B8BF2346B8
:1043B0008380B2F90630B1F90640A342B8BF234664
:1043C000C38010BC70471146D1E90023C0E9002327
:1043D00010BC704758B10388CB1803808388C91874
:1043E0008180418851184180C1885118C18070472F
:1043F0003249886800228A60704730498A6802B969
:10440000886000F054BA80B500F07EF92B4841680E
:1044100000F15C0300E0026002688A4205D09A4223
:104420000CBF00F10C020832F5E7BDE8014000F0D6
:1044300063B918B4214A536818605960116802F1D1
:104440005C04A3420CBF02F10C0403F1080409B19F
:104450008C4200D023465360906011BC00F027BA14
:1044600010B5002400F050F9144A136850688342D4
:104470000CD01868596802F15C04A3420CBF02F129
:104480000C030833136007F07DFF012400F034F9BA
:10449000204610BD38B504460D4607F073FF20B91D
:1044A00029462046BDE83440C3E731BD03490968C9
:1044B00019B1D1E90023C0E9002370473C01001085
:1044C00010B500F021F90A48047E04E010B500F0B0
:1044D0001BF90748447E00F00FF9204610BD38B59F
:1044E000044600F011F90248057E04760CE0000055
:1044F00078A0001038B5044600F006F9004801E045
:1045000078A00010457E447600F0F6F8284632BDCB
:10451000B1F90620B0F902309A42A2BFB0F90620E4
:10452000B1F902309A420DDBB1F90420B0F9003044
:104530009A42A2BFB0F90400B1F90010884201DB31
:104540000120704700207047004907E078A0001064
:104550000146014802E000BF78A00010E0220AF006
:1045600069BD000070B50446144D6E7C00F0CCF8B7
:10457000102C3CBF6C7404F016FF1148046000F06E
:10458000BBF8304670BD38B504460D46FCF79AFCC2
:10459000009048B1032100A8009AD268526A90475F
:1045A00010B1084840F8245031BD002110283CBF0C
:1045B000044951F8201008467047000078A0001008
:1045C00084A10010D4A2001070B504460D46164612
:1045D00000F09AF8324629462046FCF762FF0AE0CE
:1045E00070B504460D46164600F08EF83246294650
:1045F0002046FCF729FF044600F07EF8204670BDF7
:1046000038B504460D4600F07FF829462046FCF7F1
:1046100033FF08E038B504460D4600F075F829462A
:104620002046FCF7CFFE044600F066F8204632BD77
:1046300070B504460D46164600F066F83246294627
:104640002046FCF7A0FF10B1002028603060BDE8D4
:10465000704000F051B8000080B50020FBF7D0FD9D
:104660006FF07F40FBF7D4FD0120FFF738FF0020FB
:1046700005F044FC002005F04FFC002005F016FC7E
:104680000448006805F01EFC0020BDE8024005F06B
:1046900027BC0000CC00001080B500F035F8FFF713
:1046A000DBFFBDE8014000F027B8000038B5044644
:1046B0000D4600F029F8094804800948058009489A
:1046C000417C00EB8100C06C2A462146C3681B6A0E
:1046D0009847BDE8314000F00FB800BF68A1001056
:1046E0006AA1001078A0001010B54C4C2068FCF7AF
:1046F00097F80020206010BD48480169491E0161FB
:1047000008BF0CF0AAB870472DE9F041434C20696E
:1047100020B10CF096F8A168814204D00CF09CF80E
:104720000CF08FF8A0602069401C206101282AD17C
:104730000026E42500E0761CE06886420BDA0CF0E7
:1047400080F805FB06F122688B58834204D0002BC9
:10475000F1D1885000E000266068864213D000281E
:1047600010D42768DFF8B88005FB0070001D4146B3
:10477000E0220AF05FFC404605FB0671091DE022BD
:104780000AF058FC6660BDE8F08138B5234C254836
:10479000606104F11400FCF760FBE068E42101FBB8
:1047A00000F52846FCF744F820602A46002100F076
:1047B00069F920680028FDD04FF0FF306060BDE847
:1047C00031400CF048B870B51448C468012C0BDBBC
:1047D0000568134E281D3146E0220AF02BFC00200C
:1047E00045F8E40B641EF5D170BD38B504460025CC
:1047F000FFF78AFF0948C1688C4204DAE4210068A7
:1048000001FB0400051DFFF777FF284632BD034971
:104810000A68002AFDD1C86070470000A00100109E
:1048200078A00010E946000018B40C4A1368C31AB7
:1048300048BF5B4254680C1B48BF6442E318032B1B
:1048400004DB1060516014BC05F0B4BD11BC7047AE
:10485000024A1368036050680860704714A3001090
:1048600000787047012070470120704701700120D7
:10487000704780B5FFF748FF03480FF21001016051
:10488000BDE80140FFF738BFC800001061480000D4
:1048900065480000694800006D4800001D49086037
:1048A00070471D49086070471B49486070471948A8
:1048B0000068010018BF0047704738B5FFF724FFB4
:1048C00016480468FCF78CF824B12546FFF714FF5E
:1048D0006D1EFBD1104D686850B105F0CEFB50B194
:1048E00005F0D7FB58B169680A0008D0884706E090
:1048F00005F0C3FB18B92868010018BF80471CB138
:10490000FFF702FF641EFBD1FCF76FF8BDE83140F2
:10491000FFF7F2BE1CA30010BC010010B001001094
:10492000B1F90020B0F900309342B8BF0280B0F96D
:104930000220B1F902309A42B8BF1A464280B1F95A
:104940000420B0F904309A42C8BF1A468280B1F9F7
:104950000620B0F906309A42C8BF1A46C280704796
:1049600010B4B1F90030B2F900409C42A8BF234610
:104970000380B2F90230B1F90240A342B8BF234626
:104980004380B1F90430B2F90440A342C8BF2346C2
:104990008380B1F90630B2F90640A342C8BF23466E
:1049A000C380B0F90410B0F900209142A2BFB0F961
:1049B0000610B0F902008142B4BF0020012010BCF3
:1049C0007047000070B582B005460124102D4FDA03
:1049D00079B302291CD04BD2284E56F82500A8B92D
:1049E0002846FCF76FFA0090002841D00D2100A85E
:1049F000009AD268526A9047020039D0012100988B
:104A00009047002456F82500401C2FE0401C2DE064
:104A1000FCF758FA009058B30D2100A8009AD2680C
:104A2000526A9047020023D0022100989047002448
:104A30001EE0124E56F82500012810D12846FCF73A
:104A400041FA009058B10D2100A8009AD268526A2C
:104A50009047020003D0002100989047002456F8A8
:104A60002500411E8941C943B0EBD17046F82500AD
:104A7000204676BD01460248407CA3E720A30010F3
:104A800078A0001010B402E000F8011B521E002AAA
:104A900018BF10F00303F7D1930819D002F00302F6
:104AA0004FF001344C43042B0BDB40F8044B40F82F
:104AB000044B40F8044B40F8044B1B1F042BF4DA62
:104AC00033B140F8044B5B1EFAE700F8011B521E9D
:104AD000002AFAD110BC70472DE9F04182B005469A
:104AE000884600262F68384605F0D0FD40B3404682
:104AF00005F0DCFD441C3846FBF78EFF84420CD1E8
:104B0000F4B13846FBF703FF0090224641460AF015
:104B100091FA00A8FBF706FF11E02046FBF7E3FE41
:104B200007000DD0FBF7F3FE009041460AF0C8FAEB
:104B300000A8FBF7F7FE2846FBF79DFF2F60012634
:104B40003046BDE8F681000080B5DFF80C164A6BF0
:104B5000824205D0486300F0D6FABDE80240E9E29F
:104B600001BD80B5DFF8F0150A6B824205D00863FD
:104B700000F0C9FABDE80240D5E201BD70B4DFF82B
:104B8000D825117C80EA01035B0709D5DFF8CC3515
:104B90001B681C68DFF8C8552D682E681E602C60E5
:104BA0001074084670BC7047DFF8B815096889684A
:104BB000084738B5DFF8A025B2F90A309942A4BFFA
:104BC000B2F90E308B4220DBB2F908309842A4BF14
:104BD000B2F90C30834218DB537C02EB8303DC6CAC
:104BE000E568127CD20707D50A4601462046EB69E4
:104BF00001B0BDE830401847DFF86425126813683B
:104C00000A4601462046AC69A04731BD10B5DFF821
:104C10004835B3F90A40A142A4BFB3F90E408C4213
:104C200016DBB3F90840A042B8BF2046B3F90C40E8
:104C30009442B8BF224682420ADB5C7C03EB8403C9
:104C4000DC6C13460A4601462046E468A468A04787
:104C500010BD10B5DFF80035B3F90840A042A4BF7D
:104C6000B3F90C40844216DBB3F90A40A142B8BF45
:104C70002146B3F90E409442B8BF22468A420ADB6D
:104C80005C7C03EB8403DC6C13460A460146204639
:104C9000E468E468A04710BD38B5DFF8BC44B4F957
:104CA0000850A842B8BF2846B4F90C509542B8BF86
:104CB0002A46824217DBB4F90A50A942B8BF2946F6
:104CC000B4F90E509D42B8BF2B468B420BDB657C7E
:104CD00004EB8504E46C009313460A460146204623
:104CE000E4682469A04731BD2DE9F04F87B0044640
:104CF0001546DFF874040768109810901198119009
:104D00001298129013981390149E159815906FB1E5
:104D100005900496139803901298029011980190B0
:104D20001098009020463C68A047B6E05818401EF6
:104D30002A19521E109FDDF844C04CEA0707012FC4
:104D40003AD1DFF81474B7F90AC0ACEB0107012FB0
:104D500008DBDB1B012BC0F28A806146DDF84CC00A
:104D60000CFB0766DFF8F073B7F90E70C71B012F55
:104D700002DBDB1B012B7ADBDFF8DC03B0F90C0074
:104D8000101A0128A8BF2D1A1698241A0746DFF812
:104D9000C823B2F9082094420BDAD7193F1BAA1A8C
:104DA000A51806EBE706381A20F00700041907F0EB
:104DB0000707012D5BDB5BE01298C0F1080004904F
:104DC0000F46012B53DB009311983818401E0190B9
:104DD000DFF88413B1F90A108842A2BFDFF8780324
:104DE000B0F90E00B842A2BF0396A046012D36DBF3
:104DF000A94602E0BBF1000F06D10398401C0390C6
:104E000010F801AD4FF0080B5FFA8AF2049842FAED
:104E100000F0C0B2129902FA01FAABEB010B18B91B
:104E2000CD49097C890715D4CD4909680A680292E1
:104E3000159A12B1159A52F820000860019B10983B
:104E40004044421E39464046FFF726FFC4480068EA
:104E50000299016010988044B9F10109CAD11198F2
:104E6000C719139886190098401E0090ACD114E021
:104E7000B948407CB84A02EB8000C06C159A059294
:104E800004970396139A0292129A019200932B466A
:104E90000A462146C4686468A04707B0BDE8F08FA1
:104EA0002DE9F04F87B004461546AF4807681098C3
:104EB0001090119811901298129013981390149EBC
:104EC000159815906FB10590049613980390129859
:104ED0000290119801901098009020463C68A047DD
:104EE000DBE75818401E2A19521E109FDDF844C0F7
:104EF0004CEA0707012F5CD1974FB7F90AC0ACEB1A
:104F00000107012F08DBDB1B012BC0F2AB806146E0
:104F1000DDF84CC00CFB07668F4FB7F90E70C71B4E
:104F2000012F03DBDB1B012BC0F29C808A48B0F908
:104F30000C00101A0128A8BF2D1A00278648B0F9C6
:104F40000800844232DA071BED1B129801280CD0AE
:104F5000022812D0042818D008281ED010281ED0ED
:104F6000182818BF20281DD020E006EBE70627F000
:104F70000700041907F0070718E006EBA70627F05B
:104F80000300041907F0030710E006EB670627F09B
:104F90000100041907F0010708E0BE1904E006EB60
:104FA000470601E006EB87063C190027012D59DB77
:104FB0005EE71298C0F1080004900F46012B51DB08
:104FC000009311983818401E01906349B1F90A10F6
:104FD0008842A2BF6048B0F90E00B842A2BF039653
:104FE000A046012D36DBA94602E0BBF1000F06D139
:104FF0000398401C039010F801AD4FF0080B5FFAC6
:105000008AF2049842FA00F0C0B2129902FA01FA48
:10501000ABEB010B18B95049097C890715D45049ED
:1050200009680A680292159A12B1159A52F820007E
:105030000860019B10984044421E39464046FFF7E5
:105040002BFE474800680299016010988044B9F12E
:105050000109CAD11198C719139886190098401EE2
:105060000090AED119E73C49487C01EB8000C06C50
:105070000831C268126B1047F8B5FFF7F4FF00F073
:105080006BF9040013D100252846FBF71BFF0090A5
:1050900050B10C2100A8009AD268526A90470100D2
:1050A0002FD00098884704436D1C102DECDB00F0D6
:1050B0008AF90F2540F6FF762A4F2846FBF702FFB4
:1050C0000090D0B12846FFF74DFA0420396889686E
:1050D00088473346324600210020FFF7DDFD0020DF
:1050E0003968896888470E2100A8009AD268526AF8
:1050F000904701001CBF009888476D1EDDD52046F3
:10510000F2BD0120F2BD14494A7C01EB8201C96C59
:1051100009690968084710494A7C01EB8201C96C9A
:105120000969496808470C49097C49074CBF0B4984
:105130000B4905E00849097C49074CBF0849074964
:1051400009680860704707490968496808470549C0
:10515000096809680847000078A00010DC01001009
:10516000E0010010C401001064A10010724A11682F
:1051700010600846704780B502EB0212D2B205F00B
:105180000BFA6D490968084002BD2DE9F04105465A
:105190000E4617003CD0694CB4F90A008642A4BF01
:1051A000B4F90E00B04233DBB4F908008542A4BF65
:1051B000B4F90C00A8422BDB6148006803680F2F8C
:1051C00007D3607C04EB8000C06C32462946C4687B
:1051D0001CE01846FFF79FFF80463146284605F041
:1051E0007CFA014607EB0712D2B2404605F0D4F92B
:1051F000514909680840FFF786FF617C04EB810193
:10520000CC6C0346324629462046E468A469A04790
:10521000BDE8F0812DE9F04104468846160037D0FC
:10522000464FB7F90A008045A4BFB7F90E004045C4
:105230002EDBB7F908008442A4BFB7F90C00A042E6
:1052400026DB204605F049FA05463D48006800681F
:10525000FFF761FF0F21C2B27243B2FBF1F26A4065
:1052600000F47F437343B3FBF1F35A4000F47F0033
:105270007043B0FBF1F05040FFF745FF0346787CE8
:1052800007EB8000C06C42462146C468A469A04771
:10529000BDE8F0812DE9F04105460E461746274C42
:1052A000B4F90A008642A4BFB4F90E00B04240DB54
:1052B000B4F908008542A4BFB4F90C00A84238DB59
:1052C00057B9607C04EB8000C06C1E4909680B680C
:1052D00032462946C4682AE01948006803680F2F3F
:1052E00007D1607C04EB8000C06C32462946C4685C
:1052F0001DE01846FFF70FFF80461248006800685F
:10530000FFF709FF014607EB0712D2B2404605F04E
:1053100043F9094909680840FFF7F5FE617C04EB91
:105320008101CC6C0346324629462046E468A469D4
:10533000A047BDE8F0810000C801001078A000106F
:10534000E0010010DC01001010B53F4C6068FBF775
:1053500067FA0020606010BD10B53B4C606868B90A
:1053600020688000FBF764FA606008B9012010BD76
:105370003648A06004F10800FBF76FFD002010BD67
:10538000F8B500281CBF8468002C06D02E4D696833
:1053900019B10668B6F5807F01DD0020F2BD2868EE
:1053A000B042B8BF06460027012E09DB54F8040BB3
:1053B000FFF7A9FE696841F827007F1CB742F5DBBB
:1053C0006868F2BDDCE72DE9F04705F079F904469D
:1053D0000025012C2DDB1E4EDFF878A02846FBF7B8
:1053E00071FD10B32846FFF7BDF880462846FBF74D
:1053F00033FF092816DAF06C0069504512D02846B0
:10540000FBF72CFF81460027B9F1010F0ADBF8B248
:10541000FFF781FE0246F9B22846FCF79CF87F1C94
:105420004F45F4DB4046FFF79DF86D1C361DA54245
:10543000D4DBBDE8F087811EFF2901D3012070472E
:105440000149086000207047CC010010495300005A
:1054500078A00010D883020030B583B00446084D10
:10546000687C05EB8000C06C00A9C268126B904795
:1054700000AA214605F10800FFF772FA03B030BD1B
:1054800078A00010F8B504460D461646FBF73FFA23
:1054900002460092162100201268D268526A904794
:1054A000074600A8FBF73EFA380003D032462946EB
:1054B0002046B847F1BD2DE9F34F83B090461D4615
:1054C0000F980026DFF8CCB2109910919BF811309C
:1054D0000022FBF70AFD040042D020698068804763
:1054E000FBF757FF814609FB08F0C01D4FEAD00AC1
:1054F000FBF760FA0E9FF90705D4411000EB91709D
:10550000801000EB4000012D07DA1838B0FBFAF0EC
:1055100069420D468542C8BF0546F80707D4009684
:105520002B4642460499039805F07FFF0646012D5D
:1055300003DA2046FBF7D7FC12E00AFB05F018302F
:10554000F90702D5FBF7CFF901E0FEF7B9FD070037
:1055500008D12046FBF7C7FC16B13046FBF768FAC6
:10556000002019E0FBF7D3F90190046003998180D2
:105570000499C180A0F808804581C0F80CA0C0F84B
:105580001090466101A8FBF7CDF910982061A76043
:105590009BF81100A061384605B0BDE8F08F38B522
:1055A000044600258CB1FFF7AFF82046FBF7AFF9B2
:1055B00000900068006980688047FBF7EAFE0546B6
:1055C00000A8FBF7AFF9FFF797F8284632BD10B5F2
:1055D00082B004001CD0FFF797F86E48D0F8CC00DA
:1055E000A04208BF03F0DFFE2046FBF790F90090D1
:1055F000406908B105F04AFE00980068FBF773FCAB
:1056000000A8FBF78FF92046FBF712FAFFF774F8B2
:1056100013BD2DE9F04784B00446884691469A466A
:105620000C9D0026FFF770F85A49487C01EB800179
:10563000CF6CF9680968042903D03F68002FF8D1BE
:1056400000E017B9FBF73EFC074601213846FA682F
:10565000D26A904750B13969029101900095534642
:105660004A4641462046FFF726FF0646FFF744F824
:10567000304604B0BDE8F08710B582B00024009435
:10568000FFF7C7FF16BD70B582B00546FFF73CF8BF
:10569000404ED6F8CC4015B903F085FE1EE00CB1A3
:1056A00003F081FEFEF758FB2846FBF730F9009027
:1056B000D6F8CC0028B906F1D000D6E90223C0E91B
:1056C0000023C6F8CC5000980068FBF747FC00A800
:1056D000FBF728F905F008F8FFF7C5FCFFF70CF811
:1056E000204676BD2DE9F04383B0040088469146FC
:1056F0004AD0FFF709F8002004F0D8FB05462548FA
:10570000D0F8CC602046FBF702F900900068806971
:10571000FEF728FF07462048804504D10098B0F9DD
:105720000480B0F90690ADF80480BDF8040000993B
:1057300009890818401EADF80800ADF80690BDF8BC
:105740000600009949890818401EADF80A00FEF7C6
:10575000FEFA00A8FBF7E6F801A8FDF7BAFF40B192
:105760004A464146204606F0E3F9FDF798FF002837
:10577000F6D13846FEF7F6FE3046FFF784FF28469E
:1057800004F094FBFEF7B8FF03B0BDE8F083024AD3
:105790001146A7E778A0001001F0FFFF2DE9F041C6
:1057A00084B006000C46154698460A9F1ED0FEF7A8
:1057B000ABFF3046FBF7ABF80290466902A8FBF757
:1057C000B1F88EB13046FBF7A2F80190781B401C6F
:1057D0000090A8EB0400431C2A462146019805F0DE
:1057E0006CFD01A8FBF79EF8FEF786FF04B0BDE84C
:1057F000F081000038B504460D46DFF8A008D0F867
:10580000CC00FBF784F80090B0F90410490049423D
:10581000B0F90620AA1AC36803FB020000EB44009B
:10582000081800F1180400A8FBF77CF8204632BDE8
:105830002DE9F84F884691460B99C1F10806DDF82D
:1058400028A09AF80020DFF85838D25C42FA01F418
:105850000C9D0D990F9FDFF84428127C12F0030273
:1058600006D0022A18D04ED3032A4CD0BDE8F18FBF
:10587000B54298BF2E46AD1B04F0010051F8200040
:1058800027F8020B6408761EF6D1002D6DD008268D
:105890001AF8010FC45CEBE7D1F804B00EE0E007A2
:1058A00048BFA7F800B0BF1C761E26D1002D5CD0E3
:1058B00008261AF8010FDFF8E817445CB54298BFD4
:1058C0002E46AD1BB8F1000F18D010E0E00708D548
:1058D000009A49464046D8F808301B689847A7F810
:1058E00000B009F10109BF1C761EDFD06408002C4E
:1058F000ECD107EB4607B144D8E76408002CCED1C1
:1059000007EB4607D2E7006980688047834605E0D9
:1059100008261AF8010FDFF88817445CB54298BFD3
:105920002E46AD1BB8F1000F13D0E0070AD5009A40
:1059300049464046D8F808301B68984738888BEAB3
:1059400000003880BF1C640809F10109761EECD103
:1059500009E0E00703D538888BEA00003880BF1CD7
:105960006408761EF5D1002DD2D1BDE8F18F2DE966
:10597000F84F884691460B98C0F10406DDF828A040
:105980009AF80010400001FA00F40C9DDDF834B0E4
:105990000E9FDFF80807007C10F0030004D00228F7
:1059A00019D040D3BDE8F18FF6B2B542B8BF2E464C
:1059B000F6B2AD1BE1B288115BF8200027F8020BAC
:1059C0008C00761EF6B2002EF4D1002D40D00426B5
:1059D0001AF8014FE8E7F6B2B542B8BF2E46F6B264
:1059E000AD1BC0210C420ED0E4B2A0115BF8200028
:1059F0003880B8F1000F06D0009A49464046D8F8E2
:105A000008301B689847BF1C09F10109A400761EE5
:105A1000F6B2002EE5D1DDB104261AF8014FDAE71F
:105A200004261AF8014FF6B2B542B8BF2E46F6B2B8
:105A3000AD1BC020044203D0388880F0FF003880BE
:105A4000BF1CA400761EF6B2002EF2D1002DE7D1C5
:105A5000BDE8F18F2DE9F84F0C4690469B460B9818
:105A6000C0F10201DDF8289099F80020830002FAC5
:105A700003F60C9DDDF834A00E9FDFF82026127C83
:105A800012F0030204D0022A2AD07AD3BDE8F18FA3
:105A900040B1F1B208115AF8200027F8020B6D1E30
:105AA00019F8016F022D12DB681005F00105F2B242
:105AB00011115AF8211027F8021B02F00F015AF8B1
:105AC000211027F8021B19F8016F401EEFD1002D9D
:105AD0006CD0F1B208115AF820003880BDE8F18F7F
