:020000040000FA
:10000000D0BE0010F9000000010100000301000053
:1000100005010000070100000901000000000000C8
:100020000000000000000000000000000B010000C4
:100030000D010000000000000F010000F579010033
:100040001301000013010000130100001301000060
:1000500013010000A9A80100130100001301000012
:100060001301000013010000130100001301000040
:100070001301000000000000130100001301000044
:100080001301000013010000130100001301000020
:100090001301000013010000130100001301000010
:1000A00071B70100130100000103000013010000FB
:1000B00013010000213E01001301000013010000A4
:1000C00013010000130100001301000013010000E0
:1000D00013010000130100001301000013010000D0
:1000E00013010000DFF80CD003F07EFC004800474D
:1000F000858E0200D0BE00100648804706480047A3
:10010000FEE7FEE7FEE7FEE7FEE7FEE7FEE7FEE7C7
:10011000FEE7FEE7FD7C0100E500000070B5044647
:100120000D462946204600F037F870BB00222146D4
:1001300004F1100002F020FB04F1100104F54E6000
:1001400000F07AF804F54E6104F6285002F0B0FF92
:1001500094F92C0D401C0ED10B2184F8EC1C0021CD
:10016000C4F8F01C6168C4F8F41C04F54E6104F690
:10017000285002F09DFF04F6285104F5536001F069
:1001800024FA18B16FF0010070BD01E00020FBE718
:100190004FF0FF30F8E7000070B504460D46002030
:1001A00000F0FDF910B14FF0FF3070BD124840680B
:1001B00060600020F9E770B506460C46154601233D
:1001C00022462946002000F095FA08B9002070BDAB
:1001D0004FF0FF30FBE770B506460C46154601238D
:1001E00022462946002000F0B9FA08B9002070BD67
:1001F0004FF0FF30FBE7000090B7001070B50546E8
:1002000005220021286802F0CDFD064600240CE0FE
:100210004FF4DF7000EB041205F1080000EB04114D
:10022000304600F03CF8601CC4B2042CF0DB3146D0
:10023000286802F059FE70BD70B504460D46256071
:10024000002020712046FFF7D9FF70BD0246505CA8
:1002500053185B7800EB032080B270470246C81C3D
:10026000105C0306881C105C03EB0043481C105C08
:1002700003EB0020535C1844704710B5425413122E
:100280004418637010BD10B54254130A44186370CB
:10029000130C4418A370130E4418E37010BD70B50E
:1002A00004460D461646A05D2870A0194078687077
:1002B000A0198178A970A019C178E970A0190079F6
:1002C0002871A01940796871A0198179A971A019C4
:1002D000C179E971A0190821FFF7C0FFA860A01932
:1002E0000C21FFF7BBFFE86070BD7047002070472E
:1002F000002070470020704770477047FFFFFFFFE6
:1003000010B513F0AFFB10BD2DE9F04303460F46C7
:10031000F908A7EBC100C4B2C4F1080090420BD9A0
:10032000585C20414FF0010808FA02F8A8F10108D2
:1003300000EA0800BDE8F0834FF0000C585C204153
:10034000C4F108094FF0010808FA09F8A8F10108FA
:1003500000EA080CC4F10800C5B2521B012609E0EE
:100360008819185CA84040EA0C0C083A05F108000E
:10037000C5B2761C082AF3D852B1881913F8008048
:1003800001209040401E08EA0000A84040EA0C0C02
:100390006046CFE710B50246002008E0135C0C1A57
:1003A000641E145D14540C1A641E1355401CB0EBEB
:1003B000510FF3D310BD2DE9F041002700BF13F01A
:1003C000ADFCF8490875084690F91400401C00D1AE
:1003D000E2E0F448183013F0C2FB00B1DCE013F0A7
:1003E00097FF00B1D8E013F04FFCEE49C86001F16F
:1003F000340013F001FC00B1CEE00421E9483430B0
:10040000FFF7C8FF0421E7483830FFF7C3FF042196
:10041000E4483C30FFF7BEFF0421E2484030FFF7DC
:10042000B9FF1021DF483430FFF7B4FF4FF40070FC
:10043000DC490860084690F843008711012F0BD172
:1004400016223021D7483430FFF75EFF0446601C87
:100450008002D449486020E00C223E21D14834304B
:10046000FFF752FF044603222F21CE483430FFF716
:100470004BFF064604225021CA483430FFF744FFA0
:100480000546B01C012101FA00F0611C4143012224
:10049000AA405143480AC3494860C24890F9140031
:1004A00020B3012804D002281CD0032842D118E030
:1004B00005222A21BB483430FFF726FF401CB949EA
:1004C000886004221621B7483430FFF71DFFB54974
:1004D00089688140B34881608068400AB14988607A
:1004E00029E000BF0120AF49886024E001222E21CD
:1004F000AC483430FFF708FF18B10120A9498860E3
:1005000017E007222721A7483430FFF7FDFE401CE3
:10051000A449886004221621A2483430FFF7F4FE73
:10052000A049896881409F4881608068400A9D4950
:10053000886000E000BF00BF13F0AAF800B12BE014
:10054000994813F057FF9748007D38B19548007DD2
:10055000022803D09348007D032804D1012013F022
:10056000A1FE28B118E0002013F09CFE00B113E0BA
:100570008C48007D012806D08A48007D18B1894842
:10058000007D022805D14FF4007013F051FE00B138
:1005900002E00120BDE8F08100BF0020FAE710B5BD
:1005A00004460CB1012010BD01208049087008F0FC
:1005B0009FFF002013F058FC10B17C480078F2E750
:1005C000FFF7F9FE012806D17848007820F00100F5
:1005D0007649087005E07548007840F002007349DC
:1005E000087072480078DEE708B53220704908804C
:1005F00009E0684613F04EFB28B9009810F4807F9C
:1006000001D0012008BD6A4800880028F1D100BF50
:10061000F8E72DE9F84380460F4615462E46B8F117
:10062000000F02D00420BDE8F8836048007810F085
:10063000010F01D00320F6E74FF001090F2F53D22D
:10064000DFE807F0080F151B525252525252212771
:1006500034524100FFF7C8FF012801D14FF00009D3
:1006600045E05048406828604FF000093FE04D48A1
:10067000008828804FF0000939E04A4880682860E7
:100680004FF0000933E04748007D30704FF000091B
:100690002DE0002405E043483430005D3055601CF7
:1006A000C4B2102CF7DB4FF0000920E03D481830B1
:1006B000002403E0015D3155611CCCB21C2CF9D340
:1006C0004FF0000913E0684613F0E4FA58B96846A1
:1006D000002403E0015D3155611CCCB2022CF9DB32
:1006E0004FF0000900BF02E04FF0040900BF00BF57
:1006F000484698E72DE9F04105460E4617461C4648
:1007000005B914B90420BDE8F0812848007810F03C
:10071000010F01D00320F6E722463946304613F098
:10072000CFFC90B900BF13F06FFB0028FBD1012C68
:1007300004DD13F0D3F808B10120E4E713F06AFBFD
:1007400008B10120DFE70020DDE70120DBE70146FB
:1007500009B10120704715480078FBE72DE9F04109
:1007600005460E4617461C4605B914B90420BDE8D7
:10077000F0810E48007810F0010F01D00320F6E759
:1007800022463946304613F0A9FED0B900BF13F017
:100790003BFB0028FBD1012C0CDD13F09FF848B186
:1007A0000120E4E790B70010002D31010402002081
:1007B0000802002013F02EFB08B10120D7E700202B
:1007C000D5E70120D3E70849088820B1411E89B246
:1007D0000846054A11800549088820B1411E89B2A2
:1007E0000846024A118070470602002008020020D5
:1007F00010B504460A2C03D10D20FC49096888472E
:10080000FB48006840B1FA4800680470F848006886
:10081000401CF749086010BD2046F4490968884724
:1008200000BFF8E710B5044603E014F8010BFFF72A
:10083000DFFF20780028F8D110BD2DE9F34F87B0F5
:10084000054600BF15F8014B04B9FBE0252C03D089
:100850002046FFF7CDFFF5E7002715F8014B302CB8
:1008600003D1012715F8014B04E02D2C02D10227FA
:1008700015F8014B4FF0000A07E00AEB8A0004EB81
:100880004000A0F1300A15F8014B302C01DB392C67
:10089000F3DD6C2C01D04C2C03D147F0040715F884
:1008A000014B04B9CEE02646612E02DBA6F1200002
:1008B000C6B24F2E42D006DC422E3CD0432E32D060
:1008C000442E45D13DE0532E04D0552E3AD0582E1B
:1008D0003ED13AE00898006801900898001D089001
:1008E0004FF0000901E009F10109019810F8090031
:1008F0000028F8D102E02020FFF77AFF17F0020F5E
:1009000004D1484609F101095045F4D30198FFF795
:1009100089FF02E02020FFF76BFF484609F101093B
:100920005045F7D38EE7089911F8042BD0B20891FF
:10093000FFF75EFF86E7022006900DE00820069094
:100940000AE000BF0A20069006E01020069003E0AF
:100950002046FFF74DFF75E700BF17F0040F05D0E5
:10096000089800680899091D08910CE0442E05D1EB
:10097000089800680899091D089104E00898006823
:100980000899091D08918346442E06D11BF0004F9B
:1009900003D0CBF1000B47F008074FF0000800BF71
:1009A0000698BBFBF0F100FB11B0C6B20698BBFB8A
:1009B000F0FB092E06DD782C01D1272000E007206E
:1009C0003044C6B206F13000C2B2404608F1010818
:1009D00002A90A54BBF1000F02D0B8F1100FDFD307
:1009E00017F0080F05D02D22404608F1010802A992
:1009F0000A54C14617F0010F01D0302000E020203A
:100A0000064602E03046FFF7F3FE17F0020F04D16E
:100A1000484609F101095045F4D300BFA8F101018E
:100A2000884602AA505CFFF7E3FEB8F1000FF5D14B
:100A300002E02020FFF7DCFE484609F1010950459D
:100A4000F7D3FFE600BF09B0BDE8F08F0FB408B5DB
:100A500003A8009000990298FFF7EFFE0020009095
:100A600001B05DF814FB0FB438B50446604804606B
:100A700006A8009000990598FFF7DFFE002000907F
:100A80005B49096808705A49086038BC5DF814FB76
:100A90002DE9F0410746884616463D46414655A099
:100AA000FFF7D4FF002404E0295D54A0FFF7CEFF38
:100AB000641CB442F8DB2020FFF79AFE00240CE00F
:100AC000295D202904DB295D7E2901DC295D00E008
:100AD0002E210846FFF78CFE641CB442F0DB0A208E
:100AE000FFF786FEBDE8F08170B502460D46002690
:100AF0000020286002E01068401C10601068017837
:100B00002029F8D02D2904D101261068401C10603E
:100B10000178302920D11068401C106001786229CA
:100B200007D078290BD110231068401C1060017881
:100B300011E002231068401C106001780BE02029AE
:100B400001DC012070BD302901DB392901DD0020E5
:100B5000F8E7082300BF06E0302901DB392901DD71
:100B60000020EFE70A23002419E0612902DBA1F14C
:100B70002000C1B2A1F13000C1B2112905DBC81FAC
:100B8000C1B2092901DC0020DCE7994201DB002029
:100B9000D8E704FB03141068401C1060017820297A
:100BA000E3DC06B164422C600120CBE72DE9F04183
:100BB00006460F46002500BF1248006880470446DD
:100BC00014B90020BDE8F0810D2C00D128E0082CDC
:100BD0001AD1CDB16D1EE0B2FFF70AFE2020FFF75B
:100BE00007FEE0B2FFF704FEE6E700001402002073
:100BF000100200202530386C5820000020253032AB
:100C0000580000000C020020202C08DB781EA842AF
:100C100005DD28466D1C3454E0B2FFF7E9FDCBE753
:100C200000BF002070550A20FFF7E2FD0120C9E750
:100C30000146002000E0401C11F8013B002BFAD1D6
:100C4000704710B5024600BF11F8014B02F8014B86
:100C5000002CF9D110BD30B5034601E003F8011BAB
:100C60001400A2F10102F9D130BD024606E010786D
:100C7000CBB2984201D110467047521C1078002820
:100C8000F5D100BFF8E7024692F8440001238B40FB
:100C9000184070472DE9FF4F85B004460E464FF0CF
:100CA0000009079F354600212046FFF7ECFF18B9E1
:100CB000002009B0BDE8F08FE06CB04200D80027FA
:100CC00007983044E16C884202D90FB1E06C871B71
:100CD0005CE0A06A80794002B5FBF0F00490690AFC
:100CE000A06A8079B1FBF0F200FB121BC5F308008B
:100CF0000390039810B9B7F5007F0DD2C5F3080033
:100D0000C0F50070B84201D3384603E0C5F30800CF
:100D1000C0F50070804601E04FF40078A06A04F14D
:100D20002C01049A01F09BFB08B10020C1E7606B25
:100D30000290A06A029900F06CFC8246B8F5007F30
:100D400009D1089B03EB09020AEB0B01A36A18689F
:100D500002F027FA16E00AEB0B01A26A10680122E2
:100D600002F0EDF90190089A02EB0901C5F30803BE
:100D7000019A9818424602F048FAA16A0868019957
:100D800002F0EFF94544C144A7EB0807002FA0D1BA
:100D900048468EE72DE9F04104460D461646334697
:100DA0002A462046A16CFFF775FF0746A06C384421
:100DB000A0643846BDE8F0812DE9F04704460F46AF
:100DC000904607EB0800E16C884228D9206C30B9C6
:100DD000A16BA06A01F037FC0646266400E0266C91
:100DE000A06A8088A16A897900FB01F5E06C28443B
:100DF000401EB0FBF5F0301A6843E16CA8EB01012E
:100E00003944884208D207EB080006FB1500284445
:100E1000401EB0FBF5F904E04FF0000901E04FF08F
:100E200000094846BDE8F0872DE9FF4F85B004462C
:100E30000F46DDF81CA000253E4600212046FFF7A6
:100E400022FF20B101212046FFF71DFF18B9002025
:100E500009B0BDE8F08FE06CB84200D2E76C3946CB
:100E60002046079AFFF7A8FF8146B9F1000F09D085
:100E700009F1020204F12C01A06A01F01EFB08B185
:100E80000020E5E767E0A06A80794002B6FBF0F059
:100E90000490710AA06A8079B1FBF0F200FB121095
:100EA0000390C6F308000290029810B9BAF5007FCB
:100EB0000ED2C6F30800C0F50070504501D350466D
:100EC00003E0C6F30800C0F500701FFA80F801E0E7
:100ED0004FF40078A06A04F12C01049A01F0BFFAE3
:100EE00050B1E06C2844E06404F12001E26CA06A97
:100EF00000F0C2FE2846ABE7606B0190A06A019942
:100F000000F087FB8346B8F5007F09D1089B5A198A
:100F1000039B0BEB0301A36A186802F054F916E077
:100F2000039A0BEB0201A26A1068022202F007F991
:100F30000090C6F30803009A9918089A501942467F
:100F400002F063F9A16A0868009902F00AF94644C0
:100F50004544AAEB080ABAF1000F94D1E06CC01B1B
:100F6000A84204D2E06CC11B691A0844E064284618
:100F70006EE72DE9F04104460D46164633462A46F3
:100F80002046A16CFFF750FF0746A06C3844A064D0
:100F90003846BDE8F0810246D06C884202D39164A5
:100FA000002070474FF0FF30FBE710B53AB190F8E2
:100FB000443001248C40234380F8443006E090F80C
:100FC000444001238B409C4380F8444010BD10B541
:100FD0008162C369C3640023836413680362147964
:100FE00024231C54002380F82C30438B848A03EB89
:100FF000044484630024C4630463846B446310BDAD
:101000002DE9F0418EB004460E4615461F4601A953
:10101000284600F07CFF612F7DD0722F02D0772F01
:101020007AD122E000230CAA2946304600F049FB81
:10103000012817D10CAA2146304600F0B8FD0CAAB1
:1010400031462046FFF7C3FF012200212046FFF76B
:10105000ACFF002201212046FFF7A7FF00200EB0C1
:10106000BDE8F0814FF0FF30F9E76B460CAA294646
:10107000304600F026FB10B16FF00100EFE700985A
:1010800010B96FF00300EAE700230CAA29463046A6
:1010900000F07FFB002844D001AA04A9304600F0EC
:1010A000B6FD0CAA04A9304600F099FD2022214685
:1010B00004A802F0AAF80CAA31462046FFF787FFE1
:1010C000A06A00F0FBFA80464146A06A00F0E3FA0D
:1010D0000090A06A04F12001009A00F0B3FD2046C0
:1010E000009900F0B4FB04F12C013046009A00F0A6
:1010F000A6FB304601F089F880464246304600990A
:1011000000F0D0FF012200212046FFF74EFF012210
:101110001146204601E007E099E0FFF746FF002076
:101120009DE76FF002009AE700230CAA294630469B
:1011300000F0C7FA01283BD10CAA2146304600F046
:1011400036FD0CAA31462046FFF741FFA06B00BBDD
:10115000A06A00F0B3FA80464146A06A00F09BFA0C
:101160000090A06A04F12001009A00F06BFD204677
:10117000009900F06CFB304601F047F8804642468B
:101180003046009900F08EFF0CAA31462046FFF74A
:101190001EFF2046E16CFFF7FEFE012200212046E3
:1011A000FFF703FF012211462046FFF7FEFE4CE049
:1011B00000230CAA2946304600F0EBFAE8B301AA56
:1011C00004A9304600F023FD0CAA04A9304600F023
:1011D00006FD2022214604A802F017F80CAA314689
:1011E0002046FFF7F4FEA06A00F068FA8046414608
:1011F000A06A00F050FA0090A06A04F12001009A61
:1012000000F020FD2046009900F021FB04F12C01A4
:101210003046009A00F013FB304600F0F6FF80469F
:1012200042463046009900F03DFF01220021204651
:10123000FFF7BBFE0122114600E003E02046FFF766
:10124000B4FE02E06FF0020009E7002007E76FF04C
:10125000030004E710B50446FFF74CF898B10020EE
:10126000608201212046FFF70EFD28B1E06CE061AD
:10127000608A20830020E08204F120022146A06AD7
:1012800000F00FFD0AE001212046FFF7FCFC28B129
:1012900004F12001E26CA06A00F0EEFC502120462F
:1012A00001F0BFFF002211462046FFF77EFE00221C
:1012B00001212046FFF779FE002010BD01462029BC
:1012C00012DB03DD302901DA2D290DD1392901DDA9
:1012D000412909DB5A2903DD612901DA5F2903D19C
:1012E0007A2903DD7E2901D058207047612905DB6A
:1012F0007A2903DCA1F12000C0B2F6E70846F4E742
:1013000070B502460C4600260025002303E020208D
:10131000E054581CC3B20B2BF9DB002310782E28A5
:101320000AD12070681CC5B250782E2802D1607096
:10133000921C26E0521C24E01BE010782E2803D1DA
:1013400016B90126082313E046B10A2B10DC1078E9
:10135000FFF7B4FFE054581CC3B209E0072B07DCC9
:101360001078FFF7ABFFE054581CC3B2681CC5B23D
:10137000521C107828B11078202802D010782F281D
:10138000DBD1002D05DD107808B9104670BD501C6A
:10139000FCE70020FAE70000014691F83C00032832
:1013A00001D1C86970470120FCE700B5024610462C
:1013B000FFF7F2FF106300BD90F83C1003290BD13A
:1013C0000289837A816903FB0123C169891E8279BD
:1013D00001FB0231C16205E00289837A018A03FBC5
:1013E0000121C162704740F6F572016A914205D24F
:1013F000012180F83C100022C2610DE04FF6F57229
:10140000016A914205D2022180F83C100022C2619B
:1014100002E0032180F83C10704730B583885B1EE2
:10142000848903EB4413848893FBF4F2038A23B189
:10143000038A43620024846103E0836943620024D9
:101440000482C38923B1C38983620024446103E019
:10145000436983620024C4810489837A456A03FB5B
:1014600005431344846AE11A8379B1FBF3F3036201
:1014700030BD014601208A88B2F5007F00D00020EF
:101480008A79012A00D100E000228B79022B01D158
:10149000012300E000231A438B79042B01D101239F
:1014A00000E000231A438B79082B01D1012300E0CF
:1014B00000231A438B79102B01D1012300E0002374
:1014C0001A438B79202B01D1012300E000231A431A
:1014D0008B79402B01D1012300E000231A4300D176
:1014E00000200A8902B900200A8A6AB10A681268D3
:1014F00008320B6893F9043002EB0312D3680A8AAE
:1015000093420ED200200CE00A68126808320B6881
:1015100093F9043002EB0312D3688A69934200D234
:101520000020704770B504460E4605220021304663
:1015300001F005FE05460B212846FEF787FEA08038
:10154000697BA1710E212846FEF780FE2081297C4F
:10155000A17211212846FEF779FEA08113212846A9
:10156000FEF774FEE08116212846FEF76FFE20820A
:1015700020212846FEF772FE606124212846FEF7EE
:101580006DFEA0612C212846FEF768FEE061294629
:10159000304601F0E6FD70BD70B50446052200211D
:1015A000204601F0CCFD05464FF4FF712846FEF7BA
:1015B0004DFEA0F52A41553901D0002070BD2946C5
:1015C000204601F0CEFD0120F8E770B505460C4637
:1015D0002046FFF7E1FF10B94FF0FF3070BD2C60DF
:1015E00021462846FFF79EFF2846FFF742FF10B925
:1015F0006FF00100F2E72846FFF70FFF2846FFF7DC
:10160000F2FE2846FFF7D8FE2846FFF7CEFE002060
:10161000E4E770B502460B4692F83C00032805D17A
:101620001489907A556A05FB00410AE01589947A7D
:10163000566A06FB04559089C41700EB147405EB39
:101640002411981E947900FB041070BD70B50246F9
:101650000B4692F83C00032805D11489907A556A0C
:1016600005FB00410AE01589947A566A06FB045589
:101670009089C41700EB147405EB24115C1A90795F
:10168000B4FBF0F500FB15405C1A241A9079B4FB0A
:10169000F0F0801C70BD70B506460C4609E00022D3
:1016A0002146304600F0A0FC05460DB9204670BD2D
:1016B000641C306AA042F2D80020F8E701460220FC
:1016C00070472DE9FF4F85B00E4617461C464FF078
:1016D000000AD34630782F280CD10598FFF75CFE1E
:1016E0000546761C04B12560307838B9022009B06F
:1016F000BDE8F08F0598056B04B1256033E000204C
:101700003B462A4602A90090059800F0CCFB5FEA10
:10171000000909D102A94046FFF7F2FD10B10CB152
:10172000002020600020E2E70AF1010000F0FF0A3B
:10173000787910F0100F09D04D46464604B1256067
:10174000BBF1000F0FD0002020600CE04FF0010B28
:1017500002A94046FFF7D4FD20B10CB10020206063
:101760000020C4E7464602A93046FFF7C9FD5FEAFC
:101770000008C4D1BAF1000F00D1B8E7787910F0B1
:10178000100F02D1BBF1000F01D10220AFE7012001
:10179000ADE7F0B585B006460C4615461F4600205D
:1017A000049004AB2A4621463046FFF78AFF10B169
:1017B000002005B0F0BD01A9204600F0A8FB08B943
:1017C0000020F6E701202B46009001A93046049A3C
:1017D00000F069FB08B10120EBE73046049900F006
:1017E000BAFB08B10020E4E701202B46009001A9D4
:1017F0003046049A00F057FB08B10120D9E70020D9
:10180000D7E770B505460C46A06818B9E068A06037
:1018100000206060206980B909E021786068084490
:1018200060602178A0680844A060002020702146F4
:10183000284600F0BEFD0028EFD0206970BDCA60C8
:101840008A6000234B600B610B704B6170470A0C80
:1018500082824183704710B504460021A26A206845
:1018600001F088FC10BD10B504462046FFF7F3FFD9
:1018700010BD2DE9F04104460F46002516E039461B
:101880002046FFF7C6FE00EB05080222414620680D
:1018900001F055FC06464FF40071304601F0C1FCE2
:1018A0003146206801F05DFC681C85B2A079A84231
:1018B000E5DC0020BDE8F08170B504460D4694F8E3
:1018C0003C0008B9012000E00020032801D10020DD
:1018D00070BD01221146206801F031FC064600214E
:1018E0003046FEF7BBFC3149884207D14FF4FE7108
:1018F0003046FEF7B3FC2E49884206D031462068B8
:1019000001F02FFC4FF0FF30E2E74FF4F471304666
:10191000FEF7A4FC60634FF4F6713046FEF79EFCC0
:10192000A0633146206801F01CFC1DB1204600F088
:10193000C9FE60630020CBE770B5044694F83C0014
:1019400008B9012000E00020032801D1002070BD6B
:1019500002220121206801F0F2FB05460021284601
:10196000FEF77CFC1149884207D14FF4FE712846EE
:10197000FEF774FC0E49884206D02946206801F023
:10198000F0FB4FF0FF30E2E74FF4F4712846626B52
:10199000FEF779FC4FF4F6712846A26BFEF773FC54
:1019A0002946206801F0DDFB0020D0E7525261415A
:1019B000000055AAFEB504460D46164625606B4646
:1019C00001AA31462068FFF77CFE022802D04FF0C2
:1019D000FF30FEBD206804F11C01009AFFF72FFFC5
:1019E000142104F1080001F01CFC0020E0804FF6F7
:1019F000FF70A0800020ECE770B505460E46144647
:101A0000B4F5F07F06DCE11704EBD1614911B4EBCA
:101A1000411100D070BD26440C2205F1080130466A
:101A200001F0F3FBF17A29761C213046FEF716FC13
:101A3000686100BFEEE72DE9F0410446A06A012885
:101A400003D84FF0FF30BDE8F081E188206880794D
:101A5000000191FBF0F52A4604F11C01206800F01A
:101A6000FEFC10B14FF0FF30EDE7616A2068FFF730
:101A7000D0FDE588E91705EB11710A112168897914
:101A800092FBF1F301FB132147182168012208683A
:101A9000394601F054FB0646E588E81705EB10705F
:101AA0000011A5EB00104005020C31462046FFF75F
:101AB000A3FF21680868314601F053FB0020C2E70C
:101AC00070B504460026206890F83C00012806D036
:101AD000206890F83C00022801D0701E70BDE1889B
:101AE00020688089814202DB4FF0FF30F6E7E5880D
:101AF000EA1705EB12722368DB6A03EB22112268F6
:101B00001068012201F01BFB0646E588E81705EB8B
:101B100010700011A5EB00104005020C3146204664
:101B2000FFF76AFF21680868314601F01AFB0020C0
:101B3000D4E710B50446A06A012803D12046FFF778
:101B4000BFFF10BDA06A18B12046FFF774FFF8E789
:101B50004FF0FF30F5E70146087828B10878E5280E
:101B600002D008782E2801D100207047087C00F0B0
:101B70000F000F2801D10020F7E70120F5E710B58D
:101B8000044600BF2046FFF7D4FF10B14FF0FF30EE
:101B900010BDE088401CE08004F10800FFF7DBFF87
:101BA0000028EFD0A088401CA0800020F0E72DE99D
:101BB000F04104460E46154629680122206801F0CE
:101BC000BEFA0746287907EB40112022304601F083
:101BD0006AFB3946206801F0C4FABDE8F0812DE9BE
:101BE000F04104460E46154629680222206801F09D
:101BF000A6FA0746287907EB40112022304601F06B
:101C000004FB3946206801F0ACFABDE8F08170B5FC
:101C100006460C4615460B222146284601F0F5FAE9
:101C20000020E07220736073E0812082208A60824D
:101C30000020A082E089E082208A20830020608347
:101C4000E06170BD2DE9F04105460C46164621685D
:101C50000222286801F073FA0746300C217907EB5D
:101C600041118882217907EB41114E83394628685A
:101C700001F077FABDE8F0812DE9F04104460D4608
:101C8000164629680222206801F059FA0746287989
:101C900007EB4010C6613946206801F062FABDE8E2
:101CA000F0812DE9F04104460E46154629680222CE
:101CB000206801F044FA0746287907EB40112022FA
:101CC000304601F0A2FA3946206801F04AFA0020B5
:101CD000BDE8F081F0B589B006460F4614460025F0
:101CE0002AE006EB4511202201A801F0DCFA9DF85C
:101CF0000F0000F00F000F281CD00B22394601A85E
:101D000001F073FAB0B904B1257114B19DF80F0058
:101D10006071BDF81E00BDF8181010EB014002D133
:101D2000012009B0F0BDBDF81E00BDF8181000EB91
:101D30000140F6E7681CC5B2102DD2DB0020F0E7A9
:101D400070B588B006460D46002419E006EB441134
:101D50002022684601F0A7FA9DF80B0000F00F0062
:101D60000F280BD09DF8000018B19DF80000E52861
:101D700004D105B12C71012008B070BD601CC4B243
:101D8000102CE3DB0020F7E72DE9F04106460F4673
:101D900014461D4615B1012D0CD106E022463946E8
:101DA0003046FFF797FFBDE8F08121463046FFF748
:101DB000C7FFF8E70020F6E72DE9F05F04468A4602
:101DC00017461D464FF00008002628E051462046E1
:101DD000FFF71FFC00EB060B01225946206801F0BB
:101DE000AEF980462A46394640460A9BFFF7CCFFAB
:101DF0005FEA00090DD02DB151462046FFF709FCDE
:101E0000304428604146206801F0ABF94846BDE8FF
:101E1000F09F4146206801F0A4F9701CC6B2A07979
:101E2000B042D3DC0020F2E72DE9F04704468846B3
:101E300016469946002794F83C00012806D094F8ED
:101E40003C00022802D00020BDE8F087E56A1BE0D4
:101E500001222946206801F072F907464B463246B6
:101E600041463846FFF790FF5FEA000A07D006B107
:101E700035603946206801F074F95046E4E7394688
:101E8000206801F06EF96D1CA089C11700EBD161CB
:101E9000E26A02EB6111A942DAD83946206801F002
:101EA00060F90020D0E72DE9F04788B081460D4663
:101EB00014461E46109F4FF0000A0594049400201B
:101EC0008DF8080006900390012C08D83B46324656
:101ED00029464846FFF7A8FF08B0BDE8F0870BE0A9
:101EE000009733462A4648460499FFF765FF5FEAA4
:101EF000000801D04046EFE752460AF1010A02A964
:101F0000484600F0ACFA0028EAD00020E4E7FEB52D
:101F100004460E4600270B21684601F082F90B218A
:101F2000304601F07EF9254620782F2800D16D1C1F
:101F300006E00B223146684601F067F9781CC7B20B
:101F400069462846FFF7DCF90500F2D10FB1012000
:101F5000FEBD0020FCE770B586B005460C46224663
:101F600069462846FFF76BFC01226946284600F0C7
:101F7000A4FA18B14FF0FF3006B070BD694628468C
:101F8000FFF73FFC064631462846FFF772FC00206B
:101F9000F2E7000010B502460B46148992F83C00A7
:101FA000012804D002280CD003281AD111E003EB39
:101FB0004300810A506A884201D8002010BD601891
:101FC000FCE7190A506A884201D80020F6E7601839
:101FD000F4E7D909506A884201D80020EEE760187A
:101FE000ECE700BF0020E9E72DE9F05F04460F466B
:101FF0004FF0000B39462046FFF7CCFF8146208981
:10200000A9EB0000616A814202D9B9F1000F02D147
:102010000020BDE8F09F01224946206801F08FF8BA
:10202000054694F83C00012804D002282AD0032851
:1020300031D12BE007EB4700C0F3480615F806A0A6
:10204000A6F58070FF380DD12946206801F089F887
:10205000012209F10101206801F071F8054695F8A7
:10206000008002E0701C15F8008017F0010F04D109
:1020700008F00F000AEB002B03E04FEA081000EB1A
:102080002A1B08E0FEB235F816B004E007F07F0620
:1020900055F826B000BF00BF2946206801F061F85E
:1020A0005846B6E72DE9F05F074688461646414692
:1020B0003846FFF76FFF82463889AAEB0000796A3D
:1020C000814202D9BAF1000F01D1BDE8F09F02228E
:1020D0005146386801F033F8054697F83C0001286E
:1020E00004D0022859D0032869D15FE008EB4800EA
:1020F000C0F34804A4F58070FF382ED118F0010F0A
:1021000001D12E5507E0285D00F00F00F02101EA13
:1021100006110844285541463846FFF73BFF00F1B9
:10212000010B02225946386801F009F8814618F07F
:10213000010F09D199F8000000F0F000C6F3032167
:10214000084489F8000003E0C6F3071089F800008E
:102150004946386801F005F81AE018F0010F0BD174
:102160002E55601C285C00F0F000C6F303210844E3
:10217000C1B2601C29540BE0285D00F00F00F02173
:1021800001EA061108442855C6F30711601C2954BA
:102190002946386800F0E5FF11E008F0FF0425F853
:1021A00014602946386800F0DCFF08E008F07F047E
:1021B00045F824602946386800F0D3FF00BF00BF0F
:1021C00000BF82E7024692F83C00012804D00228B2
:1021D00009D0032816D10DE040F6F870814201D2F3
:1021E000002070470EE04FF6F870814201D20020C7
:1021F000F7E707E021F07040FE4B984201D2002043
:10220000EFE700BF00BF0120EBE7014691F83C007B
:10221000012804D0022805D0032809D105E040F6A2
:10222000FF7070474FF6FF70FBE76FF07040F8E704
:1022300000BF0020F5E72DE9F84F07460D4616468A
:102240000020009097F83C00012804D0022831D0EB
:1022500003283AD133E005EB4500C0F3480416F8F3
:1022600004A0A4F58070FF3812D129463846FFF744
:1022700091FE00F1010B01225946386800F05FFF22
:10228000814699F800804946386800F06AFF02E00C
:10229000601C16F8008015F0010F05D108F00F0042
:1022A0000AEB0020009004E04FEA081000EB2A102F
:1022B00000900AE0ECB236F81400009005E005F05A
:1022C0007F0456F82400009000BF00BF0098BDE8CE
:1022D000F88F2DE9F04781460F4616461D4699F8BE
:1022E0003C00012804D0022857D003285ED158E0D2
:1022F00007EB4700C0F34804A4F58070FF3830D1E5
:1023000017F0010F01D12E5507E0285D00F00F00F6
:10231000F02101EA06110844285539464846FFF7DE
:1023200039FE00F1010A02225146D9F8000000F0FE
:1023300006FF804617F0010F09D198F8000000F061
:10234000F000C6F30321084488F8000003E0C6F358
:10235000071088F800004146D9F8000000F001FF9E
:102360001AE017F0010F0BD12E55601C285C00F00D
:10237000F000C6F303210844C1B2601C29540BE0ED
:10238000285D00F00F00F02101EA061108442855ED
:10239000C6F30711601C295408E0FCB225F814604C
:1023A00004E007F07F0445F8246000BF00BFBDE8EB
:1023B000F0872DE9F05F05460C464FF0000AA06853
:1023C00018B94FF0FF30BDE8F09F2846A168FFF72D
:1023D000E1FD804601224146286800F0B0FE8346B8
:1023E0005A462846A168FFF726FF814649462846F7
:1023F000FFF7E8FE40B1A06820615946286800F068
:10240000B0FE4FF0FF30DEE7C4F808906068401C73
:102410006060A068461E771C0AE03E465A46314678
:102420002846FFF708FF07460AF101000FFA80FA75
:10243000781EB04205D139462846FFF7ABFD40452E
:10244000EBD0BAF1010001D5002001E0AAF10100B2
:1024500020705946286800F084FE0020B3E770B56C
:1024600006460C4615466068A84201D8A06828B9FF
:1024700000206060E068A060002020706068A842D2
:1024800001D1002070BD13E0207848B12078401EB3
:1024900020706068401C6060A068401CA06007E07D
:1024A00021463046FFF785FF10B14FF0FF30E9E7D6
:1024B0006068A842E8D10020E4E72DE9FC5F04460B
:1024C0000E461746B9464FF0000A00200190834699
:1024D000F068012802D838B2BDE8FC9F314620469A
:1024E000FFF78FF9804645467BE06D1C206A401C53
:1024F000A8422BD8BBF1000F23D041462046FFF75E
:1025000049FD009002222068009900F018FE8246E2
:102510002046FFF77AFE5346024641460090204689
:10252000FFF7D7FEC6F810805146206800F019FE6C
:10253000A7EB0901606B401A6063A7EB090000B2CA
:10254000CAE702250BF1010000F0FF0B29462046E7
:10255000FFF720FD009001222068009900F0EFFDB8
:102560008246524629462046FFF765FEB8B94146E5
:102570002046FFF70FFD009002222068009900F02E
:10258000DEFD01902A4641462046019BFFF7A1FE51
:102590002068019900F0E5FDA9F10109A84651461E
:1025A000206800F0DEFDB9F1000F1AD14146204647
:1025B000FFF7F0FC009002222068009900F0BFFDB8
:1025C00082462046FFF721FE5346024641460090D0
:1025D0002046FFF77EFEC6F810805146206800F0C6
:1025E000C0FDB9F1000F80D1706910B17069384435
:1025F000706101E0F8FFFF0F00206DE72DE9F04169
:1026000005460C46002700206060E068A0600026B8
:1026100006E027B1002239462846FFF743FDA768A8
:102620003246761C21462846FFF719FF0028F0D0D5
:1026300000222846A168FFF735FD686B30446863C7
:102640000020BDE8F08170B586B006460C46002536
:10265000012C02D8002006B070BD00208DF80000CB
:10266000049001900290039400BF2A466D1C6946B5
:102670003046FFF7F4FE0028F7D0681EEBE72DE99F
:10268000F04186B007460C4615464FF0000800267C
:1026900000208DF80000049001900290039403E064
:1026A0000298A84200D1019E424608F101086946FD
:1026B0003846FFF7D4FE08B9002EF1D0304606B0F8
:1026C000BDE8F08170B505460224002607E000222F
:1026D00021462846FFF788FC00B9761C641C286A4E
:1026E000401CA042F3D2304670BD70B5044620892C
:1026F000810004F1A00000F094FD218904F1B800EC
:1027000000F08FFD218904F1BE0000F08AFD2189CF
:1027100004F1CA0000F085FD00202073002523E0AD
:1027200000261CE0002105EB450204F1100000EB3F
:10273000C20040F8361005EB450204F1100000EB32
:10274000C20000EBC600017105EB450204F1100068
:1027500000EBC20000EBC6004171701C86B26089BC
:10276000B042DFDC681C85B22089A842D8DC70BD8D
:10277000024602F1D000704770B504460E46154679
:10278000266029462046FFF7F3FF6060062020817F
:10279000032060812046FFF7A8FF002070BD30B500
:1027A00004898C4202DC0124047330BD53B100F172
:1027B000B804645C012595402C43E5B200F1B804EF
:1027C000655409E000F1B804655C0124944025EAF1
:1027D000040400F1B8056C5400BFE6E710B50346E9
:1027E0001889884203DC02201873FF2010BD03F112
:1027F000B800405C012494402040F7E7024610896D
:10280000884203DC052010730020704702F1BE00EF
:10281000405CFAE702898A4202DC052202737047B3
:1028200000F1BE02525CFF2A00D1F8E700F1BE02BF
:10283000525C521CD3B200F1BE02535400BFEEE70B
:1028400002898A4202DC05220273704700F1BE024F
:10285000525C02B9F9E700F1BE02525C521ED3B2DB
:1028600000F1BE02535400BFEFE702898A4202DC46
:10287000052202737047002300F1BE02535400BFCB
:10288000F8E702461089884203DC05201073002017
:10289000704702F1C400405CFAE702898A4202DC18
:1028A00005220273704700F1C402525CFF2A00D176
:1028B000F8E700F1C402525C521CD3B200F1C4022A
:1028C000535400BFEEE702898A4202DC05220273FC
:1028D000704700F1C402525C02B9F9E700F1C4028A
:1028E000525C521ED3B200F1C402535400BFEFE752
:1028F00002898A4202DC052202737047002300F13C
:10290000C402535400BFF8E702461089884204DC31
:10291000072010734FF0FF30704702F1CA00405C8F
:1029200020B102F1CA00405C032802DD4FF0FF3005
:10293000F2E701EB410302F1100000EBC303BA30F0
:10294000405C53F8303002F1A00040F8213001EB38
:102950004103903800EBC303BA30405C03EBC00086
:10296000037902F1B800435401EB4103A83800EBAE
:10297000C303BA30405C03EBC000437902F1BE00F0
:1029800043540C30405C401EC3B202F1CA004354B1
:102990000020C1E710B502461089884203DC0520FB
:1029A0001073801F10BD02F1CA00405C032803DBD6
:1029B00006201073C01FF5E702F1CA00405C401CFE
:1029C000C3B202F1CA0043542A3850F8213001EB57
:1029D0004104903800EBC404BA30405C44F8303015
:1029E00002F1B800435C01EB4104A83800EBC404D9
:1029F000BA30405C04EBC000037102F1BE00435CDE
:102A000001EB4104AE3800EBC404BA30405C04EB87
:102A1000C00043710020C5E702461089884203DCEC
:102A20000520107300207047506800EB4120FAE742
:102A300002465068884205D81089536803EB40204D
:102A4000884204D8082010734FF0FF307047506858
:102A50000B1AD81703EBD050401200B2F6E72DE95D
:102A6000F04104460F4616461EB94FF0FF30BDE850
:102A7000F081324639462068FDF79DFB05461DB1C1
:102A800003202073001FF2E70020F0E72DE9F0415A
:102A900004460F4616461EB94FF0FF30BDE8F081E0
:102AA000324639462068FDF796FB0546002D03DCCB
:102AB00004202073401FF1E70020EFE702898A42DB
:102AC00002DC052202737047002300F1A00242F8E5
:102AD000213018325354921D5354921D535400BF49
:102AE000F1E770B505460E4600240FE000222146AE
:102AF0002846FFF773FE38B105F1A00050F8240016
:102B0000B04201D1204670BD601C84B22889A04229
:102B1000ECDC4FF0FF30F6E730B50546002409E065
:102B2000002221462846FFF759FE08B9204630BD4D
:102B3000601C84B22889A042F2DC4FF0FF30F6E737
:102B40002DE9F04106464FF0FF380025FF2700240D
:102B500038E021463046FFF751FE002830D10222EE
:102B600021463046FFF73AFE20B91DB90125FF275F
:102B70004FF0FF38022221463046FFF72FFE60B1AA
:102B80005DB921463046FFF77CFEB84205DCA04621
:102B900021463046FFF775FE07468DB102222146D9
:102BA0003046FFF71BFE58B921463046FFF769FE55
:102BB000B84205DCA04621463046FFF762FE0746D4
:102BC000601C84B23089A042C3DC4046BDE8F0817D
:102BD0002DE9F0410446FF274FF0FF3800252BE098
:102BE00004F1CA00405D6189884223DA002602228E
:102BF00029462046FFF7F2FD10B106F17F00C6B26C
:102C000004F1CA00405D4D214843618990FBF1F019
:102C1000064429462046FFF734FE00EB001000EB87
:102C20004000FF2190FBF1F03044C6B2BE4201DA11
:102C30003746A846681C85B22089A842D0DC4046A9
:102C4000BDE8F0812DE9F04104460E4615462946BF
:102C50002046FFF7E1FE070004D108202073781E0C
:102C6000BDE8F0813A4631462046FFF7F8FE18B13C
:102C700003202073001FF3E701230022294620468A
:102C8000FFF78DFD04F1A00040F825600020E7E784
:102C900070B504460D4629462046FFF7BDFE0600E6
:102CA00003D108202073701E70BD022229462046E1
:102CB000FFF794FD20B9092020734FF0FF30F3E7B0
:102CC00004F1A00050F8251032462046FFF7DEFE42
:102CD00018B904202073401FE6E714F1BE0005D1A7
:102CE0000023022229462046FFF759FD0020DBE79A
:102CF0002DE9F04105460E461746BE4202D934463C
:102D00003E462746002425E005F1A00050F82400A7
:102D1000B0421ED305F1A00050F82400B84218D8E4
:102D2000A1B202222846FFF759FD90B1A1B2284670
:102D3000FFF7AEFF18B14FF0FF30BDE8F08105F1AD
:102D4000BE00005D28B9A1B2002302222846FFF789
:102D500026FD641C2889A042D6D80020EDE770B576
:102D60000546002419E0022221462846FFF736FDD9
:102D700088B121462846FFF78BFF10B14FF0FF3096
:102D800070BD05F1BE00005D28B900230222214676
:102D90002846FFF704FD601C84B22889A042E2DCCB
:102DA0000020EDE72DE9F04106460F46154639466D
:102DB0003046FFF796FE0446401C19D015F0020F6E
:102DC00005D0A1B2012302223046FFF7E8FCA1B2F0
:102DD0003046FFF71FFD15F0040F03D1A1B23046B6
:102DE000FFF75BFDA1B23046FFF716FEBDE8F081AC
:102DF0003046FFF791FE0446401C0FD13046FFF7E6
:102E00009FFE0446401C09D0A1B202223046FFF7C3
:102E1000E5FC18B1A1B23046FFF73AFF601C23D0A1
:102E2000A1B23046FFF74AFEA2B239463046FFF75C
:102E300009FF08B10020D9E7022D05D1A1B2012375
:102E400002223046FFF7ABFCA1B23046FFF7E2FCAE
:102E500015F0040F03D1A1B23046FFF71EFDA1B259
:102E60003046FFF7D9FDC1E73046FFF7B1FE044613
:102E7000401C35D0A1B202223046FFF7AFFC18B19A
:102E8000A1B23046FFF704FFA1B23046FFF782FD42
:102E900008B10020AAE7A1B23046FFF70FFEA2B2A8
:102EA00039463046FFF7CEFE08B100209EE715F008
:102EB000020F05D0A1B2012302223046FFF76FFCBA
:102EC000A1B23046FFF7A6FC15F0040F03D1A1B262
:102ED0003046FFF7E2FCA1B23046FFF79DFD85E7E3
:102EE0000A203073002081E770B505460E46314652
:102EF0002846FFF79DFD84B221462846FFF7A0FC37
:102F000021462846FFF77AFCC8B905F1CA00005DE2
:102F1000A8B1022221462846FFF760FC18B12146DD
:102F20002846FFF7B5FE21462846FFF7EDFC05F1E0
:102F3000A00050F8241022462846FFF783FE002008
:102F400070BD2DE9F04106460F461546394630461C
:102F5000FFF7C7FD00B20446401C0DD0A1B23046B9
:102F6000FFF75AFD80464FF400722946404600F0B4
:102F70004CF90020BDE8F0813046FFF7CDFD00B2EE
:102F80000446401C15D0A2B239463046FFF75AFE1F
:102F900010B14FF0FF30EDE7A1B23046FFF73CFD36
:102FA00080464FF400722946404600F02EF900207A
:102FB000E0E72A4639463046FFF751FD10B14FF0A1
:102FC000FF30D7E70020D5E72DE9F04105460E4652
:102FD000174631462846FFF784FD00B20446401CE0
:102FE00013D0A1B22846FFF717FD80464FF40072B8
:102FF0004146384600F009F9A1B2012302222846D1
:10300000FFF7CDFB0020BDE8F0812846FFF784FDE7
:1030100000B20446401C20D0A1B22846FFF7FCFCB9
:1030200080464FF400724146384600F0EEF8A1B2F7
:103030002846FFF743FD05F1A00040F82460A1B247
:10304000012302222846FFF7AAFBA1B20123002296
:103050002846FFF7A4FB0020D5E73A46314628462C
:10306000FFF714FD10B14FF0FF30CCE70020CAE7A6
:1030700030B50546002406E0002221462846FFF729
:10308000ADFB601C84B22889A042F5DC30BD01464E
:10309000012909D0042907D0062905D00B2903D01E
:1030A0005C2901D05E2901D1012070470020FCE796
:1030B00010B502460C461460FF20107103230BE08C
:1030C0001168083101EB03110879FFF7E0FF08B13F
:1030D00058B21071581E03B2002BF1DA10BD02462F
:1030E0001068083092F9043000EB0310806808443F
:1030F00070472DE9F04104460D4616462946204604
:10310000FFF7EDFF0746216809683246086839462F
:10311000FDF751F8BDE8F0812DE9F04104460D4678
:10312000164629462046FFF7DAFF07462168096858
:10313000324608683946FDF74EF8BDE8F0812DE9C2
:10314000F04104460D46164629462046FFF7C7FFC4
:1031500007462168324608683946FFF723FEBDE876
:10316000F08170B504460D46216808682946FFF7CE
:10317000BBFE70BD2DE9F04104460E4615462946BA
:103180002046FFF7ACFF074631462046FFF7A7FF72
:10319000804621683A4608684146FFF7A9FDBDE828
:1031A000F0812DE9F04104460D4616462946204699
:1031B000FFF795FF07462168324608683946FFF752
:1031C000C0FEBDE8F0812DE9F04104460D461646EB
:1031D00029462046FFF783FF0746216832460868E4
:1031E0003946FFF7F1FEBDE8F08170B503460C46A5
:1031F0000020002106E05D5C665CB54201D0451C04
:10320000A8B2491C9142F6D370BD10B506E08318F0
:1032100013F8013C8C1804F8013C521E002AF6D128
:1032200010BD04E00022431803F8012C491E0029B8
:10323000F8D1704703E0431803F8012C491E002918
:10324000F9D170472DE9F05F0546002092469B4674
:1032500088460646814640241BE0284641464746AC
:10326000224600F0DEFA53465A46C01A914110D366
:1032700011461846224600F0C5FA2D1A67EB0108E0
:103280004F4622460120002100F0BCFA17EB00094E
:103290004E41201EA4F10104DFDC484631462A4697
:1032A0004346BDE8F09F10B5441A0346944209D244
:1032B0008418114403E011F8013D04F8013D521E49
:1032C000F9D210BD40EA0104A40703D009E010C9F7
:1032D000121F10C3042AFAD203E011F8014B03F8BD
:1032E000014B521EF9D210BDD2B201E000F8012B01
:1032F000491EFBD270470022F6E710B513460A4676
:1033000004461946FFF7F0FF204610BD421C10F896
:10331000011B0029FBD1801A704730B504460020FC
:10332000034600E05B1C934203D2E05CCD5C401B93
:10333000F8D030BD034611F8012B00F8012B002A0C
:10334000F9D11846704780EA010210B502F0004337
:10335000400026D04A0023D04FEA106101EB1261F1
:10336000C0F35600C2F3560240F4000042F40002DB
:10337000A0FB0220A1F17F014FEA0040140401D01C
:1033800000F1010050EA124001D44000491EC2B2CF
:103390000C0604EBD010401C4008802A02D003E049
:1033A000002010BD20F00100002900DA00201843A1
:1033B00010BD30B480EA010202F0004530F0004256
:1033C00021F0004015D0A0B1C0F3C753C2F3C754D9
:1033D000C2F31601C0F31600E41A41F4000140F4F0
:1033E00000027D34914201D3641C00E04900002CAE
:1033F00002DA30BC002070474FF4000000239142F5
:1034000001D3891A034340084FEA4101F7D151B172
:10341000914202D14FF0004105E002D24FF001018C
:1034200001E06FF0010103EBC450284430BC00F010
:103430001ABA2DE9FE4F804681EA0300C00F0C4600
:10344000009021F0004123F00045B8EB0200A941B3
:1034500005D24046214690461C460B46024623F0C4
:103460000040104304D14046214603B0BDE8F08F30
:10347000270DC7F30A00C3F30A510290401A0190C6
:10348000402866DAC3F3130040F4801B009892468C
:1034900020B10023D2EB030A63EB0B0B01985946D2
:1034A000C0F14002504600F0ADF906460D465046C8
:1034B0005946019A00F0C5F910EB0800614100245B
:1034C00087EA115284EAE7731A433BD0009A3AB371
:1034D000019A012A4FEA075210DC001B61EB02013E
:1034E0004FF0004202EA0752CDE90042001C41F5CC
:1034F000801132462B4600F0F9F9B6E7001B61EB6C
:103500000201001C41F5801300185B412018A2F550
:10351000001747EB030140EAD570B6196D4111E081
:103520006D084FEA360645EAC0754FEA0752001BA0
:1035300061EB0201001C41F5801149084FEA30009F
:103540000019514132462B4603B0BDE8F04F00F060
:10355000C0B90098012240000023D0EB020263EBC7
:10356000E073009821464FEAE074B8EB000061EB8D
:103570000401E9E783F000435BE781F0004158E78D
:103580002DE9FE4F81EA030404F0004421F00041DC
:1035900000944FF0000B23F0004350EA010402D0E6
:1035A00052EA030404D10020014603B0BDE8F08FC5
:1035B000C3F30A54C1F30A552C44A4F2F334019422
:1035C000A0FB0254C1F3130141F48011C3F31303B0
:1035D00043F4801301FB024400FB034E840A970A64
:1035E00044EA815447EA8357A4FB076802958D0A91
:1035F00005FB07854FEA932C04FB0C542705029D1D
:103600004FEA065847EA1637B5EB08056EEB070C8C
:10361000870E920E47EA811742EA8312A7FB020146
:10362000B6EB0B0164EB00042B0D43EA0C335E1880
:1036300044EB1C50DA465146E7FB0201C5F3130484
:103640004FEA0B3343EA14534FEA0432019C43EA36
:103650000603A4F10C040294009CCDE900B400F030
:1036600045F9A2E72DE9F04D81EA030404F0004B8F
:1036700021F0004514464FF0000A23F0004150EAC3
:10368000050220D054EA01021DD0C5F30A570246B4
:10369000C5F31303C1F31300C1F30A5640F48015B8
:1036A00043F48013A7EB0608101BD64608F2FD383A
:1036B00073EB050002D308F1010801E092185B41A9
:1036C000B8F1000F03DA00200146BDE8F08D0020BC
:1036D0004FF48011064684460EE0171B73EB050776
:1036E00005D3121B63EB050306434CEA010C4908A2
:1036F0004FEA300092185B4150EA0107EDD152EADF
:10370000030012D082EA040083EA0501084303D1D2
:1037100000224FF0004308E0101BAB4102D201220F
:10372000002302E06FF0010253101AEB06004CEB8D
:10373000085110EB0A0041EB0B01BDE8F04D00F021
:10374000C8B8C10F80EAE0700844CA079623002178
:1037500000F092B896230022114600F08DB870B5A3
:10376000C1F30A5201F000450024C1F3130140F2F5
:10377000FF3341F480119A4201DA002070BD40F21B
:1037800033439A42A2F2334203DC524200F049F83A
:1037900000E090402C43F1D0404270BD00F0004268
:1037A00030F000400AD0C10D01F56071C0F3160081
:1037B00042EA0151C2084007114370470020014608
:1037C00070470000002801DBC0F10040002901DB48
:1037D000C1F100418842704730B50B4601460020D8
:1037E0002022012409E021FA02F59D4205D303FAC3
:1037F00002F5491B04FA02F52844151EA2F1010244
:10380000F1DC30BD202A04DB203A00FA02F100206E
:1038100070479140C2F1200320FA03F3194390400E
:103820007047202A04DB203A21FA02F00021704779
:1038300021FA02F3D040C2F1200291400843194618
:103840007047202A06DBCB17203A41FA02F043EA00
:10385000E07306E041FA02F3D040C2F12002914049
:103860000843194670470029A8BF7047401C49000B
:1038700008BF20F00100704710B4B0FA80FC00FAD5
:103880000CF050EA010404BF10BC704749B1CCF100
:10389000200421FA04F411FA0CF118BF012121438C
:1038A0000843A3EB0C01CB1D0106000A002BBEBF91
:1038B000002010BC704700EBC35010440029A4BF87
:1038C00010BC7047401C490008BF20F0010010BC2C
:1038D000704710B5002B08DA401C41F10001921826
:1038E0005B411A4301D120F0010010BD2DE9F04DDC
:1038F00092469B4611B1B1FA81F202E0B0FA80F231
:1039000020329046FFF77EFF04460F4640EA0A0049
:1039100041EA0B0153465A46084303D12046394633
:10392000BDE8F08D114653EA010015D0C8F1400200
:103930005046FFF776FF05460E465046594642462A
:10394000FFF760FF084301D0012000E0002005439D
:1039500046EAE0762C4337430A984FEA4453A0EBFB
:1039600008004FEAD4240A304FF0000244EA4754DA
:103970004FEAD72502D500200146D1E701051019ED
:103980006941DDE9084500196941BDE8F04DA0E74E
:10399000C1F30A52C1F3130140F2FF3341F4801125
:1039A0009A4202DA00200146704740F233439A42BD
:1039B000A2F2334202DC5242FFF733BFFFF722BFCD
:1039C00030B5002904DB4FF00044404264EB0101B4
:1039D000002B04DB4FF00044524264EB0303994296
:1039E00008BF904230BD0000064C074D06E0E0687D
:1039F00040F0010394E8070098471034AC42F6D336
:103A0000FCF774FBE07004002071040070B501EB5A
:103A1000020410F8015B15F0070301D110F8013B17
:103A20002A1106D110F8012B03E010F8016B01F800
:103A3000016B5B1EF9D12B0705D40023521E0FD456
:103A400001F8013BFAE710F8013B02F10202A1EB99
:103A5000030303E013F8015B01F8015B521EF9D583
:103A6000A142D6D3002070BD82B02DE9FF1FEFF335
:103A7000038001B4684600F1400000E901400C48B1
:103A80000168C1F800D00B48D0F800D001BC80F329
:103A90000388BDE8FF1F01B000BD0648D0F800D084
:103AA00001BC80F30388BDE8FF1F01B000BD00002A
:103AB000300100102C01001038B54468054601465D
:103AC000204617F01FFF002808BF38BD464A286867
:103AD00011280DD006DC0B282AD00E2838D00F284C
:103AE00017D07CE0282873D0B0F5107F0AD076E09C
:103AF0009268002A08BF38BD294601B02046BDE8BB
:103B000030401047526801B029462046BDE8304099
:103B100010472546204606F085FA0090406E04685E
:103B2000684606F017FB002C1CBF2846A04738BD8E
:103B3000204606F077FA0090683006F075F9009894
:103B400003216C3006F09EF9684606F003FB46E060
:103B5000E968486809680D2902D0202918D037E0A3
:103B6000002835DD4FF48071204617F096FF20467F
:103B700006F058FA009090F82850684606F0EAFAE5
:103B800015F0020F1ED00121204619F0A0FD19E00A
:103B9000002817DD25464FF48071204617F07DFF81
:103BA000284606F03FFA009090F82840684606F054
:103BB000D1FA14F0020F08BF38BD0121284619F0D0
:103BC00086FD38BD2046BDE83840022121F04BB9C2
:103BD000E86820B920464FF4807117F071FE28463E
:103BE000BDE8384018F0E8BBB400002070B584B0E0
:103BF0000026DDE9084C0A9D8DE8701000F002F8FF
:103C000004B070BD2DE9F04786B08146DDE90E575E
:103C10000E4690469A46119C08F05AF84C201949D5
:103C2000CDE90210CDE90057534642463146484699
:103C300018F006FB05001FD006F0F4F9102221460B
:103C4000049018F095F8104C0499B4E80D10343134
:103C5000A1E80D10B4E80D10A1E80D1094E80D10C6
:103C6000A1E80D1054F82C0D086004A806F072FAB3
:103C700020684168284688470AF04AFD06B0284671
:103C8000BDE8F087B93A0000C000002070B50446D6
:103C900086B08069B4F908C0658A00260091CDE934
:103CA0000165CDE903C0B4F90C00B4F91050C11896
:103CB000B4F90A00B4F90EC010442B46624600F075
:103CC00007F80546616800F0CEF906B0284670BDD9
:103CD0002DE9F04F85B09846DDE91164DDE90E5716
:103CE00091468A46834607F0F3FF04F14C001949D8
:103CF000CDE90210CDE9005743464A4651465846A1
:103D000018F09EFA05001FD006F08CF910223146FB
:103D1000049018F02DF8104C0499B4E80D103431CB
:103D2000A1E80D10B4E80D10A1E80D1094E80D10F5
:103D3000A1E80D1054F82C0D086004A806F00AFA4A
:103D400020684168284688470AF0E2FC05B028460A
:103D5000BDE8F08FB93A0000C0000020F0B504467D
:103D600080688C4989B051F820506068002800F0C4
:103D70000A81052806D006287DD0122800F0B480DC
:103D800000F004B9E869002808BF002651D0D5E941
:103D90000012AB688DE80F0004F110010FC90BF0A1
:103DA000DBFA002655F8260009F01FFFA169E86933
:103DB0000A1A216901446069304407F05FFBA16978
:103DC000E8690A1A21690144E069801B07F056FB83
:103DD000E169E8690A1A616901442069304407F021
:103DE00019FCE169E8690A1A61690144A069801B4C
:103DF00007F010FC761C022ED4DBA86809F0F5FE53
:103E0000E069E969D4F814C0431A20694218614492
:103E1000801C521E07F010FDE169E869A2690B1AC7
:103E200061690144101A401C921E07F005FDEE69FD
:103E300011E055F8260009F0D8FEE069831BA0695F
:103E4000821B606981192069304407F09BFB761C56
:103E5000022EEEDB0226D5E90301CDE90001E1697E
:103E6000606901444B10A1698A1B811C20693044A0
:103E700007F0FAF900E011E0D5E90501CDE900010C
:103E8000E0696169831E01440122A06902EB6101BE
:103E9000821B2069304407F0E7F977E0206806F0DC
:103EA000C1F8049020681AF0C5FD50B1A068002840
:103EB00018BF00200AD10498006F002818BF012005
:103EC00004E00498406F002818BF0220049901EB19
:103ED0008000C56E04A806F03DF900231A46284666
:103EE000216806F021FE51E0206806F09BF804905E
:103EF000866E002E08BF04A842D0A168B0F95C709D
:103F0000002908BF012103D003290CBF0221002191
:103F100000EB8101406D0C6C09F07EFE204609F03B
:103F200064FE06A807F090FDBDF81810A88B0144A8
:103F3000ADF81810BDF81C10081AADF81C00BDF83B
:103F40001A00801CADF81A00BDF81E00801EADF8E6
:103F50001E000498B0F96020B0F95E1006A809F0C0
:103F600053F804A806F0F6F8022009F0DFFE304608
:103F700006F058F83A4606A9059006F0E1FE05A8B5
:103F800006F0E8F802E0206819F0D6FE09B000203B
:103F9000F0BD00002C670400F8B50C4606004FF099
:103FA00000050FD007F094FE304606F03BF8009075
:103FB000032C3CBF00EB8400456B684606F0CAF852
:103FC0000AF0A6FB2846F8BD002808BF7047F8B5E0
:103FD00015460C46064607F07BFE304606F022F8F2
:103FE0000090032C3CBF00EB84004563684606F05C
:103FF000B1F8304619F08EFA0AF08AFBF8BD0000DD
:104000000149086270470000C000002000294FF0FD
:10401000100101D017F041BD17F052BC002808BFB5
:10402000704738B50C46054607F052FE284605F0A5
:10403000F9FF00904465684606F08CF8284619F0B0
:1040400069FA0AF065FB38BD70B505460C461046A6
:1040500000210A4606F04AFD024621462846BDE8F0
:10406000704000F02CB8F0B583B00F4605004FF05B
:10407000010421D007F02CFE284605F0D3FF019063
:10408000866E01A8009606F065F8394668460BF082
:10409000CBFD78B100980024B04208D0284605F046
:1040A000C1FF01900099816601A806F053F82846E7
:1040B00019F030FA0AF02CFB03B02046F0BD0028BE
:1040C00008BF7047F8B515460C46064607F000FED7
:1040D000304605F0A7FF0090032C0BD200EB8400C4
:1040E0006C3005F0A1FE009800EB8400C5663046F8
:1040F00019F010FA684606F02DF80AF009FBF8BD31
:10410000F0B5034600201C460D46104603E014F8A7
:10411000016B05F8016B1600A2F10107BAB2F6D1E6
:10412000F0BD0000012907D1084A126842EA0002E6
:10413000074BC3F8C42007E031B9044A126822EAE9
:104140000002034BC3F8C42070470000C4C00F40F6
:1041500000C00F40014631B1012907D0022908D023
:1041600003290CD108E0074800687047064800683A
:10417000FBE706480068F8E705480068F5E700BF78
:10418000FEE70000100100101401001018010010DB
:104190001C01001070B506460D4636B1012E12D036
:1041A000022E1ED0032E3ED129E02148006820F0C7
:1041B0001F0405F01F0040EA04041E48C0F8044133
:1041C00013F032FC31E01C48006820F01F0405F0B9
:1041D0001F0040EA04041748C0F8A84113F024FC6B
:1041E00023E01648006820F0010405F0010040EAD1
:1041F00004041048C0F8004113F016FC15E0104804
:10420000006820F01F0405F01F0040EA040409487C
:10421000D0F8080105F01F0140EA010008490860D4
:1042200013F002FC01E000BFFEE700BF70BD00001C
:1042300004C10F4000C00F40A8C10F4000C10F4093
:1042400008C10F4070B505460C4628460BF0DCFE51
:10425000064620460BF0D8FE864201D0002070BDF5
:1042600007E015F8011B14F8012B914201D0002042
:10427000F5E7287810B120780028F2D10120EEE788
:104280007CB518F02FFC0546002000902B460A4A0A
:1042900002210190094806F067FA04460022012134
:1042A000204602F0ADFF00220121204602F0D0FF9F
:1042B000204607F029FA7CBDCD8500008CAE0300B6
:1042C0007CB518F00FFC0546002000902B46044AF0
:1042D00006210190034806F047FA044620467CBDBB
:1042E0001D08010098A303007CB518F0FBFB0546F0
:1042F000002000902B46074A03210190064806F053
:1043000033FA0446204619F035FC0A2006F048FC32
:1043100020467CBDBD32010038AE03007CB518F0EC
:10432000E1FB0546002000902B46044A082101903D
:10433000034807F005FA044620467CBDE9790200EF
:1043400078AC03007CB518F0CDFB0546002000904A
:104350002B46064A08210190054806F005FA044656
:10436000204619F007FC20467CBD0000B57E020007
:1043700050AF03007CB518F0B5FB05460020009057
:104380002B46064A05210190054806F0EDF9044642
:10439000204619F0EFFB20467CBD00009D81020005
:1043A000C4AE03000FB42DE9F04186B0002501260C
:1043B0000027B00211F088F8044640480078FF2832
:1043C00001D1012000E000203C4909783C4A1278E4
:1043D000914201D1012100E00021084368D00DA8DD
:1043E00005902046059A0C9923F078FA0020059054
:1043F0000DA8059069460C980BF0B7FD06462AE01B
:104400002846691CCDB21DF80000012804D00228FE
:1044100006D003281AD115E0059880C8059019E048
:104420000598C01D20F007000590D0E90021DDF8B7
:1044300014C00CF1080C1046CDF814C0FFF78FF92A
:10444000074607E0059880C8059003E0059880C8F6
:10445000059000BF00BF3000A6F10106D0D105983D
:1044600080C805900020059016480078FF2801D1EB
:10447000012000E0002013490978B94201DB012145
:1044800000E00021084310D021460FA013F090FA5D
:104490000E48006848B120460BF0B6FD00F0FF085A
:1044A00041462046094A12689047204610F0E6FF30
:1044B00006B0BDE8F0015DF814FB000068000020C4
:1044C0003C0100106A0000200D0A00006C00002072
:1044D00001490860704700006C00002070B5044678
:1044E0000D462A462146002017F026F970BD00002F
:1044F00010B500201A4908704FF4A07010F0E4FFC6
:1045000018490860002406E0FF201749085517499C
:104510000855601CC4B2052CF6DB00241DE0002009
:104520001049096801EB4411486103200D490968ED
:1045300001EB4411087200200A49096801EB44119B
:1045400008610849096801EB4411C8600549096818
:1045500001EB44118861601CC4B20A2CDFDB10BD82
:104560004C010010500100104C00002051000020B0
:104570001E480078FF2808D11D4800781B490870A4
:104580001B480078401C1A4908701AA01A4909688B
:10459000164A127801EB421108600020164909689A
:1045A000124A127801EB421148710320124909683E
:1045B0000E4A127801EB4211C8710F4909680B4A83
:1045C000127801EB421108720C490B480068074A47
:1045D000127800EB42104161002007490968034A44
:1045E000127801EB421188617047000054010010FD
:1045F0004C01001047554900500100101D6100009A
:104600001E480078FF2808D11D4800781B49087013
:104610001B480078401C1A4908701AA01A490968FA
:10462000164A127801EB4211086000201649096809
:10463000124A127801EB42114871032012490968AD
:104640000E4A127801EB4211C8710F4909680B4AF2
:10465000127801EB421108720C490B480068074AB6
:10466000127800EB42104161002007490968034AB3
:10467000127801EB4211886170470000710100104F
:104680004C0100104755490050010010E55F010042
:1046900070B50546284617F01CF804464F48005DE3
:1046A000FF2808D14E4800784C4908554C480078FE
:1046B000401C4B4908704BA04849095D4B4A1268A1
:1046C00002EB4111086000204449095D474A126825
:1046D00002EB4111487101214048005D434A1268D4
:1046E00002EB4010C17103203C49095D3F4A12684A
:1046F00002EB411108723E493848005D3B4A12689E
:1047000002EB401041613548005D3849096801EB12
:104710004010C46100213148005D344A126802EB48
:10472000401081610020334921F814004FF4967045
:1047300010F0CAFE304941F82400284616F0C9FF9F
:1047400004462E48005DFF2808D1254800782B49F3
:10475000085523480078401C2149087028A12748A3
:10476000005D224A126802EB4010016000202349DC
:10477000095D1E4A126802EB4111487101211F4870
:10478000005D1A4A126802EB4010C17103201B49F8
:10479000095D164A126802EB411108721448174964
:1047A000095D124A126802EB411148611348005D2D
:1047B0000E49096801EB4010C46100210F48005DFB
:1047C0000A4A126802EB401081614FF4967010F0B3
:1047D0007BFE0D4941F8240070BD0000510000200F
:1047E0004C01001055534152527800005001001006
:1047F00031B50100B40500108C0500104C000020FC
:104800005553415254780000A005001010B5002403
:1048100033E01B48006800EB4410406958B3184867
:10482000006800EB4410C079012804D003280ED0A2
:1048300004281FD112E0124A126802EB4412107FC2
:104840000F4A126802EB44125169884712E00C4982
:10485000096801EB4411486980470BE0084A126877
:1048600002EB4412D069064A126802EB4412516905
:10487000884700BF00BF601CC4B20A2CC9DB10BD52
:10488000500100102DE9F047044620681D2802D091
:1048900026287DD148E0676800220121606802F087
:1048A000AFFC7949606803F042FB0021606803F0C7
:1048B000D4FB1321606803F0E7FB7349606803F0E1
:1048C00036FB4FF4B871606818F022F907466FA103
:1048D0003846FFF7C8FB6C493846FFF79FFB40F2AC
:1048E0007111606818F014F980466AA1FFF7BBFBEC
:1048F00040F27111606818F00BF980466249FFF7C9
:104900008DFB4FF4B971606818F002F9804661A11F
:10491000FFF7A9FB4FF4B971606818F0F9F8804609
:104920005949FFF77BFBABE0A06818F058F9054642
:10493000E668022E25D1302D01DB012000E00020A9
:10494000392D01DC012100E00021084204D0294674
:104950005248006800F0E6F82E2D04D129464F4851
:10496000006800F0DFF82D2D04D129464B4800687F
:1049700000F0D8F82B2D04D129464848006800F0F3
:10498000D1F8B5F5B87F0ED006DC142D40D000E08C
:1049900072E03C2D6ED12DE0A5F5807071380FD0FE
:1049A000012867D119E0012E02D0022E06D100E0C5
:1049B00004E00021606806F057FE00BF00BF59E028
:1049C000012E02D0022E06D100E004E00121606831
:1049D00006F04AFE00BF00BF4CE0012E02D0022EBE
:1049E00006D100E004E00121606806F03DFE00BF52
:1049F00000BF3FE0012E02D0022E07D100E005E00B
:104A000008212648006800F08DF800BF00BF31E0A3
:104A1000012E02D0022E2BD100E029E01421606883
:104A200018F076F880460021FFF7B6FA6FF07F4164
:104A3000884212D14121606818F06AF8824600214C
:104A4000FFF7AAFA80461421606818F061F88146E1
:104A500042460021FFF7B8FA09E01421606818F017
:104A600057F880466FF07F420021FFF7ADFA00BF94
:104A700000BF00BF00BF03E0204617F09DFC00BF51
:104A800000BFBDE8F08700000C3C0020E58F96E6F3
:104A9000B6880000E7A1AEE5AE9A00002003001042
:104AA0002DE9FC4F05460E4617461C46DDE90CABCA
:104AB000A9464FF000080EE0CDE900AB19F8010B54
:104AC000224639460B9B00F00AF8601C84B208F1BC
:104AD00001001FFA80F8B045EEDBBDE8FC8F2DE940
:104AE000F04706460C4617469846DDE9089A002529
:104AF00014E00120A840304205D042463946204605
:104B00000DF04CF906E0D14504D04A46394620461E
:104B10000DF044F9601C84B2681CC5B2082DE8DBB6
:104B2000BDE8F087002808BF70472DE9F04F91B02D
:104B30000E46044607F0CCF8204605F073FA0390C1
:104B400090F854A0D0F83490876DC56C03A805F098
:104B500001FB27B131462046B84700F0B8B901271C
:104B60004FF00008122E75D006DC082E73D0102EE0
:104B700072D0112E3DD006E0132E70D01D2E00F005
:104B8000F3801E2E6AD0202EC0F2A181BAF1000F50
:104B900000F00181204605F045FA0590D0F834A0D8
:104BA000D0F84C9005A805F0D5FABAF1000F00F046
:104BB000F280504605F036FA82464946069009F0E2
:104BC00081FC81465046FEF7A1FB484540F2E0805B
:104BD000D144484609F022FC09EB00014846FEF7A3
:104BE000A9FB06A805F0B6FA0521204618F06FFDCE
:104BF000D1E0B9F1000F00F06A81484605F012FAE1
:104C000006462946049009F05DFC0644304609F04A
:104C1000F5FB0546CDF8088009F01EFC0746681C28
:104C20001FFA80F8404609F017FC0546AF420CD148
:104C3000414602A809F0D0FB2A4602A93046FEF7F9
:104C400032FB0521204618F042FD04A805F082FA47
:104C500000F03DB92FE03AE033E000E059E0B9F16F
:104C6000000F00F03481484605F0DCF9064629467D
:104C7000049009F027FC0644304609F0BFFB0546C6
:104C8000CDF8088009F0E8FB8046681E87B23846F8
:104C900009F0E2FB0546A845D7D1394602A809F03C
:104CA0009BFB2A4602A93046FEF7FDFA0521204665
:104CB00018F00DFDC9E7691C204600F05BFC00F010
:104CC00006B9691E204600F055FC00F000B9002D21
:104CD00000F0FD80691E204600F04CFC204605F0E7
:104CE000A1F90190C76C456B01A805F033FA002DBE
:104CF00000F0ED80284605F095F906463946029009
:104D000009F0E0FB05463046FEF700FBA84229D932
:104D100018E0204605F086F90190C76C456B01A8A4
:104D200005F018FA002D7CD0284605F07BF90646E0
:104D30003946029009F0C6FB05463046FEF7E6FA12
:104D4000A8420FD93544284609F068FB291828469F
:104D5000FEF7F0FA02A805F0FDF90521204618F04B
:104D6000B6FCB4E002A810E0204605F05BF9039021
:104D7000BAF1010F08BF80F8548005D080F8547054
:104D80002946204600F0F6FB03A805F0E3F99EE073
:104D900006A805F0DFF9B0B20890204605F042F908
:104DA00006460290B0F93800002813DD706B4FF012
:104DB000000940B105F036F900900AF089FD8146FE
:104DC000684605F0C7F9B6F9381009F101008842C4
:104DD000C8BF47460298C06C099002A805F0BAF90E
:104DE000002F74D0089809F037FB074626464FF08D
:104DF0000009204605F016F90590406B40B105F01A
:104E000011F90A90FEF782FA81460AA805F0A2F984
:104E1000059907EB0900498F401A00F1010905A81F
:104E200000E054E005F096F9B9F1000F2ADD3046B4
:104E300009F1100905F0F6F80090D0F834B0408F71
:104E400000EB090A684605F085F95146584605F019
:104E5000FFF85FEA00093AD0BBF1000F07D105F077
:104E6000E1F80D9080F800800DA805F073F9304648
:104E700005F0D8F80090A0F83AA0C0F83490684641
:104E800005F068F9204605F0CDF80290466B02A8BF
:104E900005F060F9304605F0C5F806460F9009990F
:104EA00009F010FB06443046FEF730FA421CF019B8
:104EB0003146FEF7F8F93046089909F08DFA0FA847
:104EC00005F048F90521204618F001FCF3E62046DC
:104ED00018F020FB09F01CFC11B0BDE8F08F70B594
:104EE0004468054682B0204619F0A4FD06462946CE
:104EF000204616F007FD002804BF02B070BD2868E8
:104F00000F2836D004DC0B2839D00E2842D058E0C8
:104F1000A0F58070133804D0A0F580702D3811D022
:104F20004FE0204618F012FD2046002120F0BAFE86
:104F3000204605F077F80190C06F002118F09DFC25
:104F400001A824E0E86878B1017A41B101682046FF
:104F500000F002F90121204618F0B9FB31E00221EE
:104F6000204618F0B4FB2CE00321204618F0AFFBDC
:104F700027E00121204620F095FE02B070BD2046BA
:104F800005F050F80090343004F04EFF684605F00C
:104F9000E1F816E0AEB1E8684168002911DD01686A
:104FA0001B290ED009DC09291CBF0A290D2908D0AC
:104FB0002046FFF7B7FD02B070BD212918BF222996
:104FC000F6D1284617F0F8F902B070BD70B5044666
:104FD00086B0D4E9056CB0F90850408A0DF1080E8E
:104FE0008EE861100020CDE90010B4F90C00B4F98E
:104FF0001050C118B4F90A00B4F90EC010442B4681
:10500000624600F009F805001CBF618A00F057FAFB
:10501000284606B070BD00002DE9FF4F85B09946C7
:10502000DDE91274DDE9165692468B46DDF85480B0
:1050300006F04EFE06F15801334A039144F48050C5
:105040000097CDE901024B4652465946059817F0A4
:10505000F7F8040051D004F0E5FF10224146049017
:1050600016F086FE2948049990E84C1001F160077B
:1050700087E84C10D0E9042380690A67C1E91D3034
:10508000012081F85500681C18BF012081F88000BC
:10509000002DD8BF082528B2088700254D87461C5B
:1050A00004A84D6305F056F8204604F0BBFF0090BD
:1050B000D0F83480408F8719684605F04BF83946A0
:1050C000404604F0C5FF060013D0B8F1000F06D12A
:1050D00004F0A8FF0190057001A805F03BF82046F8
:1050E00004F0A0FF009047874663684605F032F859
:1050F00003E0204617F09AF9002409F009FB09B0F3
:105100002046BDE8F08F0000DF4E0000F0000020D8
:1051100038B505004FF000041AD006F0D9FD284636
:1051200004F080FF0446009090F84400094951F8CB
:105130002000FEF70FFB0546A06CFEF702FB294698
:10514000FEF737F90446684605F004F809F0E0FA7E
:10515000204638BD184A0400002808BF70472DE9D2
:10516000F04186B00C46074606F0B2FD384604F022
:1051700059FF0090406B002849D004F053FF039082
:105180000098806E08F048FD8046384617F056FEBD
:105190000646039806F0B6FC0546009890F86010A5
:1051A00001F00301012918D002290FD0416EC06A15
:1051B00000680844201A441E03980AF089FB002C5A
:1051C00011DA0021384600F0D5F917E0701B401CB9
:1051D00000EBD070A4EB6004EEE7406E711B081A80
:1051E000201A441CE8E7A54204DB02462146039846
:1051F0000AF0F8FA0146384600F0BCF903A804F0BA
:10520000A9FF404608F008FD384618F083F96846C3
:1052100004F0A0FF09F07CFA06B0BDE8F0810000C0
:105220002DE9F8431D46DDE908691446884607461E
:1052300006F04EFD002F5FD0384604F0F3FE3049F3
:10524000009081652F49C1650021C0E91281C0E944
:105250000F4580F8446080F85690012180F8541082
:1052600090F88080684604F075FFB8F1000F2AD0EE
:10527000002DAEBF012002206D42234B0A2D07DB1B
:1052800083FB05218A10A2EBE175401C0A2DF7DA99
:10529000002CBABF0221644201210A2C09DB00BFA5
:1052A00083FB04C24FEAA20CACEBE274491C0A2C4B
:1052B000F6DA002E1CBF401C491C8842C8BF0146BC
:1052C000384600F099F8384622F0BCF8384604F029
:1052D000A9FE009000F039F90C490978884205D1FF
:1052E0000098C06C411C384600F044F9684604F050
:1052F00031FF384618F00EF909F00AFABDE8F883D4
:1053000029F101004574020067666666800000208E
:105310000149886070470000F000002001490860E2
:1053200070470000F0000020002808BF70472DE9FA
:10533000F04F83B09A46DDE90C6814460D460746E7
:1053400006F0C6FC1F4850F82600FEF703FA834615
:105350002946FDF7F8FFFEF721FADFF86C900022EE
:105360004B46FEF766F823F00DFDFEF7F8F905460B
:1053700021465846FDF7E7FFFEF710FA00224B469C
:10538000FEF757F823F0FEFCFEF7E9F90446514614
:105390005846FDF7D8FFFEF701FA00224B46FEF70C
:1053A00048F823F0EFFCFEF7DAF9CDE90068034690
:1053B000224629463846FFF733FF03B0BDE8F04FD9
:1053C00009F0A6B9184A04000000E03F002808BF11
:1053D000704738B50C46054606F07AFC284604F0BE
:1053E00021FE00908466284618F094F8684604F080
:1053F000B1FE09F08DF938BD002808BF70472DE9CE
:10540000F04385B00C46054606F062FC284604F0E1
:1054100009FE0090B0F93810468F4FF00008A14205
:1054200045D012DD406B80B104F0FCFD01900AF024
:105430004FFAA04206DD2146019809F043F8019990
:1054400001F8008001A804F085FE684604F082FEA1
:10545000A01B461C284604F0E5FD0290D0F83490CD
:10546000408F871902A804F075FE3946484604F0BB
:10547000EFFD060013D0B9F1000F07D104F0D2FD03
:10548000039080F8008003A804F064FE284604F02E
:10549000C9FD02904787466302A804F05BFE2846D8
:1054A00004F0C0FD00900487284618F033F86846E1
:1054B00004F050FE09F02CF905B0BDE8F083002897
:1054C00008BF704738B50D46044606F001FC20467B
:1054D00004F0A8FD009018B10566204618F01AF8EF
:1054E000684604F037FE09F013F938BD38B50500F9
:1054F0000C4608BF38BD06F0EBFB284604F092FDD1
:105500000090C16BA1421CDC016CA1421BDB816CD1
:10551000A14210D08464C16D00291CBF2846884771
:10552000284617F0F7FF684604F014FE05212846C8
:1055300018F0CDF802E0684604F00CFE09F0E8F837
:1055400038BD0C46E0E70C46E1E738B50546406B50
:10555000002468B104F066FD00900446E96C08F090
:10556000B1FF204408F04AFF0446684604F0F2FD0B
:10557000204638BD10B582B00C4604F053FD0090B3
:10558000406BE8B104F04EFD01900AF0A1F90099DA
:1055900091F85420002A18BF0122002C15DB844208
:1055A00015DC00BFB1F93800801AA04211DBC86CCD
:1055B000A04218BFCC640020086501A804F0CAFD11
:1055C000684604F0C7FD02B010BD0024E7E70446BA
:1055D000E8E7B1F93800841AE9E7000010B51022B5
:1055E0004FF0A0531C4C236000231C4C23604FF051
:1055F00005034FF40014C4F880304FF000010FE0B1
:105600000023174C236000BF164B1B68C3F3806355
:10561000002BF9D04FF080630F4C236001F10101A2
:105620009142EDD34FF080530B4C236083061B0D4A
:105630000A4C23604FF006034FF40014C4F8803086
:1056400000BF084B1B68C3F30073002BF9D04FF069
:105650008053014C236010BDE80F2000840020001F
:1056600088002000E00F200070B500201949086074
:10567000FEF770FD05461848B5FBF0F0441E4FF4E8
:105680000010C0F894401548B5FBF0F0C0EB0010D6
:105690004FF47A71B0FBF1F0441C1048B5FBF0F008
:1056A00000EBC001C1EB80104FF47A71B0FBF1F058
:1056B000401C44EA00240948B5FBF0F0C0EBC000F0
:1056C00000EB8000B0FBF1F0401C44EA00440448C9
:1056D000046070BD98002000D8B8050040420F005B
:1056E000900020002DE9F043079F1546164694468A
:1056F0004FF0A058DFF82491C9F8008001F03F096D
:10570000804669F39F184FF40019C9F8848023B9C3
:105710004FF00808C9F8808016E0012B0AD14FF03D
:1057200009084FF40019C9F8808010F0010F0BD060
:10573000BDE8F0834FF00A084FF40019C9F88080E3
:1057400010F0030F00D0F3E7002462E05BB94FF4E0
:105750000018D8F88C8085F800806D1C00F10108D5
:105760001FFA88F019E0012B0BD14FF40018D8F87C
:105770008C80A6F80080B61C00F102081FFA88F0A1
:105780000BE04FF40018D8F88C80CCF800800CF1B6
:10579000040C00F104081FFA88F000BFDFF87C80D9
:1057A000A8F10808D8F80080C8F38068B8F1000FA5
:1057B000F4D04FF08068DFF86490C9F8008040288A
:1057C00026DBA7F10108A04522D9002001F101083C
:1057D0001FFA88F101F03F09804669F39F184FF4E2
:1057E0000019C9F8848023B94FF00808C9F88080EF
:1057F0000EE0012B06D14FF009084FF40019C9F84B
:10580000808005E04FF00A084FF40019C9F8808045
:10581000641CBC429AD300BF8AE70000E80F200056
:105820002DE9F043079F1546164694464FF0A058C1
:10583000DFF85491C9F80080012B04D110F0010F5A
:1058400008D000BFFEE7022B04D110F0030F01D0F7
:1058500000BFFEE700F03F084FF40019C9F884804C
:1058600000248BE07BB94FF003084FF40019C9F80E
:10587000808095F80080C9F888806D1C00F10108CF
:105880001FFA88F021E0012B0FD14FF004084FF4EC
:105890000019C9F88080B6F80080C9F88880B61C65
:1058A00000F102081FFA88F00FE04FF005084FF4EE
:1058B0000019C9F88080DCF80080C9F888800CF1F4
:1058C000040C00F104081FFA88F000BFDFF8B8806C
:1058D000A8F10808D8F80080C8F38068B8F1000F74
:1058E000F4D04FF08068DFF8A090C9F8008040281D
:1058F00002DB4FF0010801E04FF00008A7F10109B9
:10590000A14502D14FF0010901E04FF0000958EA2A
:10591000090823D04FF08058DFF86C90C9F8008058
:105920004FEA81684FEA18584FF40019C9F884808B
:105930004FF00608C9F8808000BFDFF84C80A8F15E
:105940000808D8F80080C8F30078B8F1000FF4D048
:105950004FF08058DFF83090C9F8008040280CDB09
:10596000002001F101081FFA88F180464FF4001968
:10597000C9F884803E2900DD0021641CBC42FFF48C
:1059800071AFBDE8F0830000E80F200001464FF43E
:1059900080708A88521C8A808A88402A11D100220D
:1059A0008A804A88521C4A804A88B2F5806F08D1A2
:1059B00000224A800A88521C0A800A88012A00D1E3
:1059C0004000704713B5602011490870BDF80210FF
:1059D000BDF8000001EB8020BDF8041001EB801041
:1059E0000C490870BDF80210BDF8000001EB8020E2
:1059F000BDF8041001EB8010000A06490870D020A1
:105A0000034908700FF092FD00F006F81CBD00007D
:105A1000000010800000088030B54FF4805440250D
:105A200000F092F8054603E000F08EF80546641E8B
:105A3000402D01D0002CF7D10CB94FF480652846D9
:105A400030BD0EB500208DF800008DF80500012056
:105A50008DF8030008208DF8010000208DF8040067
:105A60008DF8020002208DF806008DF807001F2037
:105A70008DF80A008DF809008DF808008DF80B00EC
:105A8000684611F00FFF642014F032FB002217214A
:105A900004200FF0B1FD00224FF40001042003F0B8
:105AA00019FF0EBD2DE9FF4706461C4600250027BD
:105AB0004FF480784FF04009AA4634E00020204996
:105AC0000870204908700870BDF80610BDF8040081
:105AD00001EB8020BDF8081001EB80101949087017
