:020000040000FA
:10000000C8AC0010F900000001010000030100006D
:1000100005010000070100000901000000000000C8
:100020000000000000000000000000000B010000C4
:100030000D010000000000000F010000C1250100BB
:100040001301000013010000130100001301000060
:10005000130100002D4001001301000013010000F6
:100060001301000013010000130100001301000040
:100070001301000000000000130100001301000044
:100080001301000013010000130100001301000020
:100090001301000013010000130100001301000010
:1000A0001301000013010000130100001301000000
:1000B00013010000130100001301000013010000F0
:1000C00013010000130100001301000013010000E0
:1000D00013010000130100001301000013010000D0
:1000E00013010000DFF80CD00FF0CEFE00480047EF
:1000F00025530100C8AC0010064880470648004759
:10010000FEE7FEE7FEE7FEE7FEE7FEE7FEE7FEE7C7
:10011000FEE7FEE7F5250100E50000002649C0F3F3
:100120000742525CC0F30723DFF890C013F80C308D
:1001300002EB4312C0B2405C02EBC02070474FF6A6
:10014000FF707047F0B41D4C1B4D50F8046BC6F3A4
:1001500007477F5DC6F3072C1CF804C007EB4C175C
:10016000F6B2765D07EBC6260E805918521EECD10A
:10017000F0BC7047F0B4541E03FB040001EB820195
:10018000091F5B420E4C0F4D0688F7127F5D4FEA48
:10019000661C0CF03F0C1CF804C007EB0C2706F0A3
:1001A0001F06765D07EB064641F804691818521ED3
:1001B000EAD1F0BC70470000CC820200CC83020080
:1001C000EC840200CC84020010B5002406480068CC
:1001D000010002D0804700B1012404F076F900B19B
:1001E0000124204610BD000078A1001010B50024A5
:1001F00000E00124FFF7E8FF0028FAD1204610BDF7
:1002000030B585B0044610461D46A2690492B4F983
:1002100008200392628A0292002201920091B4F9AE
:100220001030B4F90E20B4F90C106918B4F90A5062
:10023000401902F06EFA0546616802F0C3FA2846DA
:1002400005B030BD30B587B014461D460A9A8369A3
:100250000693059242680492B0F908200392428AFC
:100260000292002201920091B0F91030B0F90E20F4
:10027000B0F90C106918B0F90A00201802F08CFED1
:1002800007B030BD2DE9FC4104460F4606F0A8F842
:1002900054B3204600F03BFB0190C06D8668019886
:1002A00002F05EFC05460198476301A800F03AFBA6
:1002B00001212046326890470746032120463268D4
:1002C00090478046002120463268904706462046E7
:1002D00002F009FD009643463A462946204608F0BA
:1002E00075F9204603F03CFC06F072F8BDE8F38196
:1002F000FEE7002818BF09F0C3B97047FFFFFFFFF2
:1003000070B5044660680F26DFF8B05705F1780233
:10031000D36B984203D2761E083A002EF8D529688E
:1003200081423CBF0FF2A070FFF7E2FF28686168CE
:10033000401A286005EBC600403004F108010A6845
:10034000496802B1516009B10A6070BD026070BDB8
:10035000F8B505460E46AA19DFF86047606BA1683C
:100360000818401E904206D3106820B950684519FD
:100370001046FFF7C5FF606BB0420AD256F8040C76
:10038000371A386828B9786845193846FFF7B8FF32
:100390003E460F2004F17801CA6B954203D2401EFD
:1003A00008390028F8D504EBC000016C0022326047
:1003B0007560B1603661A91941F8045C06F1080165
:1003C00050F8402F02B151600A6000224A6001607B
:1003D0002068281820602846F2BD2DE9FD4C82B027
:1003E000DFF8D846656BA0684019401E01906E6822
:1003F0001EB90FF23070FFF77BFF2868002839D153
:1004000070190199884235D200908346DBF804A028
:10041000DBF8000020B90FF26470FFF769FF29E0F4
:10042000216B11F83010012924D1A16A88420CBF38
:10043000012700272846FFF763FFDBF80000216B48
:1004400001EBC00045605246009928460FF0FCF9C8
:1004500027B1206B0099401A281820630AEB050188
:100460003046FFF775FF029919B1884201D3002089
:1004700005E05646751901988542B8D3012005B0AC
:10048000BDE8F08CF0B58A080023FF24054600265D
:1004900062B11F46B7FBF4FCCCEB0C2CA7EB0C0CA9
:1004A00045F804CB761C7F1C9642F3D30646002504
:1004B0001F4601E06D1C7F1C95420BD256F804CB01
:1004C000B7FBF4FECEEB0E2EA7EB0E0EF445F1D0EB
:1004D0000320F0BD5B1C022BD8D34A08002305463D
:1004E000002662B11F46B7FBF4FCCCEB0C2CA7EB4B
:1004F0000C0C25F802CB761C7F1C9642F3D30646E3
:1005000000251F4601E06D1C7F1C95420DD236F878
:1005100002CBB7FBF4FECEEB0E2EA7EB0E0E1FFAAE
:100520008EFEF445EFD00220F0BD5B1C022BD6D32B
:1005300000230246002559B11E46B6FBF4F7C7EB6F
:100540000727F71B02F8017B6D1C761C8D42F4D344
:10055000024600251E4601E06D1C761C8D420AD223
:1005600012F8017BB6FBF4FCB4445FFA8CFC6745DF
:10057000F2D00120F0BD5B1C022BDAD309B10FF0E1
:100580008AF90020F0BD10B5DFF83045002084F86E
:1005900024008022002104F13C0006F0DFF8BC2298
:1005A0000021204606F0DAF8DFF814450C2200217D
:1005B000204606F0D3F82020A06010BD2DE9F041C0
:1005C000DFF8F844A06A40B9DFF8F40441688068B5
:1005D0000830B1FBF0F0851C05E0E0680A21B0FBB3
:1005E000F1F10818451CE80000F08FF85FEA0008F8
:1005F0002BD0216B01EBC800406800F10806A76A08
:10060000E068C20030460FF01FF92663C4F8288066
:10061000E068691E884207D206EBC002121D401C2A
:1006200042F8080B8842FAD306EBC0000021416073
:10063000E068206260682818E168401A6060E56040
:1006400017B1384600F0F4F9E4E00120BDE8F0818C
:1006500070B5DFF8684494F82400002854D10120D4
:1006600084F82400DFF858546968B1F5205F88BF2A
:100670004FF420512868FFF705FF18B10FF25450CE
:10068000FFF736FE286818B90FF28450FFF730FEE6
:10069000DFF83004E86005F10C0000F0DEFB201DFF
:1006A0005A21816100212246102303FA01F6D66304
:1006B000491C08321029F8D329686A685218143A7C
:1006C0000223836004F12406F2606A6842603161AB
:1006D0000021002204E0491CF368D3185960083255
:1006E00083685B1E9942F6D30121C1616360316961
:1006F0004068FFF72DFEFFF761FF18B10FF2605061
:10070000FFF7F6FD0120B06070BD2DE9F041054610
:10071000FFF79EFFDFF8A443E06B854202D3E81C9D
:100720008008800000F10C052068A84218D3E06A18
:100730006168884207D3401EE062FFF73FFFE16A2D
:10074000491CE16260B96068401E6060266A206BE7
:1007500000EBC60149682162012100F8361006B994
:1007600058E00F2104F17802D36B9D4203D2491E59
:10077000083A0029F8D5102917D204EBC102C1F1BB
:100780001001136C63B19F687B68AB420CD2BB68ED
:1007900033B19F687B68AB4206D2002FF7D100E0EF
:1007A00000270832491EECD19FB905F10C00FFF774
:1007B00014FE0028D5D06068401C6060206B00EB00
:1007C000C600216A4160206B002100F836102662C5
:1007D00020E0D7F80480A8EB0500E16B0C318842DB
:1007E00038BF45463846FFF78BFD206B00EBC6004F
:1007F00047603E607D600020B8603F61E91941F8C4
:10080000045C4545BCBFA8EB0500FFF7A1FD3046E1
:10081000BDE8F0810020BDE8F08150F8080C704779
:1008200028B1A6498A6B026002B1506088637047A4
:100830002DE9F8430446FFF70BFFE01C8008800019
:10084000061D9E4CE06B864238BF0646A56B00E055
:100850002D6895B155F8040CB042F9D16DB12868F6
:1008600008B169684160686808B129680160A06BD7
:10087000A84235D12868A06332E0606BA16801EB23
:100880000008A8F10409D9F80000A8EB00073968AE
:1008900069B1796881421CBF0FF22040FFF728FD43
:1008A0000020FFF79AFDD9F80000A8EB0007386890
:1008B000B0B97868B04213DB7142C0190818051D41
:1008C0003846FFF71DFDA068801BA0602069301826
:1008D000206139467868801BFFF73AFD45F8046CC3
:1008E0002846BDE8F28310B5040001D1002010BDF8
:1008F00005F076FD2046FFF708FF04466CE028B1BE
:100900006E49096B01EBC0004068083070476B49C5
:100910008A69521C8A61096B01EBC0010A78521C7A
:100920000A70ECE76549026852F8082C0B6B03EB80
:10093000C2021378022B03D38B690BB15B1E8B6150
:100940001178491E117000210160002070475B483A
:1009500000680C380128B8BF00207047574840682D
:100960007047564881680068081A70475348C16844
:100970004068081A704710B50024FFF769FE0F2081
:100980004E4901F17802136C1BB101EBC000006C01
:1009900004E0401E083A0028F5D508E0836833B12A
:1009A0005868844238BF044698680028F6D1A4F1FC
:1009B0000C0010BD10B505F013FDFFF7DCFF3F493B
:1009C000C9696422B0F5800F87BF90FBF2F001FB8C
:1009D00000F44843B0FBF2F405F0FAFC204610BDE9
:1009E00036484169491C4161704734484169491E94
:1009F00041617047324A106088088000506070473B
:100A00002F49112805D34A685208904202D3104654
:100A100000E0102088607047002138B12749096B39
:100A200001EBC00040684068A0F10C010846704727
:100A300038B504001ED005F0D3FC204D286B10F80B
:100A4000341099B1022911D200EBC4004168486802
:100A5000FFF77EFC6868401C6860286B00EBC401EF
:100A60002A6A4A60002100F834102C62BDE8314047
:100A700005F0AEBC31BD10B5044605F0B1FC2068F0
:100A8000FFF7D6FF00202060BDE8104005F0A0BCB5
:100A900038B504460D46012D05DB2046FFF7EBFF78
:100AA000241D6D1EF9D131BDA0F10A015B2903D2CD
:100AB0000249C8610020704701207047DC9F001088
:100AC000B80000108705000074656D705C536F7589
:100AD0007263655C4755495F416C6C6F632E633A86
:100AE0000A496C6C6567616C206D656D6F72792069
:100AF0006F7065726174696F6E20696E205F5265F8
:100B00006D6F766546726565426C6F636B28292E42
:100B100020457865637574696F6E2073746F7070AB
:100B20006564210074656D705C536F757263655CFC
:100B30004755495F416C6C6F632E633A0A496C6C90
:100B40006567616C20626C6F636B2073697A6520E6
:100B5000696E205F52656D6F7665486F6C65734E88
:100B6000657728292E20457865637574696F6E2036
:100B700073746F70706564210000000074656D709F
:100B80005C536F757263655C4755495F416C6C6F70
:100B9000632E633A0A496C6C6567616C2066726506
:100BA0006520626C6F636B20696E205F52656D6FAC
:100BB0007665486F6C65734E657728292E204578D9
:100BC00065637574696F6E2073746F7070656421EE
:100BD0000000000074656D705C536F757263655C36
:100BE0004755495F416C6C6F632E633A0A4D656DE2
:100BF0006F72792074657374206661696C65642016
:100C0000696E205F496E69744F6E636528292E00F6
:100C100074656D705C536F757263655C4755495FB1
:100C2000416C6C6F632E633A0A4E6F206D656D6F79
:100C3000727920617661696C61626C6520696E20F1
:100C40005F496E69744F6E636528292E204578656B
:100C5000637574696F6E2073746F707065642100C2
:100C600074656D705C536F757263655C4755495F61
:100C7000416C6C6F632E633A0A4E6F206D656D6F29
:100C8000727920666F7220626C6F636B732061767D
:100C900061696C61626C6520696E205F496E697480
:100CA0004F6E636528292E20457865637574696FDA
:100CB0006E2073746F7070656421000074656D70D0
:100CC0005C536F757263655C4755495F416C6C6F2F
:100CD000632E633A496C6C6567616C20626C6F636C
:100CE0006B2073697A6520696E204755495F414CD6
:100CF0004C4F435F4765744669786564426C6F6327
:100D00006B28292E20457865637574696F6E207392
:100D1000746F7070656400005A480021C160E02261
:100D2000594805F01BBD5949886070472DE9FC41C1
:100D300005460E461746984605F052FB042005F07E
:100D40009FFD04465048016C4D19406C8619CF191F
:100D50008044ADF80050ADF80470ADF80260ADF815
:100D6000068000A803F01FF948B143463A463146D1
:100D7000284605F0FDFD03F0FCF80028F5D12046DB
:100D800005F07EFD05F024FBBDE8F38180B5002170
:100D9000002003F0BAFE3E4940F6FF7213460846B3
:100DA000BDE80050C2E710B5364CE06850B90120EC
:100DB000E0600FF07FFF10F059F836482060A0681F
:100DC0006060A46010BD70B5FFF7EDFF2F4C2E20C2
:100DD00020700FF08DFF2C4E06F11405A86B002833
:100DE000FDD0A0680028FCD006F108007061707C7E
:100DF00006EB8000C06C06F10801C268126B9047D8
:100E00000FF29800C6F8D800A068A86006F10800A4
:100E100070610120287103F0DDFCA862032086F8D0
:100E2000DC006FF07040E8612862002005F0F7FFF9
:100E30006FF07F4005F0F7FF1748606005F011FB89
:100E400005F086FF04460021002003F0F1FF03F0C7
:100E500040FC05F024FB204670BD0A498A684260C8
:100E60008860704710B5074CA06848B1A06800685A
:100E7000010018BF8047A0684068A0600028F5D135
:100E800010BD00008CA1001098A00010CC00001034
:100E900001F0FFFF190D000064650000E568000027
:100EA0008B680000AB48002101604FF4C072AA4873
:100EB00005F054BC38B5044603F027FF20B10121EA
:100EC000BDE8344003F04CBF04EB4400A24901EB01
:100ED000C005687960B101202871286905F014FA0D
:100EE0006A69100004D021460020BDE83840104750
:100EF00031BD01EB4102984901EBC20148617047E5
:100F00002DE9F84F0446884605F06AFA404603F09A
:100F1000FCFE824608EB4800C7008F4D57F805904D
:100F20007E197269100004D04146012090470020CC
:100F300070618848016831B90121016087494160C9
:100F4000001DFFF78AFFBAF1000F1BD0504603F0D7
:100F5000B9FE83464FF07F4003F02DFFFFF716FFE9
:100F600000220021206803F086FD20684288018865
:100F7000504603F0E5FE7C5101207071584603F0A5
:100F8000A1FE16E07C5101207071306918B105F0A6
:100F9000FBF8002030617CB1012000904346F068EE
:100FA000A168421AB0686168411A206805F057F8D4
:100FB00030614046FFF77EFF05F00AFA4846BDE87B
:100FC000F28F38B504460D4605F00AFA284603F0BC
:100FD0009CFE90B103F076FE05464FF07F4003F093
:100FE000EAFEFFF7D3FE00220021204603F043FD76
:100FF000284603F067FE002409E0214605EB450082
:10100000554A02EBC000006905F0F7F8044605F008
:10101000DFF9204632BD5249497CD2E738B5044653
:1010200005F0DEF904EB4400C0004B4945180022EE
:101030006A712A6952B1EA6843589B68D21AAB6850
:1010400040584068191A286905F0C8F8204603F08E
:101050005CFE28B1002103F083FE002028710CE023
:10106000287950B1286905F029F9002028716A69AA
:10107000100002D0214601209047BDE8314005F024
:10108000A7B910B5044605F0ABF904EB4400C00065
:101090003149421801235371405820B92146314843
:1010A000FFF72EFF02E02046FFF704FFBDE81040E7
:1010B00005F08EB910B5044605F092F904EB440032
:1010C000254901EBC000447905F082F9204610BDA6
:1010D00070B504460D46164605F082F9304603F019
:1010E00014FE06EB4601C9001B4A38B189588A68CC
:1010F000AA1A4968611A03F017FE18E08E18B06842
:10110000A04214BF01200020F368AB4214BF0123AA
:10111000002318430BD0306938B1885881686A1AA7
:101120004068211A306905F059F8B460F560BDE8EF
:10113000704005F04DB90A49497CE1E60848407C19
:101140006CE70748407C9CE70548407CB2E7044ACE
:10115000527CBDE71CA300109CA10010A50E00004E
:1011600098A00010C082020010280BDA504A02EB4F
:101170008000C06C00E0006820B1C26812688A423A
:10118000F9D1704700207047102801DB002070471C
:10119000474901EB8000C06C00E0006800281EBFDA
:1011A000C16809680029F8D17047FFF739BBF8B565
:1011B00004460F4615461E46102E03DA1C20FFF784
:1011C00037FB08B90020F2BD0FB107610BE03849C9
:1011D00001EB8601C96C31B100E011460A68002AB2
:1011E000FBD10969016186618582C46000210160CB
:1011F00041608160F2BD81692D4A02EB8101CA6CB8
:10120000824204BF0268CA64416809B102680A6088
:10121000016809B142684A6000210160416070477D
:1012200030B450B38169102927DA214A02EB8102D8
:10123000D16C11B9D06425E019464B68002BFBD165
:10124000D9B1CB681B68C46825689D42B8BF0968DE
:10125000F6DBAB4204BF838A012B06D10B6823B1B6
:101260001946CB681B68AB42F8DA4B68002B1DBFF0
:1012700018604A684260D06402E0012030BC7047C8
:1012800048600160002030BC704738B51C46FFF74D
:101290008EFF050018BFFFF7C3FFE868006820B99C
:1012A000034800EB8400C0F88C50284632BD000093
:1012B00098A0001070478449C8617047824840690F
:1012C00070478148806970477F4800214160816094
:1012D000C160016170472DE9F04780460C46154614
:1012E0001E46DFF8E89199F81100774F397F4907DA
:1012F00007D400F00BF9824699F8110000F008F9C4
:1013000006E000F005F9824699F8110000F0FEF8B9
:10131000B8F1000F0CBFAAF10100401E089AB11AE3
:1013200048BF4942142904DB611B48BF49421429C4
:1013300002DA0120BDE8F08707EBC8012B1B921BE6
:1013400004FB02F595FBF3F5751B4D60001B504344
:1013500090FBF3F080198860B86879688142BABF61
:101360000A4601460246B9627A623869F9688142E2
:10137000BABF0A46014602463963FA620120386262
:101380000020BDE8F087504B03EBC00043680B60C2
:101390008068106070472DE9F0414B4C206A48B9D5
:1013A0006060A060E0602061A06260622063E06233
:1013B00001202062207838B90FF06EFCA0610FF098
:1013C0005BFC2078401C7CE00FF058FC60610FF063
:1013D0004FFC6069616A8842A4BFA16A814206DB52
:1013E000A169E26A9142A4BF226B8A4205DA4FF0FA
:1013F000FF306063A063014660E06168451A334EC8
:10140000707C217F490702D400F080F801E000F0F1
:101410007FF8401E6843A1686268891A90FBF1F565
:10142000A069E168471A707C217F490702D400F067
:101430006FF801E000F06AF8401E78432169E26825
:10144000891A90FBF1F7707C217F490711D400F0D5
:101450005DF88046707C00F05BF8E169CA0744BF24
:10146000A8EB0502551E890752BF3A46C01B421E13
:1014700011E000F04DF88046707C00F047F8E1691B
:10148000CA0746BFA8EB0502521E2A46890746BF77
:10149000C01B451E3D4615F1010F18BF12F1010F8B
:1014A00007D0606B10F1010F1CBFA16B11F1010F90
:1014B00002D14FF0FF3001466563A26305F020F8CA
:1014C00000202070BDE8F081D800001098A0001026
:1014D00038B50C460025102807DAFFF755FE20B175
:1014E0002146C268926A90470546284632BD70B5CB
:1014F000044600250F2621463046FFF7E9FF8542C6
:10150000B8BF0546761EF6D5284670BD0121DFE737
:101510000221DDE70321DBE70421D9E70821D7E732
:101520000921D5E70A21D3E70B21D1E70C21CFE729
:101530000D21CDE70E21CBE7012100E00221234858
:10154000407CC5E70321FAE70421F8E70821F6E724
:101550000921F4E70A21F2E70B21F0E70C21EEE77D
:101560000D21ECE70E21EAE7184901EB8000C06C81
:101570000821C268926A104780B5FFF705FE28B1BE
:101580000221C268D26ABDE80840104702BD0F4878
:10159000407CF1E780B5FFF7F7FD08B100694068CE
:1015A00002BD0A4901EB8000C06C006940687047C9
:1015B00080B5FFF7E9FD08B10069006802BD034985
:1015C00001EB8000C06C00690068704798A00010B3
:1015D00001208CE702208AE7032088E7042086E7C1
:1015E000082084E7B0B34108490001D101207047C9
:1015F0008108890001D102207047C108C90001D1CA
:10160000032070470109090101D1042070474109F5
:10161000490101D105207047010A090201D10820C2
:101620007047410A490208D0010B090305D0C10BDC
:10163000C90302D0010C090401D110207047810CAC
:10164000890401D11220704710F07F4F01D118207A
:1016500070472020704710B50024FFF7C3FF012812
:1016600008BF01240ED0811E072938BF082409D3E2
:10167000A0F10901082938BF102403D3113810281C
:1016800038BF2024204610BD38B50C460125FFF791
:101690007BFD009058B1022100A8009AD268526ADE
:1016A0009047020003D02146009890470025284625
:1016B00032BD38B50C460125FFF766FD009058B1E4
:1016C000092100A8009AD268526A9047020003D00C
:1016D0002146009890470025284632BD70B582B05B
:1016E0000C4615460126FFF74FFD009060B10A2118
:1016F00000A8009AD268526A9047030004D02A4694
:101700002146009898470026304676BD70B582B0D5
:101710000C4615460126FFF737FD009060B10B21FE
:1017200000A8009AD268526A9047030004D02A4663
:101730002146009898470026304676BD38B50C46BD
:101740000125FFF721FD009058B1062100A8009A5D
:10175000D268526A9047020003D021460098904711
:101760000025284632BD70B582B00C4615460126CC
:10177000FFF70AFD009060B1032100A8009AD2682B
:10178000526A9047030004D02A46214600989847A1
:101790000026304676BD38B50C460125FFF7F4FC2F
:1017A000009058B1132100A8009AD268526A90475D
:1017B000020003D02146009890470025284632BDFC
:1017C00038B50C460125FFF7DFFC009058B1142115
:1017D00000A8009AD268526A9047020003D02146BE
:1017E000009890470025284632BD70B582B00C465F
:1017F00015460126FFF7C8FC009060B1152100A82E
:10180000009AD268526A9047030004D02A462146C3
:10181000009898470026304676BD70B582B00C46D9
:1018200015460126FFF7B0FC009060B1102100A81A
:10183000009AD268526A9047030004D02A46214693
:10184000009898470026304676BD70B582B00C46A9
:1018500015460126FFF798FC009060B1042100A80E
:10186000009AD268526A9047030004D02A46214663
:10187000009898470026304676BD10B582B0012406
:10188000FFF782FC009050B1172100A8009AD2689F
:10189000526A9047010002D00098884700242046F1
:1018A00016BD01461948407CEEE601461748407CCB
:1018B000FFE60A4601461548407C0FE70A46014606
:1018C0001248407C22E701461048407C36E70A4631
:1018D00001460E48407C46E701460C48407C5AE7EA
:1018E00001460A48407C6BE70A4601460748407CAF
:1018F0007BE70A4601460548407C8EE70A460146DA
:101900000248407CA1E70148407CB6E798A000105F
:1019100070B582B00C4615460126FFF735FC0090E5
:1019200060B1162100A8009AD268526A904703005D
:1019300004D02A462146009898470026304676BDB6
:1019400010B50446A06838B94020FEF771FFA060CA
:101950004022002104F002FFA06808B1002010BD61
:10196000012010BD806800220A804A804269521E10
:101970008A808069401EC88070477CB504460D4649
:1019800016460FF67030D0E90023CDE9002320463B
:10199000FFF7D6FFA06840B1056246620095019648
:1019A00000AA0821A0690FF097FA73BD70B504462C
:1019B0000D461646FFF7C4FFA06818B1016A2960FA
:1019C000406A306070BD38B504460D460FF62C30C5
:1019D000006800902046FFF7B3FFA06830B1856231
:1019E000009500AA0A21A0690FF076FA31BD38B53A
:1019F00004460D460FF60830006800902046FFF7B9
:101A00009FFFA06830B1C562009500AA0921A069B6
:101A10000FF062FA31BD38B50446FFF791FF054675
:101A200000220121A0690FF057FA284332BD00229D
:101A3000052101E00022062180690FF04DBA80B532
:101A4000009100AA0B2103E080B5009100AA0C21AF
:101A500080690FF041FA01BD30B583B00FF6A423C1
:101A6000D3E90045CDE900450091019200AA0D217E
:101A700080690FF031FA03B030BD2DE9F041044622
:101A80000D469046FFF75CFFA768002F18BF45453D
:101A90001AD008212046E268926A9047F9683A69AC
:101AA00051434843C208786808FB02067B6B190063
:101AB00004D042462946A069984704E005FB02018C
:101AC00030460DF0C1FE3E60BDE8F08138B50446F9
:101AD0000D460FF63820006800902046FFF730FFD3
:101AE000A06828B1009500AA0E21A0690FF0F4F9B2
:101AF00031BD70B504460D461646FFF721FFA068BC
:101B000078B1192D08D0202D08D0212D02D0232DF9
:101B100006D070BD466370BD066370BD866370BD40
:101B2000C66370BD2DE9FC4104460D4616460FF60E
:101B3000E010D0E90023CDE90023A768A069FFF7F2
:101B4000F5FC8046A069FFF7F3FC48EA4008A0696D
:101B5000FFF7F0FC48EA8000072833D8DFE800F000
:101B600004060D131D1F2628009504E07869F96806
:101B7000401A401B0090019624E00095B86939692D
:101B8000401A801B1DE07869F968401A401B0090DC
:101B9000B8693969401A801B13E0009604E0B869FF
:101BA0003969401A801B009001950BE0009604E013
:101BB000B8693969401A801B00907869F968401A41
:101BC000401B019000AA0321A0690FF085F9BDE830
:101BD000F38138B504460D460FF63C1000680090BE
:101BE0002046FFF7ADFEA06838B14560056000955E
:101BF00000AA0221A0690FF06FF931BDF8B50446C3
:101C00000D461646FFF79CFEA7684FB1A069FFF787
:101C100091FC00287D61BE6101D0FE61F1BDFD61D6
:101C2000F1BDF0B583B004460D4616460FF6EC0044
:101C3000D0E90023CDE900232046FFF781FEA76805
:101C40008FB1F86930B9A069FFF774FC002814BFA0
:101C5000FE61FD61FD603E610095019600AA0721CD
:101C6000A0690FF039F903B0F0BDF0B4049F8668A5
:101C7000DFF8280800680568F06940104FEA510C49
:101C800000FB02CC366806EB8C065B1A5B1CBA1AAA
:101C9000521CDFF80C783F7CFF0739D5C9070DD5FA
:101CA0001100344608D0DFF8FC5727686F402760E2
:101CB00004EB8004491EF8D1361D5B1E022B17DB96
:101CC000110011D01F46491E01FB00F406EB8404ED
:101CD0004FF0FF3C25688CEA050544F8045BBF1E05
:101CE000022FF7DA0029EDD1264623F001015B1A15
:101CF000012B66DB1100344663D04FF6FF72236878
:101D00005340236004EB8004491EF8D1F0BC7047B7
:101D1000C9070CD51100344607D0276865F31F4763
:101D2000276004EB8004491EF7D1361D5B1E05EBCE
:101D3000054C102B22DB103B110019D01F46491E09
:101D400001FB00F406EB840444F804CB44F804CB14
:101D500044F804CB44F804CB44F804CB44F804CB57
:101D600044F804CB44F804CB103FEDD50029E5D16D
:101D7000264603F1100121F00F03CB1A022B12DBD0
:101D800011000CD01F46491E01FB00F406EB840431
:101D900044F804CBBF1E022FFADA0029F2D12646FE
:101DA00023F001015B1A012B0BDB1100344608D034
:101DB0002268120C55EA0242226004EB8004491E9C
:101DC000F6D1F0BC70478068D0F81CC00CFB021143
:101DD000006820F8113070478068C36903FB021166
:101DE000006830F811007047F8B505460E461746F2
:101DF000FFF7F2FF0446286980688047A968CA692E
:101E000002FB07620968604021F81200F1BD7CB551
:101E10008468256B069C2E0008D0DFF88066366843
:101E20003668019600948069A84773BD0094FFF757
:101E30001CFF73BD80B5009202E080B500930B4695
:101E4000FFF7E5FF01BD2DE9F0479A4685680A9E38
:101E50003368D6F804C0DDF820E0EE6906FB021115
:101E60000EEB0106CEF10807DFF83C869AF8001069
:101E700011F8081041FA0EF9099CDFF82416097CC4
:101E800011F0030106D0022924D037D3032935D01D
:101E9000BDE8F0873846A74288BF204601462A6839
:101EA00002EB46025FEAC97E4CBFE6469E4622F838
:101EB00002EB761C4FEA5909491EF3D13F1A241A46
:101EC00027B91AF8010F10F808900827002CE1D163
:101ED000BDE8F0875FEAC97044BF286820F816C0E3
:101EE000761C7F1E4FEA590904D11AF8010F10F829
:101EF00008900827641EEDD1BDE8F087006980686E
:101F00008047296801EB46015FEAC97202D50A8859
:101F100042400A807F1E4FEA590904D11AF8012F66
:101F200012F808900827641E891C002CECD1BDE82B
:101F3000F0872DE9F04793F80080089C6118099E0E
:101F4000DDF828E0DFF858753F7C17F0030703D071
:101F5000022F47D0BDE8F087C027BEF1000F22D086
:101F6000C4F1030C4FEA4C0CD0F80890D9F81C507F
:101F700005FB0215D9F80090CCF1060A47FA0AFAD7
:101F80000AEA080A2AFA0CFC5EF82CC029F815C0E7
:101F9000491C641C042C04BF002413F8018F761E16
:101FA000DED1BDE8F087C4F1030C4FEA4C0C856824
:101FB000D5F81CE00EFB021E2D68CCF1060947FA8D
:101FC00009F909EA080929FA0CFC25F81EC0491C80
:101FD000641C042C04BF002413F8018F761EE2D188
:101FE000BDE8F087C027BEF1000F21D0C4F1030C7B
:101FF0004FEA4C0CCCF1060547FA05F505EA080551
:1020000035FA0CFC09D08568D5F81C9009FB02193B
:102010002D685EF82CC025F819C0491C641C042CDE
:1020200004BF002413F8018F761EDFD1BDE8F087CE
:10203000C4F1030C4FEA4C05C5F1060E47FA0EFE3B
:102040000EEA080E3EFA05FC09D0D0F808E0DEF8EA
:102050001C5005FB0215DEF800E02EF815C0491CE7
:10206000641C042C04BF002413F8018F761EDFD1FA
:10207000BDE8F0872DE9F04793F80080089C6118CF
:10208000099EDDF828E0DFF818743F7C17F003079D
:1020900003D0022F47D0BDE8F087F027BEF1000F34
:1020A00022D0C4F1010C4FEA8C0CD0F80890D9F87A
:1020B0001C5005FB0215D9F80090CCF1040A47FA30
:1020C0000AFA0AEA080A2AFA0CFC5EF82CC029F877
:1020D00015C0491C641C022C04BF002413F8018F96
:1020E000761EDED1BDE8F087C4F1010C4FEA8C0CFE
:1020F0008568D5F81CE00EFB021E2D68CCF10409A2
:1021000047FA09F909EA080929FA0CFC25F81EC062
:10211000491C641C022C04BF002413F8018F761E96
:10212000E2D1BDE8F087F027BEF1000F21D0C4F165
:10213000010C4FEA8C0CCCF1040547FA05F505EAD1
:10214000080535FA0CFC09D08568D5F81C9009FB08
:1021500002192D685EF82CC025F819C0491C641CB2
:10216000022C04BF002413F8018F761EDFD1BDE8D6
:10217000F087C4F1010C4FEA8C05C5F1040E47FA53
:102180000EFE0EEA080E3EFA05FC09D0D0F808E073
:10219000DEF81C5005FB0215DEF800E02EF815C035
:1021A000491C641C022C04BF002413F8018F761E06
:1021B000DFD1BDE8F08730B4039C002C76D0806876
:1021C000C56905FB0211006800EB41000299B44AA1
:1021D000127C12F0030234D0022A65D030BC704762
:1021E00013F8012B54F8222020F8022B13F8012BAE
:1021F00054F8222020F8022B13F8012B54F8222047
:1022000020F8022B13F8012B54F8222020F8022B7F
:1022100013F8012B54F8222020F8022B13F8012B7D
:1022200054F8222020F8022B13F8012B54F8222016
:1022300020F8022B13F8012B54F8222020F8022B4F
:1022400008390829CCDA04291ADB13F8012B54F8D1
:10225000222020F8022B13F8012B54F8222020F81A
:10226000022B13F8012B54F8222020F8022B13F82C
:10227000012B54F8222020F8022B091F0429E4DA4C
:1022800000291FBF13F8012B54F8222020F8022B3D
:10229000491EF5D130BC70471A7812B154F822208B
:1022A0000280491E5B1C801C0129F5DA30BC704796
:1022B0002DE9F04F83B081468B4614461F460D989A
:1022C0000C9EDDF83880DDF83CA010991091119D2E
:1022D000012808D0022817D0042826D0082835D095
:1022E000102842D054E0012E52DB0295019710983D
:1022F00000905346224659464846FFF7A4FDC24483
:10230000641C761EF1D143E0012E41DB029501975A
:10231000109800905346224659464846FFF709FE5A
:10232000C244641C761EF1D132E0012E30DB0295EE
:102330000197109800905346224659464846FFF7A9
:1023400099FEC244641C761EF1D121E0012E1FDBF0
:10235000019500975346224659464846FFF72BFF02
:10236000C244641C761EF3D112E0012E10DB7F0004
:10237000D9F808003A465146C36903FB04B3006824
:1023800000EB43000DF060FAC244641C761EEFD1EE
:1023900003B0BDE8F08F00008068491E0D2916D8F3
:1023A000DFE801F007090B0D1515150F13111113B7
:1023B0001313C068704700697047406970478069AF
:1023C00070471020704701207047002070474FF081
:1023D000FF307047012901D1344870470020704711
:1023E000F0B4059C80680D46049E5F1A7F1CD0F8EF
:1023F0001CC00CFB02114900D0F800C031F80CC021
:1024000024F802CB7F1E891C002FF5D129461746E0
:102410007A1CB742E9DBF0BC70470000491E222954
:1024200039D8DFE801F0361C181A381E3838121473
:10243000162038222438383826282A3038383838B8
:102440003838383838382C2E320019487047194837
:10245000704719487047194870471948704719481C
:10246000704719487047194870471948704719480C
:1024700070471948704719487047194870471948FC
:102480007047194870471948704700688068C06BEA
:102490007047174870470020704700002002001066
:1024A00098A000100000FFFF38850200F87B0000B4
:1024B000D31B0000FD1B0000231C00007B19000043
:1024C000AD190000C7190000EF190000171A00002D
:1024D0002F1A0000351A00003F1A0000491A0000A8
:1024E000591A00007B1A0000CD1A0000F31A0000F0
:1024F000E1230000000000000000000000000000D8
:1025000000000000000000000000000000000000CB
:1025100000000000000000000000000000000000BB
:102520000000000038B504464FF4807106F0EEFD5F
:102530002046FEF7ECF90090856A00A8FEF7F2F954
:10254000A80703D50121204607F08CF931BDF8B565
:1025500004460D464FF4807106F0F3FD2046FEF769
:10256000D6F90090866A078E00A8FEF7DBF9022DE7
:1025700004BF384602F019FBB00703D529462046B0
:1025800007F070F9F1BD70B582B004460D46FEF754
:10259000BEF90090468E00A8FEF7C4F9E86840B185
:1025A000007A10B1F00508D43DE0F00505D5022110
:1025B00000E003212046FFF7CAFF73BD70B582B06B
:1025C00004460D46FEF7A3F90090468E00A8FEF7DC
:1025D000A9F9E86818B1007A28B9F00503D50321F4
:1025E0002046FFF7B4FF73BD70B582B004460D46B8
:1025F000FEF78DF90090468E00A8FEF793F9E86883
:10260000417A21B9007A68B1F0050BD40BE00129B9
:1026100004BF007A002805D1F00503D50221204629
:10262000FFF795FF73BD2046FFF77CFF73BD56484B
:102630005649016056494160704753485549016009
:1026400000214160704738B505466C682946204630
:1026500006F098FD00285BD028680B2826D00C28AF
:1026600010D00E2832D00F2812D0112802D02828DE
:1026700045D04AE044484268100049D029462046E7
:10268000904731BD294620463F4A1268904731BDE8
:102690002046FEF73CF90090406E056800A8FEF762
:1026A00041F9280034D02046A84731BD2046FEF726
:1026B0002EF900906830FEF7DEF9032100986C30A7
:1026C000FEF7E6F900A8FEF72DF91EE0E86841687C
:1026D00000680D2802D0202806D010E001290EDB6A
:1026E0002046FFF71FFF05E0012903DB2046FFF727
:1026F00019FF31BD02212046FFF729FF31BDE868EF
:1027000018B90021204600F09EF8284601F09BFFF2
:1027100031BD2DE9F04F85B081468A4693469846F3
:102720000E9D0F9E119C129F03F05AFE07F14C0064
:102730000390194802900196009543465A46514627
:10274000484601F00FFA050017D0FEF7E0F80490B4
:102750001022214606F00FFD104C0498343021461B
:1027600030220DF071F80498216B416604A8FEF741
:10277000D9F82846216B4968884703F029FE284686
:1027800005B0BDE8F08F000048010010BD25000035
:10279000E9250000872500004726000014010010ED
:1027A000F0B585B00A9C0B9D0C9E0D9F4FF0000C60
:1027B000CDF810C00397029601950094FFF7A9FF8A
:1027C00005B0F0BDF0B583B004460E4601250CB34C
:1027D00003F006FE2046FEF79AF80090876E0197F8
:1027E00000A8FEF79FF8314601A803F0E1FF78B199
:1027F00000250198B84208D02046FEF788F80090DE
:102800000199816600A8FEF78DF8204601F0A8F92D
:1028100003F0DEFD284603B0F0BD38B504000D46D8
:102820000ED003F0DDFD2046FEF771F800904565FF
:1028300000A8FEF777F8204601F092F903F0C8FDF2
:1028400031BD06F03ABC00294FF4807118BF06F084
:102850005DBC06F076BC00291CBF102106F056BCFA
:10286000102106F06EBC70B582B004000D4616460D
:1028700011D003F0B5FD2046FEF749F80090A0F80E
:102880005E50A0F8606000A8FEF74CF8204601F00A
:1028900067F903F09DFD73BD782307F085BC7823AD
:1028A00007F064BC034800687047024A1168106072
:1028B000084670475001001070B584B000AA00238C
:1028C00000241D461E4678C22A220092039100A9C8
:1028D00001F0DFF804B070BD30B585B000A900226A
:1028E0000023144615463CC12A21009100A901F09D
:1028F000D0F8039805B030BD2DE9F84304460E46E4
:1029000017465FEA0308089DDDF8249002D101F024
:1029100061FF804600974B462A464146204627687D
:10292000B84707001DD006F0C6FE0546618A384646
:1029300006F0ECFB384607F01CF9284607F019F9B9
:10294000761E012E14DB1C3400200090002302466A
:1029500029462046D4F800C0E04728B9384601F09F
:10296000B6F90020BDE8F28307F003F9761EEAD13C
:102970001D21284606F080FF18F1010F1CBF3846C4
:1029800007F078F83846BDE8F28338B504460D46BE
:10299000FFF7A2FF10B145600121016003F020FDA7
:1029A000204601F087FDBDE8314003F011BD00B5C0
:1029B00083B00FF24001D1E90023CDE9002300A943
:1029C000FFF77AFF04E0FDF711FC08B903F0E1FD21
:1029D00000980028F7D0019803B000BD30B583B04F
:1029E000069C079D01950094FFF786FF03B0BDE8A4
:1029F0003040DCE7000000000000000038B504466D
:102A00000D46FDF784FF0090B0F87C0000F008014F
:102A100025B169B9009940F0080004E041B100997E
:102A20004FF6F7721040A1F87C00204601F098F8AC
:102A300000A8FDF777FF31BD2DE9F04385B00646CC
:102A40007568284606F05DFE0746FDF760FF0090BA
:102A5000D0F86480D0F84890D0F8804000A8FDF706
:102A600061FF30680E282FD00F280BD014281CBF10
:102A7000152817284DD01E2817D01F281FD0222810
:102A80003DD03FE06FF07040814504D0484604F0EF
:102A9000C6F9FEF77BF95FEA08003DD001A81ECE1B
:102AA0001EC0029501A8C04736E0F068A0B3002C14
:102AB00018BFAC4215D0204606F048FF2CE0314646
:102AC000384606F05FFB27E0F0684168012919DB12
:102AD0000068092805D00A2814D1284606F0D8FF36
:102AE00002E0284606F0C6FF04463846FDF70FFF11
:102AF0000090C0F8804000A8FDF714FF0CE0C6F875
:102B00000C9009E05FEA080003D077603046C047C8
:102B100002E0304601F097FD05B0BDE8F08370B5E6
:102B20008AB005460E46FDF7F2FE0090C06D84683F
:102B300000A8FDF7F7FE01952EB1022E07D004D3B1
:102B4000032E06D007E0182004E0162002E015202E
:102B500000E01720029001A8616888470AB070BDA4
:102B60000146002091F83220920600D4704780B5CB
:102B7000B1F9540018B9486B01F0B0FF801C02BDD8
:102B80002DE9F04383B081460C461546FDF7BFFEA4
:102B90000190C06D87680198B0F90060B0F90280BB
:102BA00001A8FDF7BFFE002148463A689047074656
:102BB000484606F08CFD0AE020688142A4BF481C0C
:102BC000206000A8FDF7AEFE484606F08DFD5FEAE6
:102BD00000091BD0FDF79BFE0090B0F90000801BA0
:102BE0000099B1F90410891B009AB2F90220A2EBF6
:102BF0000802BA42E5D1009A92F828201206DBD5E5
:102C000029688142DDDB401E2860DAE703B0BDE8B9
:102C1000F0832DE9F04F87B080460D4600260396DD
:102C2000FDF775FE0090C06D846801214046226862
:102C300090470746032140462268904705900221AD
:102C40004046226890470490002140462268904701
:102C50000446009806F062FD8146009806F063FD88
:102C60008246009890F83200800603D50098B0F9AB
:102C7000580003900098FFF773FF83460098C06EDA
:102C800010B106F06BFD0646A5F800B06E80AF806F
:102C90000598A9EB0000401E2881039909195944A1
:102CA0007118E9800499AAEB0101491E6981AF817D
:102CB0002882EC810BEB0400401E688200A8FDF71F
:102CC00031FEB5F90C000290B5F91000019001AA8F
:102CD00002A94046FFF754FF0298A8810198288274
:102CE00007B0BDE8F08F70B586B00646FDF70FFE61
:102CF0000090846EC56E00A8FDF714FE55EA04002E
:102D000025D001A93046FFF784FFACB1BDF90A20F8
:102D1000BDF90810204606F076FDBDF90E00BDF99C
:102D20000A10401A421CBDF90C00BDF90810401AE7
:102D3000411C204606F0DEFE4DB1BDF90A00BDF98A
:102D40000610421ABDF90810284606F05CFD06B0D0
:102D500070BD2DE9F0478CB004460026D4F80480FD
:102D60004046FDF7D4FD00905C30C56A476AD0F854
:102D70000C90B0F820A00098C06D00B1066800A8C3
:102D8000FDF7D0FD06E0204669688847002840F03E
:102D900000812D68002DF6D120680B2800F0E78017
:102DA0000C283BD00D2800F0B6800F2830D0112819
:102DB0000DD0142866D017286ED01E287DD020286C
:102DC00000F0B78026286AD02A2813D0D9E0E66818
:102DD0004046FDF79CFD0190717A002904BF317ACD
:102DE000012905D1B0F87C1041F48071A0F87C1065
:102DF00001A8C4E04046FDF78AFD0090E168002983
:102E000012BFC0F88410D0F88400E06000A836E05B
:102E1000300000F0B6804046B047B2E0E668404679
:102E2000FDF775FD0190B0F87C7001A8FDF77AFD03
:102E3000E068002800F0AD80307AA0B138075CBFB0
:102E4000404606F083FD404606F0A8FB07F4C87034
:102E5000B0F5887F40F09D80002305223146404632
:102E600006F02AFD95E04046FDF751FD0190B0F8CF
:102E70007C104FF6FF621140A0F87C1001A8FDF70E
:102E800051FD86E006A94046FFF7C3FEE068DDE994
:102E90000723C0E900237CE0C4F80C9079E0E068E7
:102EA000022876D1CDF81080E068059027200290A6
:102EB00002A9A06807F0B2F96BE0E068012825D10B
:102EC000384606F073FC58B1384606F03FFD3846E8
:102ED00006F05CFC88B10121384606F017F90CE0D9
:102EE000484606F0C7FD07464046FDF710FD009036
:102EF000C0F8807000A8FDF715FD0121404600F0E4
:102F00003FF9002F45D10020E06042E0002140461B
:102F100000F036F93DE05FEA0A7032D4E068C0683C
:102F200000281CBF007A00282BD0404606F00EFD7A
:102F300027E0E6682EB34146706807F069F920B1D2
:102F400001214046FFF75AFD1BE000214046FFF7F4
:102F500055FD4146306807F049F990B14046FDF70C
:102F6000D6FC01903168C0F8801001A807E0404607
:102F7000FDF7CDFC00907030FDF77DFD00A8FDF75A
:102F8000D1FC2146404606F0FDF810B1204601F084
:102F90005AFB0CB0BDE8F0872DE9F74F8AB099468F
:102FA000DDF858A0179D189F199CDDF868801B9EBE
:102FB000DDF870B003F014FA45F480550BF16000B1
:102FC0000390314802900195CDF800A04B460C9A31
:102FD0000B990A9800F0C6FD5FEA00094ED0FDF794
:102FE00096FC04903022214606F0C5F8274C049840
:102FF0003430214628220CF027FC04985C3086608F
:103000000784002141620161C1620498A16AC1651F
:1030100004A8FDF787FC05A94846FFF7FAFDBDF9AE
:103020001800BDF91A1000220392194A029241F2C7
:1030300082720192CDF80090BDF91E20521A531CE5
:10304000BDF91C20121A521C00F08CFD07464846A0
:10305000A16A496888474846FDF759FC049087668D
:1030600004A8FDF75FFC42F20400054204BF484695
:1030700006F0B5FB4146484600F028F803F0A8F9F1
:1030800048460DB0BDE8F08F532D000054010010EC
:10309000392A00002DE9F04188B00E9C0F9D109E4A
:1030A000119FDDF848C0DDF84CE04FF00008CDF886
:1030B0001880CDF814E0CDF810C003970296019562
:1030C0000094FFF769FF08B0BDE8F08130B583B028
:1030D00004000D461DD003F083F92046FDF717FCD0
:1030E0000090006F019000A8FDF71CFC294601A884
:1030F00003F05EFB58B12046FDF709FC00900199F2
:10310000016700A8FDF70EFC204600F029FD03F042
:103110005FF903B030BD38B504000D4614D003F09C
:103120005FF92046FDF7F3FB0090B0F95A00A84282
:1031300005D00098A0F85A50204600F011FD00A8D4
:10314000FDF7F0FB03F044F931BD38B504000D463E
:1031500015D003F045F92046FDF7D9FB0090B0F8F3
:103160007C10002D12BF41F010014FF6EF7211409C
:10317000A0F87C1000A8FDF7D5FB03F029F931BDBC
:1031800038B504000D4609D003F02AF92946204637
:10319000FFF734FCBDE8314003F01AB931BD8C2390
:1031A00007F002B88C2306F0E1BF70B582B00400CE
:1031B0000D46164612D003F013F92046FDF7A7FB83
:1031C0000090022D05D200EB85008663204600F0BA
:1031D000C7FC00A8FDF7A6FB03F0FAF873BD38B5ED
:1031E00004000D460FD003F0FBF82046FDF78FFBDF
:1031F00000900564456400A8FDF794FB204600F0AC
:10320000AFFC03F0E5F831BD70B582B004000D46A7
:10321000164612D003F0E4F82046FDF778FB009044
:10322000022D05D200EB85000664204600F098FCD4
:1032300000A8FDF777FB03F0CBF873BD38B50400A9
:103240000D4613D003F0CCF82046FDF760FB00904C
:10325000806CA84205D0009885640098806E00F0CC
:103260007FFC00A8FDF75EFB03F0B2F831BD2DE94D
:10327000F04383B004460F4600259CB303F0B0F83A
:103280002046FDF744FB0190B0F95450AF4224D0E2
:10329000FFF766FC06460198A0F854700198C06DCF
:1032A0008768012120463A689047804603212046DE
:1032B0003A6890478146002120463A689047074681
:1032C0002046FFF710FD00974B4642463146204608
:1032D00005F07CF9204600F043FC01A8FDF722FB35
:1032E00003F076F8284603B0BDE8F08330B585B02A
:1032F00014461D4682690492B0F908200392428A5E
:103300000292002201920091B0F91030B0F90E2023
:10331000B0F90C106918B0F90A00201805F05BFA32
:1033200005B030BD30B585B014461D4682690492A3
:10333000B0F908200392428A029200220192009181
:10334000B0F91030B0F90E20B0F90C106918B0F9CE
:103350000A00201805F031FC05B030BD30B587B04B
:1033600014461D468269059242680492B0F908200D
:103370000392428A0292022201920091B0F9103027
:10338000B0F90E20B0F90C106918B0F90A00201835
:1033900005F0A4FD07B030BD38B504000D4612D0CD
:1033A00003F01EF82046FDF7B2FA0090406BA842E9
:1033B00004D000984563204600F0D2FB00A8FDF73A
:1033C000B1FA03F005F831BD7CB504460E4601257F
:1033D00014B303F005F82046FDF799FA0090406C0D
:1033E000019000A8FDF79EFA314601A803F0E0F92C
:1033F00080B100252046FDF78AFA0090406C0199C3
:1034000088421CBF0098416400A8FDF78BFA204653
:1034100000F0A6FB02F0DCFF284676BD38B50400BC
:103420000D460FD002F0DCFF2046FDF770FA009049
:10343000A0F8485000A8FDF775FA204600F090FB70
:1034400002F0C6FF31BD38B504000D4612D002F0BF
:10345000C7FF2046FDF75BFA0090806BA84204D0BE
:1034600000988563204600F07BFB00A8FDF75AFA20
:1034700002F0AEFF31BD000070B504460D461646A1
:103480002846FDF73CFA806AC0034CBF4FF48043E6
:103490002023324629462046BDE87040CDE1F0B5F4
:1034A00083B006460C461546FDF729FA0090876A58
:1034B000B80738D5204600F011FA00281EBF40F6A4
:1034C0000100384001282ED03046FDF720FA009048
:1034D0000246214601A803F0AFF801A800F0FEF96A
:1034E000F0B10098806A44F22001084207D001AA96
:1034F000009800F10801083001F016FB10E0009878
:10350000DDE90123C0E902230098806A284300997D
:103510008862DFF8A00C8188491C818003F033F8B1
:1035200000A8FDF7FFF903B0F0BD2022B7E738B5DA
:1035300005460C4603E0044600A8FDF7F3F92046D3
:10354000FDF7E5F9009090F82800800703D400A863
:10355000FDF7E8F927E00099284603F04DF80098B8
:1035600080690028E7D100A8FDF7DCF90020DFF82A
:10357000481C51F8042B944203D1002813D4012095
:1035800032BD401C51F8042B94421EBF401C51F820
:10359000042B94421EBF401C51F8042B9442ECD0E3
:1035A000401C1028E5DB002032BD70B586B0DFF886
:1035B0000C5C05F13804207CE0B1A86B28B9DFF879
:1035C000000C03F0C7FC06B070BDD0E90023CDE9C4
:1035D0000123DFF8E06B706E00B96068FDF797F9C2
:1035E000009001A900F0BCF800A8FDF79BF9DFF8F6
:1035F000D01B26E06068FDF78AF90390D0E900232C
:10360000CDE9042303A8FDF78DF9DFF8A86B716EEF
:1036100011B104A8FFF78BFFA86B08B904A814E048
:10362000D0E90023CDE90123706E00B96068FDF791
:103630006EF9009001A900F093F800A8FDF772F967
:1036400004A901A802F0D8FF01A803F083FC06B08A
:1036500070BD70B584B004460D004CD0FDF757F92D
:10366000009000210162009885612846FDF74FF91E
:103670000290009890F8280000F008050298C669AA
:103680002EB9C46100A8FDF74DF902A831E030461B
:10369000FDF73DF901907DB990F8280000070BD5A2
:1036A000009806620298C46100A8FDF73BF902A8E1
:1036B000FDF738F901A81CE002A8FDF733F901A8CD
:1036C000FDF730F93046FDF71AF901900198066AC6
:1036D0000EB904620CE03046FDF711F9002DF4D16B
:1036E00090F828100907F0D5019804620098066246
:1036F00000A8FDF717F904B070BD70B50446FDF7DA
:10370000FEF80546A869A0B1FDF7F9F80646F1698B
:10371000A14205D10846FDF7F2F8006AF06170BDDC
:1037200039B10846FDF7EBF8016AA142F8D1296AE0
:10373000016270BD10B582B00446FDF7E8F8009054
:10374000816949B12023026A00F077F82046FFF72B
:10375000D4FF00980021816100A8FDF7E3F813BDB4
:103760000B46B0F90220B0F90010184601F00ABA71
:1037700010B50446DFF83C0AC06802E0FDF7BFF868
:10378000406910B1A042F9D1012010BD10B582B03E
:1037900004001FD0FDF7BBF8009090F828008007C8
:1037A00015D50098406A20B103F08FFC00980021E5
:1037B0004162204605F08BFF044606E02046FFF7F5
:1037C000E5FF2046FDF79BF8046A002CF6D100A81F
:1037D000FDF7A8F813BD70B584B004000D46164679
:1037E00029D0FDF794F8009090F82800800705D5BF
:1037F000009A294601A802F01FFF20B900A8FDF792
:1038000091F804B070BD00A8FDF78CF8324601A90C
:103810002046FFF744FE204605F059FF044608E025
:10382000324601A92046FFF7D6FF2046FDF767F88C
:10383000046A002CF4D104B070BD2DE9F04184B0CD
:1038400006460F001446984631D03846FDF75FF81B
:103850000090856AA80727D5009A314601A802F092
:10386000EBFE08B340F601002840012807D143468B
:103870000098026A816901A8FFF7DFFF04E0424671
:1038800001A93846FFF70BFE0098C66908E04246DA
:1038900001A93046FFF79FFF3046FDF730F8066A72
:1038A000002E18BFA642F2D100A8FDF73BF804B0E5
:1038B000BDE8F0812023C0E738B50446DFF8F408FE
:1038C000C06850B1FDF71BF805466869A042F8D101
:1038D0002046FDF714F84069686131BDB0F9041065
:1038E000B0F900209142A2BFB0F90610B0F9020071
:1038F000814201DA002070470120704770B584B022
:1039000006460C4615460FE001AA21463046FFF751
:10391000F5FF3046FCF7F3FF066A002EF4D100985D
:10392000066A00A8FCF7FEFFA6B33046FCF7EFFFDF
:103930000090866AB007F2D52DB12A46009901A8F9
:1039400002F07AFE04E00098D0E90023CDE90123DB
:1039500001A9204601F08CF90028E0D0F00716D428
:10396000B4F90600B4F90210009AB2F902209142AB
:1039700007DABDF906104A1E8242D0DA481EE080FE
:10398000CDE7BDF90A108142C9DAE180C7E70098A6
:10399000C669C2E704B070BDF0B583B007460C46F7
:1039A0001546002611E001AA21463846FFF7F4FF2C
:1039B00000B101263846FCF7A2FF076A002FF2D1BA
:1039C0000098076A00A8FCF7ADFF1FB33846FCF764
:1039D0009EFF0090876AB807F2D52DB12A4600995C
:1039E00001A802F029FE04E0009AD2E90001CDE925
:1039F000010101A9204601F03BF90028E0D0F807B9
:103A000005D4BDF80800401C20800126D8E70098A6
:103A1000C769D3E7304603B0F0BD70B584B0064641
:103A20000C4615460FE001AA21463046FFF7F5FF88
:103A30003046FCF764FF066A002EF4D10098066A4F
:103A400000A8FCF76FFF16B33046FCF760FF00904C
:103A5000866AB007F2D52DB12A46009901A802F076
:103A6000EBFD04E00098D0E90023CDE9012301A992
:103A7000204601F0FDF80028E0D0F00704D4BDF89E
:103A80000400401EA080D9E70098C669D4E704B0BE
:103A900070BD38B504000D4609D002F0A1FC2946DE
:103AA000204606F0BBFBBDE8314002F091BC31BDC1
:103AB00000B585B00190009100A906F0AFFB05B0FC
:103AC00000BD00224A800A8082880388D21A8A8038
:103AD000C2884088101AC880704770B586B004004C
:103AE0000D463BD002F07CFC2046FCF710FF009016
:103AF000866AB0072DD50098D0E90023CDE90123CF
:103B0000F00344BF2046FFF741FE5DB1D5E9000157
:103B1000CDE9030103A90098FFF722FE03A901A83C
:103B200002F06AFD214601A8FFF701FD88B140F6C9
:103B300001003040012807D120230098026A8169E2
:103B400001A8FFF77AFE04E0202201A92046FFF732
:103B5000A6FC00A8FCF7E6FE02F03AFC06B070BD39
:103B60000021BAE72DE9F04F83B007468846914619
:103B70009A460D9DDDF83CB002F032FCDFF8104CA7
:103B8000606D05430C9E3EB9608850B3DFF82C068B
:103B9000407C04EB8000466916F1010F08BF002647
:103BA0001FD0F6B13046FCF7B2FE0190B0F900101C
:103BB000CF19B0F902008044B9F1000F05D1019A84
:103BC000B2F90420511A01F10109BAF1000F05D12F
:103BD0000199B1F90610081A00F1010A01A8FCF7D1
:103BE000A1FE0BF12C0000F05DFE5FEA000B5AD045
:103BF0006088401C60805846FCF789FE0090078072
:103C00000098A0F8028009EB0700401E0099888008
:103C10000AEB0800401E0099C88000980E990161C7
:103C20000098806ADFF86C1B29400843009988627D
:103C300000A8FCF777FEE06850B1FCF760FE07468D
:103C40005846FCF75CFE79694161C7F814B001E0A1
:103C5000C4F80CB031465846FFF7FBFCA80644BF39
:103C6000584600F0C8F8E80702D5206E401C2066D0
:103C7000680644BF584605F049FCA8070FD55846CA
:103C8000FCF745FE0090806A40F0020000998862CF
:103C900000A8FCF747FE00215846FFF71EFF012150
:103CA0005846FFF705FF02F093FB584603B0BDE806
:103CB000F08F70B584B0089C099D0A9E039602950A
:103CC000019400240094FFF74DFF04B070BD70B55F
:103CD00082B0040062D002F083FB2046FFF748FD6B
:103CE000002859D00B212046FFF7E2FE204605F0C0
:103CF00073FF2046FCF70BFE0090406A08B103F00A
:103D0000E4F9DFF88C5A0020A866A868DFF8881A62
:103D100001EB8002136CA34204BF0023136451F82B
:103D20002020A24204BF002241F82020286905E09B
:103D30004168A14204BF0021416000680028F7D11A
:103D40000721204605F08EFD009EF069FFF7BFFFBA
:103D5000F0690028F9D12046FFF7ECFC2046FFF778
:103D6000ABFD0098806AC10702D5296E491E2966FD
:103D7000800602D5A888401EA88000A8FCF7D2FDC6
:103D80006888401E68802046FCF752FEA86805EB54
:103D90008000406900F02FF802F01AFB73BD10B5E7
:103DA0000446FCF7ACFD80690028F9D1DFF8EC1976
:103DB00051F8042B94421EBF401C51F8042B94422E
:103DC0001EBF401C51F8042B944209D0401C51F8EE
:103DD000042B944204D0401C1028E9DB4FF0FF3044
:103DE00010BD80B5FFF7DBFF00285CBFBDE80240D7
:103DF00000F068BF01BD70B5044602F0F1FADFF8CB
:103E0000BC53EE6B14B9DFF88809C468EC63204634
:103E1000FFF7E7FF02F093FF2046FCF770FDB0F9D3
:103E200000102964B0F90200686402F0D1FA30464B
:103E300070BDDFF86C09C06B704770B584B0DFF8F7
:103E40006449D4E90201CDE90001206920B9208844
:103E5000ADF80000608811E0A089401CADF80000BA
:103E60006089ADF80200B4F90400BDF90010884281
:103E700006DA2088ADF80000E089401CADF80200A9
:103E8000B4F90600BDF90210884268DBDFF810596A
:103E9000E86BFCF73CFD0290BDF90000B4F900109E
:103EA000884218D1E088ADF80600A088ADF804007B
:103EB000E86B08E0FCF723FD0646002200A9306A03
:103EC000FFF71CFDB0690028F4D1002200A9029878
:103ED000C069FFF713FDBDF80000ADF80400E86B02
:103EE0000AE0FCF70CFD0646002200A9306AFFF745
:103EF00053FD0028EFD1B0690028F2D1002200A9BB
:103F00000298C069FFF748FD0028E4D1B4F9040025
:103F1000ADF80400BDF90010884207DADDE90001C0
:103F2000C4E9020102A8FCF7FDFCA2E7E86B08E087
:103F3000FCF7E5FC0546002200A9286AFFF76DFDA5
:103F4000A8690028F4D1002200A90298C069FFF7EF
:103F500064FD02A8FCF7E6FC2069C92802DB00200A
:103F600004B070BDDDE90001C4E90201012004B024
:103F700070BD924890F8480000B9704710B5DFF85E
:103F800024486069022805DA2069401C2061FFF797
:103F900054FF20B96069401E6061002010BDFFF72A
:103FA00004FB012010BDF0B587B00646834F07F132
:103FB0003804207C10B9FFF7F8FA06E0DFF8E45780
:103FC0006869401C6861022802DB012007B0F0BD6F
:103FD0006068FCF79CFC00904FF0FF302861287E61
:103FE00030B3009AD2E90201CDE902011EB1314697
:103FF00002A802F001FBB86BDFF8946740B30099A8
:104000000191D0E90023CDE90423706E30B101A8FD
:10401000FCF788FC706EFCF77AFC019004A901980B
:10402000FFF79EFB04A902A802F0E6FA01A810E03F
:10403000009890F82800800703D5009AD2E9000183
:10404000D2E76869401E686100A8FCF76BFC10E0CD
:1040500000A8FCF767FC716E19B102A8FFF767FAB8
:1040600020B1616802A8FFF762FA28B96869401EAA
:104070006861002007B0F0BDDDE90201C5E900017B
:10408000FFF777FF07B0F0BD80B500F0A7FEDFF8BF
:1040900010070021816301BD70B588B00446FCF7AC
:1040A00036FC0090866A0569D0E90223CDE9012338
:1040B00000A8FCF737FC95B3B00730D52E21204679
:1040C00005F0DAFBDFF8DC56287E401C2876F00489
:1040D0000BD504940F20039001A80690FFF7D4FF9E
:1040E00003A9204606F09AF812E001A8FFF75BFF4B
:1040F00070B104940F20039001A80690FFF7C4FF4D
:1041000003A9204606F08AF8FFF733FF0028F0D114
:10411000287E401E28762F21204605F0ADFB08B0F2
:1041200070BD2DE9FC418046244DE86BFCF7EFFBA8
:1041300001904046FCF7EBFB0090014601980830E7
:1041400000F096FD68B32E6C6F6C019800F10802C8
:10415000009901F1080002F06FFA01A8FCF7E2FBF8
:10416000144CC4F864800098B0F9000028640098EA
:10417000B0F90200686400A8FCF7D4FB4046FCF7E5
:10418000BEFB806AC0034CBFDFF81C16DFF81C16AC
:1041900040468847002060662E646F640120BDE8B9
:1041A000F68101A8FCF7BEFB00A8FCF7BBFB0020D2
:1041B000BDE8F68128A300103CA3001098A00010D1
:1041C0006CA40010F0B583B00646FCF7A0FB00908D
:1041D00090F82800800741D50098C7693CE0384630
:1041E000FCF795FB019090F8280000F003000328ED
:1041F0002DD1009800F10801019800F039FD30B38D
:104200000098D0E9024500A8FCF78CFB01A8FCF758
:1042100089FB3846FFF785FF70B13846FCF76FFB26
:1042200001903846FFF7CEFF3846FCF768FB019057
:104230003046FCF764FB00903046FCF768FB0090CA
:104240003846FCF764FB01900098C0E902450198EC
:10425000076A01A8FCF766FB002FC0D100A8FCF795
:1042600061FB03B0F0BD2DE9FC410746DFF8306586
:10427000F06BFCF74CFB0090D0E90248D6E9022332
:10428000C0E9022300A8FCF74DFB3F683846FCF765
:104290003EFB0190806A40F60101084001280ED0E3
:1042A00001A8FCF73FFB3846FCF729FB806AC003F6
:1042B0004CBFDFF8F414DFF8F41438468847DFF811
:1042C000D004006E20B33846FFF77CFF3846FCF779
:1042D00016FB8769056A19E02846FCF710FB90F881
:1042E000280000F00300032804BF2846FFF719FF49
:1042F0002846FFF767FF2846FCF701FB056A002DFB
:10430000EAD13846FCF7FBFA056A8769002FF6D137
:10431000F06BFCF7FCFA0090C0E9024800A8FCF73B
:1043200001FBBDE8F381F1B584B00024FCF7EFFA9E
:104330000190D0E90223CDE902230198856A8669BC
:10434000076901A8FCF7EEFA44F22000054276D096
:10435000002F5ED0049902A8FFF7E9F8002858D092
:104360000498FFF748FD68070FD5002E0EBF012007
:1043700005F0010080F001000090002304AADFF89E
:10438000301402A803F052FC43E0049C2046FCF7E2
:10439000BEFA0090806A40F60101084001280ED064
:1043A00000A8FCF7BFFA2046FCF7A9FA806AC00310
:1043B0004CBFDFF8F413DFF8F41320468847DFF82A
:1043C000D003006E20B32046FFF7FCFE2046FCF72A
:1043D00096FA8469056A19E02846FCF790FA90F885
:1043E000280000F00300032804BF2846FFF799FEC9
:1043F0002846FFF7E7FE2846FCF781FA056A002DFC
:10440000EAD12046FCF77BFA056A8469002CF6D1D4
:1044100001240498FCF77BFA0190816ADFF8942369
:10442000114081628A0444BF41F00401816201A805
:10443000FCF778FADFF858038188491E818020460E
:1044400005B0F0BD2DE9F043B9B00124D04DAE6EFA
:1044500006B9EE6800A800F027FCD14FD7F83080ED
:10446000D7F834904EB90CE03046FFF75CFF00B14E
:10447000641E3046FCF743FA4669002E18BF002C34
:10448000F2D1AE66404600F09EFC484600F093FC38
:10449000402207F14C0113A80BF0D6F9402207F196
:1044A0008C0123A80BF0D0F900A800F001FC39B072
:1044B000BDE8F08380B5FCF722FA816A41F400413F
:1044C0008162B3480121C16601BD2DE9F04182B08E
:1044D000002501F085FFB24CAD4E00E00125F06EE5
:1044E000F0B101F07DFFF76807E0B846074600A885
:1044F000FCF718FA4046FFF7EAFB6FB13846FCF7C5
:1045000006FA009040690099896A0904EDD40746CB
:1045100000A8FCF707FAF0E70020F06601F058FF6A
:10452000B06D010018BF8047A3480068010002D0A9
:1045300080470028D2D194F8480080B100F068FB91
:104540000028CBD194F8480000281CBFB088002870
:1045500005D00127F06D20B10068804704E00027F6
:1045600002E0012002F0F2F801F032FF00E0012544
:1045700094F8480050B1B08840B101F031FFFFF726
:1045800061FF01F025FFB0880028F0D101F028FF7D
:1045900037B1F06D10B14068804701E002F0D6F805
:1045A00001F016FF2846BDE8F68110B504462068E4
:1045B0000E2802D00F2809D02EE0E06841680129BA
:1045C0002ED10068BDE8104000F0EFBA606800210D
:1045D000724A52F8043B98421EBF491C52F8043BF1
:1045E00098421EBF491C52F8043B984209D0491C0E
:1045F00052F8043B984204D0491C1029E9DB4FF0E3
:10460000FF316E4850F821006FF07041884203D0AE
:1046100000F0D1FBFCF7BAFB2046BDE8104012E0E9
:1046200010BD5F48012180F84810704780B55C4894
:10463000002180F8481001F0D3FE02F080FBBDE8B5
:10464000014001F0C5BE10B50446606821680E291E
:104650000FD0142906D0172909D022290ED02829D5
:104660000FD002E0E16804F0EFFF0020E060E060BE
:1046700010BD2146BDE8104005F00BB96FF0704049
:10468000F5E70021BDE81040FFF727BA10B4404815
:1046900000210170C16601613F4901F1400204231C
:1046A000002442F8044B41F8044B42F8044B41F813
:1046B000044B42F8044B41F8044B42F8044B41F8D8
:1046C000044B5B1EEDD1046644664465C46510BCB2
:1046D00070472DE9F04F85B02D4C2078002853D13C
:1046E000E060A066DFF8B880C8F83800A08060807D
:1046F000002604F11407314D6FF0704940F6FF7A3F
:10470000DFF8BCB03046FCF73FFDA0B100200390BD
:10471000CDF808B0022001904FF0FF3000905346D2
:10472000524600210020FFF71DFA3860C5F80090BE
:104730000021FFF7D2F9761C2D1D3F1D102EE1DB65
:10474000204E214F214D4FF01009304604F064FFF8
:10475000384604F061FF284604F05EFF083508374C
:104760000836B9F10109F0D16069FFF744FB012077
:1047700088F8480020701648206704F1700005B0E2
:10478000BDE8F04FFCF769BB05B0BDE8F08F000055
:1047900028A300109F3F0700E0A300103CA30010D7
:1047A00098A0001064A400103F8100009940000010
:1047B00067420000DFBFFFFF7CA10010A0A3001034
:1047C000AB450000D8A5001058A60010D8A60010D0
:1047D0008D4600000248407C024951F82000704795
:1047E00098A000103CA3001070B582B00C460025C4
:1047F000FCF78DF80090C66900A8FCF793F803E079
:104800003046FCF77CF8066A66B1304600F01CF8CA
:10481000A04201D1304676BD21463046FFF7E4FF85
:104820000500EDD0284676BD70B504460D4600263D
:1048300044B101F0D5FD29462046FFF7D5FF0646D5
:1048400001F0C6FD304670BD30B585B000A900222C
:104850000023144615463CC11521009100A9FFF71D
:1048600018F9039805B030BD024A11681060084677
:10487000704700BF7CA300100849C0F3C422525CFB
:10488000C0F34513DFF818C013F80C3002EB032215
:1048900000F01F00405C02EB00407047CC84020037
:1048A000EC84020038B5044601F09AFD2046FCF77E
:1048B0001AF8050009D0FCF72AF8009022460021DA
:1048C00001F04CFF00A8FCF72DF801F081FD28460F
:1048D00032BD000000E0806828B10288914224BF08
:1048E00042888A42F7D370472DE9F04387B00546E6
:1048F000384CB4F92A602946E069C069FFF7EAFF3D
:1049000000284CD00188691A406800EBC105AF78D7
:10491000304601F0B5FF8146E0692F4909680591ED
:1049200069680491039701210291C17E0191817E02
:104930000091037E2A78B4F92410B4F9220002F021
:104940001BF9E069417E027E8A421DD2C07E00FBD7
:1049500001F700FB02F8022E16D006F0E9F8064631
:1049600006F0DAF800F02FFAB4F92200B4F92410B6
:104970007B182A78E769FF7E07FB0202414401F0B9
:10498000F7FF304600F01FFA484601F079FFB4F90E
:1049900022006978E269927E02FB0100608407B020
:1049A000BDE8F08370B505460C460A48C66929463D
:1049B000F069FFF78FFF60B1B17E0288AA1A4368E1
:1049C00003EBC200407848431CB113F83220514336
:1049D000216070BD98A000101C020010012008800A
:1049E000704780B5C069FFF775FF00B1012002BDB7
:1049F0002DE9F04186B005460E469046EF6800204E
:104A000006F03EFF0446002F1DBF3879002844F011
:104A1000020024F0020006F033FFE8682F69002F3F
:104A20000CD00121039102910190A86800906B883D
:104A30002A88414630463D68A84716E002F040FA11
:104A4000E988002802BF0129224800680590A8686B
:104A50000490A888039002910120019000906B8837
:104A60002A884146304602F087F8204606B0BDE865
:104A7000F04106F005BF7CB504460D46164601F030
:104A8000AFFC1548016C4D19406C8619ADF800500B
:104A9000BDF80000B4F900100818401EADF804007D
:104AA000ADF80260BDF80200B4F902100818401E0B
:104AB000ADF8060000A8FFF776FA40B13246294665
:104AC0002046FFF795FFFFF754FA0028F6D101F0D2
:104AD0007FFC73BD1C02001098A00010017E00E056
:104AE000417EC07E4843704710B5044601F078FC13
:104AF0000C48848405E010B5044601F071FC0948B7
:104B0000448401F065FC002010BD38B504460D4614
:104B100001F066FC03484484858401F059FC0020C0
:104B200032BD000098A0001000B9704710B411B356
:104B300012B3B2F90030B1F900409C42B8BF23462D
:104B40000380B1F90230B2F90240A342C8BF234644
:104B50004380B2F90430B1F90440A342B8BF234600
:104B60008380B2F90630B1F90640A342B8BF2346AC
:104B7000C38010BC70471146D1E90023C0E900236F
:104B800010BC704758B10388CB1803808388C918BC
:104B90008180418851184180C1885118C180704777
:104BA0003249886800228A60704730498A6802B9B1
:104BB000886001F0E8BC80B501F012FC2B48416828
:104BC00000F15C0300E0026002688A4205D09A426C
:104BD0000CBF00F10C020832F5E7BDE8014001F01E
:104BE000F7BB18B4214A536818605960116802F184
:104BF0005C04A3420CBF02F10C0403F1080409B1E8
:104C00008C4200D023465360906011BC01F0BBBCC5
:104C100010B5002401F0E4FB144A13685068834285
:104C20000CD01868596802F15C04A3420CBF02F171
:104C30000C030833136009F05FF8012401F0C8FB8E
:104C4000204610BD38B504460D4609F055F820B988
:104C500029462046BDE83440C3E731BD0349096811
:104C600019B1D1E90023C0E9002370478001001089
:104C7000B1F90620B0F902309A42A2BFB0F906207D
:104C8000B1F902309A420DDBB1F90420B0F90030DD
:104C90009A42A2BFB0F90400B1F90010884201DBCA
:104CA0000120704700207047004907E098A00010DD
:104CB0000146014802E000BF98A00010E0220AF07F
:104CC000C3BD000070B50446144D6E7C01F088FB36
:104CD000102C3CBF6C7406F050F81148046001F0D1
:104CE00077FB304670BD38B504460D46FCF74CFAEC
:104CF000009048B1032100A8009AD268526A9047F8
:104D000010B1084840F8245031BD002110283CBFA4
:104D1000044951F8201008467047000098A0001080
:104D200030A3001080A4001070B504460D4616464E
:104D300001F056FB324629462046FCF714FD0AE0F6
:104D400070B504460D46164601F04AFB3246294628
:104D50002046FCF7DBFC044601F03AFB204670BD20
:104D600038B504460D4601F03BFB29462046FCF7CA
:104D7000E5FC08E038B504460D4601F031FB294654
:104D80002046FCF781FC044601F022FB204632BDA0
:104D900070B504460D46164601F022FB3246294600
:104DA0002046FCF752FD10B1002028603060BDE8BD
:104DB000704001F00DBB10B5044601F011FB204618
:104DC00002F02DF806E010B5044601F009FB20467C
:104DD00002F029F8BDE8104001F0FABA80B50020D1
:104DE000FFF7E9FF6FF07F40FFF7EDFF012005F0CF
:104DF000ECFE002006F06CFD002006F077FD0020A0
:104E000006F03EFD0448006806F046FD0020BDE8BF
:104E1000024006F04FBD0000D400001080B501F044
:104E2000DFFAFFF7DBFFBDE8014001F0D1BA000077
:104E300038B504460D4601F0D3FA09480480094804
:104E400005800948417C00EB8100C06C2A46214660
:104E5000C3681B6A9847BDE8314001F0B9BA00BF8A
:104E600088A100108AA1001098A00010F0B4056875
:104E7000011DB0F90C30B0F90E60B0F91040B0F976
:104E800012204769E7B9B5F90270BA42A4BFB5F973
:104E900000C064454DDBB5F906C0B445A4BFB5F903
:104EA00004C09C4545DBBE4207DA4E806A88521E2C
:104EB000CA800B808C8001213CE00127476101E022
:104EC000012F0BD1B5F90070BB4204DA0B802B889F
:104ED0005B1E8B800CE00227476101E0022F19D195
:104EE000B5F90470A74212DA8C80AB885B1C0B808A
:104EF000B5F902309E42B8BF1E464E80B5F9063065
:104F00009342B4BFCB80CA804169491C0EE003269E
:104F1000466101E0032F0CD1B5F90650954206DA3F
:104F20006D1C4D80CA800B808C80042102E004211E
:104F300041618BE041610120F0BC7047F0B4049CFA
:104F4000059E069F099D6860A960EA602B616F61FC
:104F50005B185B1E1018421E0898B0F90270791A8F
:104F6000296001290DDBD5F810C0ACEB010CC5F8A8
:104F700010C0BCF1010F68DBAF606F6906FB017107
:104F80006961B0F90610591A2960012904DB2B69FF
:104F9000591A2961012958DBB0F90410531A2B6002
:104FA000EA68012BA8BFD21A079F3B466E68B0F98A
:104FB000000086423CDA831BB818C21A012C0CD0C0
:104FC000022C14D0042C1CD0082C24D0102C25D05A
:104FD000182C18BF202C25D02AE0686900EBE300CC
:104FE000686123F00700861903F0070320E0686971
:104FF00000EBA300686123F00300861903F00303AC
:1050000016E0686900EB6300686123F0010086190F
:1050100003F001030CE06869181806E0686900EB0A
:10502000430002E0686900EB830068619E19002379
:105030006E602B6068681C181419A14202DA081A05
:10504000C01A421CEA60012A00DA74E70020F0BCB2
:10505000704738B50346D069B2F90440A342A4BFF3
:10506000B2F9062091420FDB1B1B04885D1CAC4289
:10507000A1BF8A1A4188541CA14205DB194605F0DC
:105080003AFD08B1012032BD002032BD2DE9F04FBC
:1050900097B004460D4690469A4611A8002100227A
:1050A0000B460EC00EC0A068FBF731FC0690B0F9AD
:1050B00008000699B1F90410401A401C0A9006989D
:1050C000C06909900698001D1190D4F800B0249E84
:1050D0007019ADF85000ADF852805044401EADF844
:1050E0005400209F07EB0800401EADF856002198A1
:1050F0002190229C23982390DDF89490119914A874
:10510000FFF7B6FD00283CD1CDF814900496239803
:1051100003900294219801900097534642462946F5
:105120005846DBF80C40D4F80480C04706A8FBF7CB
:10513000F9FB17B0BDE8F08F0BA8059012A80490FA
:105140000396239802900194219800903B46524682
:1051500041462846FFF7F2FE98B9CDF814900B9817
:105160000490109803900294219801900F98009059
:105170000E9B0D9A0C995846DBF80CC0DCF804C065
:10518000E04711A8FFF772FE0028D5D1119AD2E9A5
:105190000001CDE9070114A907A8FFF769FD002860
:1051A000C4D014A907A801F027FA0BA8059007A8F6
:1051B00004900396239802900194219800903B4616
:1051C000524641462846FFF7B9FE0028AED1DBF82B
:1051D0001000806880478046BDF91E70DFF8FC6DC6
:1051E00000E07F1CBDF92200B8429FDBBDF91CA086
:1051F0000BE088EA05033A4651465846DBF80C5066
:10520000D5F818C0E0470AF1010ABDF92000504561
:10521000E7DB0D98381A00900C98AAEB0003109A5F
:105220002146219805F01CFC05460698B0F90600B9
:105230003A1A0698B0F90400AAEB0001099805F0A3
:105240005AFCB8B30A980699B1F90610791A01FB0D
:1052500000A00699B1F90410401A069901EB8000EC
:105260002830B9F1000F317C13D011F0030107D0C1
:10527000022903D008D3032906D0C4E7002DC2D0E9
:1052800059F825100160BEE759F8251088EA010198
:10529000F8E711F0030105D0022905D007D303294F
:1052A00005D0B0E70560AEE7002DACD0FAE788EA9C
:1052B0000501E7E7B9F1000F307C12D010F00300D0
:1052C00007D0022803D007D3032805D09BE7002D81
:1052D00099D059F825308EE759F8250088EA00035F
:1052E00089E710F0030009D0022805D0FFF481AF50
:1052F00003283FF47EAF86E7002D84D02B467AE763
:105300002DE9F04389B007460C4615461E4603A812
:10531000002100220B460EC00EC0B868FBF7F7FA5A
:105320000090B0F908000099B1F90410401A00F19A
:1053300001090098D0F81C80001D03903F68ADF86B
:105340001840ADF81A50ADF81C60ADF81E50039926
:1053500006A8FFF78DFC88B933462A462146384611
:10536000FC68A468A047D5E0BDF91430BDF912204F
:10537000BDF910103846FC68A468A04703A8FFF7E1
:1053800075FD0028F0D1039AD2E90001CDE90101B1
:1053900006A901A8FFF76CFC0028E4D006A901A823
:1053A00001F02AF9BDF904400AE0DFF8D40D0068E5
:1053B00003682A4621463846FE68B669B047641C31
:1053C000BDF90800A042CEDB0098B0F906002A1A09
:1053D0000098B0F90400211A404605F08CFB002823
:1053E000E3D0BDF906000099B1F90610401A00FBA0
:1053F00009400099B1F90410401A009901EB8000AE
:10540000DFF87C1D096809688162D8E72DE9F0435F
:1054100089B007460C4615461E4603A80021002207
:105420000B460EC00EC0B868FBF771FA0090B0F9D9
:1054300008000099B1F90410401A00F10109009820
:10544000D0F81C80001D03903F68ADF81840ADF8FF
:105450001A50ADF81C40ADF81E60039906A8FFF77E
:1054600007FC88B933462A4621463846FC68E4687A
:10547000A0474FE0BDF91630BDF91220BDF910105C
:105480003846FD68ED68A84703A8FFF7EFFC002841
:10549000F0D1039AD2E90001CDE9010106A901A8E2
:1054A000FFF7E6FB0028E4D006A901A801F0A4F864
:1054B000BDF906500AE0DFF8C80C006803682A4608
:1054C00021463846FE68B669B0476D1CBDF90A0032
:1054D000A842CEDB0098B0F906002A1A0098B0F96D
:1054E0000400211A404605F006FB0028E3D000988E
:1054F000B0F90600281A00FB09400099B1F9041020
:10550000401A009901EB8000DFF8741C09680968F3
:105510008162DAE700A8FBF705FA09B0BDE8F0837D
:105520002DE9F0478AB007460C4615461E4604A8EA
:10553000002100220B460EC00EC0B868FBF7E7F949
:105540000190B0F908000199B1F90410401A00F176
:1055500001090198D0F81C80001D04903F68ADF847
:105560001C40ADF81E50ADF82060DDF848A0ADF845
:1055700022A0049907A8FFF77BFBD8B9CDF800A0BB
:1055800033462A4621463846FC682469A04701A8CC
:10559000FBF7C8F90AB0BDE8F087BDF91A00009022
:1055A000BDF91830BDF91620BDF914103846FC6855
:1055B0002469A04704A8FFF759FC0028EDD10498FE
:1055C000D0E90023CDE9022307A902A8FFF750FB89
:1055D0000028DCD007A902A801F00EF8BDF90A40A6
:1055E00000E0641CBDF90E00A042D0DBBDF90850FC
:1055F0000AE0DFF88C0B006803682246294638462B
:10560000FE68B669B0476D1CBDF90C00A842E8DB26
:105610000198B0F90600221A0198B0F90400291A7D
:10562000404605F068FA0028E3D00198B0F906007A
:10563000201A00FB09500199B1F90410401A019990
:1056400001EB8000DFF8381B096809688162DAE73E
:10565000F8B506460C461546B068FBF758F90090B9
:10566000B0F908000099B1F90410401A471C3668D7
:10567000009A29462046FFF7ECFC70B10098B0F97B
:105680000600281A00FB07400099B1F90410401ADF
:10569000009901EB8000846A06E02A4621463046E4
:1056A000F3685B699847044600A8FBF73BF920467E
:1056B000F2BD2DE9F04182B007460C4615461E4664
:1056C000B868FBF724F90090B0F908000099B1F927
:1056D0000410401A00F101083F68009A294620464C
:1056E000FFF7B7FC70B10098B0F90600281A00FB6C
:1056F00008400099B1F90410401A009901EB8000AC
:10570000866206E033462A4621463846FC68A4698C
:10571000A04700A8FBF706F9BDE8F381F8B50646F7
:105720000C461546B068FBF7F2F80090B0F9080097
:105730000099B1F90410401A471C3668009A2946AE
:105740002046FFF786FCA8B10098B0F90600281A99
:1057500000FB07400099B1F90410401A009901EBD1
:10576000800000F128043069806880472168484043
:10577000206005E02A4621463046F368DB699847F9
:1057800000A8FBF7CFF8F1BD00207047006810B10A
:10579000C3681B6A1847704700207047006810B143
:1057A000C268926A10477047006810B1C268126BF5
:1057B000104770472DE9F8430446884616461F46B1
:1057C000B7F904008442A4BFB7F90810A14210DB66
:1057D000B7F906108845A4BFB7F90A20424508DB8F
:1057E000251AA8EB01094A462946F86905F083F90C
:1057F00068B9366846B1424621463046F3685B696F
:1058000001B0BDE8F04318470020BDE8F283B7F9C6
:105810000800B7F90410401A401C09FB005007EBC0
:105820008000806ABDE8F2832DE9F04F87B0FBF776
:105830006EF800900468A569DFF8A067707C01909D
:10584000854218BF75740098C76928300490009A83
:10585000D2E90101CDE9020105A92046E268126BF7
:10586000904705A902A800F0C7FEBDF90A8025E00F
:105870000098B0F90400A9EB000B5246594638468F
:1058800005F039F900281CBF206800280ED039889F
:1058900001FB0AF1049A02EB810151F82B304246D8
:1058A0004946D0F80CC0DCF818C0E04709F10109FE
:1058B000BDF90C004845DBDA08F10108BDF90E001E
:1058C0004045009806DBB0F90600A8EB000ABDF9D8
:1058D0000890EDE7026A100003D001210098406AA9
:1058E000904700A8FBF71EF80198854218BF707416
:1058F00007B0BDE8F08F2DE9F04F89B00C46FBF7FB
:1059000006F800900568A8690290DFF8D006407C90
:10591000019002980199884203D0DFF8C0060299ED
:1059200041740098283006900098C068FAF7EFFF9D
:1059300003900098D0E90123CDE9042307A9284664
:10594000EA68126B904707A904A800F055FEBDF95C
:10595000126000E0761CBDF91600B042009846DBEC
:10596000B0F90600371ABDF910801AE0009B2A46EC
:1059700031464046FFF71EFF21887943069A02EB25
:10598000810141F82A00286848B1039951F829306B
:1059900032464146D0F80CC0DCF818C0E04708F1A8
:1059A0000108BDF914004045D4DB0098B0F90400AB
:1059B000A8EB000A3A4651460098C06905F09BF8EA
:1059C00083463A465146204605F095F85FEA0009BD
:1059D000CCD1BBF1000F1CBF28680028DFD0218884
:1059E0007943069A02EB810151F82A30D0E7C4616D
:1059F00000A8FAF797FF03A8FAF794FF0298019915
:105A000088421CBFDFF8D405417409B0BDE8F08FAF
:105A10002DE9F64F9DB0FAF77AFF009000680190EB
:105A20001D980099B1F90410884201BF1E98009991
:105A3000B1F90610884200F03381002001F0A1FB8B
:105A40001C90019880690C90DFF89005407C0B90C9
:105A50000C980B99884203D0DFF880050C994174AB
:105A60000098B0F9040008900098B0F9060007907B
:105A70000098B0F908000899401A401C0690009858
:105A8000B0F90A000799401A401C0A900098007E5D
:105A9000800740F1EA800098C0691890009828308B
:105AA0001B901D980899401A05901E980799401A56
:105AB00004900698401E0599012909DB01211791E0
:105AC00000210991069916911590059814900AE005
:105AD0004FF0FF311791099016910020149009980A
