:020000040000FA
:1000000050A80010F90000000101000003010000E9
:1000100005010000070100000901000000000000C8
:100020000000000000000000000000000B010000C4
:100030000D010000000000000F0100009DD4000031
:100040001301000013010000130100001301000060
:10005000130100003DEF0000130100001301000038
:100060001301000013010000130100001301000040
:100070001301000000000000130100001301000044
:100080001301000013010000130100001301000020
:100090001301000013010000130100001301000010
:1000A0001301000013010000130100001301000000
:1000B00013010000130100001301000013010000F0
:1000C00013010000130100001301000013010000E0
:1000D00013010000130100001301000013010000D0
:1000E00013010000DFF80CD009F0F0FE00480047D3
:1000F000C500010050A80010064880470648004788
:10010000FEE7FEE7FEE7FEE7FEE7FEE7FEE7FEE7C7
:10011000FEE7FEE7D1D40000E50000002DE9FE4F28
:10012000804692460C9E06EBD670401006FB0609F0
:100130000191029800905D48406958B1B0F90620DD
:10014000009B9A42B8BF0092B0F90200019A824225
:10015000B8BF0190012537467418022E20DBA4F1A8
:10016000010B01988345A4BF0098584513DB00E0BC
:100170007F1E07FB07F005FB05008145F8DBAAEBB6
:1001800006003A18594606EB0800C01B474BD3F847
:10019000D8301B6898476D1CABF1010BB542E0DB12
:1001A0000298851BAC420ADA5246214640463F4B34
:1001B000D3F8D8301B689847641CAC42F4DB0024A9
:1001C0003746012E1DDB01988542A4BF0098A84246
:1001D00013DB00E07F1E07FB07F004FB04008145F2
:1001E000F8DBAAEB06003A18294606EB0800C01B0C
:1001F0002E4BD3F8D8301B689847641C6D1CB44252
:10020000E1DB03B0BDE8F08F2DE9F04184B0044696
:100210000D461646984602F047F904F0FBFC041917
:1002200004F0FEFC451904F0F5FC861904F0F8FC16
:1002300080441E480A9F90F8DD1039B990F8DC0020
:1002400044434543464300FB08F84743E01B00F0A6
:10025000B0F9ADF80400B81900F0ABF9ADF808003A
:10026000E81B00F0A6F9ADF8060007EB080000F067
:10027000A0F9ADF80A0001A804F0ABF880B131464E
:10028000204600F068F9009743463246294620464A
:10029000FFF744FF00F095F904F081F80028EED153
:1002A00002F0FAF804B0BDE8F0810000609F001091
:1002B00010B5044602F0F8F8204602F0CCFC06E047
:1002C00010B5044602F0F0F8204602F0C8FCBDE884
:1002D000104002F0E1B80000024A116810600846C0
:1002E000704700BFB4A00010FEE780B507F03CFCEB
:1002F000BDE8024002F097BC70477047FFFFFFFF68
:100300002DE9F843B54CA069A16A0D1ADFF8D08237
:1003100008F1D801097901FB01F9E16A491EA942F6
:10032000B8BF0D46616A0E1A0EE0C1EB011009EB71
:10033000D97100EB610090FBF9F2D2B2216AA06999
:10034000301802F0AAFC761C6069B5421FDB315CF4
:100350000029F8D04945E8D137463818401C00E05C
:100360007F1CAF4203DA10F8011B4945F8D0A2699F
:10037000B018216AB74205D0BA18236B1B6898479A
:100380003E46E0E7D8F8D82052689047DBE7E169BD
:10039000A269891A4A1C002102F034F991482062AE
:1003A00043F6FF716162A062BDE8F1832DE9F0417F
:1003B000064688461746B74264DB884C884D95F858
:1003C000DC0098FBF0F0216A884206D0FFF798FF26
:1003D00095F8DC0098FBF0F0206295F8DC0002460E
:1003E00096FBF2F397FBF2FC616A8B42D8BF194689
:1003F0006162A16A6145B8BF6146A162A1698B4291
:10040000B8BF02FB01F6E369634502DA5B1C5343A4
:100410005F1EB74236DB96FBF2F35B1A97FBF2F2F4
:10042000521AA2EB030C0CF1010C64691C19BCF10B
:10043000010F04D120783818801B401C21E0A6460B
:100440000EF101049EF80080CB185B1C00FB0380BA
:10045000801B8EF80000ACF10103022B09DB581E53
:1004600023465C1C1E7895F8DCC066441E70401E56
:10047000F6D120783818401C891895F8DC2002FB4A
:1004800011002070BDE8F08110B5544C206900F0D7
:1004900095FB0020206110BD2DE9F04106460F4676
:1004A00000254E4C206970B900F0F4FFE06200F0C6
:1004B0008DFB206108B9012505E04B48606304F11C
:1004C000340000F098FE002E48BF0026E06A411E6E
:1004D000BA1B9142BCBF8019471EB742BCBF37460A
:1004E0000125DFF8FC80D8F8D820D2E90001C4E962
:1004F000000122633D482060C8F8D840206960614F
:10050000A661E761B91B4A1C002102F07BF835485F
:10051000206243F6FF716162A06208F1D8000079A1
:10052000B8F808104143218108F108014A88424384
:100530006281B1F90420521C4243521EA281B1F9DA
:100540000620521C5043401EE08104F10800C860A0
:100550002846BDE8F081224A92F8DC2091FBF2F1B6
:1005600090FBF2F098E71E4981F8DC0091F8DC205E
:100570001A480B895343038108314B885343438105
:10058000B1F904305B1C53435B1E8381B1F9061043
:10059000491C5143491EC1817047114890F8DC0045
:1005A00070470F48002101E00D48012180F8DD105F
:1005B00070470B4991F8DC1009B190FBF1F000B2E3
:1005C000704780B5FFF79CFE05480449096BC0F8E9
:1005D000D81000F10801416101BD0000689E0010C3
:1005E000609F001001C0FFFF89040000AD03000000
:1005F0002649C0F30742525CC0F30723DFF890C0DE
:1006000013F80C3002EB4312C0B2405C02EBC02086
:1006100070474FF6FF707047F0B41D4C1B4D50F8FB
:10062000046BC6F307477F5DC6F3072C1CF804C0B4
:1006300007EB4C17F6B2765D07EBC6260E8059180D
:10064000521EECD1F0BC7047F0B4541E03FB040002
:1006500001EB8201091F5B420E4C0F4D0688F71219
:100660007F5D4FEA661C0CF03F0C1CF804C007EBE2
:100670000C2706F01F06765D07EB064641F8046975
:100680001818521EEAD1F0BC704700003C15020059
:100690003C1602005C1702003C17020070B50446CD
:1006A00060680F26DFF8B05705F17802D36B9842E7
:1006B00003D2761E083A002EF8D5296881423CBF45
:1006C0000FF2A070FFF710FE28686168401A2860DA
:1006D00005EBC600403004F108010A68496802B120
:1006E000516009B10A6070BD026070BDF8B5054681
:1006F0000E46AA19DFF86047606BA1680818401E13
:10070000904206D3106820B9506845191046FFF78B
:10071000C5FF606BB0420AD256F8040C371A38682D
:1007200028B9786845193846FFF7B8FF3E460F20CC
:1007300004F17801CA6B954203D2401E08390028A3
:10074000F8D504EBC000016C002232607560B16026
:100750003661A91941F8045C06F1080150F8402FF0
:1007600002B151600A6000224A60016020682818C6
:1007700020602846F2BD2DE9FD4C82B0DFF8D84656
:10078000656BA0684019401E01906E681EB90FF29B
:100790003070FFF7A9FD2868002839D17019019938
:1007A000884235D200908346DBF804A0DBF80000D5
:1007B00020B90FF26470FFF797FD29E0216B11F863
:1007C0003010012924D1A16A88420CBF01270027DB
:1007D0002846FFF763FFDBF80000216B01EBC00048
:1007E000456052460099284608F08CFF27B1206BDF
:1007F0000099401A281820630AEB05013046FFF7DC
:1008000075FF029919B1884201D3002005E05646D0
:10081000751901988542B8D3012005B0BDE8F08C68
:10082000F0B58A080023FF240546002662B11F4662
:10083000B7FBF4FCCCEB0C2CA7EB0C0C45F804CB71
:10084000761C7F1C9642F3D3064600251F4601E026
:100850006D1C7F1C95420BD256F804CBB7FBF4FEFF
:10086000CEEB0E2EA7EB0E0EF445F1D00320F0BD1B
:100870005B1C022BD8D34A0800230546002662B130
:100880001F46B7FBF4FCCCEB0C2CA7EB0C0C25F8AB
:1008900002CB761C7F1C9642F3D3064600251F46EA
:1008A00001E06D1C7F1C95420DD236F802CBB7FBE0
:1008B000F4FECEEB0E2EA7EB0E0E1FFA8EFEF445C5
:1008C000EFD00220F0BD5B1C022BD6D300230246E2
:1008D000002559B11E46B6FBF4F7C7EB0727F71BF7
:1008E00002F8017B6D1C761C8D42F4D30246002574
:1008F0001E4601E06D1C761C8D420AD212F8017B67
:10090000B6FBF4FCB4445FFA8CFC6745F2D00120DE
:10091000F0BD5B1C022BDAD309B108F01AFF0020EE
:10092000F0BD10B5DFF83045002084F824008022A7
:10093000002104F13C0001F065FEBC2200212046AC
:1009400001F060FEDFF814450C220021204601F082
:1009500059FE2020A06010BD2DE9F041DFF8F844D9
:10096000A06A40B9DFF8F404416880680830B1FB40
:10097000F0F0851C05E0E0680A21B0FBF1F10818F1
:10098000451CE80000F08FF85FEA00082BD0216BCF
:1009900001EBC800406800F10806A76AE068C200E1
:1009A000304608F0AFFE2663C4F82880E068691E70
:1009B000884207D206EBC002121D401C42F8080B09
:1009C0008842FAD306EBC00000214160E068206253
:1009D00060682818E168401A6060E56017B1384621
:1009E00000F0F4F9E4E00120BDE8F08170B5DFF833
:1009F000684494F82400002854D1012084F824008D
:100A0000DFF858546968B1F5205F88BF4FF4205172
:100A10002868FFF705FF18B10FF25450FFF764FC88
:100A2000286818B90FF28450FFF75EFCDFF8300435
:100A3000E86005F10C0000F0DEFB201D5A21816109
:100A400000212246102303FA01F6D663491C08321E
:100A50001029F8D329686A685218143A022383606F
:100A600004F12406F2606A684260316100210022CC
:100A700004E0491CF368D3185960083283685B1E90
:100A80009942F6D30121C161636031694068FFF783
:100A90002DFEFFF761FF18B10FF26050FFF724FC45
:100AA0000120B06070BD2DE9F0410546FFF79EFFC3
:100AB000DFF8A443E06B854202D3E81C8008800085
:100AC00000F10C052068A84218D3E06A61688842EA
:100AD00007D3401EE062FFF73FFFE16A491CE16275
:100AE00060B96068401E6060266A206B00EBC6013A
:100AF00049682162012100F8361006B958E00F213B
:100B000004F17802D36B9D4203D2491E083A0029B2
:100B1000F8D5102917D204EBC102C1F11001136CF2
:100B200063B19F687B68AB420CD2BB6833B19F68EE
:100B30007B68AB4206D2002FF7D100E000270832D5
:100B4000491EECD19FB905F10C00FFF714FE0028F7
:100B5000D5D06068401C6060206B00EBC600216A45
:100B60004160206B002100F83610266220E0D7F8A3
:100B70000480A8EB0500E16B0C31884238BF454684
:100B80003846FFF78BFD206B00EBC60047603E60E8
:100B90007D600020B8603F61E91941F8045C45457B
:100BA000BCBFA8EB0500FFF7A1FD3046BDE8F08112
:100BB0000020BDE8F08150F8080C704728B1A64924
:100BC0008A6B026002B15060886370472DE9F84378
:100BD0000446FFF70BFFE01C80088000061D9E4CBA
:100BE000E06B864238BF0646A56B00E02D6895B1E4
:100BF00055F8040CB042F9D16DB1286808B16968A4
:100C00004160686808B129680160A06BA84235D1CD
:100C10002868A06332E0606BA16801EB0008A8F1CE
:100C20000409D9F80000A8EB0007396869B17968B0
:100C300081421CBF0FF22040FFF756FB0020FFF758
:100C40009AFDD9F80000A8EB00073868B0B97868B9
:100C5000B04213DB7142C0190818051D3846FFF772
:100C60001DFDA068801BA0602069301820613946F6
:100C70007868801BFFF73AFD45F8046C2846BDE80C
:100C8000F28310B5040001D1002010BD01F00CFC6E
:100C90002046FFF708FF04466CE028B16E49096B57
:100CA00001EBC0004068083070476B498A69521CEC
:100CB0008A61096B01EBC0010A78521C0A70ECE7EB
:100CC0006549026852F8082C0B6B03EBC2021378DB
:100CD000022B03D38B690BB15B1E8B611178491E0C
:100CE000117000210160002070475B4800680C38DB
:100CF0000128B8BF002070475748406870475648E1
:100D000081680068081A70475348C1684068081A2B
:100D1000704710B50024FFF769FE0F204E4901F11E
:100D20007802136C1BB101EBC000006C04E0401EA4
:100D3000083A0028F5D508E0836833B15868844242
:100D400038BF044698680028F6D1A4F10C0010BD05
:100D500010B501F0A9FBFFF7DCFF3F49C969642228
:100D6000B0F5800F87BF90FBF2F001FB00F4484321
:100D7000B0FBF2F401F090FB204610BD364841690B
:100D8000491C4161704734484169491E41617047BF
:100D9000324A106088088000506070472F4911283F
:100DA00005D34A685208904202D3104600E0102052
:100DB00088607047002138B12749096B01EBC000FA
:100DC00040684068A0F10C010846704738B504003F
:100DD0001ED001F069FB204D286B10F8341099B13A
:100DE000022911D200EBC40041684868FFF77EFC7D
:100DF0006868401C6860286B00EBC4012A6A4A607E
:100E0000002100F834102C62BDE8314001F044BBF1
:100E100031BD10B5044601F047FB2068FFF7D6FF4F
:100E200000202060BDE8104001F036BB38B5044614
:100E30000D46012D05DB2046FFF7EBFF241D6D1E3F
:100E4000F9D131BDA0F10A015B2903D20249C86181
:100E50000020704701207047A49E0010AC000010D5
:100E60002309000074656D705C536F757263655C77
:100E70004755495F416C6C6F632E633A0A496C6C4D
:100E80006567616C206D656D6F7279206F7065723A
:100E90006174696F6E20696E205F52656D6F766553
:100EA00046726565426C6F636B28292E2045786514
:100EB000637574696F6E2073746F70706564210060
:100EC00074656D705C536F757263655C4755495FFF
:100ED000416C6C6F632E633A0A496C6C6567616C98
:100EE00020626C6F636B2073697A6520696E205F86
:100EF00052656D6F7665486F6C65734E657728290E
:100F00002E20457865637574696F6E2073746F70F9
:100F1000706564210000000074656D705C536F752E
:100F20007263655C4755495F416C6C6F632E633A31
:100F30000A496C6C6567616C206672656520626C3D
:100F40006F636B20696E205F52656D6F7665486FC9
:100F50006C65734E657728292E2045786563757416
:100F6000696F6E2073746F707065642100000000FB
:100F700074656D705C536F757263655C4755495F4E
:100F8000416C6C6F632E633A0A4D656D6F72792008
:100F900074657374206661696C656420696E205F96
:100FA000496E69744F6E636528292E0074656D70F3
:100FB0005C536F757263655C4755495F416C6C6F3C
:100FC000632E633A0A4E6F206D656D6F72792061F2
:100FD0007661696C61626C6520696E205F496E693B
:100FE000744F6E636528292E204578656375746992
:100FF0006F6E2073746F70706564210074656D701E
:101000005C536F757263655C4755495F416C6C6FEB
:10101000632E633A0A4E6F206D656D6F727920669C
:101020006F7220626C6F636B7320617661696C61B3
:10103000626C6520696E205F496E69744F6E6365EE
:1010400028292E20457865637574696F6E20737446
:101050006F7070656421000074656D705C536F750E
:101060007263655C4755495F416C6C6F632E633AF0
:10107000496C6C6567616C20626C6F636B2073698F
:101080007A6520696E204755495F414C4C4F435F5C
:101090004765744669786564426C6F636B28292ED6
:1010A00020457865637574696F6E2073746F707016
:1010B000656400005A480021C160E022594801F0EF
:1010C000A1BA5949886070472DE9FC4105460E4692
:1010D0001746984601F0E8F9042001F0EDFA0446BD
:1010E0005048016C4D19406C8619CF198044ADF8F9
:1010F0000050ADF80470ADF80260ADF8068000A8AD
:1011000003F067F948B143463A463146284601F0B4
:101110004BFB03F044F90028F5D1204601F0CCFA4E
:1011200001F0BAF9BDE8F38180B50021002001F09B
:101130007EF93E4940F6FF7213460846BDE800506E
:10114000C2E710B5364CE06850B90120E06009F004
:10115000C9FD0AF09FF836482060A0686060A4606E
:1011600010BD70B5FFF7EDFF2F4C2E20207009F059
:10117000D7FD2C4E06F11405A86B0028FDD0A06801
:101180000028FCD006F108007061707C06EB80003E
:10119000C06C06F10801C268126B90470FF298000C
:1011A000C6F8D800A068A86006F1080070610120A8
:1011B000287103F025FDA862032086F8DC006FF09B
:1011C0007040E8612862002001F045FD6FF07F402B
:1011D00001F045FD1748606001F0A7F901F0D4FC6B
:1011E00004460021002001F031F903F088FC01F0F1
:1011F000BAF9204670BD0A498A6842608860704723
:1012000010B5074CA06848B1A0680068010018BF7D
:101210008047A0684068A0600028F5D110BD00009C
:1012200050A00010609F0010C000001001F0FFFFF0
:10123000B5100000F42500001D270000C3260000A3
:1012400010280BDA504A02EB8000C06C00E0006806
:1012500020B1C26812688A42F9D1704700207047F5
:10126000102801DB00207047474901EB8000C06C6B
:1012700000E0006800281EBFC16809680029F8D195
:101280007047FFF79BBCF8B504460F4615461E464F
:10129000102E03DA1C20FFF799FC08B90020F2BDDC
:1012A0000FB107610BE0384901EB8601C96C31B120
:1012B00000E011460A68002AFBD1096901618661D4
:1012C0008582C4600021016041608160F2BD816956
:1012D0002D4A02EB8101CA6C824204BF0268CA64D3
:1012E000416809B102680A60016809B142684A6050
:1012F000002101604160704730B450B3816910290A
:1013000027DA214A02EB8102D16C11B9D06425E0C1
:1013100019464B68002BFBD1D9B1CB681B68C46858
:1013200025689D42B8BF0968F6DBAB4204BF838ADB
:10133000012B06D10B6823B11946CB681B68AB4261
:10134000F8DA4B68002B1DBF18604A684260D06411
:1013500002E0012030BC704748600160002030BCD2
:10136000704738B51C46FFF78EFF050018BFFFF722
:10137000C3FFE868006820B9034800EB8400C0F8A8
:101380008C50284632BD0000609F001038B50C46D6
:101390000025102807DAFFF763FF20B12146C26855
:1013A000926A90470546284632BD70B5044600252E
:1013B0000F2621463046FFF7E9FF8542B8BF0546B4
:1013C000761EF6D5284670BD0121DFE70221DDE754
:1013D0000321DBE70421D9E70821D7E70921D5E775
:1013E0000A21D3E70B21D1E70C21CFE70D21CDE76F
:1013F0000E21CBE7012100E002212348407CC5E714
:101400000321FAE70421F8E70821F6E70921F4E7C8
:101410000A21F2E70B21F0E70C21EEE70D21ECE7C2
:101420000E21EAE7184901EB8000C06C0821C26870
:10143000926A104780B5FFF713FF28B10221C268F6
:10144000D26ABDE80840104702BD0F48407CF1E772
:1014500080B5FFF705FF08B10069406802BD0A4981
:1014600001EB8000C06C00694068704780B5FFF7F1
:10147000F7FE08B10069006802BD034901EB800076
:10148000C06C006900687047609F001001208CE705
:1014900002208AE7032088E7042086E7082084E703
:1014A000B0B34108490001D101207047810889008B
:1014B00001D102207047C108C90001D10320704743
:1014C0000109090101D1042070474109490101D1F5
:1014D00005207047010A090201D108207047410A1E
:1014E000490208D0010B090305D0C10BC90302D082
:1014F000010C090401D110207047810C890401D12D
:101500001220704710F07F4F01D118207047202023
:10151000704710B50024FFF7C3FF012808BF01245E
:101520000ED0811E072938BF082409D3A0F1090174
:10153000082938BF102403D31138102838BF2024BD
:10154000204610BD38B50C460125FFF789FE0090F6
:1015500058B1022100A8009AD268526A904702004E
:1015600003D02146009890470025284632BD38B563
:101570000C460125FFF774FE009058B1092100A820
:10158000009AD268526A9047020003D02146009820
:1015900090470025284632BD70B582B00C461546EE
:1015A0000126FFF75DFE009060B10A2100A8009AB5
:1015B000D268526A9047030004D02A462146009818
:1015C00098470026304676BD70B582B00C46154669
:1015D0000126FFF745FE009060B10B2100A8009A9C
:1015E000D268526A9047030004D02A4621460098E8
:1015F00098470026304676BD38B50C460125FFF7E2
:101600002FFE009058B1062100A8009AD268526AB5
:101610009047020003D021460098904700252846B5
:1016200032BD70B582B00C4615460126FFF718FE94
:10163000009060B1032100A8009AD268526A9047D6
:10164000030004D02A4621460098984700263046D9
:1016500076BD38B50C460125FFF702FE009058B163
:10166000132100A8009AD268526A9047020003D062
:101670002146009890470025284632BD38B50C46D3
:101680000125FFF7EDFD009058B1142100A8009A44
:10169000D268526A9047020003D0214600989047D2
:1016A0000025284632BD70B582B00C46154601268D
:1016B000FFF7D6FD009060B1152100A8009AD2680E
:1016C000526A9047030004D02A4621460098984762
:1016D0000026304676BD70B582B00C461546012610
:1016E000FFF7BEFD009060B1102100A8009AD268FB
:1016F000526A9047030004D02A4621460098984732
:101700000026304676BD70B582B00C4615460126DF
:10171000FFF7A6FD009060B1042100A8009AD268EE
:10172000526A9047030004D02A4621460098984701
:101730000026304676BD10B582B00124FFF790FD3B
:10174000009050B1172100A8009AD268526A9047C1
:10175000010002D0009888470024204616BD0146AB
:101760001948407CEEE601461748407CFFE60A46F1
:1017700001461548407C0FE70A4601461248407C66
:1017800022E701461048407C36E70A4601460E48EB
:10179000407C46E701460C48407C5AE701460A482F
:1017A000407C6BE70A4601460748407C7BE70A46D7
:1017B00001460548407C8EE70A4601460248407CC7
:1017C000A1E70148407CB6E7609F001070B582B089
:1017D0000C4615460126FFF743FD009060B1162127
:1017E00000A8009AD268526A9047030004D02A46A3
:1017F0002146009898470026304676BD10B504462D
:10180000A06838B94020FFF7E1F9A060402200212C
:1018100000F0F8FEA06808B1002010BD012010BD46
:10182000806800220A804A804269521E8A8080694C
:10183000401EC88070477CB504460D4616460FF61C
:101840007030D0E90023CDE900232046FFF7D6FF12
:10185000A06840B1056246620095019600AA082181
:10186000A06909F04DFD73BD70B504460D461646DE
:10187000FFF7C4FFA06818B1016A2960406A3060B0
:1018800070BD38B504460D460FF62C300068009048
:101890002046FFF7B3FFA06830B18562009500AA2B
:1018A0000A21A06909F02CFD31BD38B504460D466A
:1018B0000FF60830006800902046FFF79FFFA068F1
:1018C00030B1C562009500AA0921A06909F018FD90
:1018D00031BD38B50446FFF791FF054600220121CE
:1018E000A06909F00DFD284332BD0022052101E069
:1018F00000220621806909F003BD80B5009100AA8D
:101900000B2103E080B5009100AA0C21806909F049
:10191000F7FC01BD30B583B00FF6A423D3E9004531
:10192000CDE900450091019200AA0D21806909F0DE
:10193000E7FC03B030BD2DE9F04104460D4690466A
:10194000FFF75CFFA768002F18BF45451AD0082194
:101950002046E268926A9047F9683A6951434843E1
:10196000C208786808FB02067B6B190004D0424667
:101970002946A069984704E005FB0201304607F0BC
:10198000C1FE3E60BDE8F08138B504460D460FF655
:101990003820006800902046FFF730FFA06828B18B
:1019A000009500AA0E21A06909F0AAFC31BD70B50E
:1019B00004460D461646FFF721FFA06878B1192DA1
:1019C00008D0202D08D0212D02D0232D06D070BDA7
:1019D000466370BD066370BD866370BDC66370BD2F
:1019E0002DE9FC4104460D4616460FF6E010D0E9FD
:1019F0000023CDE90023A768A069FFF7F5FC804626
:101A0000A069FFF7F3FC48EA4008A069FFF7F0FC83
:101A100048EA8000072833D8DFE800F004060D13F9
:101A20001D1F2628009504E07869F968401A401BBC
:101A30000090019624E00095B8693969401A801B2E
:101A40001DE07869F968401A401B0090B86939694F
:101A5000401A801B13E0009604E0B8693969401A07
:101A6000801B009001950BE0009604E0B86939698D
:101A7000401A801B00907869F968401A401B019059
:101A800000AA0321A06909F03BFCBDE8F38138B549
:101A900004460D460FF63C10006800902046FFF704
:101AA000ADFEA06838B145600560009500AA02212E
:101AB000A06909F025FC31BDF8B504460D4616466F
:101AC000FFF79CFEA7684FB1A069FFF791FC0028C3
:101AD0007D61BE6101D0FE61F1BDFD61F1BDF0B57A
:101AE00083B004460D4616460FF6EC00D0E90023FD
:101AF000CDE900232046FFF781FEA7688FB1F86982
:101B000030B9A069FFF774FC002814BFFE61FD61C5
:101B1000FD603E610095019600AA0721A06909F0C9
:101B2000EFFB03B0F0BDF0B4049F8668DFF828082F
:101B300000680568F06940104FEA510C00FB02CCC8
:101B4000366806EB8C065B1A5B1CBA1A521CDFF86F
:101B50000C783F7CFF0739D5C9070DD511003446F5
:101B600008D0DFF8FC5727686F40276004EB80043B
:101B7000491EF8D1361D5B1E022B17DB110011D058
:101B80001F46491E01FB00F406EB84044FF0FF3CA6
:101B900025688CEA050544F8045BBF1E022FF7DABE
:101BA0000029EDD1264623F001015B1A012B66DBEB
:101BB0001100344663D04FF6FF7223685340236010
:101BC00004EB8004491EF8D1F0BC7047C9070CD55E
:101BD0001100344607D0276865F31F47276004EBE0
:101BE0008004491EF7D1361D5B1E05EB054C102BFA
:101BF00022DB103B110019D01F46491E01FB00F4E7
:101C000006EB840444F804CB44F804CB44F804CB3A
:101C100044F804CB44F804CB44F804CB44F804CB98
:101C200044F804CB103FEDD50029E5D1264603F159
:101C3000100121F00F03CB1A022B12DB11000CD084
:101C40001F46491E01FB00F406EB840444F804CB54
:101C5000BF1E022FFADA0029F2D1264623F0010135
:101C60005B1A012B0BDB1100344608D02268120CE2
:101C700055EA0242226004EB8004491EF6D1F0BC12
:101C800070478068D0F81CC00CFB0211006820F877
:101C9000113070478068C36903FB0211006830F897
:101CA00011007047F8B505460E461746FFF7F2FFDC
:101CB0000446286980688047A968CA6902FB0762F0
:101CC0000968604021F81200F1BD7CB58468256B7D
:101CD000069C2E0008D0DFF88066366836680196CC
:101CE00000948069A84773BD0094FFF71CFF73BD83
:101CF00080B5009202E080B500930B46FFF7E5FF48
:101D000001BD2DE9F0479A4685680A9E3368D6F8EA
:101D100004C0DDF820E0EE6906FB02110EEB0106BF
:101D2000CEF10807DFF83C869AF8001011F8081089
:101D300041FA0EF9099CDFF82416097C11F0030121
:101D400006D0022924D037D3032935D0BDE8F08747
:101D50003846A74288BF204601462A6802EB460261
:101D60005FEAC97E4CBFE6469E4622F802EB761C2F
:101D70004FEA5909491EF3D13F1A241A27B91AF814
:101D8000010F10F808900827002CE1D1BDE8F0877A
:101D90005FEAC97044BF286820F816C0761C7F1E11
:101DA0004FEA590904D11AF8010F10F808900827D2
:101DB000641EEDD1BDE8F08700698068804729681E
:101DC00001EB46015FEAC97202D50A8842400A80E7
:101DD0007F1E4FEA590904D11AF8012F12F8089012
:101DE0000827641E891C002CECD1BDE8F0872DE982
:101DF000F04793F80080089C6118099EDDF828E000
:101E0000DFF858753F7C17F0030703D0022F47D047
:101E1000BDE8F087C027BEF1000F22D0C4F1030C4B
:101E20004FEA4C0CD0F80890D9F81C5005FB02156D
:101E3000D9F80090CCF1060A47FA0AFA0AEA080A29
:101E40002AFA0CFC5EF82CC029F815C0491C641C49
:101E5000042C04BF002413F8018F761EDED1BDE8E8
:101E6000F087C4F1030C4FEA4C0C8568D5F81CE0F0
:101E70000EFB021E2D68CCF1060947FA09F909EAA2
:101E8000080929FA0CFC25F81EC0491C641C042C06
:101E900004BF002413F8018F761EE2D1BDE8F0875D
:101EA000C027BEF1000F21D0C4F1030C4FEA4C0C47
:101EB000CCF1060547FA05F505EA080535FA0CFCEC
:101EC00009D08568D5F81C9009FB02192D685EF8C9
:101ED0002CC025F819C0491C641C042C04BF002424
:101EE00013F8018F761EDFD1BDE8F087C4F1030C33
:101EF0004FEA4C05C5F1060E47FA0EFE0EEA080E33
:101F00003EFA05FC09D0D0F808E0DEF81C5005FBCD
:101F10000215DEF800E02EF815C0491C641C042CE4
:101F200004BF002413F8018F761EDFD1BDE8F087CF
:101F30002DE9F04793F80080089C6118099EDDF8B0
:101F400028E0DFF818743F7C17F0030703D0022F56
:101F500047D0BDE8F087F027BEF1000F22D0C4F1D2
:101F6000010C4FEA8C0CD0F80890D9F81C5005FBF6
:101F70000215D9F80090CCF1040A47FA0AFA0AEAE5
:101F8000080A2AFA0CFC5EF82CC029F815C0491C76
:101F9000641C022C04BF002413F8018F761EDED1CE
:101FA000BDE8F087C4F1010C4FEA8C0C8568D5F8C8
:101FB0001CE00EFB021E2D68CCF1040947FA09F95A
:101FC00009EA080929FA0CFC25F81EC0491C641C02
:101FD000022C04BF002413F8018F761EE2D1BDE865
:101FE000F087F027BEF1000F21D0C4F1010C4FEAB9
:101FF0008C0CCCF1040547FA05F505EA080535FA1D
:102000000CFC09D08568D5F81C9009FB02192D68D5
:102010005EF82CC025F819C0491C641C022C04BFB2
:10202000002413F8018F761EDFD1BDE8F087C4F1DC
:10203000010C4FEA8C05C5F1040E47FA0EFE0EEABC
:10204000080E3EFA05FC09D0D0F808E0DEF81C5076
:1020500005FB0215DEF800E02EF815C0491C641CD3
:10206000022C04BF002413F8018F761EDFD1BDE8D7
:10207000F08730B4039C002C76D08068C56905FBDE
:102080000211006800EB41000299B44A127C12F080
:10209000030234D0022A65D030BC704713F8012BFC
:1020A00054F8222020F8022B13F8012B54F8222098
:1020B00020F8022B13F8012B54F8222020F8022BD1
:1020C00013F8012B54F8222020F8022B13F8012BCF
:1020D00054F8222020F8022B13F8012B54F8222068
:1020E00020F8022B13F8012B54F8222020F8022BA1
:1020F00013F8012B54F8222020F8022B0839082964
:10210000CCDA04291ADB13F8012B54F8222020F82A
:10211000022B13F8012B54F8222020F8022B13F87D
:10212000012B54F8222020F8022B13F8012B54F82D
:10213000222020F8022B091F0429E4DA00291FBFFE
:1021400013F8012B54F8222020F8022B491EF5D158
:1021500030BC70471A7812B154F822200280491E10
:102160005B1C801C0129F5DA30BC70472DE9F04F6B
:1021700083B081468B4614461F460D980C9EDDF8B1
:102180003880DDF83CA010991091119D012808D0ED
:10219000022817D0042826D0082835D0102842D08D
:1021A00054E0012E52DB029501971098009053469F
:1021B000224659464846FFF7A4FDC244641C761ED9
:1021C000F1D143E0012E41DB029501971098009078
:1021D0005346224659464846FFF709FEC244641C4E
:1021E000761EF1D132E0012E30DB02950197109876
:1021F00000905346224659464846FFF799FEC2448E
:10220000641C761EF1D121E0012E1FDB01950097A1
:102210005346224659464846FFF72BFFC244641CEA
:10222000761EF3D112E0012E10DB7F00D9F80800F2
:102230003A465146C36903FB04B3006800EB430010
:1022400007F060FAC244641C761EEFD103B0BDE80B
:10225000F08F00008068491E0D2916D8DFE801F0D4
:1022600007090B0D1515150F131111131313C06862
:102270007047006970474069704780697047102057
:10228000704701207047002070474FF0FF307047C3
:10229000012901D13448704700207047F0B4059CF3
:1022A00080680D46049E5F1A7F1CD0F81CC00CFB92
:1022B00002114900D0F800C031F80CC024F802CB5C
:1022C0007F1E891C002FF5D1294617467A1CB7427C
:1022D000E9DBF0BC70470000491E222939D8DFE84D
:1022E00001F0361C181A381E3838121416203822FD
:1022F0002438383826282A303838383838383838AA
:1023000038382C2E32001948704719487047194840
:10231000704719487047194870471948704719485D
:10232000704719487047194870471948704719484D
:10233000704719487047194870471948704719483D
:1023400070471948704700688068C06B704717482D
:10235000704700207047000004010010609F0010CB
:102360000000FFFFA8170200703800008F1A00005D
:10237000B91A0000DF1A00003718000069180000C1
:1023800083180000AB180000D3180000EB18000001
:10239000F1180000FB1800000519000015190000D5
:1023A0003719000089190000AF1900009D220000B4
:1023B000000000000000000000000000000000001D
:1023C000000000000000000000000000000000000D
:1023D00000000000000000000000000000000000FD
:1023E0000849C0F3C422525CC0F34513DFF818C09B
:1023F00013F80C3002EB032200F01F00405C02EBEC
:10240000004070473C1702005C17020010B50446FC
:1024100000F04AF80C48848405E010B5044600F04A
:1024200043F80948448400F037F8002010BD38B55F
:1024300004460D4600F038F803484484858400F0D3
:102440002BF8002032BD0000609F001038B5044614
:102450000D4600F029F8094804800948058009481C
:10246000417C00EB8100C06C2A462146C3681B6A90
:102470009847BDE8314000F00FB800BF4CA00010F5
:102480004EA00010609F001010B54C4C2068FEF765
:1024900095FB0020206010BD48480169491E01617C
:1024A00008BF08F040BC70472DE9F041434C20695B
:1024B00020B108F02CFCA168814204D008F032FC65
:1024C00008F025FCA0602069401C206101282AD169
:1024D0000026E42500E0761CE06886420BDA08F06E
:1024E00016FC05FB06F122688B58834204D0002BB2
:1024F000F1D1885000E000266068864213D00028A1
:1025000010D42768DFF8B88005FB0070001D414635
:10251000E02207F0F7F8404605FB0671091DE022AE
:1025200007F0F0F86660BDE8F08138B5234C254827
:10253000606104F11400FEF75EFEE068E42101FB37
:1025400000F52846FEF742FB20602A46002100F0F5
:1025500059F820680028FDD04FF0FF306060BDE8DA
:10256000314008F0DEBB70B51448C468012C0BDBA9
:102570000568134E281D3146E02207F0C3F80020FD
:1025800045F8E40B641EF5D170BD38B5044600254E
:10259000FFF78AFF0948C1688C4204DAE421006829
:1025A00001FB0400051DFFF777FF284632BD0349F4
:1025B0000A68002AFDD1C86070470000CC000010F6
:1025C000609F001089240000007870470120704748
:1025D0000120704701700120704780B5FFF764FF4C
:1025E00003480FF210010160BDE80140FFF754BF3E
:1025F000C4000010C9250000CD250000D125000031
:10260000D525000010B402E000F8011B521E002A7C
:1026100018BF10F00303F7D1930819D002F003029A
:102620004FF001344C43042B0BDB40F8044B40F8D3
:10263000044B40F8044B40F8044B1B1F042BF4DA06
:1026400033B140F8044B5B1EFAE700F8011B521E41
:10265000002AFAD110BC704780B5DFF80C164A6B1F
:10266000824205D0486300F0D6FABDE80240E9E2B4
:1026700001BD80B5DFF8F0150A6B824205D0086312
:1026800000F0C9FABDE80240D5E201BD70B4DFF840
:10269000D825117C80EA01035B0709D5DFF8CC352A
:1026A0001B681C68DFF8C8552D682E681E602C60FA
:1026B0001074084670BC7047DFF8B815096889685F
:1026C000084738B5DFF8A025B2F90A309942A4BF0F
:1026D000B2F90E308B4220DBB2F908309842A4BF29
:1026E000B2F90C30834218DB537C02EB8303DC6CC1
:1026F000E568127CD20707D50A4601462046EB69F9
:1027000001B0BDE830401847DFF86425126813684F
:102710000A4601462046AC69A04731BD10B5DFF836
:102720004835B3F90A40A142A4BFB3F90E408C4228
:1027300016DBB3F90840A042B8BF2046B3F90C40FD
:102740009442B8BF224682420ADB5C7C03EB8403DE
:10275000DC6C13460A4601462046E468A468A0479C
:1027600010BD10B5DFF80035B3F90840A042A4BF92
:10277000B3F90C40844216DBB3F90A40A142B8BF5A
:102780002146B3F90E409442B8BF22468A420ADB82
:102790005C7C03EB8403DC6C13460A46014620464E
:1027A000E468E468A04710BD38B5DFF8BC44B4F96C
:1027B0000850A842B8BF2846B4F90C509542B8BF9B
:1027C0002A46824217DBB4F90A50A942B8BF29460B
:1027D000B4F90E509D42B8BF2B468B420BDB657C93
:1027E00004EB8504E46C009313460A460146204638
:1027F000E4682469A04731BD2DE9F04F87B0044655
:102800001546DFF87404076810981090119811901D
:102810001298129013981390149E159815906FB1FA
:1028200005900496139803901298029011980190C5
:102830001098009020463C68A047B6E05818401E0B
:102840002A19521E109FDDF844C04CEA0707012FD9
:102850003AD1DFF81474B7F90AC0ACEB0107012FC5
:1028600008DBDB1B012BC0F28A806146DDF84CC01F
:102870000CFB0766DFF8F073B7F90E70C71B012F6A
:1028800002DBDB1B012B7ADBDFF8DC03B0F90C0089
:10289000101A0128A8BF2D1A1698241A0746DFF827
:1028A000C823B2F9082094420BDAD7193F1BAA1AA1
:1028B000A51806EBE706381A20F00700041907F000
:1028C0000707012D5BDB5BE01298C0F10800049064
:1028D0000F46012B53DB009311983818401E0190CE
:1028E000DFF88413B1F90A108842A2BFDFF8780339
:1028F000B0F90E00B842A2BF0396A046012D36DB08
:10290000A94602E0BBF1000F06D10398401C0390DA
:1029100010F801AD4FF0080B5FFA8AF2049842FA02
:1029200000F0C0B2129902FA01FAABEB010B18B930
:10293000CD49097C890715D4CD4909680A680292F6
:10294000159A12B1159A52F820000860019B109850
:102950004044421E39464046FFF726FFC4480068FF
:102960000299016010988044B9F10109CAD1119807
:10297000C719139886190098401E0090ACD114E036
:10298000B948407CB84A02EB8000C06C159A0592A9
:1029900004970396139A0292129A019200932B467F
:1029A0000A462146C4686468A04707B0BDE8F08FB6
:1029B0002DE9F04F87B004461546AF4807681098D8
:1029C0001090119811901298129013981390149ED1
:1029D000159815906FB1059004961398039012986E
:1029E0000290119801901098009020463C68A047F2
:1029F000DBE75818401E2A19521E109FDDF844C00C
:102A00004CEA0707012F5CD1974FB7F90AC0ACEB2E
:102A10000107012F08DBDB1B012BC0F2AB806146F5
:102A2000DDF84CC00CFB07668F4FB7F90E70C71B63
:102A3000012F03DBDB1B012BC0F29C808A48B0F91D
:102A40000C00101A0128A8BF2D1A00278648B0F9DB
:102A50000800844232DA071BED1B129801280CD0C3
:102A6000022812D0042818D008281ED010281ED002
:102A7000182818BF20281DD020E006EBE70627F015
:102A80000700041907F0070718E006EBA70627F070
:102A90000300041907F0030710E006EB670627F0B0
:102AA0000100041907F0010708E0BE1904E006EB75
:102AB000470601E006EB87063C190027012D59DB8C
:102AC0005EE71298C0F1080004900F46012B51DB1D
:102AD000009311983818401E01906349B1F90A100B
:102AE0008842A2BF6048B0F90E00B842A2BF039668
:102AF000A046012D36DBA94602E0BBF1000F06D14E
:102B00000398401C039010F801AD4FF0080B5FFADA
:102B10008AF2049842FA00F0C0B2129902FA01FA5D
:102B2000ABEB010B18B95049097C890715D4504902
:102B300009680A680292159A12B1159A52F8200093
:102B40000860019B10984044421E39464046FFF7FA
:102B50002BFE474800680299016010988044B9F143
:102B60000109CAD11198C719139886190098401EF7
:102B70000090AED119E73C49487C01EB8000C06C65
:102B80000831C268126B1047F8B5FFF7F4FF00F088
:102B90006BF9040013D100252846FEF761FB009075
:102BA00050B10C2100A8009AD268526A90470100E7
:102BB0002FD00098884704436D1C102DECDB00F0EB
:102BC0008AF90F2540F6FF762A4F2846FEF748FB84
:102BD0000090D0B1284602F04BFA04203968896889
:102BE00088473346324600210020FFF7DDFD0020F4
:102BF0003968896888470E2100A8009AD268526A0D
:102C0000904701001CBF009888476D1EDDD5204607
:102C1000F2BD0120F2BD14494A7C01EB8201C96C6E
:102C200009690968084710494A7C01EB8201C96CAF
:102C30000969496808470C49097C49074CBF0B4999
:102C40000B4905E00849097C49074CBF0849074979
:102C500009680860704707490968496808470549D5
:102C60000968096808470000609F00100001001013
:102C700004010010E800001048A00010724A11681A
:102C800010600846704780B502EB0212D2B202F023
:102C9000A9FB6D490968084002BD2DE9F0410546D0
:102CA0000E4617003CD0694CB4F90A008642A4BF16
:102CB000B4F90E00B04233DBB4F908008542A4BF7A
:102CC000B4F90C00A8422BDB6148006803680F2FA1
:102CD00007D3607C04EB8000C06C32462946C46890
:102CE0001CE01846FFF79FFF804631462846FDF757
:102CF000FCFA014607EB0712D2B2404602F072FB23
:102D0000514909680840FFF786FF617C04EB8101A7
:102D1000CC6C0346324629462046E468A469A047A5
:102D2000BDE8F0812DE9F04104468846160037D011
:102D3000464FB7F90A008045A4BFB7F90E004045D9
:102D40002EDBB7F908008442A4BFB7F90C00A042FB
:102D500026DB2046FDF7C9FA05463D4800680068B5
:102D6000FFF761FF0F21C2B27243B2FBF1F26A407A
:102D700000F47F437343B3FBF1F35A4000F47F0048
:102D80007043B0FBF1F05040FFF745FF0346787CFD
:102D900007EB8000C06C42462146C468A469A04786
:102DA000BDE8F0812DE9F04105460E461746274C57
:102DB000B4F90A008642A4BFB4F90E00B04240DB69
:102DC000B4F908008542A4BFB4F90C00A84238DB6E
:102DD00057B9607C04EB8000C06C1E4909680B6821
:102DE00032462946C4682AE01948006803680F2F54
:102DF00007D1607C04EB8000C06C32462946C46871
:102E00001DE01846FFF70FFF804612480068006873
:102E1000FFF709FF014607EB0712D2B2404602F066
:102E2000E1FA094909680840FFF7F5FE617C04EB07
:102E30008101CC6C0346324629462046E468A469E9
:102E4000A047BDE8F0810000EC000010609F00107A
:102E5000040100100001001010B53F4C6068FDF740
:102E6000ADFE0020606010BD10B53B4C606868B9D5
:102E700020688000FDF7AAFE606008B9012010BD3F
:102E80003648A06004F10800FEF7B5F9002010BD37
:102E9000F8B500281CBF8468002C06D02E4D696848
:102EA00019B10668B6F5807F01DD0020F2BD286803
:102EB000B042B8BF06460027012E09DB54F8040BC8
:102EC000FFF7A9FE696841F827007F1CB742F5DBD0
:102ED0006868F2BDDCE72DE9F04702F0E5FA044648
:102EE0000025012C2DDB1E4EDFF878A02846FEF7CA
:102EF000B7F910B3284602F0BBF880462846FEF723
:102F00006BFA092816DAF06C0069504512D0284691
:102F1000FEF764FA81460027B9F1010F0ADBF8B227
:102F2000FFF781FE0246F9B22846FEF7D4FB7F1C6C
:102F30004F45F4DB404602F09BF86D1C361DA54260
:102F4000D4DBBDE8F087811EFF2901D30120704743
:102F50000149086000207047F0000010592E000061
:102F6000609F0010E41F020038B504460D46DFF8EC
:102F7000A008D0F8CC00FDF798FE0090B0F904103E
:102F800049004942B0F90620AA1AC36803FB0200AF
:102F900000EB4400081800F1180400A8FDF790FEAB
:102FA000204632BD2DE9F84F884691460B99C1F174
:102FB0000806DDF828A09AF80020DFF85838D25C1F
:102FC00042FA01F40C9D0D990F9FDFF84428127C02
:102FD00012F0030206D0022A18D04ED3032A4CD096
:102FE000BDE8F18FB54298BF2E46AD1B04F001003D
:102FF00051F8200027F8020B6408761EF6D1002D48
:103000006DD008261AF8010FC45CEBE7D1F804B0C4
:103010000EE0E00748BFA7F800B0BF1C761E26D11F
:10302000002D5CD008261AF8010FDFF8E817445C81
:10303000B54298BF2E46AD1BB8F1000F18D010E076
:10304000E00708D5009A49464046D8F808301B6882
:103050009847A7F800B009F10109BF1C761EDFD020
:103060006408002CECD107EB4607B144D8E76408AC
:10307000002CCED107EB4607D2E700698068804775
:10308000834605E008261AF8010FDFF88817445C2C
:10309000B54298BF2E46AD1BB8F1000F13D0E00724
:1030A0000AD5009A49464046D8F808301B68984728
:1030B00038888BEA00003880BF1C640809F10109D8
:1030C000761EECD109E0E00703D538888BEA0000D2
:1030D0003880BF1C6408761EF5D1002DD2D1BDE822
:1030E000F18F2DE9F84F884691460B98C0F1040600
:1030F000DDF828A09AF80010400001FA00F40C9DB9
:10310000DDF834B00E9FDFF80807007C10F00300F4
:1031100004D0022819D040D3BDE8F18FF6B2B542F1
:10312000B8BF2E46F6B2AD1BE1B288115BF82000A5
:1031300027F8020B8C00761EF6B2002EF4D1002D7B
:1031400040D004261AF8014FE8E7F6B2B542B8BFFE
:103150002E46F6B2AD1BC0210C420ED0E4B2A01137
:103160005BF820003880B8F1000F06D0009A49467D
:103170004046D8F808301B689847BF1C09F1010980
:10318000A400761EF6B2002EE5D1DDB104261AF8B1
:10319000014FDAE704261AF8014FF6B2B542B8BF7C
:1031A0002E46F6B2AD1BC020044203D0388880F012
:1031B000FF003880BF1CA400761EF6B2002EF2D1AC
:1031C000002DE7D1BDE8F18F2DE9F84F0C46904670
:1031D0009B460B98C0F10201DDF8289099F8002079
:1031E000830002FA03F60C9DDDF834A00E9FDFF891
:1031F0002026127C12F0030204D0022A2AD07AD3AD
:10320000BDE8F18F40B1F1B208115AF8200027F85B
:10321000020B6D1E19F8016F022D12DB681005F00C
:103220000105F2B211115AF8211027F8021B02F021
:103230000F015AF8211027F8021B19F8016F401EE0
:10324000EFD1002D6CD0F1B208115AF8200038806F
:10325000BDE8F18F002837D0F0210E420BD0F1B23B
:1032600008115AF8200038802CB15A4641462046B1
:10327000A3681B689847BF1C08F101086D1E21E078
:10328000F0210E420BD0F6B230115AF820003880EF
:103290002CB15A4641462046A3681B68984716F051
:1032A0000F001EBF5AF820007880002C06D05A4626
:1032B00008F101012046A3681B6898473F1D08F1EB
:1032C0000208AD1E19F8016F022DD9DA45B3300698
:1032D000060F1EBF5AF826003880002C20D05A4610
:1032E00041462046A3681B6801B0BDE8F04F18476F
:1032F000022119F8016FC9B28D42B8BF2946C9B27F
:103300006D1AC020064203D0388880F0FF00388054
:10331000BF1C3601491EC9B20029F2D1002DE7D1E8
:10332000BDE8F18F2DE9F94F8BB00C469146DFF8DF
:10333000E004D0F8CC00FDF7B8FC0890406908B173
:10334000FDF7B3FC06900898C068099008A8FDF73F
:10335000B7FC1A9E3019079016981690069868B117
:10336000DFF8AC04007C0321084207D116980090D6
:103370000C9B4A460799069802F057FD4946079864
:10338000FFF7F2FD8046179D18981890199C102D94
:1033900025D1002616980128C0F20F810C9845000F
:1033A000069F002C18BFB8F1000F0DD02A46214609
:1033B000404606F0A7F93FB10C9B4A4607993846AC
:1033C000BF68D7F804C0E0471898041909988044EA
:1033D000761C09F1010916988642E1DBEDE0182D13
:1033E00038DB002616980128C0F2E78045460C9F7E
:1033F0005FEA040ADDF81CB00698009018BF002DA3
:103400001DD038B13B464A465946D0F808C0DCF8D2
:1034100004C0E047DAF800000B9909690968884799
:103420002880009820B14A46594683681B6898470F
:103430000BF1010BAD1C0AF1040A7F1EEAD11898AA
:10344000041909988044761C09F1010916988642EE
:10345000CCDBB2E01B981B90082D60D1002616989B
:103460000128C0F2AA801B98002845460C9FA2465E
:10347000DDF81CB006980090DFF89403007C24D09F
:1034800010F0030017D002283ED19AF8000050B186
:103490001B9951F820002880009820B14A465946CF
:1034A00083681B6898470BF1010BAD1C0AF1010AF8
:1034B0007F1EEAD128E01AF8010B1B9951F8200071
:1034C00025F8020B7F1EF6D11EE010F0030016D087
:1034D000022819D19AF8000000281EBF2880009801
:1034E000002804D04A46594683681B6898470BF168
:1034F000010BAD1C0AF1010A7F1EEBD104E03A4634
:103500005146284606F0FEF8189804190998804498
:10351000761C09F1010916988642A4DB4DE010B92A
:103520000FF20C301B901698012846DB0746012D40
:1035300004D0022D1CD0042D29D036E0B448D0F898
:10354000CC00FDF7B2FB0890CDF8148008980490E9
:103550001B9803900C980290019600944B46079A92
:1035600006990B98FFF71EFD08A8FDF7A9FB1CE0C4
:10357000CDF810801B9803900C980290019600944F
:103580004B46079A06990B98FFF7ABFD0DE0CDF877
:1035900010801B9803900C980290019600944B4663
:1035A000079A06990B98FFF70FFE189804190998C7
:1035B000804409F101097F1EB9D1069810B106A80F
:1035C000FDF77EFB0DB0BDE8F08F2DE9F14F84B023
:1035D0000C4615461E469048006800680390DFF8C8
:1035E0003092D9F8CC00FDF760FB019029462046C7
:1035F000FFF7BAFC83460198D0F80C80301B461CBC
:1036000001984069DDF838A0C0B1FDF74EFB02908B
:10361000AAEB0500401C009033462A46214602983A
:1036200002F003FC02A8FDF74BFB07E032460399CA
:1036300089B2584601F0B4FEC3446D1CAA4510DBA4
:1036400099F81000C007F1D534465F460498006928
:10365000806880473988414027F8021B641EF9D1F1
:10366000EAE701A8FDF72CFB05B0BDE8F08F80B5B7
:103670000092FFF7AAFF01BD2DE9FC4704468946E9
:1036800016461F46DFF88881D8F8CC00FDF70DFB01
:103690000190406908B1FDF708FB009031464846AB
:1036A000FFF762FC05460198D0F80CA098F81000CE
:1036B000C00714D52069806880470446009820B16F
:1036C0003246494683681B689847288860402880AE
:1036D0000198C0684519761CB742EFDA16E04E48EB
:1036E00000680468009858B13246494600988368DB
:1036F0001B6898472C805544761CB742F4DA05E0E5
:10370000B81B401C2C805544401EFBD101A8FDF77E
:10371000D7FA009810B100A8FDF7D2FABDE8F387F8
:103720007CB50C4615461E463948D0F8CC00FDF74E
:10373000BCFA019029462046FFF716FC0680019846
:10374000406950B1FDF7B1FA00902A4621468368DE
:103750001B68984700A8FDF7B3FA01A8FDF7B0FA77
:1037600073BDF0B583B006460C4615462848D0F820
:10377000CC00FDF79AFA019029462046FFF7F4FBAA
:10378000074630698068804739884840388001980A
:10379000406950B1FDF789FA00902A4621468368B6
:1037A0001B68984700A8FDF78BFA01A8FDF788FA77
:1037B00003B0F0BD80B508461146FFF7D5FB008881
:1037C00002BD10B582B00C468068FDF76EFA00901D
:1037D00081882180C1886180818802895118491EB1
:1037E000A180C18840894018401EE08000A8FDF7F4
:1037F00067FA13BD012902D10FF27400704700204F
:103800007047162901D10548704700207047000015
:10381000609F0010A81702000401001069640000F6
:103820000068C3681B6A18470068C268926A10473C
:103830000000000001000000020000000300000082
:103840000400000005000000060000000700000062
:1038500008000000090000000A0000000B00000042
:103860000C0000000D0000000E0000000F00000022
:1038700004000000253300006F3600007936000098
:10388000CB350000B537000021370000633700005A
:10389000213800000338000029380000F537000007
:1038A000C337000070B504460D4616462846FDF79E
:1038B000F4F9806AC0034CBF4FF4804320233246A2
:1038C00029462046BDE87040CDE1F0B583B00646FC
:1038D0000C461546FDF7E1F90090876AB80738D520
:1038E000204600F011FA00281EBF40F601003840C3
:1038F00001282ED03046FDF7D8F900900246214627
:1039000001A801F0BBFC01A800F0FEF9F0B100989D
:10391000806A44F22001084207D001AA009800F111
:103920000801083001F0D6FA10E00098DDE9012323
:10393000C0E902230098806A284300998862DFF872
:10394000A00C8188491C818001F03FFC00A8FDF794
:10395000B7F903B0F0BD2022B7E738B505460C46ED
:1039600003E0044600A8FDF7ABF92046FDF79DF9FA
:10397000009090F82800800703D400A8FDF7A0F974
:1039800027E00099284601F059FC0098806900283A
:10399000E7D100A8FDF794F90020DFF8481C51F8A2
:1039A000042B944203D1002813D4012032BD401CC3
:1039B00051F8042B94421EBF401C51F8042B944232
:1039C0001EBF401C51F8042B9442ECD0401C102820
:1039D000E5DB002032BD70B586B0DFF80C5C05F188
:1039E0003804207CE0B1A86B28B9DFF8000C01F0A6
:1039F00069FD06B070BDD0E90023CDE90123DFF8F1
:103A0000E06B706E00B96068FDF74FF9009001A996
:103A100000F0BCF800A8FDF753F9DFF8D01B26E052
:103A20006068FDF742F90390D0E90023CDE9042353
:103A300003A8FDF745F9DFF8A86B716E11B104A872
:103A4000FFF78BFFA86B08B904A814E0D0E90023A6
:103A5000CDE90123706E00B96068FDF726F900908A
:103A600001A900F093F800A8FDF72AF904A901A81C
:103A700001F0E4FB01A801F025FD06B070BD70B5B2
:103A800084B004460D004CD0FDF70FF900900021E2
:103A90000162009885612846FDF707F902900098B9
:103AA00090F8280000F008050298C6692EB9C46194
:103AB00000A8FDF705F902A831E03046FDF7F5F85A
:103AC00001907DB990F8280000070BD50098066298
:103AD0000298C46100A8FDF7F3F802A8FDF7F0F81A
:103AE00001A81CE002A8FDF7EBF801A8FDF7E8F833
:103AF0003046FDF7D2F801900198066A0EB90462CB
:103B00000CE03046FDF7C9F8002DF4D190F82810EC
:103B10000907F0D5019804620098066200A8FDF735
:103B2000CFF804B070BD70B50446FDF7B6F8054691
:103B3000A869A0B1FDF7B1F80646F169A14205D127
:103B40000846FDF7AAF8006AF06170BD39B1084671
:103B5000FDF7A3F8016AA142F8D1296A016270BD9C
:103B600010B582B00446FDF7A0F80090816949B114
:103B70002023026A00F077F82046FFF7D4FF009870
:103B80000021816100A8FDF79BF813BD0B46B0F939
:103B90000220B0F90010184601F0CAB910B5044669
:103BA000DFF83C0AC06802E0FDF777F8406910B121
:103BB000A042F9D1012010BD10B582B004001FD081
:103BC000FDF773F8009090F82800800715D500984D
:103BD000406A20B101F031FD009800214162204689
:103BE00002F0F9FC044606E02046FFF7E5FF204618
:103BF000FDF753F8046A002CF6D100A8FDF760F831
:103C000013BD70B584B004000D46164629D0FDF7EB
:103C10004CF8009090F82800800705D5009A2946B6
:103C200001A801F02BFB20B900A8FDF749F804B06A
:103C300070BD00A8FDF744F8324601A92046FFF701
:103C400044FE204602F0C7FC044608E0324601A9C3
:103C50002046FFF7D6FF2046FDF71FF8046A002C28
:103C6000F4D104B070BD2DE9F04184B006460F00D8
:103C70001446984631D03846FDF717F80090856A0B
:103C8000A80727D5009A314601A801F0F7FA08B332
:103C900040F601002840012807D143460098026AF7
:103CA000816901A8FFF7DFFF04E0424601A9384619
:103CB000FFF70BFE0098C66908E0424601A93046AE
:103CC000FFF79FFF3046FCF7E8FF066A002E18BF9B
:103CD000A642F2D100A8FCF7F3FF04B0BDE8F081E2
:103CE0002023C0E738B50446DFF8F408C06850B1B7
:103CF000FCF7D3FF05466869A042F8D12046FCF7DF
:103D0000CCFF4069686131BDB0F90410B0F9002002
:103D10009142A2BFB0F90610B0F90200814201DA67
:103D2000002070470120704770B584B006460C46ED
:103D300015460FE001AA21463046FFF7F5FF304651
:103D4000FCF7ABFF066A002EF4D10098066A00A8C3
:103D5000FCF7B6FFA6B33046FCF7A7FF0090866AD3
:103D6000B007F2D52DB12A46009901A801F086FAD4
:103D700004E00098D0E90023CDE9012301A9204601
:103D800001F04CF90028E0D0F00716D4B4F9060091
:103D9000B4F90210009AB2F90220914207DABDF993
:103DA00006104A1E8242D0DA481EE080CDE7BDF9F7
:103DB0000A108142C9DAE180C7E70098C669C2E704
:103DC00004B070BDF0B583B007460C46154600261A
:103DD00011E001AA21463846FFF7F4FF00B10126A1
:103DE0003846FCF75AFF076A002FF2D10098076A9D
:103DF00000A8FCF765FF1FB33846FCF756FF00909C
:103E0000876AB807F2D52DB12A46009901A801F0BA
:103E100035FA04E0009AD2E90001CDE9010101A9D7
:103E2000204601F0FBF80028E0D0F80705D4BDF8E3
:103E30000800401C20800126D8E70098C769D3E716
:103E4000304603B0F0BD70B584B006460C4615464A
:103E50000FE001AA21463046FFF7F5FF3046FCF798
:103E60001CFF066A002EF4D10098066A00A8FCF731
:103E700027FF16B33046FCF718FF0090866AB0079C
:103E8000F2D52DB12A46009901A801F0F7F904E016
:103E90000098D0E90023CDE9012301A9204601F0D3
:103EA000BDF80028E0D0F00704D4BDF80400401E9F
:103EB000A080D9E70098C669D4E704B070BD38B5D2
:103EC00004000D4609D0FEF7EFFA2946204602F01D
:103ED00075FCBDE83140FEF7DFBA31BD00B585B0F5
:103EE0000190009100A902F069FC05B000BD00221C
:103EF0004A800A8082880388D21A8A80C2884088D1
:103F0000101AC880704770B586B004000D463BD0CB
:103F1000FEF7CAFA2046FCF7C8FE0090866AB00792
:103F20002DD50098D0E90023CDE90123F00344BF4B
:103F30002046FFF741FE5DB1D5E90001CDE903015F
:103F400003A90098FFF722FE03A901A801F076F962
:103F5000214601A8FFF701FD88B140F6010030407D
:103F6000012807D120230098026A816901A8FFF780
:103F70007AFE04E0202201A92046FFF7A6FC00A853
:103F8000FCF79EFEFEF788FA06B070BD0021BAE786
:103F90002DE9F04F83B00746884691469A460D9D1D
:103FA000DDF83CB0FEF780FADFF8104C606D054399
:103FB0000C9E3EB9608850B3DFF82C06407C04EBC1
:103FC0008000466916F1010F08BF00261FD0F6B128
:103FD0003046FCF76AFE0190B0F90010CF19B0F935
:103FE00002008044B9F1000F05D1019AB2F9042012
:103FF000511A01F10109BAF1000F05D10199B1F986
:104000000610081A00F1010A01A8FCF759FE0BF18D
:104010002C0000F089FE5FEA000B5AD06088401C3B
:1040200060805846FCF741FE009007800098A0F899
:10403000028009EB0700401E009988800AEB080007
:10404000401E0099C88000980E9901610098806A0E
:10405000DFF86C1B294008430099886200A8FCF730
:104060002FFEE06850B1FCF718FE07465846FCF7F3
:1040700014FE79694161C7F814B001E0C4F80CB0CE
:1040800031465846FFF7FBFCA80644BF584600F0EF
:10409000C8F8E80702D5206E401C2066680644BFB9
:1040A000584602F003FAA8070FD55846FCF7FDFD65
:1040B0000090806A40F002000099886200A8FCF736
:1040C000FFFD00215846FFF71EFF01215846FFF76C
:1040D00005FFFEF7E1F9584603B0BDE8F08F70B573
:1040E00084B0089C099D0A9E0396029501940024C1
:1040F0000094FFF74DFF04B070BD70B582B00400AE
:1041000062D0FEF7D1F92046FFF748FD002859D0CC
:104110000B212046FFF7E2FE204602F0ABFA2046D4
:10412000FCF7C3FD0090406A08B101F086FADFF8A1
:104130008C5A0020A866A868DFF8881A01EB800274
:10414000136CA34204BF0023136451F82020A24241
:1041500004BF002241F82020286905E04168A142FF
:1041600004BF0021416000680028F7D107212046E4
:1041700002F03EFA009EF069FFF7BFFFF0690028E9
:10418000F9D12046FFF7ECFC2046FFF7ABFD009885
:10419000806AC10702D5296E491E2966800602D5AC
:1041A000A888401EA88000A8FCF78AFD6888401EE9
:1041B00068802046FCF70AFEA86805EB800040698D
:1041C00000F02FF8FEF768F973BD10B50446FCF750
:1041D00064FD80690028F9D1DFF8EC1951F8042B4F
:1041E00094421EBF401C51F8042B94421EBF401C39
:1041F00051F8042B944209D0401C51F8042B9442EE
:1042000004D0401C1028E9DB4FF0FF3010BD80B512
:10421000FFF7DBFF00285CBFBDE8024000F028BFCD
:1042200001BD70B50446FEF73FF9DFF8BC53EE6BF5
:1042300014B9DFF88809C468EC632046FFF7E7FF8C
:10424000FEF799FC2046FCF728FDB0F90010296420
:10425000B0F902006864FEF71FF9304670BDDFF860
:104260006C09C06B704770B584B0DFF86449D4E95D
:104270000201CDE90001206920B92088ADF80000D5
:10428000608811E0A089401CADF800006089ADF89D
:104290000200B4F90400BDF90010884206DA208853
:1042A000ADF80000E089401CADF80200B4F906004A
:1042B000BDF90210884268DBDFF81059E86BFCF7A3
:1042C000F4FC0290BDF90000B4F90010884218D146
:1042D000E088ADF80600A088ADF80400E86B08E0BF
:1042E000FCF7DBFC0646002200A9306AFFF71CFD44
:1042F000B0690028F4D1002200A90298C069FFF734
:1043000013FDBDF80000ADF80400E86B0AE0FCF70F
:10431000C4FC0646002200A9306AFFF753FD0028BE
:10432000EFD1B0690028F2D1002200A90298C0693B
:10433000FFF748FD0028E4D1B4F90400ADF804000B
:10434000BDF90010884207DADDE90001C4E9020185
:1043500002A8FCF7B5FCA2E7E86B08E0FCF79DFCBF
:104360000546002200A9286AFFF76DFDA86900280C
:10437000F4D1002200A90298C069FFF764FD02A8E9
:10438000FCF79EFC2069C92802DB002004B070BD48
:10439000DDE90001C4E90201012004B070BD9248CA
:1043A00090F8480000B9704710B5DFF824486069FC
:1043B000022805DA2069401C2061FFF754FF20B96C
:1043C0006069401E6061002010BDFFF704FB012002
:1043D00010BDF0B587B00646834F07F13804207C46
:1043E00010B9FFF7F8FA06E0DFF8E4576869401CF7
:1043F0006861022802DB012007B0F0BD6068FCF7AD
:1044000054FC00904FF0FF302861287E30B3009AB2
:10441000D2E90201CDE902011EB1314602A800F045
:104420000DFFB86BDFF8946740B300990191D0E9B4
:104430000023CDE90423706E30B101A8FCF740FCE5
:10444000706EFCF732FC019004A90198FFF79EFB07
:1044500004A902A800F0F2FE01A810E0009890F86C
:104460002800800703D5009AD2E90001D2E76869E5
:10447000401E686100A8FCF723FC10E000A8FCF7D0
:104480001FFC716E19B102A8FFF767FA20B16168CD
:1044900002A8FFF762FA28B96869401E6861002027
:1044A00007B0F0BDDDE90201C5E90001FFF777FFC4
:1044B00007B0F0BD80B500F055FEDFF81007002111
:1044C000816301BD70B588B00446FCF7EEFB009037
:1044D000866A0569D0E90223CDE9012300A8FCF72B
:1044E000EFFB95B3B00730D52E21204602F08AF8B5
:1044F000DFF8DC56287E401C2876F0040BD50494A7
:104500000F20039001A80690FFF7D4FF03A92046CF
:1045100002F054F912E001A8FFF75BFF70B10494B8
:104520000F20039001A80690FFF7C4FF03A92046BF
:1045300002F044F9FFF733FF0028F0D1287E401E37
:1045400028762F21204602F05DF808B070BD2DE9D5
:10455000FC418046244DE86BFCF7A7FB01904046E8
:10456000FCF7A3FB009001460198083000F056FDCF
:1045700068B32E6C6F6C019800F10802009901F18C
:10458000080000F07BFE01A8FCF79AFB144CC4F86D
:1045900064800098B0F9000028640098B0F9020027
:1045A000686400A8FCF78CFB4046FCF776FB806A49
:1045B000C0034CBFDFF81C16DFF81C1640468847C6
:1045C000002060662E646F640120BDE8F68101A8BA
:1045D000FCF776FB00A8FCF773FB0020BDE8F68132
:1045E00060A0001074A00010609F0010A0A1001037
:1045F000F0B583B00646FCF758FB009090F8280011
:10460000800741D50098C7693CE03846FCF74DFB70
:10461000019090F8280000F0030003282DD10098A5
:1046200000F10801019800F0F9FC30B30098D0E9DE
:10463000024500A8FCF744FB01A8FCF741FB384603
:10464000FFF785FF70B13846FCF727FB019038462D
:10465000FFF7CEFF3846FCF720FB01903046FCF711
:104660001CFB00903046FCF720FB00903846FCF71E
:104670001CFB01900098C0E902450198076A01A857
:10468000FCF71EFB002FC0D100A8FCF719FB03B0FC
:10469000F0BD2DE9FC410746DFF83065F06BFCF713
:1046A00004FB0090D0E90248D6E90223C0E90223C6
:1046B00000A8FCF705FB3F683846FCF7F6FA0190C6
:1046C000806A40F60101084001280ED001A8FCF7DD
:1046D000F7FA3846FCF7E1FA806AC0034CBFDFF80E
:1046E000F414DFF8F41438468847DFF8D004006E7D
:1046F00020B33846FFF77CFF3846FCF7CEFA8769CF
:10470000056A19E02846FCF7C8FA90F8280000F07E
:104710000300032804BF2846FFF719FF2846FFF7C8
:1047200067FF2846FCF7B9FA056A002DEAD138463A
:10473000FCF7B3FA056A8769002FF6D1F06BFCF736
:10474000B4FA0090C0E9024800A8FCF7B9FABDE845
:10475000F381F1B584B00024FCF7A7FA0190D0E909
:104760000223CDE902230198856A8669076901A8B9
:10477000FCF7A6FA44F22000054276D0002F5ED066
:10478000049902A8FFF7E9F8002858D00498FFF729
:1047900048FD68070FD5002E0EBF012005F001006F
:1047A00080F001000090002304AADFF8301402A872
:1047B00001F056F843E0049C2046FCF776FA00909E
:1047C000806A40F60101084001280ED000A8FCF7DD
:1047D00077FA2046FCF761FA806AC0034CBFDFF825
:1047E000F413DFF8F41320468847DFF8D003006E97
:1047F00020B32046FFF7FCFE2046FCF74EFA846902
:10480000056A19E02846FCF748FA90F8280000F0FD
:104810000300032804BF2846FFF799FE2846FFF748
:10482000E7FE2846FCF739FA056A002DEAD1204652
:10483000FCF733FA056A8469002CF6D10124049848
:10484000FCF733FA0190816ADFF89423114081620A
:104850008A0444BF41F00401816201A8FCF730FAE8
:10486000DFF858038188491E8180204605B0F0BDDD
:104870002DE9F043B9B00124D04DAE6E06B9EE6813
:1048800000A800F0E7FBD14FD7F83080D7F834907C
:104890004EB90CE03046FFF75CFF00B1641E3046B5
:1048A000FCF7FBF94669002E18BF002CF2D1AE666A
:1048B0004046FBF705FD4846FBF7FAFC402207F1AE
:1048C0004C0113A804F01EFF402207F18C0123A81D
:1048D00004F018FF00A800F0C1FB39B0BDE8F08378
:1048E00080B5FCF7DAF9816A41F400418162B3488E
:1048F0000121C16601BD2DE9F04182B00025FDF71F
:10490000D3FDB24CAD4E00E00125F06EF0B1FDF7E5
:10491000CBFDF76807E0B846074600A8FCF7D0F9DA
:104920004046FFF7EAFB6FB13846FCF7BEF900904E
:1049300040690099896A0904EDD4074600A8FCF78C
:10494000BFF9F0E70020F066FDF7A6FDB06D0100AD
:1049500018BF8047A3480068010002D080470028A4
:10496000D2D194F8480080B100F028FB0028CBD1C8
:1049700094F8480000281CBFB088002805D0012703
:10498000F06D20B10068804704E0002702E00120BC
:1049900000F0FEFCFDF780FD00E0012594F84800E2
:1049A00050B1B08840B1FDF77FFDFFF761FFFDF723
:1049B00073FDB0880028F0D1FDF776FD37B1F06DBA
:1049C00010B14068804701E000F0E2FCFDF764FDB3
:1049D0002846BDE8F68110B5044620680E2802D0AE
:1049E0000F2809D02EE0E068416801292ED1006827
:1049F000BDE8104000F0AFBA60680021724A52F87A
:104A0000043B98421EBF491C52F8043B98421EBF0B
:104A1000491C52F8043B984209D0491C52F8043B07
:104A2000984204D0491C1029E9DB4FF0FF316E4851
:104A300050F821006FF07041884203D0FBF738FC3A
:104A4000FCF772FB2046BDE8104012E010BD5F4845
:104A5000012180F84810704780B55C48002180F83B
:104A60004810FDF721FDFEF786F8BDE80140FDF78F
:104A700013BD10B50446606821680E290FD01429B3
:104A800006D0172909D022290ED028290FD002E0FC
:104A9000E16801F069FD0020E060E06010BD2146A2
:104AA000BDE8104001F0BBBD6FF07040F5E700219C
:104AB000BDE81040FFF727BA10B44048002101704C
:104AC000C16601613F4901F140020423002442F81C
:104AD000044B41F8044B42F8044B41F8044B42F8B4
:104AE000044B41F8044B42F8044B41F8044B5B1E65
:104AF000EDD1046644664465C46510BC70472DE979
:104B0000F04F85B02D4C2078002853D1E060A0668E
:104B1000DFF8B880C8F83800A0806080002604F173
:104B20001407314D6FF0704940F6FF7ADFF8BCB0E2
:104B30003046FCF795FBA0B100200390CDF808B0FB
:104B4000022001904FF0FF30009053465246002162
:104B50000020FFF71DFA3860C5F800900021FFF72C
:104B6000D2F9761C2D1D3F1D102EE1DB204E214F6A
:104B7000214D4FF01009304601F0DEFC384601F0BF
:104B8000DBFC284601F0D8FC083508370836B9F1B7
:104B90000109F0D16069FFF744FB012088F8480063
:104BA00020701648206704F1700005B0BDE8F04F92
:104BB000FCF721BB05B0BDE8F08F000060A000103D
:104BC0009F3F070018A1001074A00010609F001004
:104BD00098A10010735D0000C544000093460000DA
:104BE000DFBFFFFF44A00010D8A00010D74900008D
:104BF00038A20010B8A2001038A30010B94A000073
:104C00000248407C024951F820007047609F001024
:104C100074A000100149086C07E00000609F0010BC
:104C2000004901E0609F0010486C91F8DD2012B14E
:104C300091F8DC10484370472DE9F8430446FCF72F
:104C4000E5FB804600266FF07F490025FCF7FDFB61
:104C5000070016D057F82500844202D12846BDE847
:104C6000F2836D1C4545F5DB00253968204601F0CF
:104C7000D9FD48453CBF81462E466D1C3F1D45452C
:104C8000F3DB3046BDE8F28338B50446FCF7BEFBE3
:104C90000546FCF7DAFBAC4201D3002032BD08B177
:104CA00050F8240032BD80B5FCF7B0FBB0F5807F32
:104CB00008BF08201BD0802828BF072017D2402813
:104CC00028BF062013D2202828BF05200FD2102885
:104CD00028BF04200BD2082828BF032007D20428AD
:104CE00028BF022003D202288041C043C00F012107
:104CF00001FA00F0401E02BD70B504460D460026C4
:104D000007E0686850F82620F1B22046FCF7E3FC83
:104D1000761C28688642F4DB70BD01460148407C61
:104D2000EAE70000609F001038B50446FDF7BCFBC1
:104D30002046FBF7A6FF050009D0FBF7B6FF009061
:104D400022460021FDF75EFC00A8FBF7B9FFFDF746
:104D5000A3FB284632BD00002DE9F04F8BB04C4C30
:104D6000B4F922100791B4F92450E169CE69B289EF
:104D7000904224BFF389834205D333680893871A8E
:104D80004FF0FF3813E0B26873680893002A70D0C0
:104D90001388984224BF578887426AD3C01A80B2CA
:104DA000526802EB8000B0F90070B0F9028017F190
:104DB000010F5ED0087EB17C01FB00F996F810A0CF
:104DC0000990B4F92AB05846FDF776FC8DF8180022
:104DD000E069304909680591089909FB07110491B8
:104DE000B17C039101210291C17E0191807E0090EE
:104DF000099B524629460798FDF7DAFD18F1010F85
:104E000019D04BF00200FDF757FCE0692149096811
:104E10000591089909FB08110491B17C03910121C6
:104E20000291C17E0191807E0090099B52462946E5
:104E30000798FDF7BDFDE069017E407E814214D2F6
:104E4000BBF1020F11D08BF00400FDF735FCE069D7
:104E5000417E4B190799827E02FB0A12017EC07EB9
:104E600000FB01510798FDF79FFC9DF81800FDF726
:104E700023FC608C717C081860840BB0BDE8F08F57
:104E80000348C069C06909B1027C0A60407C704770
:104E9000609F001000010010022008807047C06968
:104EA0008289914224BFC2898A420FD2806878B138
:104EB0000288914224BF43888B4209D39200524218
:104EC000406800EB8100105E002801D4012070478B
:104ED0000020704700B9704710B411B312B3B2F993
:104EE0000030B1F900409C42B8BF23460380B1F9BD
:104EF0000230B2F90240A342C8BF23464380B2F950
:104F00000430B1F90440A342B8BF23468380B2F90C
:104F10000630B1F90640A342B8BF2346C38010BC97
:104F200070471146D1E90023C0E9002310BC704747
:104F300058B10388CB1803808388C91881804188C1
:104F400051184180C1885118C18070473249886822
:104F500000228A60704730498A6802B9886000F090
:104F600034B980B5FDF7A0FA2B48416800F15C0325
:104F700000E0026002688A4205D09A420CBF00F14C
:104F80000C020832F5E7BDE80140FDF785BA18B418
:104F9000214A536818605960116802F15C04A34209
:104FA0000CBF02F10C0403F1080409B18C4200D0DB
:104FB00023465360906011BC00F007B910B500247F
:104FC000FDF772FA144A1368506883420CD01868CF
:104FD000596802F15C04A3420CBF02F10C030833D0
:104FE000136003F00DFD0124FDF756FA204610BDB5
:104FF00038B504460D4603F003FD20B92946204686
:10500000BDE83440C3E731BD0349096819B1D1E9AE
:105010000023C0E90023704708010010B1F9062001
:10502000B0F902309A42A2BFB0F90620B1F90230BD
:105030009A420DDBB1F90420B0F900309A42A2BFC8
:10504000B0F90400B1F90010884201DB012070477B
:1050500000207047004907E0609F001001460148AA
:1050600002E000BF609F0010E02204F04BBB000094
:1050700070B50446144D6E7CFDF716FA102C3CBF3B
:105080006C7401F035FC11480460FDF705FA3046F8
:1050900070BD38B504460D46FCF7E2F8009048B103
:1050A000032100A8009AD268526A904710B10848BC
:1050B00040F8245031BD002110283CBF044951F86C
:1050C0002010084670470000609F001068A0001084
:1050D000B4A1001070B504460D461646FDF7E4F97C
:1050E000324629462046FCF79CFA0AE070B5044691
:1050F0000D461646FDF7D8F9324629462046FCF7FC
:1051000063FA0446FDF7C8F9204670BD38B5044679
:105110000D46FDF7C9F929462046FCF76DFA08E06F
:1051200038B504460D46FDF7BFF929462046FCF781
:1051300009FA0446FDF7B0F9204632BD70B50446C1
:105140000D461646FDF7B0F9324629462046FCF7D3
:10515000DAFA10B1002028603060BDE87040FDF739
:105160009BB9000080B50020FBF7A2F86FF07F40EC
:10517000FBF7A6F8012001F0A2FB002002F064F981
:10518000002002F06FF9002002F036F904480068B0
:1051900002F03EF90020BDE8024002F047B90000ED
:1051A000C800001080B5FDF77FF9FFF7DBFFBDE811
:1051B0000140FDF771B900001D49086070471D49A5
:1051C000086070471B494860704719480068010033
:1051D00018BF0047704738B5FDF766F916480468F0
:1051E000FBF7CCFD24B12546FDF756F96D1EFBD12A
:1051F000104D686850B102F0E6F950B102F0EFF9D5
:1052000058B169680A0008D0884706E002F0DBF967
:1052100018B92868010018BF80471CB1FDF744F990
:10522000641EFBD1FBF7AFFDBDE83140FDF734B99B
:10523000F4A100106C010010DC000010B1F9002096
:10524000B0F900309342B8BF0280B0F90220B1F942
:1052500002309A42B8BF1A464280B1F90420B0F930
:1052600004309A42C8BF1A468280B1F90620B0F9CC
:1052700006309A42C8BF1A46C280704710B4B1F9CE
:105280000030B2F900409C42A8BF23460380B2F927
:105290000230B1F90240A342B8BF23464380B1F9BE
:1052A0000430B2F90440A342C8BF23468380B1F959
:1052B0000630B2F90640A342C8BF2346C380B0F906
:1052C0000410B0F900209142A2BFB0F90610B0F965
:1052D00002008142B4BF0020012010BC70470000D2
:1052E00070B582B005460124102D4FDA79B302293A
:1052F0001CD04BD2284E56F82500A8B92846FBF7FB
:10530000AFFF0090002841D00D2100A8009AD2687C
:10531000526A9047020039D001210098904700243A
:1053200056F82500401C2FE0401C2DE0FBF798FFAD
:10533000009058B30D2100A8009AD268526A904795
:10534000020023D002210098904700241EE0124E54
:1053500056F82500012810D12846FBF781FF009060
:1053600058B10D2100A8009AD268526A90470200F5
:1053700003D0002100989047002456F82500411ED4
:105380008941C943B0EBD17046F82500204676BD6F
:1053900001460248407CA3E7F8A10010609F00107E
:1053A00010B4830744BF20F8021B521E530813D0C9
:1053B00001EB0144042B0BDB40F8044B40F8044B99
:1053C00040F8044B40F8044B1B1F042BF4DA1BB1CC
:1053D00040F8044B5B1EFAE7D20748BF018010BCBF
:1053E0007047000001F07F4313F1807F00D17047C8
:1053F00070B4C2F1FF03DBB2C4B2CDB25D4302FBB5
:105400000454240400F47F4501F47F465E4302FB0C
:1054100005652D0A05F47F4555EA146400F47F05FF
:1054200001F47F065E4302FB05652D0A05F47F0546
:105430002C43000E090E594302FB0010000400F03B
:105440007F40204370BC70472DE9F04104460D4673
:1054500016469846134FB7F90A008542A4BFB7F91C
:105460000E00A8421BDBB7F908008442A4BFB7F9BD
:105470000C00A04213DB2046FAF737FF3246014604
:105480004046FFF7AFFFFDF7C6FB0346787C07EB0E
:105490008000C06C2A462146C468A469A047BDE8C4
:1054A000F0810000609F001038B5002400252846D8
:1054B000FBF7D6FE00B1641C6D1C102DF7DB2046F7
:1054C00032BD000030B583B00446084D687C05EB62
:1054D0008000C06C00A9C268126B904700AA2146E8
:1054E00005F10800FFF7CAFE03B030BD609F001051
:1054F000F8B504460D461646FBF7D7FB0246009268
:10550000162100201268D268526A9047074600A808
:10551000FBF7D6FB380003D0324629462046B84771
:10552000F1BD2DE9F34F83B090461D460F9800263C
:10553000DFF8CCB2109910919BF811300022FBF7E4
:10554000A2FE040042D0206980688047FBF7E1FF9B
:10555000814609FB08F0C01D4FEAD00AFBF7F8FBB3
:105560000E9FF90705D4411000EB9170801000EBFD
:105570004000012D07DA1838B0FBFAF069420D46F9
:105580008542C8BF0546F80707D400962B46424619
:105590000499039803F081F90646012D03DA2046A9
:1055A000FBF76FFE12E00AFB05F01830F90702D591
:1055B000FBF767FB01E0FFF7B7FB070008D12046C8
:1055C000FBF75FFE16B13046FBF700FC002019E048
:1055D000FBF76BFB01900460039981800499C18003
:1055E000A0F808804581C0F80CA0C0F81090466172
:1055F00001A8FBF765FB10982061A7609BF81100DC
:10560000A061384605B0BDE8F08F38B504460025E6
:105610008CB1FCF749FF2046FBF747FB0090006880
:10562000006980688047FBF774FF054600A8FBF718
:1056300047FBFCF731FF284632BD10B582B00400AD
:105640001CD0FCF731FF6E48D0F8CC00A04208BF58
:1056500001F04EF92046FBF728FB0090406908B1A5
:1056600000F0CCFB00980068FBF70BFE00A8FBF7EE
:1056700027FB2046FBF7AAFBFCF70EFF13BD2DE925
:10568000F04784B00446884691469A460C9D002611
:10569000FCF70AFF5A49487C01EB8001CF6CF9689E
:1056A0000968042903D03F68002FF8D100E017B93A
:1056B000FBF7D6FD074601213846FA68D26A9047C3
:1056C00050B1396902910190009553464A464146CE
:1056D0002046FFF726FF0646FCF7DEFE304604B004
:1056E000BDE8F08710B582B000240094FFF7C7FF33
:1056F00016BD70B582B00546FCF7D6FE404ED6F812
:10570000CC4015B901F0F4F81EE00CB101F0F0F84E
:10571000FFF7A2F92846FBF7C8FA0090D6F8CC00AC
:1057200028B906F1D000D6E90223C0E90023C6F863
:10573000CC5000980068FBF7DFFD00A8FBF7C0FA2B
:1057400002F04AFAFDF717FAFCF7A6FE204676BDEE
:105750002DE9F04383B00400884691464AD0FCF717
:10576000A3FE002001F048FE05462548D0F8CC6095
:105770002046FBF79AFA009000688069FFF778FCF2
:1057800007462048804504D10098B0F90480B0F95C
:105790000690ADF80480BDF8040000990989081846
:1057A000401EADF80800ADF80690BDF8060000995F
:1057B00049890818401EADF80A00FFF748F900A80B
:1057C000FBF77EFA01A8FEF704FE40B14A464146C7
:1057D000204600F049FEFEF7E2FD0028F6D13846EB
:1057E000FFF746FC3046FFF784FF284601F004FE31
:1057F000FCF752FE03B0BDE8F083024A1146A7E76A
:10580000609F001001F0FFFF2DE9F04184B0060019
:105810000C46154698460A9F1ED0FCF745FE3046BA
:10582000FBF743FA0290466902A8FBF749FA8EB1EA
:105830003046FBF73AFA0190781B401C0090A8EB29
:105840000400431C2A462146019800F0EEFA01A804
:10585000FBF736FAFCF720FE04B0BDE8F08100004B
:105860002DE9F04F83B05FEA00098A4693469846D7
:105870002AD001A902A800F0FEFFB9F90050002DBE
:1058800048BF0025B9F90240002C48BF0024204F32
:10589000787CFBF79DFD02994018461EB9F904007B
:1058A0008642C8BF0646787CFBF794FD01994018F4
:1058B000401EB9F906108842C8BF0846711B01F1A5
:1058C0000109001B461C0AE000250024104F787CCB
:1058D000FBF77EFD8146787CFBF77CFD0646B8F140
:1058E000000F08BFC6F10008B9F1010FA8BF012ED3
:1058F00035DB0C98009043464A4621462846FFF780
:10590000BEFE5FEA000905D15846D047012027E0D6
:10591000609F001002F0B2FE80464846FFF7E9FEA5
:10592000002714E0F11B4145BCBF484602F0C0FE11
:105930003FB13A192946484602F0D6FE484602F0E1
:1059400001FE5846D0474846FFF757FF4744B74245
:10595000E8DB4846FFF771FE0020FFF7CAFE002093
:1059600003B0BDE8F08F00002DE9F24F84B004468B
:1059700002F06AFE0190204602F080FE029020466E
:1059800002F020FE8246204602F02EFE814620468E
:1059900002F040FE074601984844451E0298C0198F
:1059A000441E049802F050FE8046049802F066FE01
:1059B0000090049802F006FE8346049802F014FE5C
:1059C0000646049802F026FE08EB0601491E009ADE
:1059D0001218521E4945A8BFB542C0F28980BA428A
:1059E000A8BF8442C0F28480B145BCBFA6EB0903C6
:1059F0000AEB830A874206DAC31BDDF804C00CFBFE
:105A000003F30AEB830A4E45BCBFA9EB06030BEB7D
:105A1000830BB84204DA3B1A08FB03F30BEB830B4E
:105A20004E4505DBA942A8BFA91B07DA454606E09B
:105A3000A942A8BF019D02DAA1EB09014D1CB842A1
:105A400005DBA242A8BF201A06DA009F05E0A242A9
:105A5000A8BF029F01DAD01B471C0095009D544649
:105A6000D94628462146002251F8043B1B0EFF2B45
:105A700002D1521C401EF7D104EB820409EB8209CB
:105A8000AD1A2ED028462146002651F8042B120EBE
:105A900002D1761C401EF8D156B1B20021464846CC
:105AA00003F030FE04EB860409EB8609AD1BC5B19B
:105AB0002068020EFF2A18BF002AD2D0D9F80010A1
:105AC0000E0EFF2E08D0C2F1FF02D2B2FFF78AFC01
:105AD0000002000A40EA066049F8040B6D1E241D0E
