:020000040000FA
:10000000B8100020F9000000010100000301000009
:1000100005010000070100000901000000000000C8
:100020000000000000000000000000000B010000C4
:100030000D010000000000000F010000A5320100CA
:100040001301000013010000130100001301000060
:1000500013010000A14C0100130100001301000076
:100060001301000013010000130100001301000040
:100070001301000000000000130100001301000044
:100080001301000013010000130100001301000020
:100090001301000013010000130100001301000010
:1000A0001301000013010000130100001301000000
:1000B00013010000130100001301000013010000F0
:1000C00013010000130100001301000013010000E0
:1000D00013010000130100001301000013010000D0
:1000E00013010000DFF80CD010F056FD0048004767
:1000F00095600100B8100020064880470648004778
:10010000FEE7FEE7FEE7FEE7FEE7FEE7FEE7FEE7C7
:10011000FEE7FEE7D9320100E50000002649C0F302
:100120000742525CC0F30723DFF890C013F80C308D
:1001300002EB4312C0B2405C02EBC02070474FF6A6
:10014000FF707047F0B41D4C1B4D50F8046BC6F3A4
:1001500007477F5DC6F3072C1CF804C007EB4C175C
:10016000F6B2765D07EBC6260E805918521EECD10A
:10017000F0BC7047F0B4541E03FB040001EB820195
:10018000091F5B420E4C0F4D0688F7127F5D4FEA48
:10019000661C0CF03F0C1CF804C007EB0C2706F0A3
:1001A0001F06765D07EB064641F804691818521ED3
:1001B000EAD1F0BC7047000080A3020080A40200D6
:1001C000A0A5020080A5020011F0F6BB2DE9F041C8
:1001D000044611F0F1FB2418134D17E007F0E2FB81
:1001E0002F6800F0FDFB2FB1B84607F0D3FBB8F144
:1001F0000108FAD1304611F0D5FB1FB107F0D2FB50
:100200007F1EFBD100F0F1FB07F0C4FB11F0D4FB23
:10021000261A012E05DB05F0B5FE062EDEDB0526CF
:10022000DCE7BDE8F08100004402002030B585B075
:10023000044610461D46A2690492B4F908200392B0
:10024000628A0292002201920091B4F91030B4F94E
:100250000E20B4F90C106918B4F90A50401902F0D4
:1002600058FA0546616802F0ADFA284605B030BD7F
:1002700030B587B0044610461D46A26905926269F2
:100280000492B4F908200392628A02920022019239
:100290000091B4F91030B4F90E20B4F90C106918BB
:1002A000B4F90A50401902F053FE05001CBF618AE0
:1002B00003F057F9284607B030BD30B587B0144673
:1002C0001D460A9A83690693059242680492B0F922
:1002D00008200392428A0292002201920091B0F912
:1002E0001030B0F90E20B0F90C106918B0F90A00FE
:1002F000201803F01FFC07B030BDFEE7FFFFFFFF33
:1003000070B5044660680F26DFF8B05705F1780233
:10031000D36B984203D2761E083A002EF8D529688E
:1003200081423CBF0FF2A070FFF7E7FF28686168C9
:10033000401A286005EBC600403004F108010A6845
:10034000496802B1516009B10A6070BD026070BDB8
:10035000F8B505460E46AA19DFF86047606BA1683C
:100360000818401E904206D3106820B950684519FD
:100370001046FFF7C5FF606BB0420AD256F8040C76
:10038000371A386828B9786845193846FFF7B8FF32
:100390003E460F2004F17801CA6B954203D2401EFD
:1003A00008390028F8D504EBC000016C0022326047
:1003B0007560B1603661A91941F8045C06F1080165
:1003C00050F8402F02B151600A6000224A6001607B
:1003D0002068281820602846F2BD2DE9FD4C82B027
:1003E000DFF8D846656BA0684019401E01906E6822
:1003F0001EB90FF23070FFF780FF2868002839D14E
:1004000070190199884235D200908346DBF804A028
:10041000DBF8000020B90FF26470FFF76EFF29E0EF
:10042000216B11F83010012924D1A16A88420CBF38
:10043000012700272846FFF763FFDBF80000216B48
:1004400001EBC000456052460099284610F084F840
:1004500027B1206B0099401A281820630AEB050188
:100460003046FFF775FF029919B1884201D3002089
:1004700005E05646751901988542B8D3012005B0AC
:10048000BDE8F08CF0B58A080023FF24054600265D
:1004900062B11F46B7FBF4FCCCEB0C2CA7EB0C0CA9
:1004A00045F804CB761C7F1C9642F3D30646002504
:1004B0001F4601E06D1C7F1C95420BD256F804CB01
:1004C000B7FBF4FECEEB0E2EA7EB0E0EF445F1D0EB
:1004D0000320F0BD5B1C022BD8D34A08002305463D
:1004E000002662B11F46B7FBF4FCCCEB0C2CA7EB4B
:1004F0000C0C25F802CB761C7F1C9642F3D30646E3
:1005000000251F4601E06D1C7F1C95420DD236F878
:1005100002CBB7FBF4FECEEB0E2EA7EB0E0E1FFAAE
:100520008EFEF445EFD00220F0BD5B1C022BD6D32B
:1005300000230246002559B11E46B6FBF4F7C7EB6F
:100540000727F71B02F8017B6D1C761C8D42F4D344
:10055000024600251E4601E06D1C761C8D420AD223
:1005600012F8017BB6FBF4FCB4445FFA8CFC6745DF
:10057000F2D00120F0BD5B1C022BDAD309B110F0E0
:1005800012F80020F0BD10B5DFF83045002084F8E7
:1005900024008022002104F13C0007F0DFFCBC2293
:1005A0000021204607F0DAFCDFF814450C22002178
:1005B000204607F0D3FC2020A06010BD2DE9F041BB
:1005C000DFF8F844A06A40B9DFF8F40441688068B5
:1005D0000830B1FBF0F0851C05E0E0680A21B0FBB3
:1005E000F1F10818451CE80000F08FF85FEA0008F8
:1005F0002BD0216B01EBC800406800F10806A76A08
:10060000E068C20030460FF0A7FF2663C4F82880D8
:10061000E068691E884207D206EBC002121D401C2A
:1006200042F8080B8842FAD306EBC0000021416073
:10063000E068206260682818E168401A6060E56040
:1006400017B1384600F0F4F9E4E00120BDE8F0818C
:1006500070B5DFF8684494F82400002854D10120D4
:1006600084F82400DFF858546968B1F5205F88BF2A
:100670004FF420512868FFF705FF18B10FF25450CE
:10068000FFF73BFE286818B90FF28450FFF735FEDC
:10069000DFF83004E86005F10C0000F0DEFB201DFF
:1006A0005A21816100212246102303FA01F6D66304
:1006B000491C08321029F8D329686A685218143A7C
:1006C0000223836004F12406F2606A6842603161AB
:1006D0000021002204E0491CF368D3185960083255
:1006E00083685B1E9942F6D30121C1616360316961
:1006F0004068FFF72DFEFFF761FF18B10FF2605061
:10070000FFF7FBFD0120B06070BD2DE9F04105460B
:10071000FFF79EFFDFF8A443E06B854202D3E81C9D
:100720008008800000F10C052068A84218D3E06A18
:100730006168884207D3401EE062FFF73FFFE16A2D
:10074000491CE16260B96068401E6060266A206BE7
:1007500000EBC60149682162012100F8361006B994
:1007600058E00F2104F17802D36B9D4203D2491E59
:10077000083A0029F8D5102917D204EBC102C1F1BB
:100780001001136C63B19F687B68AB420CD2BB68ED
:1007900033B19F687B68AB4206D2002FF7D100E0EF
:1007A00000270832491EECD19FB905F10C00FFF774
:1007B00014FE0028D5D06068401C6060206B00EB00
:1007C000C600216A4160206B002100F836102662C5
:1007D00020E0D7F80480A8EB0500E16B0C318842DB
:1007E00038BF45463846FFF78BFD206B00EBC6004F
:1007F00047603E607D600020B8603F61E91941F8C4
:10080000045C4545BCBFA8EB0500FFF7A1FD3046E1
:10081000BDE8F0810020BDE8F08150F8080C704779
:1008200028B1A6498A6B026002B1506088637047A4
:100830002DE9F8430446FFF70BFFE01C8008800019
:10084000061D9E4CE06B864238BF0646A56B00E055
:100850002D6895B155F8040CB042F9D16DB12868F6
:1008600008B169684160686808B129680160A06BD7
:10087000A84235D12868A06332E0606BA16801EB23
:100880000008A8F10409D9F80000A8EB00073968AE
:1008900069B1796881421CBF0FF22040FFF72DFD3E
:1008A0000020FFF79AFDD9F80000A8EB0007386890
:1008B000B0B97868B04213DB7142C0190818051D41
:1008C0003846FFF71DFDA068801BA0602069301826
:1008D000206139467868801BFFF73AFD45F8046CC3
:1008E0002846BDE8F28310B5040001D1002010BDF8
:1008F00007F058F82046FFF708FF04466CE028B1DF
:100900006E49096B01EBC0004068083070476B49C5
:100910008A69521C8A61096B01EBC0010A78521C7A
:100920000A70ECE76549026852F8082C0B6B03EB80
:10093000C2021378022B03D38B690BB15B1E8B6150
:100940001178491E117000210160002070475B483A
:1009500000680C380128B8BF00207047574840682D
:100960007047564881680068081A70475348C16844
:100970004068081A704710B50024FFF769FE0F2081
:100980004E4901F17802136C1BB101EBC000006C01
:1009900004E0401E083A0028F5D508E0836833B12A
:1009A0005868844238BF044698680028F6D1A4F1FC
:1009B0000C0010BD10B506F0F5FFFFF7DCFF3F4956
:1009C000C9696422B0F5800F87BF90FBF2F001FB8C
:1009D00000F44843B0FBF2F406F0DCFF204610BD03
:1009E00036484169491C4161704734484169491E94
:1009F00041617047324A106088088000506070473B
:100A00002F49112805D34A685208904202D3104654
:100A100000E0102088607047002138B12749096B39
:100A200001EBC00040684068A0F10C010846704727
:100A300038B504001ED006F0B5FF204D286B10F825
:100A4000341099B1022911D200EBC4004168486802
:100A5000FFF77EFC6868401C6860286B00EBC401EF
:100A60002A6A4A60002100F834102C62BDE8314047
:100A700006F090BF31BD10B5044606F093FF206824
:100A8000FFF7D6FF00202060BDE8104006F082BFCF
:100A900038B504460D46012D05DB2046FFF7EBFF78
:100AA000241D6D1EF9D131BDA0F10A015B2903D2CD
:100AB0000249C8610020704701207047C40300202C
:100AC000B80000208705000074656D705C536F7579
:100AD0007263655C4755495F416C6C6F632E633A86
:100AE0000A496C6C6567616C206D656D6F72792069
:100AF0006F7065726174696F6E20696E205F5265F8
:100B00006D6F766546726565426C6F636B28292E42
:100B100020457865637574696F6E2073746F7070AB
:100B20006564210074656D705C536F757263655CFC
:100B30004755495F416C6C6F632E633A0A496C6C90
:100B40006567616C20626C6F636B2073697A6520E6
:100B5000696E205F52656D6F7665486F6C65734E88
:100B6000657728292E20457865637574696F6E2036
:100B700073746F70706564210000000074656D709F
:100B80005C536F757263655C4755495F416C6C6F70
:100B9000632E633A0A496C6C6567616C2066726506
:100BA0006520626C6F636B20696E205F52656D6FAC
:100BB0007665486F6C65734E657728292E204578D9
:100BC00065637574696F6E2073746F7070656421EE
:100BD0000000000074656D705C536F757263655C36
:100BE0004755495F416C6C6F632E633A0A4D656DE2
:100BF0006F72792074657374206661696C65642016
:100C0000696E205F496E69744F6E636528292E00F6
:100C100074656D705C536F757263655C4755495FB1
:100C2000416C6C6F632E633A0A4E6F206D656D6F79
:100C3000727920617661696C61626C6520696E20F1
:100C40005F496E69744F6E636528292E204578656B
:100C5000637574696F6E2073746F707065642100C2
:100C600074656D705C536F757263655C4755495F61
:100C7000416C6C6F632E633A0A4E6F206D656D6F29
:100C8000727920666F7220626C6F636B732061767D
:100C900061696C61626C6520696E205F496E697480
:100CA0004F6E636528292E20457865637574696FDA
:100CB0006E2073746F7070656421000074656D70D0
:100CC0005C536F757263655C4755495F416C6C6F2F
:100CD000632E633A496C6C6567616C20626C6F636C
:100CE0006B2073697A6520696E204755495F414CD6
:100CF0004C4F435F4765744669786564426C6F6327
:100D00006B28292E20457865637574696F6E207392
:100D1000746F7070656400005A480021C160E02261
:100D2000594807F01BB95949886070472DE9FC41C3
:100D300005460E461746984606F034FE042007F096
:100D40009FF904465048016C4D19406C8619CF1923
:100D50008044ADF80050ADF80470ADF80260ADF815
:100D6000068000A804F0E7FA48B143463A46314607
:100D7000284607F0FDF904F0C4FA0028F5D1204612
:100D800007F07EF906F006FEBDE8F38180B500218C
:100D9000002005F02CF93E4940F6FF721346084644
:100DA000BDE80050C2E710B5364CE06850B90120EC
:100DB000E06010F0E9FD10F0C3FE36482060A06846
:100DC0006060A46010BD70B5FFF7EDFF2F4C2E20C2
:100DD000207010F0F7FD2C4E06F11405A86B0028CA
:100DE000FDD0A0680028FCD006F108007061707C7E
:100DF00006EB8000C06C06F10801C268126B9047D8
:100E00000FF29800C6F8D800A068A86006F10800A4
:100E100070610120287104F0A5FEA862032086F805
:100E2000DC006FF07040E8612862002007F0F7FBFB
:100E30006FF07F4007F0F7FB1748606006F0F3FDA6
:100E400007F086FB04460021002005F0D3FA04F0E9
:100E500008FE06F006FE204670BD0A498A68426018
:100E60008860704710B5074CA06848B1A06800685A
:100E7000010018BF8047A0684068A0600028F5D135
:100E800010BD00007405002080040020CC0000206C
:100E900001F0FFFF190D0000F07B0000E58000006D
:100EA0008B800000AB48002101604FF4C072AA485B
:100EB00007F054B838B5044605F0FBF920B101211C
:100EC000BDE8344005F020BA04EB4400A24901EB30
:100ED000C005687960B101202871286906F0F6FC28
:100EE0006A69100004D021460020BDE83840104750
:100EF00031BD01EB4102984901EBC20148617047E5
:100F00002DE9F84F0446884606F04CFD404605F0B2
:100F1000D0F9824608EB4800C7008F4D57F805907E
:100F20007E197269100004D04146012090470020CC
:100F300070618848016831B90121016087494160C9
:100F4000001DFFF78AFFBAF1000F1BD0504605F0D5
:100F50008DF983464FF07F4005F001FAFFF716FF49
:100F600000220021206804F0C8FF20684288018820
:100F7000504605F0B9F97C5101207071584605F0D2
:100F800075F916E07C5101207071306918B106F0D6
:100F9000DDFB002030617CB1012000904346F06809
:100FA000A168421AB0686168411A206806F039FBEE
:100FB00030614046FFF77EFF06F0ECFC4846BDE896
:100FC000F28F38B504460D4606F0ECFC284605F0D5
:100FD00070F990B105F04AF905464FF07F4005F0F1
:100FE000BEF9FFF7D3FE00220021204604F085FF62
:100FF000284605F03BF9002409E0214605EB4500B1
:10100000554A02EBC000006906F0D9FB044606F021
:10101000C1FC204632BD5249497CD2E738B504466E
:1010200006F0C0FC04EB4400C0004B494518002208
:101030006A712A6952B1EA6843589B68D21AAB6850
:1010400040584068191A286906F0AAFB204605F0A6
:1010500030F928B1002105F057F9002028710CE083
:10106000287950B1286906F00BFC002028716A69C4
:10107000100002D0214601209047BDE8314006F023
:1010800089BC10B5044606F08DFC04EB4400C0009A
:101090003149421801235371405820B92146314843
:1010A000FFF72EFF02E02046FFF704FFBDE81040E7
:1010B00006F070BC10B5044606F074FC04EB440066
:1010C000254901EBC000447906F064FC204610BDC0
:1010D00070B504460D46164606F064FC304605F031
:1010E000E8F806EB4601C9001B4A38B189588A68FE
:1010F000AA1A4968611A05F0EBF818E08E18B06872
:10110000A04214BF01200020F368AB4214BF0123AA
:10111000002318430BD0306938B1885881686A1AA7
:101120004068211A306906F03BFBB460F560BDE809
:10113000704006F02FBC0A49497CE1E60848407C33
:101140006CE70748407C9CE70548407CB2E7044ACE
:10115000527CBDE70407002084050020A50E000096
:101160008004002074A3020010280BDA504A02EB1E
:101170008000C06C00E0006820B1C26812688A423A
:10118000F9D1704700207047102801DB002070471C
:10119000474901EB8000C06C00E0006800281EBFDA
:1011A000C16809680029F8D17047FFF739BBF8B565
:1011B00004460F4615461E46102E03DA1C20FFF784
:1011C00037FB08B90020F2BD0FB107610BE03849C9
:1011D00001EB8601C96C31B100E011460A68002AB2
:1011E000FBD10969016186618582C46000210160CB
:1011F00041608160F2BD81692D4A02EB8101CA6CB8
:10120000824204BF0268CA64416809B102680A6088
:10121000016809B142684A6000210160416070477D
:1012200030B450B38169102927DA214A02EB8102D8
:10123000D16C11B9D06425E019464B68002BFBD165
:10124000D9B1CB681B68C46825689D42B8BF0968DE
:10125000F6DBAB4204BF838A012B06D10B6823B1B6
:101260001946CB681B68AB42F8DA4B68002B1DBFF0
:1012700018604A684260D06402E0012030BC7047C8
:1012800048600160002030BC704738B51C46FFF74D
:101290008EFF050018BFFFF7C3FFE868006820B99C
:1012A000034800EB8400C0F88C50284632BD000093
:1012B0008004002070478449C861704782484069B3
:1012C00070478148806970477F4800214160816094
:1012D000C160016170472DE9F04780460C46154614
:1012E0001E46DFF8E89199F81100774F397F4907DA
:1012F00007D400F00BF9824699F8110000F008F9C4
:1013000006E000F005F9824699F8110000F0FEF8B9
:10131000B8F1000F0CBFAAF10100401E089AB11AE3
:1013200048BF4942142904DB611B48BF49421429C4
:1013300002DA0120BDE8F08707EBC8012B1B921BE6
:1013400004FB02F595FBF3F5751B4D60001B504344
:1013500090FBF3F080198860B86879688142BABF61
:101360000A4601460246B9627A623869F9688142E2
:10137000BABF0A46014602463963FA620120386262
:101380000020BDE8F087504B03EBC00043680B60C2
:101390008068106070472DE9F0414B4C206A48B9D5
:1013A0006060A060E0602061A06260622063E06233
:1013B00001202062207838B910F0E0FAA06110F026
:1013C000D5FA2078401C7CE010F0D2FA606110F071
:1013D000C9FA6069616A8842A4BFA16A814206DBDA
:1013E000A169E26A9142A4BF226B8A4205DA4FF0FA
:1013F000FF306063A063014660E06168451A334EC8
:10140000707C217F490702D400F080F801E000F0F1
:101410007FF8401E6843A1686268891A90FBF1F565
:10142000A069E168471A707C217F490702D400F067
:101430006FF801E000F06AF8401E78432169E26825
:10144000891A90FBF1F7707C217F490711D400F0D5
:101450005DF88046707C00F05BF8E169CA0744BF24
:10146000A8EB0502551E890752BF3A46C01B421E13
:1014700011E000F04DF88046707C00F047F8E1691B
:10148000CA0746BFA8EB0502521E2A46890746BF77
:10149000C01B451E3D4615F1010F18BF12F1010F8B
:1014A00007D0606B10F1010F1CBFA16B11F1010F90
:1014B00002D14FF0FF3001466563A26306F002FBE4
:1014C00000202070BDE8F081D800002080040020BA
:1014D00038B50C460025102807DAFFF755FE20B175
:1014E0002146C268926A90470546284632BD70B5CB
:1014F000044600250F2621463046FFF7E9FF8542C6
:10150000B8BF0546761EF6D5284670BD0121DFE737
:101510000221DDE70321DBE70421D9E70821D7E732
:101520000921D5E70A21D3E70B21D1E70C21CFE729
:101530000D21CDE70E21CBE7012100E00221234858
:10154000407CC5E70321FAE70421F8E70821F6E724
:101550000921F4E70A21F2E70B21F0E70C21EEE77D
:101560000D21ECE70E21EAE7184901EB8000C06C81
:101570000821C268926A104780B5FFF705FE28B1BE
:101580000221C268D26ABDE80840104702BD0F4878
:10159000407CF1E780B5FFF7F7FD08B100694068CE
:1015A00002BD0A4901EB8000C06C006940687047C9
:1015B00080B5FFF7E9FD08B10069006802BD034985
:1015C00001EB8000C06C0069006870478004002057
:1015D00001208CE702208AE7032088E7042086E7C1
:1015E000082084E7B0B34108490001D101207047C9
:1015F0008108890001D102207047C108C90001D1CA
:10160000032070470109090101D1042070474109F5
:10161000490101D105207047010A090201D10820C2
:101620007047410A490208D0010B090305D0C10BDC
:10163000C90302D0010C090401D110207047810CAC
:10164000890401D11220704710F07F4F01D118207A
:1016500070472020704710B50024FFF7C3FF012812
:1016600008BF01240ED0811E072938BF082409D3E2
:10167000A0F10901082938BF102403D3113810281C
:1016800038BF2024204610BD38B50C460125FFF791
:101690007BFD009058B1022100A8009AD268526ADE
:1016A0009047020003D02146009890470025284625
:1016B00032BD38B50C460125FFF766FD009058B1E4
:1016C000092100A8009AD268526A9047020003D00C
:1016D0002146009890470025284632BD70B582B05B
:1016E0000C4615460126FFF74FFD009060B10A2118
:1016F00000A8009AD268526A9047030004D02A4694
:101700002146009898470026304676BD70B582B0D5
:101710000C4615460126FFF737FD009060B10B21FE
:1017200000A8009AD268526A9047030004D02A4663
:101730002146009898470026304676BD38B50C46BD
:101740000125FFF721FD009058B1062100A8009A5D
:10175000D268526A9047020003D021460098904711
:101760000025284632BD70B582B00C4615460126CC
:10177000FFF70AFD009060B1032100A8009AD2682B
:10178000526A9047030004D02A46214600989847A1
:101790000026304676BD38B50C460125FFF7F4FC2F
:1017A000009058B1132100A8009AD268526A90475D
:1017B000020003D02146009890470025284632BDFC
:1017C00038B50C460125FFF7DFFC009058B1142115
:1017D00000A8009AD268526A9047020003D02146BE
:1017E000009890470025284632BD70B582B00C465F
:1017F00015460126FFF7C8FC009060B1152100A82E
:10180000009AD268526A9047030004D02A462146C3
:10181000009898470026304676BD70B582B00C46D9
:1018200015460126FFF7B0FC009060B1102100A81A
:10183000009AD268526A9047030004D02A46214693
:10184000009898470026304676BD70B582B00C46A9
:1018500015460126FFF798FC009060B1042100A80E
:10186000009AD268526A9047030004D02A46214663
:10187000009898470026304676BD10B582B0012406
:10188000FFF782FC009050B1172100A8009AD2689F
:10189000526A9047010002D00098884700242046F1
:1018A00016BD01461948407CEEE601461748407CCB
:1018B000FFE60A4601461548407C0FE70A46014606
:1018C0001248407C22E701461048407C36E70A4631
:1018D00001460E48407C46E701460C48407C5AE7EA
:1018E00001460A48407C6BE70A4601460748407CAF
:1018F0007BE70A4601460548407C8EE70A460146DA
:101900000248407CA1E70148407CB6E78004002003
:1019100070B582B00C4615460126FFF735FC0090E5
:1019200060B1162100A8009AD268526A904703005D
:1019300004D02A462146009898470026304676BDB6
:1019400010B50446A06838B94020FEF771FFA060CA
:101950004022002106F002FBA06808B1002010BD63
:10196000012010BD806800220A804A804269521E10
:101970008A808069401EC88070477CB504460D4649
:1019800016460FF67030D0E90023CDE9002320463B
:10199000FFF7D6FFA06840B1056246620095019648
:1019A00000AA0821A06910F005F973BD70B50446BE
:1019B0000D461646FFF7C4FFA06818B1016A2960FA
:1019C000406A306070BD38B504460D460FF62C30C5
:1019D000006800902046FFF7B3FFA06830B1856231
:1019E000009500AA0A21A06910F0E4F831BD38B5CD
:1019F00004460D460FF60830006800902046FFF7B9
:101A00009FFFA06830B1C562009500AA0921A069B6
:101A100010F0D0F831BD38B50446FFF791FF054608
:101A200000220121A06910F0C5F8284332BD002230
:101A3000052101E000220621806910F0BBB880B5C5
:101A4000009100AA0B2103E080B5009100AA0C21AF
:101A5000806910F0AFF801BD30B583B00FF6A42354
:101A6000D3E90045CDE900450091019200AA0D217E
:101A7000806910F09FF803B030BD2DE9F0410446B5
:101A80000D469046FFF75CFFA768002F18BF45453D
:101A90001AD008212046E268926A9047F9683A69AC
:101AA00051434843C208786808FB02067B6B190063
:101AB00004D042462946A069984704E005FB02018C
:101AC00030460EF049FD3E60BDE8F08138B5044671
:101AD0000D460FF63820006800902046FFF730FFD3
:101AE000A06828B1009500AA0E21A06910F062F844
:101AF00031BD70B504460D461646FFF721FFA068BC
:101B000078B1192D08D0202D08D0212D02D0232DF9
:101B100006D070BD466370BD066370BD866370BD40
:101B2000C66370BD2DE9FC4104460D4616460FF60E
:101B3000E010D0E90023CDE90023A768A069FFF7F2
:101B4000F5FC8046A069FFF7F3FC48EA4008A0696D
:101B5000FFF7F0FC48EA8000072833D8DFE800F000
:101B600004060D131D1F2628009504E07869F96806
:101B7000401A401B0090019624E00095B86939692D
:101B8000401A801B1DE07869F968401A401B0090DC
:101B9000B8693969401A801B13E0009604E0B869FF
:101BA0003969401A801B009001950BE0009604E013
:101BB000B8693969401A801B00907869F968401A41
:101BC000401B019000AA0321A0690FF0F3FFBDE8BC
:101BD000F38138B504460D460FF63C1000680090BE
:101BE0002046FFF7ADFEA06838B14560056000955E
:101BF00000AA0221A0690FF0DDFF31BDF8B504464F
:101C00000D461646FFF79CFEA7684FB1A069FFF787
:101C100091FC00287D61BE6101D0FE61F1BDFD61D6
:101C2000F1BDF0B583B004460D4616460FF6EC0044
:101C3000D0E90023CDE900232046FFF781FEA76805
:101C40008FB1F86930B9A069FFF774FC002814BFA0
:101C5000FE61FD61FD603E610095019600AA0721CD
:101C6000A0690FF0A7FF03B0F0BDF0B4049F866831
:101C7000DFF8280800680568F06940104FEA510C49
:101C800000FB02CC366806EB8C065B1A5B1CBA1AAA
:101C9000521CDFF80C783F7CFF0739D5C9070DD5FA
:101CA0001100344608D0DFF8FC5727686F402760E2
:101CB00004EB8004491EF8D1361D5B1E022B17DB96
:101CC000110011D01F46491E01FB00F406EB8404ED
:101CD0004FF0FF3C25688CEA050544F8045BBF1E05
:101CE000022FF7DA0029EDD1264623F001015B1A15
:101CF000012B66DB1100344663D04FF6FF72236878
:101D00005340236004EB8004491EF8D1F0BC7047B7
:101D1000C9070CD51100344607D0276865F31F4763
:101D2000276004EB8004491EF7D1361D5B1E05EBCE
:101D3000054C102B22DB103B110019D01F46491E09
:101D400001FB00F406EB840444F804CB44F804CB14
:101D500044F804CB44F804CB44F804CB44F804CB57
:101D600044F804CB44F804CB103FEDD50029E5D16D
:101D7000264603F1100121F00F03CB1A022B12DBD0
:101D800011000CD01F46491E01FB00F406EB840431
:101D900044F804CBBF1E022FFADA0029F2D12646FE
:101DA00023F001015B1A012B0BDB1100344608D034
:101DB0002268120C55EA0242226004EB8004491E9C
:101DC000F6D1F0BC70478068D0F81CC00CFB021143
:101DD000006820F8113070478068C36903FB021166
:101DE000006830F811007047F8B505460E461746F2
:101DF000FFF7F2FF0446286980688047A968CA692E
:101E000002FB07620968604021F81200F1BD7CB551
:101E10008468256B069C2E0008D0DFF88066366843
:101E20003668019600948069A84773BD0094FFF757
:101E30001CFF73BD80B5009202E080B500930B4695
:101E4000FFF7E5FF01BD2DE9F0479A4685680A9E38
:101E50003368D6F804C0DDF820E0EE6906FB021115
:101E60000EEB0106CEF10807DFF83C869AF8001069
:101E700011F8081041FA0EF9099CDFF82416097CC4
:101E800011F0030106D0022924D037D3032935D01D
:101E9000BDE8F0873846A74288BF204601462A6839
:101EA00002EB46025FEAC97E4CBFE6469E4622F838
:101EB00002EB761C4FEA5909491EF3D13F1A241A46
:101EC00027B91AF8010F10F808900827002CE1D163
:101ED000BDE8F0875FEAC97044BF286820F816C0E3
:101EE000761C7F1E4FEA590904D11AF8010F10F829
:101EF00008900827641EEDD1BDE8F087006980686E
:101F00008047296801EB46015FEAC97202D50A8859
:101F100042400A807F1E4FEA590904D11AF8012F66
:101F200012F808900827641E891C002CECD1BDE82B
:101F3000F0872DE9F04793F80080089C6118099E0E
:101F4000DDF828E0DFF858753F7C17F0030703D071
:101F5000022F47D0BDE8F087C027BEF1000F22D086
:101F6000C4F1030C4FEA4C0CD0F80890D9F81C507F
:101F700005FB0215D9F80090CCF1060A47FA0AFAD7
:101F80000AEA080A2AFA0CFC5EF82CC029F815C0E7
:101F9000491C641C042C04BF002413F8018F761E16
:101FA000DED1BDE8F087C4F1030C4FEA4C0C856824
:101FB000D5F81CE00EFB021E2D68CCF1060947FA8D
:101FC00009F909EA080929FA0CFC25F81EC0491C80
:101FD000641C042C04BF002413F8018F761EE2D188
:101FE000BDE8F087C027BEF1000F21D0C4F1030C7B
:101FF0004FEA4C0CCCF1060547FA05F505EA080551
:1020000035FA0CFC09D08568D5F81C9009FB02193B
:102010002D685EF82CC025F819C0491C641C042CDE
:1020200004BF002413F8018F761EDFD1BDE8F087CE
:10203000C4F1030C4FEA4C05C5F1060E47FA0EFE3B
:102040000EEA080E3EFA05FC09D0D0F808E0DEF8EA
:102050001C5005FB0215DEF800E02EF815C0491CE7
:10206000641C042C04BF002413F8018F761EDFD1FA
:10207000BDE8F0872DE9F04793F80080089C6118CF
:10208000099EDDF828E0DFF818743F7C17F003079D
:1020900003D0022F47D0BDE8F087F027BEF1000F34
:1020A00022D0C4F1010C4FEA8C0CD0F80890D9F87A
:1020B0001C5005FB0215D9F80090CCF1040A47FA30
:1020C0000AFA0AEA080A2AFA0CFC5EF82CC029F877
:1020D00015C0491C641C022C04BF002413F8018F96
:1020E000761EDED1BDE8F087C4F1010C4FEA8C0CFE
:1020F0008568D5F81CE00EFB021E2D68CCF10409A2
:1021000047FA09F909EA080929FA0CFC25F81EC062
:10211000491C641C022C04BF002413F8018F761E96
:10212000E2D1BDE8F087F027BEF1000F21D0C4F165
:10213000010C4FEA8C0CCCF1040547FA05F505EAD1
:10214000080535FA0CFC09D08568D5F81C9009FB08
:1021500002192D685EF82CC025F819C0491C641CB2
:10216000022C04BF002413F8018F761EDFD1BDE8D6
:10217000F087C4F1010C4FEA8C05C5F1040E47FA53
:102180000EFE0EEA080E3EFA05FC09D0D0F808E073
:10219000DEF81C5005FB0215DEF800E02EF815C035
:1021A000491C641C022C04BF002413F8018F761E06
:1021B000DFD1BDE8F08730B4039C002C76D0806876
:1021C000C56905FB0211006800EB41000299B44AA1
:1021D000127C12F0030234D0022A65D030BC704762
:1021E00013F8012B54F8222020F8022B13F8012BAE
:1021F00054F8222020F8022B13F8012B54F8222047
:1022000020F8022B13F8012B54F8222020F8022B7F
:1022100013F8012B54F8222020F8022B13F8012B7D
:1022200054F8222020F8022B13F8012B54F8222016
:1022300020F8022B13F8012B54F8222020F8022B4F
:1022400008390829CCDA04291ADB13F8012B54F8D1
:10225000222020F8022B13F8012B54F8222020F81A
:10226000022B13F8012B54F8222020F8022B13F82C
:10227000012B54F8222020F8022B091F0429E4DA4C
:1022800000291FBF13F8012B54F8222020F8022B3D
:10229000491EF5D130BC70471A7812B154F822208B
:1022A0000280491E5B1C801C0129F5DA30BC704796
:1022B0002DE9F04F83B081468B4614461F460D989A
:1022C0000C9EDDF83880DDF83CA010991091119D2E
:1022D000012808D0022817D0042826D0082835D095
:1022E000102842D054E0012E52DB0295019710983D
:1022F00000905346224659464846FFF7A4FDC24483
:10230000641C761EF1D143E0012E41DB029501975A
:10231000109800905346224659464846FFF709FE5A
:10232000C244641C761EF1D132E0012E30DB0295EE
:102330000197109800905346224659464846FFF7A9
:1023400099FEC244641C761EF1D121E0012E1FDBF0
:10235000019500975346224659464846FFF72BFF02
:10236000C244641C761EF3D112E0012E10DB7F0004
:10237000D9F808003A465146C36903FB04B3006824
:1023800000EB43000EF0E8F8C244641C761EEFD167
:1023900003B0BDE8F08F00008068491E0D2916D8F3
:1023A000DFE801F007090B0D1515150F13111113B7
:1023B0001313C068704700697047406970478069AF
:1023C00070471020704701207047002070474FF081
:1023D000FF307047012901D1344870470020704711
:1023E000F0B4059C80680D46049E5F1A7F1CD0F8EF
:1023F0001CC00CFB02114900D0F800C031F80CC021
:1024000024F802CB7F1E891C002FF5D129461746E0
:102410007A1CB742E9DBF0BC70470000491E222954
:1024200039D8DFE801F0361C181A381E3838121473
:10243000162038222438383826282A3038383838B8
:102440003838383838382C2E320019487047194837
:10245000704719487047194870471948704719481C
:10246000704719487047194870471948704719480C
:1024700070471948704719487047194870471948FC
:102480007047194870471948704700688068C06BEA
:102490007047174870470020704700007C020020FA
:1024A000800400200000FFFFECA50200F89300006C
:1024B000D31B0000FD1B0000231C00007B19000043
:1024C000AD190000C7190000EF190000171A00002D
:1024D0002F1A0000351A00003F1A0000491A0000A8
:1024E000591A00007B1A0000CD1A0000F31A0000F0
:1024F000E1230000000000000000000000000000D8
:1025000000000000000000000000000000000000CB
:1025100000000000000000000000000000000000BB
:102520000000000038B504464FF4807107F0C2FF88
:102530002046FEF7ECF90090856A00A8FEF7F2F954
:10254000A80703D50121204608F004FC31BDF8B5E9
:1025500004460D464FF4807107F0C7FF2046FEF792
:10256000D6F90090866A078E00A8FEF7DBF9022DE7
:1025700004BF384603F0BDFDB00703D52946204609
:1025800008F0E8FBF1BD70B582B004460D46FEF7D9
:10259000BEF90090468E00A8FEF7C4F9E86840B185
:1025A000007A10B1F00508D43DE0F00505D5022110
:1025B00000E003212046FFF7CAFF73BD70B582B06B
:1025C00004460D46FEF7A3F90090468E00A8FEF7DC
:1025D000A9F9E86818B1007A28B9F00503D50321F4
:1025E0002046FFF7B4FF73BD70B582B004460D46B8
:1025F000FEF78DF90090468E00A8FEF793F9E86883
:10260000417A21B9007A68B1F0050BD40BE00129B9
:1026100004BF007A002805D1F00503D50221204629
:10262000FFF795FF73BD2046FFF77CFF73BD56484B
:102630005649016056494160704753485549016009
:1026400000214160704738B505466C682946204630
:1026500007F06CFF00285BD028680B2826D00C28D8
:1026600010D00E2832D00F2812D0112802D02828DE
:1026700045D04AE044484268100049D029462046E7
:10268000904731BD294620463F4A1268904731BDE8
:102690002046FEF73CF90090406E056800A8FEF762
:1026A00041F9280034D02046A84731BD2046FEF726
:1026B0002EF900906830FEF7DEF9032100986C30A7
:1026C000FEF7E6F900A8FEF72DF91EE0E86841687C
:1026D00000680D2802D0202806D010E001290EDB6A
:1026E0002046FFF71FFF05E0012903DB2046FFF727
:1026F00019FF31BD02212046FFF729FF31BDE868EF
:1027000018B90021204600F09EF8284603F063F92E
:1027100031BD2DE9F04F85B081468A4693469846F3
:102720000E9D0F9E119C129F05F03CF907F14C0085
:102730000390194802900196009543465A46514627
:10274000484602F0D7FB050017D0FEF7E0F80490EA
:102750001022214607F0E3FE104C04983430214645
:1027600030220DF0F9FE0498216B416604A8FEF7B3
:10277000D9F82846216B4968884705F00BF92846A7
:1027800005B0BDE8F08F000048010020BD25000025
:10279000E9250000872500004726000014010020DD
:1027A000F0B585B00A9C0B9D0C9E0D9F4FF0000C60
:1027B000CDF810C00397029601950094FFF7A9FF8A
:1027C00005B0F0BDF0B583B004460E4601250CB34C
:1027D00005F0E8F82046FEF79AF80090876E01971A
:1027E00000A8FEF79FF8314601A805F0E1FB78B19B
:1027F00000250198B84208D02046FEF788F80090DE
:102800000199816600A8FEF78DF8204602F070FB62
:1028100005F0C0F8284603B0F0BD38B504000D46F9
:102820000ED005F0BFF82046FEF771F80090456520
:1028300000A8FEF777F8204602F05AFB05F0AAF848
:1028400031BD07F00EBE00294FF4807118BF07F0AC
:1028500031BE07F04ABE00291CBF102107F02ABE76
:10286000102107F042BE70B582B004000D46164636
:1028700011D005F097F82046FEF749F80090A0F82F
:102880005E50A0F8606000A8FEF74CF8204602F009
:102890002FFB05F07FF873BD782308F04BBF78233A
:1028A00008F02ABF034800687047024A11681060A8
:1028B000084670475001002070B584B000AA00237C
:1028C00000241D461E4678C22A220092039100A9C8
:1028D00002F0A7FA04B070BD30B585B000A900229F
:1028E0000023144615463CC12A21009100A902F09C
:1028F00098FA039805B030BD2DE9F84304460E461A
:1029000017465FEA0308089DDDF8249002D103F022
:1029100029F9804600974B462A46414620462768BB
:10292000B84707001DD008F02EF90546618A3846E1
:1029300007F0C0FD384608F0E3FB284608F0E0FB4E
:10294000761E012E14DB1C3400200090002302466A
:1029500029462046D4F800C0E04728B9384602F09E
:102960007EFB0020BDE8F28308F0CAFB761EEAD1A8
:102970001D21284608F0F8F918F1010F1CBF384650
:1029800008F02EFB3846BDE8F28338B504460D4604
:10299000FFF7A2FF10B145600121016005F002F8C8
:1029A000204602F04FFFBDE8314004F0F3BF00B510
:1029B00083B00FF24001D1E90023CDE9002300A943
:1029C000FFF77AFF04E003F0DDFA08B905F027F914
:1029D00000980028F7D0019803B000BD30B583B04F
:1029E000069C079D01950094FFF786FF03B0BDE8A4
:1029F0003040DCE700000000000000002DE9FC4151
:102A00000C4616461D460021009108F0CDFE04EB51
:102A10008007786F05F003FEF86E05F004FE04F100
:102A20005407786903F0D8FC3146204607F0DAFCF9
:102A3000606B10B1FDF76BFF0090D6E90001C5E9AE
:102A4000000128883969491C08182880A888396934
:102A5000401A401EA880DDF82080FB6842462946C7
:102A6000009805F00FF90A9D94F83200C00762D56E
:102A7000787800B901202860009805F0B1F9074680
:102A8000009800285ED00020019004F134060B98D5
:102A900094F8541021B9F169002918BF002829D0F1
:102AA000B169B94233DAF269002A18BF002818D098
:102AB00000202860B4690BE000233A4621460098C4
:102AC00005F07DF903F027F9296840182860641C97
:102AD000B069F16908188442EEDB2868B8B90120B2
:102AE00006E001AB3A46009805F069F903F013F9E6
:102AF00028600CE0DFF800050068012807D1B26902
:102B000039460098DFF8F4341B6898470190099C17
:102B1000D8E90001C4E90001019818B120882968AA
:102B2000401A20803A46B169009805F03CF92188A6
:102B30004018208001E000202860009810B100A813
:102B4000FDF7F0FEBDE8F38130B58FB005460C46C9
:102B5000002005902846FDF7DAFE0490039406A8AD
:102B6000029007A801900BA800900DAB09AA049948
:102B70002846FFF743FF0498406B10B1FDF7C7FEEE
:102B80000590002002F0D7FB18B309A808F08EFAD0
:102B90002CB10BAB0DAA09A9059807F091FE04987A
:102BA00090F83200C0070AD5BDF91C00BDF92230EB
:102BB000069941184A1EBDF91E1003F027FA00209D
:102BC00008F074FA049807F02FFE02F09AFB002830
:102BD000DBD124B100210498C06F08F03BFB04A8AE
:102BE000FDF7A0FE059810B105A8FDF79BFE0FB0FC
:102BF00030BDF0B583B004460D46FDF788FE009069
:102C0000466B408F2D1800A8FDF78CFE29463046F4
:102C100003F0D2FA070014D03EB9FDF778FE019018
:102C20000021017001A8FDF77DFE2046FDF76FFE33
:102C300000904587476300A8FDF774FE012003B0AC
:102C4000F0BD002003B0F0BD7CB50446FDF75FFE8B
:102C50000190456BC66C01A8FDF764FE05B32846DC
:102C6000FDF755FE05460095314604F084FF064603
:102C700028460DF0A3FC86420FD27519284604F0B1
:102C80003DFF411928460DF0ADFC00A8FDF74AFEB6
:102C90000521204608F05EF873BD00A8FDF742FE4E
:102CA00073BD2DE9F04184B004468846FDF72FFE40
:102CB00000900646B6F93800012812DB0027706B39
:102CC00040B1FDF724FE019005F08AF8074601A8FF
:102CD000FDF728FEB6F93800791C8842B8BF0027F6
:102CE00000DB01270098C66C00A8FDF71BFE002F33
:102CF00049D0404604F02AFF074600252046FDF74C
:102D000006FE0290406B40B1FDF701FE01900DF010
:102D100055FC054601A8FDF705FEE819401C02997F
:102D2000498F451A02A8FDF7FDFD012D05DB05F1D0
:102D300010012046FFF75DFF28B32046FDF7E7FDB1
:102D40000090456B00A8FDF7EDFD2846FDF7DFFD7F
:102D500005460395314604F00EFF461930460DF046
:102D60002DFC421C3146B8190DF0F6FB41463046A9
:102D700004F0DCFE03A8FDF7D5FD0521204607F091
:102D8000E9FF012000E0002004B0BDE8F08170B54B
:102D900082B004000D46164634D004F003FE2046EF
:102DA000FDF7B5FD0090C06B3EB1854238BF0546CA
:102DB0000098006CA84209D207E08542B8BF0546DA
:102DC000284600990D6C854200DD05460098806C10
:102DD000A84212D0009885640098C16D08001CBFFD
:102DE00020468847204602F083F800A8FDF79AFDA8
:102DF0000521204607F0AEFF02E000A8FDF792FD96
:102E000004F0C8FD73BD38B504460025606B68B199
:102E1000FDF77DFD05460095E16C04F0ACFE401920
:102E200004F076FE054600A8FDF77CFD284632BD7D
:102E30001CB50C46FDF76BFD0090406B08B3FDF729
:102E400066FD019004F0CCFF009938310B7F5A1ECB
:102E50009241D243002C48BF0024A042D8BF044670
:102E60000098B0F93800B0EBD270A042B8BF044669
:102E70004869A04218BF4C610020886101A8FDF795
:102E800051FD00A8FDF74EFD13BD01227FE77CB583
:102E900004466568284608F087FC06462146284611
:102EA00007F044FB08B320680B2835D00C281DD050
:102EB0000E283AD00F282AD040F21311884211D19F
:102EC000284602F060F900212846FFF73DFE28461B
:102ED000FDF71DFD00900021C06F08F0BBF900A8B0
:102EE000FDF720FD204602F076FD73BDE06860B17D
:102EF000017A41B10168284600F09CF8012128467A
:102F000007F028FFEEE70221F9E70321F7E70121A7
:102F10002846FFF719FE73BD2846FDF7F8FC01901F
:102F20003430FDF7A8FD01A8DAE7002EDAD0E0681A
:102F300041680129D6DB0168092918BF0A29D1D0C7
:102F40000D2918BF1B29CDD0284600F0D3F873BD3A
:102F50002DE9F04F85B005460E4617469846DDF838
:102F60003890DDF83CA0119CDDF84CB004F01AFD5F
:102F70000BF154000390224802904AF480500190D3
:102F8000CDF8009043463A463146284601F0B2FF5C
:102F900005002BD0FDF7BBFC00901022214607F066
:102FA000BEFA009860301749B1E8DC50A0E8DC5068
:102FB0000098012180F85510129800B90820009956
:102FC0000887009800214187009841630098B0F974
:102FD0003800441C00A8FDF7A5FC21462846FFF751
:102FE00008FE18B9284602F03AF8002504F0D2FC91
:102FF000284605B0BDE8F08FB4080020B8080020CE
:103000008F2E000054010020F0B587B00C9C0D9D60
:103010000E9E0F9FDDF840C04FF0000ECDF814E07B
:10302000CDF810C00397029601950094FFF790FF2A
:1030300007B0F0BD2DE9FC4104000D4658D004F066
:10304000B1FC2046FDF763FC0090406B00284AD09D
:10305000FDF75DFC01900098806E03F0BDF980469D
:10306000204607F0CFFD0646019802F09FFF074675
:10307000009890F8600000F00300012808D00228B2
:103080000DD1F01B401C00EBD070A5EB60050EE0ED
:10309000A81B38180099496E0818451C07E00098CD
:1030A000406E281A0099C96A0968401A451E01989D
:1030B00004F096FE0146002D48BF002107D4AF4220
:1030C00005DB0A462946019804F073FE01462046B6
:1030D000FFF7AEFE01A8FDF725FC404603F07CF9A2
:1030E000204601F005FF00A8FDF71CFC04F052FC8F
:1030F000BDE8F3812DE9F04383B05FEA00080E4696
:1031000000F09D8004F04EFC4046FDF700FC00906E
:10311000D0F8589090F85440476BC56C00A8FDF764
:1031200001FC5FEA090003D031464046C84781E010
:10313000082E52D0102E4ED0112E08D0122E75D03F
:10314000132E30D01D2E51D01E2E4BD063E0002FF9
:1031500070D03846FDF7DBFB02900646294604F0A6
:103160000AFD8519284604F0D3FC064601A8002173
:103170000160304604F0EAFC0746761CB0B204F069
:10318000E5FC0446A7420CD1B1B201A804F0CEFC84
:10319000224601A928460DF0DFF90521404607F037
:1031A000D9FD02A834E0002F44D03846FDF7AFFB2C
:1031B00002900646294604F0DEFC8519284604F0F4
:1031C000A7FC064601A800210160304604F0BEFCC1
:1031D0000746761ED2E7691E29E05DB3691E4046A8
:1031E000FFF726FE4046FFF72FFD23E04046FDF7A0
:1031F0008EFB0090012C03D1002180F8541006E0D2
:10320000012180F8541029464046FFF711FE00A81E
:10321000FDF788FB0EE0202E0CDB14B14046FFF7D3
:1032200013FDB1B24046FFF73CFD18B1691C4046A2
:10323000FFF7FEFD404601F05BFE04F0ABFB03B080
:10324000BDE8F08310B582B004000DD004F0AAFBF5
:103250002046FDF75CFB0090846E00A8FDF762FB42
:1032600004F098FB204616BD002016BD38B50400BA
:103270000D460FD004F096FB2046FDF748FB00906A
:1032800018B18566204601F033FE00A8FDF74AFB21
:1032900004F080FB31BD70B582B004460D460026B7
:1032A00084B104F07FFB2046FDF731FB009020B194
:1032B000022D3CBF00EB8500466F00A8FDF732FBF6
:1032C00004F068FB304676BD70B582B004000D4650
:1032D000164613D004F066FB2046FDF718FB00905D
:1032E00038B1022D05D200EB85004667204601F07B
:1032F000FFFD00A8FDF716FB04F04CFB73BD70B595
:1033000082B004460D46002684B104F04BFB2046F3
:10331000FDF7FDFA009020B1022D3CBF00EB8500C7
:10332000C66E00A8FDF7FEFA04F034FB304676BD09
:1033300070B582B004000D46164613D004F032FB7F
:103340002046FDF7E4FA009038B1022D05D200EBDB
:103350008500C666204601F0CBFD00A8FDF7E2FA25
:1033600004F018FB73BD2DE9F04385B08046894613
:103370000024B8F1000F72D004F014FB4046FDF7B2
:10338000C6FA0090466BB0F9387000A8FDF7CAFA8B
:10339000B9F1000F55D04EB13046FDF7B8FA0190A3
:1033A0000DF00CF9441C01A8FDF7BCFA484604F0E6
:1033B00017FD8742C8BF07463946484604F0DBFB85
:1033C000461C341B00254046FDF7A1FA0290406BD5
:1033D00040B1FDF79CFA03900DF0F0F8054603A804
:1033E000FDF7A0FA2819401C0299498F441A02A837
:1033F000FDF798FA012C05DB04F110014046FFF7B8
:10340000F8FB38B34046FDF782FA0090406BFDF7B9
:103410007EFA0190324649460DF09EF80098383009
:103420004761009AB2F93820974201BF027F012A12
:10343000791E416100A8FDF775FA01A8FDF772FA3F
:1034400008E000983430FDF716FB00980021418712
:103450000098C164404601F04BFD04F09BFA05B0B2
:10346000BDE8F0837CB505460C00164618BF002D5C
:1034700027D004F097FA2846FDF749FA019000207A
:1034800020700198406BB8B1FDF741FA009004F04C
:10349000A7FC0146009804F06EFB0546701EA8428A
:1034A000B8BF05462A46009920460DF055F800A8F9
:1034B000FDF738FA0020285501A8FDF733FA04F08B
:1034C00069FA73BD38B5044600255CB104F06AFAA8
:1034D0002046FDF71CFA0090856C00A8FDF722FA43
:1034E00004F058FA284632BD002250E47CB50400AE
:1034F0000D4635D004F056FA2046FDF708FA009044
:10350000468FB0F93800854225D0854213DA0098FD
:10351000406B80B1FDF7FBF9019004F061FC85423E
:1035200006DA2946019804F026FB0199002242544C
:1035300001A8FDF7F7F900A8FDF7F4F9A81B411C55
:103540002046FFF756FB2046FDF7E1F9009005877E
:10355000204601F0CDFC00A8FDF7E4F904F01AFACA
:1035600073BD38B504000D460FD004F01BFA204699
:10357000FDF7CDF9009018B10566204601F0B8FCC2
:1035800000A8FDF7CFF904F005FA31BD802308F05B
:10359000D1B8802308F0B0B838B504460D46FDF721
:1035A000B6F90090B0F87C0000F0080125B169B9C7
:1035B000009940F0080004E041B100994FF6F7721D
:1035C0001040A1F87C00204601F092FC00A8FDF715
:1035D000A9F931BD2DE9F04385B006467568284646
:1035E00007F0F7FA0746FDF792F90090D0F86480EB
:1035F000D0F84890D0F8804000A8FDF793F93068E3
:103600000E282FD00F280BD014281CBF15281728E0
:103610004DD01E2817D01F281FD022283DD03FE0B4
:103620006FF07040814504D0484604F0F8FFFDF784
:10363000ADFB5FEA08003DD001A81ECE1EC002957A
:1036400001A8C04736E0F068A0B3002C18BFAC4218
:1036500015D0204607F030FC2CE03146384606F005
:1036600065FF27E0F0684168012919DB0068092837
:1036700005D00A2814D1284607F0C0FC02E02846ED
:1036800007F0AEFC04463846FDF741F90090C0F85B
:10369000804000A8FDF746F90CE0C6F80C9009E060
:1036A0005FEA080003D077603046C04702E030464A
:1036B00002F091F905B0BDE8F08370B58AB0054617
:1036C0000E46FDF724F90090C06D846800A8FDF750
:1036D00029F901952EB1022E07D004D3032E06D06E
:1036E00007E0182004E0162002E0152000E0172073
:1036F000029001A8616888470AB070BD01460020A9
:1037000091F83220920600D4704780B5B1F9540088
:1037100018B9486B02F054FC801C02BD2DE9F0433F
:1037200083B081460C461546FDF7F1F80190C06D57
:1037300087680198B0F90060B0F9028001A8FDF730
:10374000F1F8002148463A6890470746484607F096
:1037500026FA0AE020688142A4BF481C206000A825
:10376000FDF7E0F8484607F027FA5FEA00091BD0AA
:10377000FDF7CDF80090B0F90000801B0099B1F979
:103780000410891B009AB2F90220A2EB0802BA4287
:10379000E5D1009A92F828201206DBD529688142EB
:1037A000DDDB401E2860DAE703B0BDE8F0832DE9D9
:1037B000F04F87B080460D4600260396FDF7A7F828
:1037C0000090C06D846801214046226890470746FA
:1037D0000321404622689047059002214046226816
:1037E0009047049000214046226890470446009884
:1037F00007F0FCF98146009807F0FDF98246009831
:1038000090F83200800603D50098B0F95800039074
:103810000098FFF773FF83460098C06E10B107F061
:1038200005FA0646A5F800B06E80AF800598A9EBB2
:103830000000401E28810399091959447118E98034
:103840000499AAEB0101491E6981AF812882EC81AC
:103850000BEB0400401E688200A8FDF763F8B5F981
:103860000C000290B5F91000019001AA02A940468F
:10387000FFF754FF0298A8810198288207B0BDE89D
:10388000F08F70B586B00646FDF741F80090846E63
:10389000C56E00A8FDF746F855EA040025D001A939
:1038A0003046FFF784FFACB1BDF90A20BDF908101E
:1038B000204607F020FABDF90E00BDF90A10401AA3
:1038C000421CBDF90C00BDF90810401A411C2046ED
:1038D00007F0C6FB4DB1BDF90A00BDF90610421A4A
:1038E000BDF90810284607F006FA06B070BD2DE9AC
:1038F000F0478CB004460026D4F804804046FDF71B
:1039000006F800905C30C56A476AD0F80C90B0F8B1
:1039100020A00098C06D00B1066800A8FDF702F86D
:1039200006E0204669688847002840F000812D683D
:10393000002DF6D120680B2800F0E7800C283BD042
:103940000D2800F0B6800F2830D011280DD0142893
:1039500066D017286ED01E287DD0202800F0B780B2
:1039600026286AD02A2813D0D9E0E6684046FCF71A
:10397000CEFF0190717A002904BF317A012905D167
:10398000B0F87C1041F48071A0F87C1001A8C4E06C
:103990004046FCF7BCFF0090E168002912BFC0F868
:1039A0008410D0F88400E06000A836E0300000F019
:1039B000B6804046B047B2E0E6684046FCF7A7FF55
:1039C0000190B0F87C7001A8FCF7ACFFE06800281B
:1039D00000F0AD80307AA0B138075CBF404607F0F8
:1039E0006BFA404607F042F807F4C870B0F5887FDC
:1039F00040F09D80002305223146404607F012FA30
:103A000095E04046FCF783FF0190B0F87C104FF63C
:103A1000FF621140A0F87C1001A8FCF783FF86E04C
:103A200006A94046FFF7C3FEE068DDE90723C0E9C9
:103A300000237CE0C4F80C9079E0E068022876D19D
:103A4000CDF81080E06805902720029002A9A068B8
:103A500007F0B6FE6BE0E068012825D1384607F094
:103A60001DF958B1384607F027FA384607F0F6F83E
:103A700088B10121384606F01DFD0CE0484607F0EC
:103A8000AFFA07464046FCF742FF0090C0F880704E
:103A900000A8FCF747FF0121404600F03FF9002F46
:103AA00045D10020E06042E00021404600F036F9B8
:103AB0003DE05FEA0A7032D4E068C06800281CBFAD
:103AC000007A00282BD0404607F0F6F927E0E66898
:103AD0002EB34146706807F061FE20B101214046D7
:103AE000FFF75AFD1BE000214046FFF755FD414618
:103AF000306807F041FE90B14046FCF708FF0190A6
:103B00003168C0F8801001A807E04046FCF7FFFECE
:103B100000907030FCF7AFFF00A8FCF703FF2146D0
:103B2000404606F003FD10B1204601F054FF0CB0F2
:103B3000BDE8F0872DE9F74F8AB09946DDF858A027
:103B4000179D189F199CDDF868801B9EDDF870B0EA
:103B500003F028FF45F480550BF1600003903148D5
:103B600002900195CDF800A04B460C9A0B990A984B
:103B700001F0C0F95FEA00094ED0FCF7C8FE0490DE
:103B80003022214606F0CBFC274C049834302146E5
:103B900028220CF0E1FC04985C3086600784002148
:103BA00041620161C1620498A16AC16504A8FCF781
:103BB000B9FE05A94846FFF7FAFDBDF91800BDF9A1
:103BC0001A1000220392194A029241F28272019263
:103BD000CDF80090BDF91E20521A531CBDF91C20CF
:103BE000121A521C01F086F907464846A16A496834
:103BF00088474846FCF78BFE0490876604A8FCF7CC
:103C000091FE42F20400054204BF484607F05FF807
:103C10004146484600F028F803F0BCFE48460DB087
:103C2000BDE8F08FEF38000070010020D5350000AE
:103C30002DE9F04188B00E9C0F9D109E119FDDF87C
:103C400048C0DDF84CE04FF00008CDF81880CDF802
:103C500014E0CDF810C00397029601950094FFF789
:103C600069FF08B0BDE8F08130B583B004000D46AF
:103C70001DD003F097FE2046FCF749FE0090006F30
:103C8000019000A8FCF74EFE294601A804F090F927
:103C900058B12046FCF73BFE00900199016700A84F
:103CA000FCF740FE204601F023F903F073FE03B059
:103CB00030BD38B504000D4614D003F073FE204625
:103CC000FCF725FE0090B0F95A00A84205D00098F4
:103CD000A0F85A50204601F00BF900A8FCF722FE8C
:103CE00003F058FE31BD38B504000D4615D003F081
:103CF00059FE2046FCF70BFE0090B0F87C10002D1A
:103D000012BF41F010014FF6EF721140A0F87C1085
:103D100000A8FCF707FE03F03DFE31BD38B50400F6
:103D20000D4609D003F03EFE29462046FFF734FC3D
:103D3000BDE8314003F02EBE31BD8C2307F0FABC44
:103D40008C2307F0D9BC70B582B004000D4616462E
:103D500012D003F027FE2046FCF7D9FD0090022D7B
:103D600005D200EB85008663204601F0C1F800A86B
:103D7000FCF7D8FD03F00EFE73BD38B504000D4608
:103D80000FD003F00FFE2046FCF7C1FD0090056444
:103D9000456400A8FCF7C6FD204601F0A9F803F031
:103DA000F9FD31BD70B582B004000D46164612D043
:103DB00003F0F8FD2046FCF7AAFD0090022D05D285
:103DC00000EB85000664204601F092F800A8FCF79D
:103DD000A9FD03F0DFFD73BD38B504000D4613D017
:103DE00003F0E0FD2046FCF792FD0090806CA842B5
:103DF00005D0009885640098806E01F079F800A8DD
:103E0000FCF790FD03F0C6FD31BD2DE9FC410446F1
:103E10000F4603F0C7FD54B32046FCF778FD019030
:103E2000C06D86680198FFF769FC054601984763F5
:103E300001A8FCF777FD012120463268904707462C
:103E40000321204632689047804600212046326890
:103E5000904706462046FFF714FD009643463A4633
:103E60002946204605F0B2FF204601F041F803F054
:103E700091FDBDE8F3812DE9F04383B004460F4680
:103E800000259CB303F08EFD2046FCF740FD019019
:103E9000B0F95450AF4224D0FFF730FC06460198E9
:103EA000A0F854700198C06D8768012120463A68D7
:103EB00090478046032120463A689047814600217A
:103EC00020463A68904707462046FFF7DAFC0097FD
:103ED0004B4642463146204605F078FF204601F029
:103EE00007F801A8FCF71EFD03F054FD284603B0B7
:103EF000BDE8F083806BFCF70ABD2DE9F041044674
:103F00000D461046B4F90410B4F90020891A4F1C6C
:103F1000B4F90610B4F90220891A01F1010802F07F
:103F200045F8064602F038F8E16A096894F840203E
:103F300002F00302012A06D0022A07D1B91B01EBC5
:103F4000D171491002E0BA1B521E511A2980A8EB08
:103F5000000101EBD171491069802988A28F5118A5
:103F600029806A88E38F9A186A807118491EA9808F
:103F700069884018401EE880BDE8F08130B490F8B0
:103F8000682012F00102C36A1B6819BFB0F906402D
:103F9000B0F90250B0F90440855E641B641C456CA6
:103FA000806CA942B8BF29468842D8BF0146002A82
:103FB00014BF411A491BA4EB43025143401B91FB20
:103FC000F0F0C01830BC704738B50446656821462B
:103FD000284606F0ABFAF8B120680B280FD00F285E
:103FE00017D12846FCF793FC0090406E046800A8A7
:103FF000FCF798FC20000FD02846A04731BD28468A
:10400000FCF785FC00903830FCF735FD00A8FCF784
:1040100089FC204601F0DFFC31BD2DE9F14F84B071
:104020000E4617469846DDF83890DDF83CA0109C07
:10403000119DDDF848B003F0B5FC0BF14000039092
:1040400030480290CDF804A0CDF8009043463A469F
:104050003146049800F04EFF06004DD0052001F0D7
:10406000F7FD070048D03046FCF751FC00900022D5
:10407000294606F054FA2449304606F0A1FC234DA7
:104080000098A969416600984C30B5E80E52A0E846
:104090000E52183D00980221A0F8401000984030C0
:1040A0006421816000214160009880F86840009898
:1040B00087633846FCF72BFC0290009A002151637D
:1040C0000190506C01A964234343926C101A93FB36
:1040D000F0F0404201F0AEFD0198252101700198F9
:1040E0000021417002A8FCF71DFC00A8FCF71AFC97
:1040F0003046A9694968884703F04CFC304605B052
:10410000BDE8F08FC93F000010C802009C010020EC
:10411000F0B585B00A9C0B9D0C9E0D9F4FF0000CD6
:10412000CDF810C00397029601950094FFF775FF34
:1041300005B0F0BD70B588B004000D4600F0BB803E
:1041400003F030FC2046FCF7E2FB009000F134065F
:1041500030698542B8BF0546284675698542C8BFA3
:1041600005460098416BA94200F0A08090F86800D5
:10417000C0071DD58D4208DA29460098FFF7FEFEDC
:10418000ADF80A000098416B06E00098FFF7F6FED4
:10419000ADF80A0029460098FFF7F0FEADF80600DA
:1041A0000020ADF8040040F6FF70ADF8080077E09D
:1041B0008D4208DA29460098FFF7E0FEADF80400CA
:1041C0000098416B06E00098FFF7D8FEADF80400B8
:1041D00029460098FFF7D2FEADF808000020ADF8A0
:1041E000060040F6FF70ADF80A00009890F86800ED
:1041F000800755D40FF2D000D0E90023CDE9052384
:104200007068FCF709FC05280EDA0098866B00A898
:10421000FCF788FB0521304601F0CEFF064620461C
:10422000FCF775FB009086630098806BFCF76FFBD2
:104230000390B8B30098C06C02F0CEF80646039A1B
:1042400005A90098FFF759FE05AA01A901A801F0E8
:104250000FFF0398009A55630490506C04A9536BA8
:104260001B1A64256B43926C101A93FBF0F001F05B
:10427000E1FC049825210170049800214170039A03
:1042800005A90098FFF739FE05AA01A901A801F0C8
:10429000EFFE304602F0A0F803A8FCF743FB01E074
:1042A0000098456301A9204600F0DFFD00A8FCF757
:1042B00039FB03F06FFB08B070BD6C2307F03ABA0E
:1042C0006C2307F019BA0000000000000000000095
:1042D00030B585B014461D4682690492B0F90820B5
:1042E0000392428A0292002201920091B0F91030AA
:1042F000B0F90E20B0F90C106918B0F90A002018B6
:10430000FFF78BFE05B030BD2DE9F84F8346CE6830
:10431000002E58D0FCF7FBFA0090D0F84C80D0F873
:104320005090B0F96070B0F93240058D00A8FCF7EC
:10433000F9FA307A002839D0A9EB080A07EBD770D0
:104340004010471C20074CBF70683068C61B584699
:1043500006F071F8A0EB4700012E0DDB8642A8BFE6
:10436000C84609DA00B9012000EBD071491006FBFC
:104370000A11B1FBF0F08044584606F07FFC10B102
:10438000584606F099FD0121584606F00DFD4146BC
:10439000584600F015F9E00515D44FF480715846E1
:1043A00006F088F8A8070ED5012109E0E0050AD536
:1043B0004FF48071584606F098F8A80703D50221FB
:1043C000584606F0C7FCBDE8F18F38B505466C6865
:1043D0002946204606F0AAF860B328680C2811D0B8
:1043E0000E2814D00F2822D12046FCF790FA009016
:1043F000806C056800A8FCF795FA28001AD02046C2
:10440000A84731BD29462046FFF77EFF0FE0E86848
:10441000416801290BDB0068102805D0122804BF71
:10442000204600F090F802E0204600F069F82846A7
:1044300001F0D1FA31BD2DE9F14F84B00E46174697
:104440009846DDF83890DDF83CA0109C119DDDF811
:1044500048B003F0A7FA0BF1380003901D48029012
:104460004AF001000190CDF8009043463A463146AB
:10447000049800F03FFD060025D0FCF748FA0090B4
:104480001022200748BF18222946009806F047F856
:10449000114C00983430AECCAEC0143C0098616929
:1044A00081640098483008210183642181600021E3
:1044B00041604FF0FF31416100A8FCF733FA30460C
:1044C00061694968884703F065FA304605B0BDE880
:1044D000F08F0000CB430000B8010020F0B585B09C
:1044E0000A9C0B9D0C9E0D9F4FF0000CCDF810C048
:1044F0000397029601950094FFF79DFF05B0F0BD6C
:1045000010B582B004001DD003F04CFA2046FCF731
:10451000FEF90090406D0099C96C81420DDA009956
:10452000401E4865204600F0E3FC00A8FCF7FAF9BD
:104530000521204606F00EFC02E000A8FCF7F2F987
:1045400003F028FA13BD10B582B004001DD003F0AB
:1045500029FA2046FCF7DBF90090406D0099096DBF
:1045600088420DDA0099401C4865204600F0C0FCE6
:1045700000A8FCF7D7F90521204606F0EBFB02E086
:1045800000A8FCF7CFF903F005FA13BD38B5040015
:104590000D4614D003F006FA2046FCF7B8F9009057
:1045A000B0F96000A84205D00098A0F860502046FD
:1045B00000F09EFC00A8FCF7B5F903F0EBF931BD63
:1045C00038B504000D4623D003F0ECF92046FCF783
:1045D0009EF90090C06C8542B8BF054628460099F8
:1045E0000D6D8542C8BF0546486DA8420BD04D658C
:1045F000204600F07DFC00A8FCF794F90521204638
:1046000006F0A8FB02E000A8FCF78CF903F0C2F961
:1046100031BD70B582B004000D4616461BD003F0C4
:10462000C1F92046FCF773F90090AE42B8BF2E46A0
:10463000C5640665416DA942B8BF294641658E42F1
:10464000C8BF0E46466500A8FCF76CF9204600F08E
:104650004FFC03F09FF973BD38B504000D4610D030
:10466000002D0ED403F09EF92046FCF750F900907F
:10467000C56500A8FCF756F9204600F039FC03F0A8
:1046800089F931BD642307F055B8642307F034B8C5
:1046900038B5044600255CB103F084F92046FCF7E8
:1046A00036F90090456D00A8FCF73CF903F072F96B
:1046B000284632BD30B585B014461D468269049245
:1046C000B0F908200392428A0292002201920091DE
:1046D000B0F91030B0F90E20B0F90C106918B0F92B
:1046E0000A002018FFF7A7FE05B030BD30B587B02F
:1046F00014461D468269059242680492B0F908206A
:104700000392428A0292022201920091B0F9103083
:10471000B0F90E20B0F90C106918B0F90A00201891
:1047200005F0B0FD07B030BD38B504000D4612D01D
:1047300003F038F92046FCF7EAF80090406BA842F5
:1047400004D000984563204600F0D2FB00A8FCF797
:10475000E9F803F01FF931BD7CB504460E4601258A
:1047600014B303F01FF92046FCF7D1F80090406C19
:10477000019000A8FCF7D6F8314601A803F018FC18
:1047800080B100252046FCF7C2F80090406C0199EA
:1047900088421CBF0098416400A8FCF7C3F820467B
:1047A00000F0A6FB03F0F6F8284676BD38B5040005
:1047B0000D460FD003F0F6F82046FCF7A8F800905D
:1047C000A0F8485000A8FCF7ADF8204600F090FB98
:1047D00003F0E0F831BD38B504000D4612D003F007
:1047E000E1F82046FCF793F80090806BA84204D0D3
:1047F00000988563204600F07BFB00A8FCF792F848
:1048000003F0C8F831BD000070B504460D461646E9
:104810002846FCF774F8806AC0034CBF4FF480430D
:104820002023324629462046BDE87040CDE1F0B550
:1048300083B006460C461546FCF761F80090876A7F
:10484000B80738D5204600F011FA00281EBF40F600
:104850000100384001282ED03046FCF758F800906F
:104860000246214601A803F0E8FA01A800F0FEF98B
:10487000F0B10098806A44F22001084207D001AAF2
:10488000009800F10801083001F0F2FB10E00098F8
:10489000DDE90123C0E902230098806A28430099DA
:1048A0008862DFF8A00C8188491C818003F0B1F98F
:1048B00000A8FCF737F803B0F0BD2022B7E738B501
:1048C00005460C4603E0044600A8FCF72BF82046FA
:1048D000FCF71DF8009090F82800800703D400A88A
:1048E000FCF720F827E00099284603F086FA0098A4
:1048F00080690028E7D100A8FCF714F80020DFF851
:10490000481C51F8042B944203D1002813D40120F1
:1049100032BD401C51F8042B94421EBF401C51F87C
:10492000042B94421EBF401C51F8042B9442ECD03F
:10493000401C1028E5DB002032BD70B586B0DFF8E2
:104940000C5C05F13804207CE0B1A86B28B9DFF8D5
:10495000000C03F0FFFE06B070BDD0E90023CDE9E6
:104960000123DFF8E06B706E00B96068FBF7CFFFE2
:10497000009001A900F0BCF800A8FBF7D3FFDFF816
:10498000D01B26E06068FBF7C2FF0390D0E900234C
:10499000CDE9042303A8FBF7C5FFDFF8A86B716E10
:1049A00011B104A8FFF78BFFA86B08B904A814E0A5
:1049B000D0E90023CDE90123706E00B96068FBF7F0
:1049C000A6FF009001A900F093F800A8FBF7AAFF4A
:1049D00004A901A803F011FA01A803F0BBFE06B078
:1049E00070BD70B584B004460D004CD0FBF78FFF4E
:1049F000009000210162009885612846FBF787FF3F
:104A00000290009890F8280000F008050298C66906
:104A10002EB9C46100A8FBF785FF02A831E030463B
:104A2000FBF775FF01907DB990F8280000070BD5C2
:104A3000009806620298C46100A8FBF773FF02A801
:104A4000FBF770FF01A81CE002A8FBF76BFF01A8B1
:104A5000FBF768FF3046FBF752FF01900198066AAA
:104A60000EB904620CE03046FBF749FF002DF4D18B
:104A700090F828100907F0D50198046200980662A2
:104A800000A8FBF74FFF04B070BD70B50446FBF7FC
:104A900036FF0546A869A0B1FBF731FF0646F1696C
:104AA000A14205D10846FBF72AFF006AF06170BDFC
:104AB00039B10846FBF723FF016AA142F8D1296A00
:104AC000016270BD10B582B00446FBF720FF009074
:104AD000816949B12023026A00F077F82046FFF788
:104AE000D4FF00980021816100A8FBF71BFF13BDD4
:104AF0000B46B0F90220B0F90010184601F0E6BAF2
:104B000010B50446DFF83C0AC06802E0FBF7F7FE88
:104B1000406910B1A042F9D1012010BD10B582B09A
:104B200004001FD0FBF7F3FE009090F828008007E8
:104B300015D50098406A20B103F0C7FE0098002107
:104B40004162204606F02BF8044606E02046FFF7B7
:104B5000E5FF2046FBF7D3FE046A002CF6D100A83F
:104B6000FBF7E0FE13BD70B584B004000D46164699
:104B700029D0FBF7CCFE009090F82800800705D5DF
:104B8000009A294601A803F058F920B900A8FBF7BC
:104B9000C9FE04B070BD00A8FBF7C4FE324601A9EF
:104BA0002046FFF744FE204605F0F9FF044608E0E2
:104BB000324601A92046FFF7D6FF2046FBF79FFEAD
:104BC000046A002CF4D104B070BD2DE9F04184B02A
:104BD00006460F001446984631D03846FBF797FE3C
:104BE0000090856AA80727D5009A314601A803F0EE
:104BF00024F908B340F601002840012807D14346B4
:104C00000098026A816901A8FFF7DFFF04E04246CD
:104C100001A93846FFF70BFE0098C66908E0424636
:104C200001A93046FFF79FFF3046FBF768FE066A92
:104C3000002E18BFA642F2D100A8FBF773FE04B005
:104C4000BDE8F0812023C0E738B50446DFF8F4085A
:104C5000C06850B1FBF753FE05466869A042F8D121
:104C60002046FBF74CFE4069686131BDB0F9041085
:104C7000B0F900209142A2BFB0F90610B0F90200CD
:104C8000814201DA002070470120704770B584B07E
:104C900006460C4615460FE001AA21463046FFF7AE
:104CA000F5FF3046FBF72BFE066A002EF4D1009884
:104CB000066A00A8FBF736FEA6B33046FBF727FED0
:104CC0000090866AB007F2D52DB12A46009901A856
:104CD00003F0B3F804E00098D0E90023CDE9012304
:104CE00001A9204601F097FA0028E0D0F00716D479
:104CF000B4F90600B4F90210009AB2F90220914208
:104D000007DABDF906104A1E8242D0DA481EE0805A
:104D1000CDE7BDF90A108142C9DAE180C7E7009802
:104D2000C669C2E704B070BDF0B583B007460C4653
:104D30001546002611E001AA21463846FFF7F4FF88
:104D400000B101263846FBF7DAFD076A002FF2D1E1
:104D50000098076A00A8FBF7E5FD1FB33846FBF78C
:104D6000D6FD0090876AB807F2D52DB12A46009982
:104D700001A803F062F804E0009AD2E90001CDE94D
:104D8000010101A9204601F046FA0028E0D0F80709
:104D900005D4BDF80800401C20800126D8E7009803
:104DA000C769D3E7304603B0F0BD70B584B006469E
:104DB0000C4615460FE001AA21463046FFF7F5FFE5
:104DC0003046FBF79CFD066A002EF4D10098066A77
:104DD00000A8FBF7A7FD16B33046FBF798FD00903F
:104DE000866AB007F2D52DB12A46009901A803F0D2
:104DF00024F804E00098D0E90023CDE9012301A9BB
:104E0000204601F008FA0028E0D0F00704D4BDF8ED
:104E10000400401EA080D9E70098C669D4E704B01A
:104E200070BD38B504000D4609D002F0BBFD29461F
:104E3000204606F0C5FCBDE8314002F0ABBD31BDF7
:104E400000B585B00190009100A906F0B9FC05B04D
:104E500000BD00224A800A8082880388D21A8A8094
:104E6000C2884088101AC880704770B586B00400A8
:104E70000D463BD002F096FD2046FBF748FD009022
:104E8000866AB0072DD50098D0E90023CDE901232B
:104E9000F00344BF2046FFF741FE5DB1D5E90001B4
:104EA000CDE9030103A90098FFF722FE03A901A899
:104EB00002F0A3FF214601A8FFF701FD88B140F6EB
:104EC00001003040012807D120230098026A81693F
:104ED00001A8FFF77AFE04E0202201A92046FFF78F
:104EE000A6FC00A8FBF71EFD02F054FD06B070BD45
:104EF0000021BAE72DE9F04F83B007468846914676
:104F00009A460D9DDDF83CB002F04CFDDFF8104CE8
:104F1000606D05430C9E3EB9608850B3DFF82C06E7
:104F2000407C04EB8000466916F1010F08BF0026A3
:104F30001FD0F6B13046FBF7EAFC0190B0F9001043
:104F4000CF19B0F902008044B9F1000F05D1019AE0
:104F5000B2F90420511A01F10109BAF1000F05D18B
:104F60000199B1F90610081A00F1010A01A8FBF72E
:104F7000D9FC0BF12C0000F06BFE5FEA000B5AD05D
:104F80006088401C60805846FBF7C1FC0090078099
:104F90000098A0F8028009EB0700401E0099888065
:104FA0000AEB0800401E0099C88000980E99016124
:104FB0000098806ADFF86C1B2940084300998862DA
:104FC00000A8FBF7AFFCE06850B1FBF798FC074680
:104FD0005846FBF794FC79694161C7F814B001E0C9
:104FE000C4F80CB031465846FFF7FBFCA80644BF96
:104FF000584600F0C8F8E80702D5206E401C20662D
:10500000680644BF584605F0E8FCA8070FD5584687
:10501000FBF77DFC0090806A40F0020000998862F6
:1050200000A8FBF77FFC00215846FFF71EFF012177
:105030005846FFF705FF02F0ADFC584603B0BDE847
:10504000F08F70B584B0089C099D0A9E0396029566
:10505000019400240094FFF74DFF04B070BD70B5BB
:1050600082B0040062D002F09DFC2046FFF748FDAC
:10507000002859D00B212046FFF7E2FE204606F01B
:1050800071F82046FBF743FC0090406A08B103F03A
:105090001CFCDFF88C5A0020A866A868DFF8881A84
:1050A00001EB8002136CA34204BF0023136451F888
:1050B0002020A24204BF002241F82020286905E0F8
:1050C0004168A14204BF0021416000680028F7D177
:1050D0000721204605F03EFE009EF069FFF7BFFF66
:1050E000F0690028F9D12046FFF7ECFC2046FFF7D5
:1050F000ABFD0098806AC10702D5296E491E29665A
:10510000800602D5A888401EA88000A8FBF70AFCEC
:105110006888401E68802046FBF78AFCA86805EB7B
:105120008000406900F02FF802F034FC73BD10B528
:105130000446FBF7E4FB80690028F9D1DFF8EC199D
:1051400051F8042B94421EBF401C51F8042B94428A
:105150001EBF401C51F8042B944209D0401C51F84A
:10516000042B944204D0401C1028E9DB4FF0FF30A0
:1051700010BD80B5FFF7DBFF00285CBFBDE8024033
:1051800001F074B801BD70B5044602F00BFCDFF805
:10519000BC53EE6B14B9DFF88809C468EC63204691
:1051A000FFF7E7FF03F0CBF92046FBF7A8FBB0F9C8
:1051B00000102964B0F90200686402F0EBFB30468D
:1051C00070BDDFF86C09C06B704770B584B0DFF854
:1051D0006449D4E90201CDE90001206920B92088A1
:1051E000ADF80000608811E0A089401CADF8000017
:1051F0006089ADF80200B4F90400BDF900108842DE
:1052000006DA2088ADF80000E089401CADF8020005
:10521000B4F90600BDF90210884268DBDFF81059C6
:10522000E86BFBF774FB0290BDF90000B4F90010C5
:10523000884218D1E088ADF80600A088ADF80400D7
:10524000E86B08E0FBF75BFB0646002200A9306A2A
:10525000FFF71CFDB0690028F4D1002200A90298D4
:10526000C069FFF713FDBDF80000ADF80400E86B5E
:105270000AE0FBF744FB0646002200A9306AFFF76C
:1052800053FD0028EFD1B0690028F2D1002200A917
:105290000298C069FFF748FD0028E4D1B4F9040082
:1052A000ADF80400BDF90010884207DADDE900011D
:1052B000C4E9020102A8FBF735FBA2E7E86B08E0AE
:1052C000FBF71DFB0546002200A9286AFFF76DFDCC
:1052D000A8690028F4D1002200A90298C069FFF74C
:1052E00064FD02A8FBF71EFB2069C92802DB002031
:1052F00004B070BDDDE90001C4E90201012004B081
:1053000070BD924890F8480000B9704710B5DFF8BA
:1053100024486069022805DA2069401C2061FFF7F3
:1053200054FF20B96069401E6061002010BDFFF786
:1053300004FB012010BDF0B587B00646834F07F18E
:105340003804207C10B9FFF7F8FA06E0DFF8E457DC
:105350006869401C6861022802DB012007B0F0BDCB
:105360006068FBF7D4FA00904FF0FF302861287E88
:1053700030B3009AD2E90201CDE902011EB13146F3
:1053800002A802F03AFDB86BDFF8946740B30099C9
:105390000191D0E90023CDE90423706E30B101A85A
:1053A000FBF7C0FA706EFBF7B2FA019004A90198FE
:1053B000FFF79EFB04A902A802F01FFD01A810E060
:1053C000009890F82800800703D5009AD2E90001E0
:1053D000D2E76869401E686100A8FBF7A3FA10E0F5
:1053E00000A8FBF79FFA716E19B102A8FFF767FAE0
:1053F00020B1616802A8FFF762FA28B96869401E07
:105400006861002007B0F0BDDDE90201C5E90001D7
:10541000FFF777FF07B0F0BD80B500F0B3FFDFF80E
:1054200010070021816301BD70B588B00446FBF709
:105430006EFA0090866A0569D0E90223CDE901235E
:1054400000A8FBF76FFA95B3B00730D52E212046A0
:1054500005F08AFCDFF8DC56287E401C2876F00434
:105460000BD504940F20039001A80690FFF7D4FFFA
:1054700003A9204606F0A4F912E001A8FFF75BFF9C
:1054800070B104940F20039001A80690FFF7C4FFA9
:1054900003A9204606F094F9FFF733FF0028F0D166
:1054A000287E401E28762F21204605F05DFC08B09E
:1054B00070BD2DE9FC418046244DE86BFBF727FACF
:1054C00001904046FBF723FA00900146019808300E
:1054D00000F0A1FE68B32E6C6F6C019800F1080219
:1054E000009901F1080002F0A8FC01A8FBF71AFAE4
:1054F000144CC4F864800098B0F900002864009847
:10550000B0F90200686400A8FBF70CFA4046FBF70C
:10551000F6F9806AC0034CBFDFF81C16DFF81C16D2
:1055200040468847002060662E646F640120BDE815
:10553000F68101A8FBF7F6F900A8FBF7F3F90020C4
:10554000BDE8F68110070020240700208004002019
:1055500054080020F0B583B00646FBF7D8F9009058
:1055600090F82800800741D50098C7693CE038468C
:10557000FBF7CDF9019090F8280000F00300032814
:105580002DD1009800F10801019800F044FE30B3DD
:105590000098D0E9024500A8FBF7C4F901A8FBF781
:1055A000C1F93846FFF785FF70B13846FBF7A7F918
:1055B00001903846FFF7CEFF3846FBF7A0F901907F
:1055C0003046FBF79CF900903046FBF7A0F90090BD
:1055D0003846FBF79CF901900098C0E90245019814
:1055E000076A01A8FBF79EF9002FC0D100A8FBF7BE
:1055F00099F903B0F0BD2DE9FC410746DFF83065AD
:10560000F06BFBF784F90090D0E90248D6E9022359
:10561000C0E9022300A8FBF785F93F683846FBF78D
:1056200076F90190806A40F60101084001280ED009
:1056300001A8FBF777F93846FBF761F9806AC003E8
:105640004CBFDFF8F414DFF8F41438468847DFF86D
:10565000D004006E20B33846FFF77CFF3846FBF7D6
:105660004EF98769056A19E02846FBF748F990F872
:10567000280000F00300032804BF2846FFF719FFA5
:105680002846FFF767FF2846FBF739F9056A002D22
:10569000EAD13846FBF733F9056A8769002FF6D15E
:1056A000F06BFBF734F90090C0E9024800A8FBF763
:1056B00039F9BDE8F381F1B584B00024FBF727F98F
:1056C0000190D0E90223CDE902230198856A866919
:1056D000076901A8FBF726F944F22000054276D0BD
:1056E000002F5ED0049902A8FFF7E9F8002858D0EF
:1056F0000498FFF748FD68070FD5002E0EBF012064
:1057000005F0010080F001000090002304AADFF8FA
:10571000301402A803F08AFE43E0049C2046FBF705
:10572000F6F80090806A40F60101084001280ED08A
:1057300000A8FBF7F7F82046FBF7E1F8806AC00302
:105740004CBFDFF8F413DFF8F41320468847DFF886
:10575000D003006E20B32046FFF7FCFE2046FBF787
:10576000CEF88469056A19E02846FBF7C8F890F876
:10577000280000F00300032804BF2846FFF799FE25
:105780002846FFF7E7FE2846FBF7B9F8056A002D23
:10579000EAD12046FBF7B3F8056A8469002CF6D1FC
:1057A00001240498FBF7B3F80190816ADFF8942391
:1057B000114081628A0444BF41F00401816201A862
:1057C000FBF7B0F8DFF858038188491E8180204636
:1057D00005B0F0BD2DE9F043B9B00124D04DAE6E57
:1057E00006B9EE6800A800F033FDD14FD7F830803D
:1057F000D7F834904EB90CE03046FFF75CFF00B1AB
:10580000641E3046FBF77BF84669002E18BF002C5B
:10581000F2D1AE66404600F0AAFD484600F09FFD7A
:10582000402207F14C0113A80AF096FE402207F12E
:105830008C0123A80AF090FE00A800F00DFD39B0FD
:10584000BDE8F08380B5FBF75AF8816A41F4004166
:105850008162B3480121C16601BD2DE9F04182B0EA
:10586000002502F09FF8B24CAD4E00E00125F06E2D
:10587000F0B102F097F8F76807E0B846074600A8CD
:10588000FBF750F84046FFF7EAFB6FB13846FBF7ED
:105890003EF8009040690099896A0904EDD40746F2
:1058A00000A8FBF73FF8F0E70020F06602F072F87E
:1058B000B06D010018BF8047A3480068010002D006
:1058C00080470028D2D194F8480080B100F044FC11
:1058D0000028CBD194F8480000281CBFB0880028CD
:1058E00005D00127F06D20B10068804704E0002753
:1058F00002E0012002F02AFB02F04CF800E0012552
:1059000094F8480050B1B08840B102F04BF8FFF76E
:1059100061FF02F03FF8B0880028F0D102F042F8B1
:1059200037B1F06D10B14068804701E002F00EFB26
:1059300002F030F82846BDE8F68110B5044620682C
:105940000E2802D00F2809D02EE0E0684168012916
:105950002ED10068BDE8104000F0CBBB606800218C
:10596000724A52F8043B98421EBF491C52F8043B4D
:1059700098421EBF491C52F8043B984209D0491C6A
:1059800052F8043B984204D0491C1029E9DB4FF03F
:10599000FF316E4850F821006FF07041884203D00B
:1059A00000F0DDFCFBF7F2F92046BDE8104012E004
:1059B00010BD5F48012180F84810704780B55C48F1
:1059C000002180F8481001F0EDFF02F0B8FDBDE8BD
:1059D000014001F0DFBF10B50446606821680E2960
:1059E0000FD0142906D0172909D022290ED0282932
:1059F0000FD002E0E16805F08FF80020E060E06081
:105A000010BD2146BDE8104005F0BBB96FF07040F5
:105A1000F5E70021BDE81040FFF727BA10B4404871
:105A200000210170C16601613F4901F14002042378
:105A3000002442F8044B41F8044B42F8044B41F86F
:105A4000044B42F8044B41F8044B42F8044B41F834
:105A5000044B5B1EEDD1046644664465C46510BC0E
:105A600070472DE9F04F85B02D4C2078002853D198
:105A7000E060A066DFF8B880C8F83800A0806080D9
:105A8000002604F11407314D6FF0704940F6FF7A9B
:105A9000DFF8BCB03046FBF777FBA0B100200390E5
:105AA000CDF808B0022001904FF0FF30009053462F
:105AB000524600210020FFF71DFA3860C5F800901B
:105AC0000021FFF7D2F9761C2D1D3F1D102EE1DBC2
:105AD000204E214F214D4FF01009304605F004F8BB
