:020000040000FA
:1000000098A00010F90000000101000003010000A9
:1000100005010000070100000901000000000000C8
:100020000000000000000000000000000B010000C4
:100030000D010000000000000F010000151300007A
:100040001301000013010000130100001301000060
:100050001301000013010000130100001301000050
:100060001301000013010000130100001301000040
:100070001301000000000000130100001301000044
:100080001301000013010000130100001301000020
:100090001301000013010000130100001301000010
:1000A0001301000013010000130100001301000000
:1000B00013010000130100001301000013010000F0
:1000C00013010000130100001301000013010000E0
:1000D00013010000130100001301000013010000D0
:1000E00013010000DFF80CD000F01CFB00480047B3
:1000F000F923000098A000100648804706480047F2
:10010000FEE7FEE7FEE7FEE7FEE7FEE7FEE7FEE7C7
:10011000FEE7FEE739130000E50000002DE9F05F7F
:100120000546002092469B46884606468146402466
:100130001BE0284641464746224600F010FA534647
:100140005A46C01A914110D311461846224600F073
:10015000F7F92D1A67EB01084F46224601200021CE
:1001600000F0EEF917EB00094E41201EA4F1010446
:10017000DFDC484631462A464346BDE8F09F40EA68
:1001800001039B0703D009E008C9121F08C0042A15
:10019000FAD203E011F8013B00F8013B521EF9D2FC
:1001A00070472DE9FE4F804681EA0300C00F0C46E0
:1001B000009021F0004123F00045B8EB0200A94176
:1001C00005D24046214690461C460B46024623F087
:1001D0000040104304D14046214603B0BDE8F08FF3
:1001E000270DC7F30A00C3F30A510290401A019089
:1001F000402866DAC3F3130040F4801B009892464F
:1002000020B10023D2EB030A63EB0B0B0198594694
:10021000C0F14002504600F093F906460D465046A4
:100220005946019A00F0ABF910EB08006141002437
:1002300087EA115284EAE7731A433BD0009A3AB333
:10024000019A012A4FEA075210DC001B61EB020100
:100250004FF0004202EA0752CDE90042001C41F58E
:10026000801132462B4600F0DFF9B6E7001B61EB48
:100270000201001C41F5801300185B412018A2F513
:10028000001747EB030140EAD570B6196D4111E044
:100290006D084FEA360645EAC0754FEA0752001B63
:1002A00061EB0201001C41F5801149084FEA300062
:1002B0000019514132462B4603B0BDE8F04F00F023
:1002C000A6B90098012240000023D0EB020263EBA4
:1002D000E073009821464FEAE074B8EB000061EB50
:1002E0000401E9E783F000435BE781F0004158E750
:1002F00096230022114600F05DB97047FFFFFFFF13
:100300002DE9FE4F81EA030404F0004421F000418E
:1003100000944FF0000B23F0004350EA010402D098
:1003200052EA030404D10020014603B0BDE8F08F77
:10033000C3F30A54C1F30A552C44A4F2F3340194D4
:10034000A0FB0254C1F3130141F48011C3F3130362
:1003500043F4801301FB024400FB034E840A970A16
:1003600044EA815447EA8357A4FB076802958D0A43
:1003700005FB07854FEA932C04FB0C542705029DCF
:100380004FEA065847EA1637B5EB08056EEB070C3F
:10039000870E920E47EA811742EA8312A7FB0201F9
:1003A000B6EB0B0164EB00042B0D43EA0C335E1833
:1003B00044EB1C50DA465146E7FB0201C5F3130437
:1003C0004FEA0B3343EA14534FEA0432019C43EAE9
:1003D0000603A4F10C040294009CCDE900B400F0E3
:1003E00023F9A2E72DE9F04D81EA030404F0004B64
:1003F00021F0004514464FF0000A23F0004150EA76
:10040000050220D054EA01021DD0C5F30A57024666
:10041000C5F31303C1F31300C1F30A5640F480156A
:1004200043F48013A7EB0608101BD64608F2FD38EC
:1004300073EB050002D308F1010801E092185B415B
:10044000B8F1000F03DA00200146BDE8F08D00206E
:100450004FF48011064684460EE0171B73EB050728
:1004600005D3121B63EB050306434CEA010C490854
:100470004FEA300092185B4150EA0107EDD152EA91
:10048000030012D082EA040083EA0501084303D185
:1004900000224FF0004308E0101BAB4102D20122C2
:1004A000002302E06FF0010253101AEB06004CEB40
:1004B000085110EB0A0041EB0B01BDE8F04D00F0D4
:1004C000A6B870B5C1F30A5201F000450024C1F38B
:1004D000130140F2FF3341F480119A4201DA002007
:1004E00070BD40F233439A42A2F2334203DC5242DF
:1004F00000F035F800E090402C43F1D0404270BD50
:10050000002801DBC0F10040002901DBC1F10041FE
:100510008842704730B50B46014600202022012456
:1005200009E021FA02F59D4205D303FA02F5491BC1
:1005300004FA02F52844151EA2F10102F1DC30BDD7
:10054000202A04DB203A00FA02F100207047914093
:10055000C2F1200320FA03F3194390407047202A88
:1005600004DB203A21FA02F00021704721FA02F35D
:10057000D040C2F120029140084319467047202A1A
:1005800006DBCB17203A41FA02F043EAE07306E0BB
:1005900041FA02F3D040C2F12002914008431946CB
:1005A00070470029A8BF7047401C490008BF20F0D1
:1005B0000100704710B4B0FA80FC00FA0CF050EA69
:1005C000010404BF10BC704749B1CCF1200421FAEA
:1005D00004F411FA0CF118BF012121430843A3EBE5
:1005E0000C01CB1D0106000A002BBEBF002010BC71
:1005F000704700EBC35010440029A4BF10BC7047E3
:10060000401C490008BF20F0010010BC704710B525
:10061000002B08DA401C41F1000192185B411A439B
:1006200001D120F0010010BD2DE9F04D92469B460E
:1006300011B1B1FA81F202E0B0FA80F220329046B4
:10064000FFF77EFF04460F4640EA0A0041EA0B012D
:1006500053465A46084303D120463946BDE8F08D3B
:10066000114653EA010015D0C8F140025046FFF789
:1006700076FF05460E46504659464246FFF760FF54
:10068000084301D0012000E00020054346EAE0765F
:100690002C4337430A984FEA4453A0EB08004FEA33
:1006A000D4240A304FF0000244EA47544FEAD725D9
:1006B00002D500200146D1E7010510196941DDE9A5
:1006C000084500196941BDE8F04DA0E7C1F30A52A1
:1006D000C1F3130140F2FF3341F480119A4202DA70
:1006E00000200146704740F233439A42A2F233425F
:1006F00002DC5242FFF733BFFFF722BF30B50029BB
:1007000004DB4FF00044404264EB0101002B04DBAA
:100710004FF00044524264EB0303994208BF9042F9
:1007200030BD0000064C074D06E0E06840F00103D4
:1007300094E8070098471034AC42F6D3FFF7D6FC94
:100740003C2A00005C2A000082B02DE9FF1FEFF375
:10075000038001B4684600F1400000E901400C4804
:100760000168C1F800D00B48D0F800D001BC80F37C
:100770000388BDE8FF1F01B000BD0648D0F800D0D7
:1007800001BC80F30388BDE8FF1F01B000BD00007D
:10079000200000101C000010012907D1084A12682F
:1007A00042EA0002074BC3F8C42007E031B9044A0B
:1007B000126822EA0002034BC3F8C420704700000D
:1007C000C4C00F4000C00F40014631B1012907D01D
:1007D000022908D003290CD108E0074800687047B7
:1007E00006480068FBE706480068F8E70548006827
:1007F000F5E700BFFEE70000000000100400001055
:10080000080000100C0000100FB42DE9F04186B074
:10081000002501260027B00200F03CFB04464048BA
:100820000078FF2801D1012000E000203C49097830
:100830003C4A1278914201D1012100E00021084395
:1008400068D00DA805902046059A0C9901F05CF936
:10085000002005900DA8059069460C9800F08CFAD0
:1008600006462AE02846691CCDB21DF80000012882
:1008700004D0022806D003281AD115E0059880C8B4
:10088000059019E00598C01D20F007000590D0E9FB
:100890000021DDF814C00CF1080C1046CDF814C08E
:1008A000FFF70FFE074607E0059880C8059003E0B4
:1008B000059880C8059000BF00BF3000A6F1010672
:1008C000D0D1059880C80590002005901648007882
:1008D000FF2801D1012000E0002013490978B94226
:1008E00001DB012100E00021084310D021460FA0C8
:1008F00000F0EFFC0E48006848B1204600F07CFA9A
:1009000000F0FF0841462046094A126890472046F9
:1009100000F09AFA06B0BDE8F0015DF814FB0000A3
:100920004C0000102C0000104E0000100D0A0000BA
:100930005000001010B50020154908704FF4A07049
:1009400000F0A8FA1349086000241DE000201149B6
:10095000096801EB4411486103200E49096801EB65
:100960004411087200200B49096801EB4411086129
:100970000849096801EB4411C8600649096801EBA0
:1009800044118861601CC4B20A2CDFDB10BD00007A
:10099000440000104800001070B50446002510788F
:1009A00020B116782068B0FBF6F085B220680844C4
:1009B00020601078984203DA1078401C107002E032
:1009C0002068401B206016782068B0FBF6F080B2EB
:1009D00070BD70B5064600250DE0002406E03246E5
:1009E0002946204600F046F9601C84B2B4F5F07F39
:1009F000F5DB681C85B2B5F5887FEEDB70BD0000C5
:100A000010B505220C21022000F06AFA0722062107
:100A1000022000F065FA07221146022000F060FA79
:100A200007220821022000F05BFA07220921022098
:100A300000F056FA07221421012000F051FA072293
:100A40001521012000F04CFA07221621012000F0A8
:100A500047FA07221721012000F042FA0722182145
:100A6000012000F03DFA07221921012000F038FA98
:100A700007220D21022000F033FA07221A2101205B
:100A800000F02EFA07221B21012000F029FA07228C
:100A90001C21012000F024FA07221D21012000F072
:100AA0001FFA07220221084600F01AFA0722002145
:100AB000022000F015FA07220521022000F010FAAA
:100AC00007220321022000F00BFA07220421022052
:100AD00000F006FA01220221084600F0F7F8022190
:100AE000084600F007F901210846FFF755FE3C488B
:100AF000006820F001003A49086000203949886107
:100B00000846806920F00E0088610846806940F040
:100B10000C0088610846806940F020008861084622
:100B2000806940F48070886100202F4908602F4858
:100B300000F06EF92B49896808432A498860084605
:100B4000806888600846806840F4006088600846D5
:100B5000806840F480508860084680688860084655
:100B60008068234908431F498860002008600846C0
:100B7000006840F0740008600846006840F498502F
:100B800008600846006840F4803008600846006845
:100B900040F080700860002048600846406840F2DD
:100BA0000F1108430F4948600846406840F4605000
:100BB00048600846406840F4003048600846406895
:100BC00040F0007048600B4808614861002404E070
:100BD0000021094840F82410641C802CF8D310BD73
:100BE000008C082000800820B8C10F4000127A0055
:100BF0000000DF01000010A00082082008B5B0B19D
:100C00001649896941F00101144A916142F210715B
:100C1000009102E00099491E009100990029F9D144
:100C20000E49896941F400610C4A916115E00B4954
:100C3000896921F40061094A916142F210710091C1
:100C400002E00099491E009100990029F9D1034959
:100C5000896921F00101014A916108BD00800820E5
:100C600010B50020FFF7CAFFFFF7CAFE0120FFF70B
:100C7000C5FF10BD10B5044BC1EB011400EB4414CB
:100C800023F8142010BD0000000010A00146002031
:100C9000062915D2DFE801F00305080B0E110A48FA
:100CA0000FE0094820300CE00748403009E00648D2
:100CB000603006E00448803003E00348A03000E0E4
:100CC00000BF00BF70470000008009202DE9F041FF
:100CD00007460D4616463846FFF7D8FF04463CB196
:100CE0001EB120682843206002E02068A8432060ED
:100CF000BDE8F08170B506460C463046FFF7C6FFEA
:100D0000054605B1AC6170BD2DE9F84305460E46B8
:100D100014469846DDF8209000BF14F8017B434646
:100D20003A4631462846CDF8009000F05BF9B5F51B
:100D3000EC7F03DA05F1080085B208E0FF2E04DC41
:100D4000002506F1100086B201E00025002620787B
:100D50000028E2D1BDE8F88370B505460C46A4F141
:100D60002000044A02EB001110222846FFF707FA80
:100D700070BD000014240000F0B504460A460023AC
:100D800000200025214633E00E78252E02D10125D2
:100D9000461CB0B2012D2AD10E78642E06D1AC4685
:100DA0001E465F1CBBB202F806C000250E78662EF8
:100DB00007D14FF0020C1E465F1CBBB202F806C002
:100DC00000250E78732E07D14FF0030C1E465F1CD2
:100DD000BBB202F806C000250E78632E07D14FF093
:100DE000040C1E465F1CBBB202F806C00025491C5D
:100DF0000E78002EC8D1F0BD10B5014600200A467D
:100E000001E0431C98B212F8014B002CF9D110BD3F
:100E100010B50246012100E0491C0A4B1B68B3FBD8
:100E2000F1F3934201D93F29F6D9012902D84FF0B5
:100E3000806005E001F01F03C1F3441443EAC4607D
:100E400010BD00000000001002460A4B1868002187
:100E500006E0A2F10803834200D107E001460068E2
:100E60000368002BF5D101B10B60704703680B607C
:100E700000BFFAE740000010054908600021044A5D
:100E8000126811600821024A126851607047000020
:100E90004000001010B503461048016803F1080037
:100EA00083B20FE00868401A4C68001B984208D3D0
:100EB000486842185360086810600A6002F1080030
:100EC00010BD096808680028ECD148684218002065
:100ED000106053600A6002F10800F1E74000001062
:100EE0002DE9F04106460F461546002439463046A6
:100EF00000F01AF88046B8F1050F02D10948BDE8A4
:100F0000F0813946304600F061F80446206820F050
:100F10000700206005F007012068084320600020DA
:100F2000EDE700000100001002460520062A4AD223
:100F3000DFE802F0032F393A3B3D062907DD0A2995
:100F400001DB0B2903DD0E2903DB162901DC002060
:100F50001EE00C2905D00D2903D0172903DB1A291F
:100F600001DC012014E01D2903D01E2901D01F2916
:100F700001D102200CE01B2901D01C2901D1032042
:100F800006E0072903D0082901D0092900D104204F
:100F90001AE01D2901DC002004E01E2901D01F29D0
:100FA00000D1012010E000BF00BF00200CE00129AB
:100FB00001DD042901D1002004E0022901D0032928
:100FC00000D1032000E000BF00BF704710B502460B
:100FD000002001EB4213024C04EB830010BD000023
:100FE00000C002402DE9FF5F06460F469046994635
:100FF000DDF838B041466846FFF7AEFE00241FE03A
:101000001DF804A0002517E0C5F107004AFA00F01A
:1010100010F0010F07D03A1991B2721990B24A46F6
:10102000FFF728FE06E03A1991B2721990B25A46BB
:10103000FFF720FE681C85B2082DE5DB601C84B23A
:10104000102CDDDBBDE8FF9F1CB501221021022022
:10105000FFF746FF012211210220FFF741FF012285
:1010600012210220FFF73CFF012214210220FFF78A
:1010700037FF012218210220FFF732FF01221C2135
:101080000220FFF72DFF01221D210220FFF728FF7C
:10109000012219210420FFF723FF0020019008E01E
:1010A0000198C1B201220320FFF71AFF0198401CEA
:1010B000019001981028F3D30020019008E00198D6
:1010C000C1B201220420FFF70BFF0198401C0190E0
:1010D00001980F28F3D34748006840F40060464960
:1010E000C1F8C4000846D0F8DC0140F00800C1F89F
:1010F000DC010846D0F8DC0140F40060C1F8DC01F6
:101100000846D0F8DC0140F400203C4908604FF06C
:1011100001003B49086088624FF00000C1F80401FB
:101120000846D0F8040140F44070C1F804010846B4
:10113000D0F8040140F00300324908604FF003008A
:101140002F4908634FF0060048634FF00900886399
:101150004FF00100C8634FF0060008644FF0030031
:1011600048644FF008008864C8644FF009000865BF
:101170004FF0020048654FF0030088654FF4D060DF
:101180002149086040F283101D49086241F27070E5
:10119000019002E00198401E019001980028F9D1C9
:1011A00040F203101649086202204862C001019013
:1011B00002E00198401E019001980028F9D13A20E0
:1011C0000F494862832008621048006800900020A0
:1011D00008620D48006840F40020C1F800010C4886
:1011E000019002E00198401E019001980028F9D179
:1011F0001CBD0000C4C00F4000C00F40DCC10F4048
:1012000000C0092004C1092000C10920003003A04A
:10121000A08601004FF0E020006920F480304FF0FC
:10122000E02108617047012808D14FF0E0210969E9
:1012300041F001014FF0E022116107E04FF0E021A1
:10124000096921F001014FF0E02211617047012886
:1012500008D14FF0E021096941F002014FF0E0228E
:10126000116107E04FF0E021096921F002014FF020
:10127000E022116170472DE9F04104460020FFF79C
:10128000A3FA05464FF47A70B5FBF0F04FF0807189
:10129000B1FBF0F73846FFF72BF806462046FFF77C
:1012A00027F807463146FFF72BF901D200BFFEE7CA
:1012B0004FF0E020006940F004004FF0E0210861A9
:1012C0004FF47A70B5FBF0F06043401E4861BDE812
:1012D000F0812DE9F04106460D462C46374628465A
:1012E000FFF78AFD04443046FFF786FD804618F17B
:1012F000010001D1BDE8F08103E017F8010B04F80B
:10130000010B5FEA0800A8F10108F6D104F8010B0F
:1013100000BFEFE710B5FFF77DFF00F0AFF910BD9C
:1013200010B50120FFF7A7FF0120FFF790FF012074
:10133000FFF779FF10BD000021202C49086000BF95
:101340002A48006810F0400FFAD0012028490860B0
:101350004FF009002749C1F884004FF001002649E9
:1013600008604FF0AA00254908604FF0550008605A
:1013700000BF2348006810F4806FFAD02320214971
:1013800008604FF001001B49C1F8A0004FF0AA000F
:101390001D4908604FF055001649C1F8AC0000BF68
:1013A0001A48006810F4806FFAD040F20110184912
:1013B000086040F201200F49C1F808014FF0010018
:1013C000144908604FF0020013490860134814499B
:1013D00008604FF480701349086045F23A000549EF
:1013E00008604FF00000104908607047A0C10F402E
:1013F0000CC10F4000C00F4080C00F408CC00F4098
:1014000088C00F40A4C00F40ACC00F40A8C00F4020
:1014100004C10F4000C10F40A8C10F40DE8728045F
:10142000C4C00F40C8C10F4008ED00E008B5FFF789
:101430000BFEFFF715FC0020FFF7CBFA4FF47A7094
:1014400000F0DEF94FF6FF70FFF7C3FA4FF47A7041
:1014500000F0D6F94FF47840FFF7BBFA4FF47A70FA
:1014600000F0CEF94FF4FC60FFF7B3FA4FF47A7056
:1014700000F0C6F91F20FFF7ACFA4FF47A7000F0C5
:10148000BFF91F204FF6FF7309A280210090B420FE
:10149000FFF73AFC1F204FF6FF730BA2902100903C
:1014A000AC20FFF731FC02E0642000F0A9F9FBE773
:1014B000687474703A2F2F7777772E7472746F7305
:1014C0002E636F6D00000000456D626564656420E9
:1014D00053797374656D20446576656C6F706D65C6
:1014E0006E74000002E0642000F08AF9FBE700005F
:1014F00010B510480078132804D00F480078401C1D
:101500000D4908700D480078401C0C4908700846C9
:10151000007864280DDD002008701423084A06486E
:1015200001780848FFF738FA074908700020024997
:10153000087010BD2C0000101800001010000010E2
:1015400011000010140000102400001010B54FF41A
:101550007070FFF79FFC1E49086002201D4948700B
:1015600000204860002428E0012004EB4401184AD0
:10157000126802EB01110881002004EB4401144AB7
:10158000126802EB01118861002104EB4400104A4B
:10159000126802EB00100160002004EB44010C4AC9
:1015A000126802EB0111C86104EB4401084A126899
:1015B00002EB01110884601CC4B2142CD4DB13208C
:1015C000054908700020054908600549086010BDFC
:1015D00034000010240000102C000010380000100F
:1015E0003C00001070B50446FFF7B0FF04E094E83B
:1015F0000F0000F0D3F8103420680028F7D100F075
:1016000025F870BD04E0642000F0FAF800F002F85C
:10161000F9E7000010B50C48046804B910BD0EE0ED
:101620002468A07A10F0010F09D0A07A10F0020F00
:1016300005D0E0688047A07A20F00200A072206800
:101640000028EDD100BFE9E73C00001008B5FFF726
:1016500067FE4FF4FA6005A30022074900901320AB
:1016600000F034F8132000F0B9F908BD5461736B31
:10167000526F6F74000000000516000010B5FFF7F0
:1016800037FF00F0E9F808484078402805D10321E9
:1016900006A0FFF7B9F8FEF730FE0B48006808B166
:1016A00000F008FA10BD0000240000105461736BB4
:1016B0002054696D654F75742057696C6C20544FC8
:1016C00053205265736574003C0000102DE9F0470B
:1016D00004460D4691461F46DDF820800DB9BDE851
:1016E000F08704EB44002C49096801EB00100089E5
:1016F000012800D0F3E704EB44002749096801EB17
:101700000010008C98B91FFA88F0FFF7C3FB06465B
:1017100004EB4401204A126802EB0111A1F8208079
:1017200004EB44011C4A126802EB0111CE6104EB88
:101730004402194B1B6803EB0212118C04EB4402A8
:10174000154B1B6803EB0212D06900F0A9F9824621
:10175000022104EB4400104A126802EB00100181E0
:1017600004EB44000C49096801EB0010456004EBF0
:1017700044000949096801EB0010C7624A4629463E
:10178000504600F0F3F804EB4401034A126802EB00
:101790000111086000BFA2E7340000102DE9F843F2
:1017A00005460E461746984600241AE004EB44000E
:1017B0001249096801EB0010008900B912E004EB3E
:1017C00044000E49096801EB00100089012800D18E
:1017D00008E0601C80B20446142802DB0020BDE84B
:1017E000F883E3E700BFE0B23B4632462946CDF836
:1017F0000080FFF76BFF0120F1E7000034000010CC
:1018000010B504461148407801281ED00020104928
:10181000097801EB41010F4A126802EB011188615E
:101820000B48007800EB40000A49096801EB001002
:10183000446110210648007800EB4000054A126818
:1018400002EB0010018100F0DBF810BD2400001055
:101850002C00001034000010002056E000EB400186
:101860002B4A126802EB01110989022902D01029C2
:1018700047D11DE000EB4001254A126802EB01113F
:101880008969491C00EB4002214B1B6803EB0212E3
:10189000916100EB40011E4A126802EB0111896957
:1018A00044F62062914202D940211A4A517029E03F
:1018B000002100EB4002164B1B6803EB0212916102
:1018C00000EB4001124A126802EB0111496941B96B
:1018D000022100EB40020E4B1B6803EB0212118148
:1018E0000EE000EB40010A4A126802EB011149695F
:1018F000491E00EB4002064B1B6803EB02125161CC
:1019000000E000BF00BF411CC8B21428A6DB70472E
:10191000340000102400001010B504460F48007871
:10192000A04200D110BD0D48007800EB40000C49EA
:10193000096801EB00100B49086008480470007842
:1019400000EB40000649096801EB001000680649F9
:101950000860FEF7F9FE00BFE4E700002C0000106D
:1019600034000010200000101C00001030B50346A9
:101970001846041F20462160041F204623600025CE
:10198000041F20462560041F20462560041F2046B2
:101990002560041F20462560041F20462560041F83
:1019A00020462560041F20462560041F2046256030
:1019B000041F20462560041F20462560041F204682
:1019C0002560041F20462560041F204622604FF03A
:1019D0008075041F2046256030BD000010B5044608
:1019E00004EB44000449096801EB00100068034956
:1019F0000860FEF7C2FE10BD340000101C0000108D
:101A000010B5022123480068A0F8981300243DE097
:101A100004EB44001F49096801EB0010008902280B
:101A200002D020282ED107E01B480078A04202D027
:101A30002046FFF771FF10BD04EB4400154909680B
:101A400001EB001090F822001449096801EB4010E6
:101A5000007A012815D1102004EB44010D4A1268C8
:101A600002EB01110881032004EB4401094A1268CA
:101A700002EB011191F82210084A126802EB4111A1
:101A8000087200E000BF00BF601CC4B2142CBFDBB2
:101A900000BFD0E7340000102C00001048000010F8
:101AA0000246501820F00303A3F1300020F0070095
:101AB0007047000010B51348006800B910BD114808
:101AC0000068E0B10F480068807A10F0010F16D06E
:101AD0000C48006800890B4909688988884207DB3F
:101AE00008490968C86880470020064909680881D4
:101AF000044800680089401C02490968088100BF49
:101B0000DCE700003C00001037B514460846064BE1
:101B10006A46214600F0C8F804466946002000F0F5
:101B200066FC20463EBD0000EF23000002E008C82E
:101B3000121F08C1002AFAD170477047002001E047
:101B400001C1121F002AFBD1704700002DE9FF5F81
:101B5000DDE90220010DDDF838B0024310D10F9805
:101B600001244CA2012808D0002100980F9BC0E955
:101B70000021C0E90243BDE8FF9F6FEA0B01F4E7D3
:101B8000A1F2FF3144F6105041430D140F98012883
:101B90000ED0A5EB0B00401C4FF000043E4EDFF8CA
:101BA000FC90B0F1000AA04605DACAF1000717E080
:101BB000CBF10000F0E7074612E0F80707D0224615
:101BC000334640464946FEF79BFB804689462246FF
:101BD000334610461946FEF793FB04460E467F1027
:101BE000002FEAD1DDE90201BAF1000F42464B466F
:101BF00002DAFEF785FB01E0FEF7F4FB04460E4631
:101C00000022274BFEF77AFD03D84FF0FF30014644
:101C100007E00022234B20463146FEF7C2FAFEF7CA
:101C200055FD102409E0002C0ADB0A220023FEF7F0
:101C300075FA019B30321A55641E50EA0102F2D146
:101C4000641C019AC4F1110314440F9A012A09D0AB
:101C50000122084301D15B450FDD4FF0000205F181
:101C600001050DE0084303D1A3EB0B056D1E09E050
:101C700000204FF0110B0F9088E701DA00226D1E53
:101C8000002A83D000980F99C0E90231C0E90045CD
:101C900071E7000030000000000024400000F03F29
:101CA0000000F0430000E03F2DE9FF4F95B09B4658
:101CB00089460646002512E2252878D10024761CA4
:101CC000F94A2746012105943378203B01FA03F0B5
:101CD000104202D00443761CF6E730782A2811D04F
:101CE0006FF02F033078A0F13002092A16D8059A38
:101CF00044F0020402EB820203EB42021044761C21
:101D00000590EFE759F8042B0592002A03DA5042B8
:101D100044F40054059044F00204761C30782E28D8
:101D200016D116F8010F44F004042A280DD06FF0E4
:101D30002F023078A0F13003092B09D807EB870375
:101D400002EB4303C718761CF3E759F8047B761CB3
:101D500030786C280FD006DC4C2817D068280DD0BE
:101D60006A2814D104E0742810D07A280FD10DE02D
:101D700044F400140AE044F4801401E044F44014F4
:101D80007278824202D1761C04F58014761C307879
:101D900066280BD013DC582877D009DC002875D0D2
:101DA0004528F6D04628F4D047281AD19FE118E0FC
:101DB000632835D0642879D0652812D197E170283E
:101DC00073D008DC6728F1D069286FD06E280DD059
:101DD0006F2806D1B5E073282CD0752875D07828E7
:101DE00074D05A46179990476D1C76E1C4F302509F
:101DF000022809D003280DD0D9F8001004280DD0EE
:101E00000D6009F1040968E1D9F80010EA17C1E989
:101E10000052F6E7D9F800100D80F2E70D70F0E7F8
:101E200019F8041B8DF8001000208DF80100EA4617
:101E3000012003E059F804AB4FF0FF3061074FF089
:101E4000000102D40DE008F101018846B9420FDA21
:101E50008045F8DB1AF808100029F4D108E008F1F1
:101E6000010188468142FADB1AF808100029F6D1F0
:101E700005985B46A0EB080721463846179A00F004
:101E80009EFA284400EB080507E04DE02BE10DE049
:101E90001AF8010B5A4617999047B8F10108F7D282
:101EA0005B4621463846179A14E142E00A22009226
:101EB000C4F302524FF0000A022A08D059F804CBAA
:101EC000032A4FEAEC710AD00DE029E02AE009F17B
:101ED000070121F00702F2E802C1914609E00FFA7A
:101EE0008CFC4FEAEC71042A03D14FFA8CFC4FEAC8
:101EF000EC71002907DA0A460021DCF1000C61EBE5
:101F000002012D2202E0220504D52B228DF80420A7
:101F1000012203E0E20701D02022F7E7904653E0D8
:101F20000A2102E010220DE010214FF0000A00917A
:101F30000BE010224FF0000A44F00404082700923E
:101F400003E008224FF0000A0092C4F30252022A72
:101F500005D059F804CB0021032A08D009E009F183
:101F6000070121F00702F2E802C1914605E01FFADD
:101F70008CFC042A01D10CF0FF0C4FF00008220762
:101F800022D5702827D0009B83F0100353EA0A0360
:101F900009D15CEA010206D030228DF804208DF8C8
:101FA000050002229046009B83F0080353EA0A03CF
:101FB0000AD15CEA010201D1620705D530228DF811
:101FC00004204FF001087F1E582809D037A0039045
:101FD0000EA8029013E040228DF804200122E1E7D0
:101FE00037A0F4E753466046009AFEF797F8844618
:101FF0000398825C0298A0F10100029002705CEAF2
:102000000100EFD1029806A9A1EB000000F1200A1F
:10201000600702D524F4803400E00127574502DD33
:10202000A7EB0A0000E0002000EB0A0100900598F1
:102030004144A0EB01000590E00306D45B46214635
:10204000179A059800F0BBF90544002706E001A89F
:102050005A46C05D179990476D1C7F1C4745F6DBBB
:10206000E0030CD55B462146179A059800F0A7F9C6
:10207000054404E030205A46179990476D1C00999A
:10208000481E00900029F5DC08E0029802995A46A3
:102090000078491C0291179990476D1CBAF1000114
:1020A000AAF1010AF1DC6BE1092801003031323379
:1020B0003435363738396162636465660000000084
:1020C000303132333435363738394142434445466E
:1020D0000000000000F060F9054406F101063078C8
:1020E00000287FF4E9AD19B02846BDE8F08F6207FB
:1020F00000D4062709F1070222F0070CFCE80223AE
:10210000E14603F000485FEA080C02D00FF27C2C95
:102110000DE05FEA045C02D50FF2742C07E05FEA81
:10212000C47C02D00FF26C2C01E0AFF2700C4FF0C7
:10213000FF3823F00043CDF850C065280CD006DCF2
:10214000452809D046281DD047283ED13EE06628C4
:1021500018D0672839D139E00021112F01DB112077
:1021600000E0781CCDE9000106A90EA8FFF7EEFCFF
:10217000DDE90F010E9A03910021009207F1010A97
:1021800004914EE04FF000400097CDE9011006A900
:102190000EA8FFF7DBFCDDE90F0203920E9B1199FD
:1021A0000022DDF80CA00093049219B907F1010197
:1021B00000EB010AB7EB0A0004D4C0F1FF3007F1CD
:1021C000010A0490AAEB0700019046E0012F00DA13
:1021D00001270021112F01DD112000E03846CDE953
:1021E000000106A90EA8FFF7B1FCDDE90F010E9A68
:1021F0000391002104910092BA4621070CD403995F
:10220000514500DA8A46BAF1010F05DD009AAAF1BC
:102210000101515C302908D0B84202DA10F1040FF4
:1022200006DA0121CDE9011017E0AAF10101E9E781
:10223000002805DC049901440491AAEB000102E0A6
:10224000411C514500DD8A460499A0EB010000F1D4
:10225000010001904FF000400290200704D4019843
:10226000504501DBCDF8048000208DF84F00029826
:102270000DF14F07B0F1004F25D02B200E900298A2
:102280004FF0020800280CDA404202902D200E90F8
:1022900007E00A210298FEF73DF93031029007F875
:1022A000011DB8F10001A8F10108F2DC0298002834
:1022B000EFD1791E0E980870307800F0200040F0C1
:1022C000450007F8020D12A8A0EB070000F107086F
:1022D0001498007800B1012000EB0A01019801EB8D
:1022E000E07105984144A0EB0100A0F101000590C8
:1022F000E00306D45B462146179A059800F05FF884
:1023000005441498007820B15A461799904705F172
:102310000105E00323D55B462146179A059800F096
:102320004EF805441BE00498002807DBDDE90301B3
:10233000884203DD0098405C179901E0179930202E
:102340005A46904704986D1C401C04900198401E0A
:10235000019004D12E205A46179990476D1CBAF16E
:102360000001AAF1010ADEDC05E017F8010B5A466C
:10237000179990476D1CB8F10001A8F10108F4DC31
:102380005B462146179A0598A4E600002D00000040
:102390002B000000200000002DE9F041044600253C
:1023A0001E461746880405D406E039462020B0476B
:1023B00005F10105641EF8D52846BDE8F0812DE938
:1023C000F041044600251E469046C80301D530273B
:1023D00000E02027880405D506E041463846B0478E
:1023E00005F10105641EF8D52846BDE8F0810A68AC
:1023F000531C0B60107070470448FEF73DFDFEF75C
:1024000099FA0348FFF7EEF800BFFEE7540000100A
:10241000042A00000000000000000000000000008E
:1024200000000000000000183C3C3C181800181880
:10243000000000000000006666660000000000006A
:102440000000000000000036367F3636367F363614
:10245000000000000018183C666030180C06663C4E
:1024600018180000000070D8DA760C18306E5B1B6C
:102470000E000000000000386C6C38606F66663B30
:102480000000000000000018181800000000000004
:10249000000000000000000C1818303030303018F8
:1024A000180C00000000003018180C0C0C0C0C1854
:1024B000183000000000000000361C7F1C360000B1
:1024C00000000000000000000018187E181800002E
:1024D00000000000000000000000000000001C1CC4
:1024E0000C180000000000000000007E000000004A
:1024F00000000000000000000000000000001C1CA4
:102500000000000000000006060C0C1818303060B7
:10251000600000000000001E333737333B3B331EA2
:10252000000000000000000C1C7C0C0C0C0C0C0CBF
:10253000000000000000003C6666060C1830607E5B
:10254000000000000000003C6666061C0666663C53
:10255000000000000000003030363636667F060688
:10256000000000000000007E6060607C06060C78C1
:10257000000000000000001C18307C666666663CA7
:10258000000000000000007E060C0C1818303030EF
:10259000000000000000003C6666763C6E66663C0B
:1025A000000000000000003C666666663E0C1838BD
:1025B0000000000000000000001C1C0000001C1CAB
:1025C0000000000000000000001C1C0000001C1C9B
:1025D0000C180000000000060C18306030180C06C3
:1025E000000000000000000000007E007E000000EF
:1025F000000000000000006030180C060C1830606D
:10260000000000000000003C66660C181800181856
:10261000000000000000007EC3C3CFDBDBCFC07F23
:1026200000000000000000183C6666667E66666674
:10263000000000000000007C6666667C6666667CC2
:10264000000000000000003C666660606066663C5A
:1026500000000000000000786C66666666666C78B4
:10266000000000000000007E6060607C6060607EB2
:10267000000000000000007E6060607C60606060C0
:10268000000000000000003C666660606E66663E0A
:1026900000000000000000666666667E666666668C
:1026A000000000000000003C181818181818183C0A
:1026B0000000000000000006060606060666663CEE
:1026C0000000000000000066666C6C786C6C66664A
:1026D0000000000000000060606060606060607E7C
:1026E000000000000000006363776B6B6B63636343
:1026F000000000000000006363737B6F6763636327
:10270000000000000000003C666666666666663C87
:10271000000000000000007C6666667C606060600F
:10272000000000000000003C666666666666663C67
:102730000C0600000000007C6666667C6C666666BF
:10274000000000000000003C666030180C06663C8B
:10275000000000000000007E18181818181818183B
:102760000000000000000066666666666666663CFD
:1027700000000000000000666666666666663C183B
:10278000000000000000006363636B6B6B3636363D
:102790000000000000000066663418182C666666AB
:1027A00000000000000000666666663C18181818F5
:1027B000000000000000007E06060C183060607EFD
:1027C000000000000000003C30303030303030304D
:1027D00030303C000000006060303018180C0C06EF
:1027E000060000000000003C0C0C0C0C0C0C0C0C47
:1027F0000C0C3C0000183C660000000000000000CB
:1028000000000000000000000000000000000000C8
:102810000000FF0000000018181800000000000071
:102820000000000000000000003C06063E66663E18
:102830000000000000000060607C66666666667CE2
:102840000000000000000000003C66606060663C24
:102850000000000000000006063E66666666663EF2
:102860000000000000000000003C66667E60603CE6
:10287000000000000000001E3030307E303030306C
:102880000000000000000000003E66666666663ECE
:1028900006067C0000000060607C66666666666610
:1028A0000000000000001818007818181818187E8A
:1028B0000000000000000C0C003C0C0C0C0C0C0C7C
:1028C0000C0C7800000000606066666C786C6666D0
:1028D0000000000000000078181818181818187E5A
:1028E0000000000000000000007E6B6B6B6B6B63F0
:1028F0000000000000000000007C666666666666F8
:102900000000000000000000003C66666666663C51
:102910000000000000000000007C66666666667CC1
:102920006060600000000000003E66666666663E0D
:10293000060606000000000000666E7060606060C1
:102940000000000000000000003E60603C06067CC5
:102950000000000000000030307E30303030301E8B
:102960000000000000000000006666666666663EC5
:1029700000000000000000000066666666663C1805
:10298000000000000000000000636B6B6B6B3636CC
:1029900000000000000000000066663C183C66660F
:1029A0000000000000000000006666666666663C87
:1029B0000C18F00000000000007E060C1830607E4D
:1029C000000000000000000C1818183060301818C3
:1029D000180C0000000000181818181818181818FB
:1029E00018181800000000301818180C060C1818D9
:1029F0001830000000000071DB8E000000000000B5
:102A0000000000002D14000000000000342A000027
:102A1000D0070000E514000000000000342A000088
:102A2000D0070000000000000000000000000000CF
:102A3000000000005461736B300000005C2A00004D
:102A400000000010540000002C1B0000B02A000001
:102A50005400001044A000003C1B0000000E27079B
:102A60000087930300879303006CDC0200000000E2
:102A70000000000000000000000000000000000056
:102A80000000000000000000000000000000000046
:102A90000000000000000000000000000000000036
:102AA0000000000000000000FF00FF000000000028
:04000005000000E512
:00000001FF
