:020000040000FA
:1000000008B10010F9000000010100000301000028
:1000100005010000070100000901000000000000C8
:100020000000000000000000000000000B010000C4
:100030000D010000000000000F010000B92C0200BB
:100040001301000013010000130100001301000060
:1000500013010000694802001301000013010000B1
:100060001301000013010000130100001301000040
:100070001301000000000000130100001301000044
:100080001301000013010000130100001301000020
:100090001301000013010000130100001301000010
:1000A0001551020013010000C1730100130100008B
:1000B00013010000E50C0200130100001301000011
:1000C00013010000130100001301000013010000E0
:1000D00013010000130100001301000013010000D0
:1000E00013010000DFF80CD01EF0F2F900480047C1
:1000F000096A020008B10010064880470648004718
:10010000FEE7FEE7FEE7FEE7FEE7FEE7FEE7FEE7C7
:10011000FEE7FEE7ED2C0200E500000070B50446A6
:100120000D46294620460DF03BFB70BB00222146C0
:1001300004F110000EF0C2F904F1100104F54E6054
:100140000DF070FD04F54E6104F628500EF052FEDD
:1001500094F92C0D401C0ED10B2184F8EC1C0021CD
:10016000C4F8F01C6168C4F8F41C04F54E6104F690
:1001700028500EF03FFE04F6285104F5536000F0BD
:1001800060FD18B16FF0010070BD01E00020FBE7D9
:100190004FF0FF30F8E700002649C0F30742525CF9
:1001A000C0F30723DFF890C013F80C3002EB4312C2
:1001B000C0B2405C02EBC02070474FF6FF70704742
:1001C000F0B41D4C1B4D50F8046BC6F307477F5D20
:1001D000C6F3072C1CF804C007EB4C17F6B2765D8B
:1001E00007EBC6260E805918521EECD1F0BC7047A2
:1001F000F0B4541E03FB040001EB8201091F5B42B3
:100200000E4C0F4D0688F7127F5D4FEA661C0CF00E
:100210003F0C1CF804C007EB0C2706F01F06765DA8
:1002200007EB064641F804691818521EEAD1F0BCE3
:1002300070470000284004002841040048420400A0
:1002400028420400F0B585B00A9C0B9D0C9E0D9FC2
:10025000DFF804C00EE0000095EF0000F0B585B0B7
:100260000A9C0B9D0C9E0D9FDFF804C002E000BFAE
:10027000C1EF0000CDF810C00397029601950094DD
:1002800011F0AAFA05B0F0BD10B5002406480068C8
:10029000010002D0804700B101240CF0E8FF00B15A
:1002A0000124204610BD000038A5001010B5002420
:1002B00000E00124FFF7E8FF0028FAD1204610BD36
:1002C00030B585B014461D4682690492B0F9082005
:1002D0000392428A0292002201920091B0F91030FA
:1002E000B0F90E20B0F90C106918B0F90A00201806
:1002F00013F014FC05B030BDFEE77047FFFFFFFFB1
:10030000024692F8440001238B40184070472DE9C3
:10031000FF4F85B004460E464FF00009079F354653
:1003200000212046FFF7ECFF18B9002009B0BDE816
:10033000F08FE06CB04200D8002707983044E16CA1
:10034000884202D90FB1E06C871B5CE0A06A80791B
:100350004002B5FBF0F00490690AA06A8079B1FB15
:10036000F0F200FB121BC5F308000390039810B9CC
:10037000B7F5007F0DD2C5F30800C0F50070B84294
:1003800001D3384603E0C5F30800C0F5007080468D
:1003900001E04FF40078A06A04F12C01049A0DF0FA
:1003A00000FF08B10020C1E7606B0290A06A0299CB
:1003B00000F06BFC8246B8F5007F09D1089B03EB87
:1003C00009020AEB0B01A36A18680EF08CFD16E017
:1003D0000AEB0B01A26A106801220EF052FD019097
:1003E000089A02EB0901C5F30803019A98184246DE
:1003F0000EF0ADFDA16A086801990EF054FD454468
:10040000C144A7EB0807002FA0D148468EE72DE98D
:10041000F04104460D46164633462A462046A16C56
:10042000FFF775FF0746A06C3844A0643846BDE866
:10043000F0812DE9F04704460F46904607EB08008F
:10044000E16C884228D9206C30B9A16BA06A0DF00C
:100450009CFF0646266400E0266CA06A8088A16A9C
:10046000897900FB01F5E06C2844401EB0FBF5F0F3
:10047000301A6843E16CA8EB01013944884208D284
:1004800007EB080006FB15002844401EB0FBF5F9F9
:1004900004E04FF0000901E04FF000094846BDE8D4
:1004A000F0872DE9FF4F85B004460F46DDF81CA00C
:1004B00000253E4600212046FFF722FF20B1012102
:1004C0002046FFF71DFF18B9002009B0BDE8F08FE6
:1004D000E06CB84200D2E76C39462046079AFFF735
:1004E000A8FF8146B9F1000F09D009F1020204F119
:1004F0002C01A06A0DF083FE08B10020E5E767E05B
:10050000A06A80794002B6FBF0F00490710AA06AFC
:100510008079B1FBF0F200FB12100390C6F30800E3
:100520000290029810B9BAF5007F0ED2C6F3080007
:10053000C0F50070504501D3504603E0C6F30800F3
:10054000C0F500701FFA80F801E04FF40078A06A4F
:1005500004F12C01049A0DF024FE50B1E06C284403
:10056000E06404F12001E26CA06A0DF0B0F92846C5
:10057000ABE7606B0190A06A019900F086FB8346AF
:10058000B8F5007F09D1089B5A19039B0BEB0301B7
:10059000A36A18680EF0B9FC16E0039A0BEB02018F
:1005A000A26A106802220EF06CFC0090C6F30803E9
:1005B000009A9918089A501942460EF0C8FCA16A90
:1005C000086800990EF06FFC46444544AAEB080AFF
:1005D000BAF1000F94D1E06CC01BA84204D2E06CC9
:1005E000C11B691A0844E06428466EE72DE9F04112
:1005F00004460D46164633462A462046A16CFFF7B0
:1006000050FF0746A06C3844A0643846BDE8F0812E
:100610000246D06C884202D39164002070474FF0AC
:10062000FF30FBE710B53AB190F8443001248C401C
:10063000234380F8443006E090F8444001238B4087
:100640009C4380F8444010BD10B58162C369C36407
:100650000023836413680362147924231C54002349
:1006600080F82C30438B848A03EB04448463002499
:10067000C4630463846B446310BD2DE9F0418EB004
:1006800004460E4615461F4601A928460DF06AFA93
:10069000612F7DD0722F02D0772F7AD122E00023F4
:1006A0000CAA2946304600F048FB012817D10CAAB5
:1006B000214630460DF0A6F80CAA31462046FFF739
:1006C000C3FF012200212046FFF7ACFF00220121D9
:1006D0002046FFF7A7FF00200EB0BDE8F0814FF0E5
:1006E000FF30F9E76B460CAA2946304600F025FB9F
:1006F00010B16FF00100EFE7009810B96FF0030040
:10070000EAE700230CAA2946304600F07EFB0028C9
:1007100044D001AA04A930460DF0A4F80CAA04A9FB
:1007200030460DF087F82022214604A80EF00FFC79
:100730000CAA31462046FFF787FFA06A00F0FAFABC
:1007400080464146A06A00F0E2FA0090A06A04F1F7
:100750002001009A0DF0A1F82046009900F0B3FBAB
:1007600004F12C013046009A00F0A5FB30460DF054
:10077000EEFB80464246304600990DF035FB0122E3
:1007800000212046FFF74EFF01221146204601E0DE
:1007900007E099E0FFF746FF00209DE76FF00200B9
:1007A0009AE700230CAA2946304600F0C6FA012831
:1007B0003BD10CAA214630460DF024F80CAA314654
:1007C0002046FFF741FFA06B00BBA06A00F0B2FA21
:1007D00080464146A06A00F09AFA0090A06A04F1AF
:1007E0002001009A0DF059F82046009900F06BFBAB
:1007F00030460DF0ACFB80464246304600990DF085
:10080000F3FA0CAA31462046FFF71EFF2046E16CA2
:10081000FFF7FEFE012200212046FFF703FF012221
:1008200011462046FFF7FEFE4CE000230CAA2946A5
:10083000304600F0EAFAE8B301AA04A930460DF008
:1008400011F80CAA04A930460CF0F4FF202221462E
:1008500004A80EF07CFB0CAA31462046FFF7F4FEFC
:10086000A06A00F067FA80464146A06A00F04FFA9D
:100870000090A06A04F12001009A0DF00EF82046C5
:10088000009900F020FB04F12C013046009A00F0A2
:1008900012FB30460DF05BFB804642463046009925
:1008A0000DF0A2FA012200212046FFF7BBFE012233
:1008B000114600E003E02046FFF7B4FE02E06FF0CF
:1008C000020009E7002007E76FF0030004E710B516
:1008D00004460EF05DFB98B10020608201212046A5
:1008E000FFF70EFD28B1E06CE061608A20830020F4
:1008F000E08204F120022146A06A0CF0FDFF0AE02C
:1009000001212046FFF7FCFC28B104F12001E26C34
:10091000A06A0CF0DCFF502120460EF024FB0022E0
:1009200011462046FFF77EFE002201212046FFF7F8
:1009300079FE002010BD0146202912DB03DD30299D
:1009400001DA2D290DD1392901DD412909DB5A2987
:1009500003DD612901DA5F2903D17A2903DD7E29CC
:1009600001D058207047612905DB7A2903DCA1F109
:100970002000C0B2F6E70846F4E770B502460C4620
:1009800000260025002303E02020E054581CC3B2B9
:100990000B2BF9DB002310782E280AD12070681C5D
:1009A000C5B250782E2802D16070921C26E0521CED
:1009B00024E01BE010782E2803D116B90126082365
:1009C00013E046B10A2B10DC1078FFF7B4FFE054B7
:1009D000581CC3B209E0072B07DC1078FFF7ABFF08
:1009E000E054581CC3B2681CC5B2521C107828B120
:1009F0001078202802D010782F28DBD1002D05DDBB
:100A0000107808B9104670BD501CFCE70020FAE7CA
:100A1000014691F83C00032801D1C86970470120C4
:100A2000FCE700B502461046FFF7F2FF106300BD79
:100A300090F83C1003290BD10289837A816903FB6A
:100A40000123C169891E827901FB0231C16205E07F
:100A50000289837A018A03FB0121C162704740F653
:100A6000F572016A914205D2012180F83C10002202
:100A7000C2610DE04FF6F572016A914205D2022182
:100A800080F83C100022C26102E0032180F83C1093
:100A9000704730B583885B1E848903EB44138488D8
:100AA00093FBF4F2038A23B1038A43620024846136
:100AB00003E08369436200240482C38923B1C389AC
:100AC00083620024446103E0436983620024C4819B
:100AD0000489837A456A03FB05431344846AE11A57
:100AE0008379B1FBF3F3036230BD014601208A88AC
:100AF000B2F5007F00D000208A79012A00D100E001
:100B000000228B79022B01D1012300E000231A433C
:100B10008B79042B01D1012300E000231A438B7948
:100B2000082B01D1012300E000231A438B79102BFD
:100B300001D1012300E000231A438B79202B01D13E
:100B4000012300E000231A438B79402B01D10123BC
:100B500000E000231A4300D100200A8902B90020D6
:100B60000A8A6AB10A68126808320B6893F904307D
:100B700002EB0312D3680A8A93420ED200200CE0E3
:100B80000A68126808320B6893F9043002EB03120A
:100B9000D3688A69934200D20020704770B504463A
:100BA0000E460522002130460EF06BF905460B215A
:100BB00028460DF041F8A080697BA1710E212846DE
:100BC0000DF03AF82081297CA172112128460DF000
:100BD00033F8A081132128460DF02EF8E08116216C
:100BE00028460DF029F82082202128460DF02CF807
:100BF0006061242128460DF027F8A0612C212846A9
:100C00000DF022F8E061294630460EF04CF970BD37
:100C100070B504460522002120460EF032F9054643
:100C20004FF4FF7128460DF007F8A0F52A41553919
:100C300001D0002070BD294620460EF034F9012075
:100C4000F8E770B505460C462046FFF7E1FF10B9FE
:100C50004FF0FF3070BD2C6021462846FFF79EFF05
:100C60002846FFF742FF10B96FF00100F2E728466F
:100C7000FFF70FFF2846FFF7F2FE2846FFF7D8FEE2
:100C80002846FFF7CEFE0020E4E770B502460B468B
:100C900092F83C00032805D11489907A556A05FB27
:100CA00000410AE01589947A566A06FB045590893A
:100CB000C41700EB147405EB2411981E947900FB03
:100CC000041070BD70B502460B4692F83C00032834
:100CD00005D11489907A556A05FB00410AE015890F
:100CE000947A566A06FB04559089C41700EB147475
:100CF00005EB24115C1A9079B4FBF0F500FB15406C
:100D00005C1A241A9079B4FBF0F0801C70BD70B5A9
:100D100006460C4609E00022214630460DF006F852
:100D200005460DB9204670BD641C306AA042F2D859
:100D30000020F8E70146022070472DE9FF4F85B0FB
:100D40000E4617461C464FF0000AD34630782F282F
:100D50000CD10598FFF75CFE0546761C04B12560B2
:100D6000307838B9022009B0BDE8F08F0598056BDE
:100D700004B1256033E000203B462A4602A90090DA
:100D800005980CF0BBFE5FEA000909D102A94046B4
:100D9000FFF7F3FD10B10CB1002020600020E2E766
:100DA0000AF1010000F0FF0A787910F0100F09D065
:100DB0004D46464604B12560BBF1000F0FD0002020
:100DC00020600CE04FF0010B02A94046FFF7D5FD73
:100DD00020B10CB1002020600020C4E7464602A9E3
:100DE0003046FFF7CAFD5FEA0008C4D1BAF1000F30
:100DF00000D1B8E7787910F0100F02D1BBF1000FE5
:100E000001D10220AFE70120ADE7F0B585B006467D
:100E10000C4615461F460020049004AB2A46214686
:100E20003046FFF78AFF10B1002005B0F0BD01A9E0
:100E300020460CF097FE08B90020F6E701202B466B
:100E4000009001A93046049A0CF058FE08B1012028
:100E5000EBE7304604990CF0A9FE08B10020E4E766
:100E600001202B46009001A93046049A0CF046FE62
:100E700008B10120D9E70020D7E770B505460C4638
:100E8000A06818B9E068A06000206060206980B99F
:100E900009E021786068084460602178A06808440F
:100EA000A06000202070214628460DF024F900287B
:100EB000EFD0206970BDCA608A6000234B600B616F
:100EC0000B704B6170470A0C82824183704710B5EA
:100ED00004460021A26A20680DF0EEFF10BD10B597
:100EE00004462046FFF7F3FF10BD2DE9F04104460C
:100EF0000F46002516E039462046FFF7C6FE00EBF8
:100F000005080222414620680DF0BBFF06464FF45B
:100F1000007130460EF027F8314620680DF0C3FF0F
:100F2000681C85B2A079A842E5DC0020BDE8F0810C
:100F300070B504460D4694F83C0008B9012000E065
:100F40000020032801D1002070BD01221146206835
:100F50000DF097FF0646002130460CF075FE314932
:100F6000884207D14FF4FE7130460CF06DFE2E49D9
:100F7000884206D0314620680DF095FF4FF0FF30D3
:100F8000E2E74FF4F47130460CF05EFE60634FF41C
:100F9000F67130460CF058FEA063314620680DF023
:100FA00082FF1DB120460DF02FFA60630020CBE7D1
:100FB00070B5044694F83C0008B9012000E0002018
:100FC000032801D1002070BD0222012120680DF00C
:100FD00058FF0546002128460CF036FE114988428C
:100FE00007D14FF4FE7128460CF02EFE0E498842C0
:100FF00006D0294620680DF056FF4FF0FF30E2E79B
:101000004FF4F4712846626B0CF033FE4FF4F67126
:101010002846A26B0CF02DFE294620680DF043FFF8
:101020000020D0E752526141000055AA70B5044635
:1010300060680F26DFF8B05705F17802D36B98424D
:1010400003D2761E083A002EF8D5296881423CBFAB
:101050000FF2A070FFF750F928686168401A286005
:1010600005EBC600403004F108010A68496802B186
:10107000516009B10A6070BD026070BDF8B50546E7
:101080000E46AA19DFF86047606BA1680818401E79
:10109000904206D3106820B9506845191046FFF7F2
:1010A000C5FF606BB0420AD256F8040C371A386894
:1010B00028B9786845193846FFF7B8FF3E460F2033
:1010C00004F17801CA6B954203D2401E083900280A
:1010D000F8D504EBC000016C002232607560B1608D
:1010E0003661A91941F8045C06F1080150F8402F57
:1010F00002B151600A6000224A600160206828182D
:1011000020602846F2BD2DE9FD4C82B0DFF8D846BC
:10111000656BA0684019401E01906E681EB90FF201
:101120003070FFF7E9F82868002839D17019019963
:10113000884235D200908346DBF804A0DBF800003B
:1011400020B90FF26470FFF7D7F829E0216B11F88E
:101150003010012924D1A16A88420CBF0127002741
:101160002846FFF763FFDBF80000216B01EBC000AE
:1011700045605246009928461CF00AFE27B1206BB4
:101180000099401A281820630AEB05013046FFF742
:1011900075FF029919B1884201D3002005E0564637
:1011A000751901988542B8D3012005B0BDE8F08CCF
:1011B000F0B58A080023FF240546002662B11F46C9
:1011C000B7FBF4FCCCEB0C2CA7EB0C0C45F804CBD8
:1011D000761C7F1C9642F3D3064600251F4601E08D
:1011E0006D1C7F1C95420BD256F804CBB7FBF4FE66
:1011F000CEEB0E2EA7EB0E0EF445F1D00320F0BD82
:101200005B1C022BD8D34A0800230546002662B196
:101210001F46B7FBF4FCCCEB0C2CA7EB0C0C25F811
:1012200002CB761C7F1C9642F3D3064600251F4650
:1012300001E06D1C7F1C95420DD236F802CBB7FB46
:10124000F4FECEEB0E2EA7EB0E0E1FFA8EFEF4452B
:10125000EFD00220F0BD5B1C022BD6D30023024648
:10126000002559B11E46B6FBF4F7C7EB0727F71B5D
:1012700002F8017B6D1C761C8D42F4D302460025DA
:101280001E4601E06D1C761C8D420AD212F8017BCD
:10129000B6FBF4FCB4445FFA8CFC6745F2D0012045
:1012A000F0BD5B1C022BDAD309B11CF098FD0020C5
:1012B000F0BD10B5DFF83045002084F8240080220E
:1012C000002104F13C0010F07FFCBC2200212046EC
:1012D00010F07AFCDFF814450C220021204610F0B3
:1012E00073FC2020A06010BD2DE9F041DFF8F84428
:1012F000A06A40B9DFF8F404416880680830B1FBA7
:10130000F0F0851C05E0E0680A21B0FBF1F1081857
:10131000451CE80000F08FF85FEA00082BD0216B35
:1013200001EBC800406800F10806A76AE068C20047
:1013300030461CF02DFD2663C4F82880E068691E45
:10134000884207D206EBC002121D401C42F8080B6F
:101350008842FAD306EBC00000214160E0682062B9
:1013600060682818E168401A6060E56017B1384687
:1013700000F0F4F9E4E00120BDE8F08170B5DFF899
:10138000684494F82400002854D1012084F82400F3
:10139000DFF858546968B1F5205F88BF4FF42051D9
:1013A0002868FFF705FF18B10FF25450FEF7A4FFAD
:1013B000286818B90FF28450FEF79EFFDFF830045A
:1013C000E86005F10C0000F06CFC201D5A218161E1
:1013D00000212246102303FA01F6D663491C083285
:1013E0001029F8D329686A685218143A02238360D6
:1013F00004F12406F2606A68426031610021002233
:1014000004E0491CF368D3185960083283685B1EF6
:101410009942F6D30121C161636031694068FFF7E9
:101420002DFEFFF761FF18B10FF26050FEF764FF69
:101430000120B06070BD2DE9F0410546FFF79EFF29
:10144000DFF8A443E06B854202D3E81C80088000EB
:1014500000F10C052068A84218D3E06A6168884250
:1014600007D3401EE062FFF73FFFE16A491CE162DB
:1014700060B96068401E6060266A206B00EBC601A0
:1014800049682162012100F8361006B958E00F21A1
:1014900004F17802D36B9D4203D2491E083A002919
:1014A000F8D5102917D204EBC102C1F11001136C59
:1014B00063B19F687B68AB420CD2BB6833B19F6855
:1014C0007B68AB4206D2002FF7D100E0002708323C
:1014D000491EECD19FB905F10C00FFF714FE00285E
:1014E000D5D06068401C6060206B00EBC600216AAC
:1014F0004160206B002100F83610266220E0D7F80A
:101500000480A8EB0500E16B0C31884238BF4546EA
:101510003846FFF78BFD206B00EBC60047603E604E
:101520007D600020B8603F61E91941F8045C4545E1
:10153000BCBFA8EB0500FFF7A1FD3046BDE8F08178
:101540000020BDE8F08150F8080C704728B1A6498A
:101550008A6B026002B15060886370472DE9F843DE
:101560000446FFF70BFFE01C80088000061D9E4C20
:10157000E06B864238BF0646A56B00E02D6895B14A
:1015800055F8040CB042F9D16DB1286808B169680A
:101590004160686808B129680160A06BA84235D134
:1015A0002868A06332E0606BA16801EB0008A8F135
:1015B0000409D9F80000A8EB0007396869B1796817
:1015C00081421CBF0FF22040FEF796FE0020FFF77D
:1015D0009AFDD9F80000A8EB00073868B0B9786820
:1015E000B04213DB7142C0190818051D3846FFF7D9
:1015F0001DFDA068801BA06020693018206139465D
:101600007868801BFFF73AFD45F8046C2846BDE872
:10161000F28310B5040001D1002010BD0FF020FFAF
:101620002046FFF708FF04466CE028B16E49096BBD
:1016300001EBC0004068083070476B498A69521C52
:101640008A61096B01EBC0010A78521C0A70ECE751
:101650006549026852F8082C0B6B03EBC202137841
:10166000022B03D38B690BB15B1E8B611178491E72
:10167000117000210160002070475B4800680C3841
:101680000128B8BF00207047574840687047564847
:1016900081680068081A70475348C1684068081A92
:1016A000704710B50024FFF769FE0F204E4901F185
:1016B0007802136C1BB101EBC000006C04E0401E0B
:1016C000083A0028F5D508E0836833B158688442A9
:1016D00038BF044698680028F6D1A4F10C0010BD6C
:1016E00010B50FF0BDFEFFF7DCFF3F49C96964226A
:1016F000B0F5800F87BF90FBF2F001FB00F4484388
:10170000B0FBF2F40FF0A4FE204610BD364841694C
:10171000491C4161704734484169491E4161704725
:10172000324A106088088000506070472F491128A5
:1017300005D34A685208904202D3104600E01020B8
:1017400088607047002138B12749096B01EBC00060
:1017500040684068A0F10C010846704738B50400A5
:101760001ED00FF07DFE204D286B10F8341099B17B
:10177000022911D200EBC40041684868FFF77EFCE3
:101780006868401C6860286B00EBC4012A6A4A60E4
:10179000002100F834102C62BDE831400FF058BE33
:1017A00031BD10B504460FF05BFE2068FFF7D6FF91
:1017B00000202060BDE810400FF04ABE38B5044656
:1017C0000D46012D05DB2046FFF7EBFF241D6D1EA6
:1017D000F9D131BDA0F10A015B2903D20249C861E8
:1017E00000207047012070479CA300105803001090
:1017F000B312000074656D705C536F757263655C45
:101800004755495F416C6C6F632E633A0A496C6CB3
:101810006567616C206D656D6F7279206F706572A0
:101820006174696F6E20696E205F52656D6F7665B9
:1018300046726565426C6F636B28292E204578657A
:10184000637574696F6E2073746F707065642100C6
:1018500074656D705C536F757263655C4755495F65
:10186000416C6C6F632E633A0A496C6C6567616CFE
:1018700020626C6F636B2073697A6520696E205FEC
:1018800052656D6F7665486F6C65734E6577282974
:101890002E20457865637574696F6E2073746F7060
:1018A000706564210000000074656D705C536F7595
:1018B0007263655C4755495F416C6C6F632E633A98
:1018C0000A496C6C6567616C206672656520626CA4
:1018D0006F636B20696E205F52656D6F7665486F30
:1018E0006C65734E657728292E204578656375747D
:1018F000696F6E2073746F70706564210000000062
:1019000074656D705C536F757263655C4755495FB4
:10191000416C6C6F632E633A0A4D656D6F7279206E
:1019200074657374206661696C656420696E205FFC
:10193000496E69744F6E636528292E0074656D7059
:101940005C536F757263655C4755495F416C6C6FA2
:10195000632E633A0A4E6F206D656D6F7279206158
:101960007661696C61626C6520696E205F496E69A1
:10197000744F6E636528292E2045786563757469F8
:101980006F6E2073746F70706564210074656D7084
:101990005C536F757263655C4755495F416C6C6F52
:1019A000632E633A0A4E6F206D656D6F7279206603
:1019B0006F7220626C6F636B7320617661696C611A
:1019C000626C6520696E205F496E69744F6E636555
:1019D00028292E20457865637574696F6E207374AD
:1019E0006F7070656421000074656D705C536F7575
:1019F0007263655C4755495F416C6C6F632E633A57
:101A0000496C6C6567616C20626C6F636B207369F5
:101A10007A6520696E204755495F414C4C4F435FC2
:101A20004765744669786564426C6F636B28292E3C
:101A300020457865637574696F6E2073746F70707C
:101A40006564000000E0806828B10288914224BFEC
:101A500042888A42F7D370472DE9F04387B00546A4
:101A6000384CB4F92A602946E069C069FFF7EAFFFB
:101A700000284CD00188691A406800EBC105AF7896
:101A8000304610F0E9F98146E0692F49096805916F
:101A900069680491039701210291C17E0191817EC1
:101AA0000091037E2A78B4F92410B4F9220010F0D2
:101AB0004FFBE069417E027E8A421DD2C07E00FB60
:101AC00001F700FB02F8022E16D00DF083FF064648
:101AD0000DF074FF0EF09DF9B4F92200B4F9241052
:101AE0007B182A78E769FF7E07FB0202414410F069
:101AF0002BFA30460EF08DF9484610F0ADF9B4F9E6
:101B000022006978E269927E02FB0100608407B0DE
:101B1000BDE8F08370B505460C460A48C6692946FB
:101B2000F069FFF78FFF60B1B17E0288AA1A43689F
:101B300003EBC200407848431CB113F832205143F4
:101B4000216070BD58A40010DC0500100120088041
:101B5000704780B5C069FFF775FF00B1012002BD75
:101B60005A480021C160E022594810F02DB8594967
:101B7000886070472DE9FC4105460E461746984699
:101B80000FF06EFC042010F067F904465048016C19
:101B90004D19406C8619CF198044ADF80050ADF84E
:101BA0000470ADF80260ADF8068000A80BF0CDF827
:101BB00048B143463A463146284610F0C5F90BF085
:101BC000AAF80028F5D1204610F046F90FF040FCA5
:101BD000BDE8F38180B5002100200DF032FF3E49C1
:101BE00040F6FF7213460846BDE80050C2E710B544
:101BF000364CE06850B90120E0601DF0DBFF1EF0BC
:101C000087F936482060A0686060A46010BD70B598
:101C1000FFF7EDFF2F4C2E2020701DF0F1FF2C4E12
:101C200006F11405A86B0028FDD0A0680028FCD0A0
:101C300006F108007061707C06EB8000C06C06F154
:101C40000801C268126B90470FF29800C6F8D800DE
:101C5000A068A86006F108007061012028710BF0EF
:101C6000B7FCA862032086F8DC006FF07040E861E2
:101C70002862002010F0BFFB6FF07F4010F0BFFB28
:101C8000174860600FF02DFC10F04EFB0446002159
:101C900000200EF0F1F80BF0EEFB0FF040FC2046B8
:101CA00070BD0A498A6842608860704710B5074C69
:101CB000A06848B1A0680068010018BF8047A0680C
:101CC0004068A0600028F5D110BD00004CA50010B0
:101CD00058A400106C03001001F0FFFF611B00000E
:101CE000AC160100BD1E0100631E0100AB480021BF
:101CF00001604FF4C072AA480FF066BF38B50446C1
:101D00000EF029F820B10121BDE834400EF04EB8A4
:101D100004EB4400A24901EBC005687960B10120E1
:101D2000287128690FF030FB6A69100004D0214641
:101D30000020BDE83840104731BD01EB4102984911
:101D400001EBC201486170472DE9F84F044688460F
:101D50000FF086FB40460DF0FEFF824608EB480080
:101D6000C7008F4D57F805907E197269100004D096
:101D7000414601209047002070618848016831B9D0
:101D80000121016087494160001DFFF78AFFBAF118
:101D9000000F1BD050460DF0BBFF83464FF07F4035
:101DA0000EF02FF8FFF716FF0022002120680DF03B
:101DB0006EFD20684288018850460DF0E7FF7C5197
:101DC0000120707158460DF0A3FF16E07C510120F0
:101DD0007071306918B10FF017FA002030617CB1D2
:101DE000012000904346F068A168421AB06861681B
:101DF000411A20680FF073F930614046FFF77EFF0B
:101E00000FF026FB4846BDE8F28F38B504460D4674
:101E10000FF026FB28460DF09EFF90B10DF078FFE5
:101E200005464FF07F400DF0ECFFFFF7D3FE002298
:101E3000002120460DF02BFD28460DF069FF0024FF
:101E400009E0214605EB4500554A02EBC000006958
:101E50000FF013FA04460FF0FBFA204632BD524948
:101E6000497CD2E738B504460FF0FAFA04EB440097
:101E7000C0004B49451800226A712A6952B1EA68CC
:101E800043589B68D21AAB6840584068191A2869B1
:101E90000FF0E4F920460DF05EFF28B100210DF0AF
:101EA00085FF002028710CE0287950B128690FF0D7
:101EB00045FA002028716A69100002D021460120ED
:101EC0009047BDE831400FF0C3BA10B504460FF09B
:101ED000C7FA04EB4400C000314942180123537192
:101EE000405820B921463148FFF72EFF02E0204636
:101EF000FFF704FFBDE810400FF0AABA10B5044682
:101F00000FF0AEFA04EB4400254901EBC000447920
:101F10000FF09EFA204610BD70B504460D461646D9
:101F20000FF09EFA30460DF016FF06EB4601C90091
:101F30001B4A38B189588A68AA1A4968611A0DF093
:101F400019FF18E08E18B068A04214BF01200020CD
:101F5000F368AB4214BF0123002318430BD0306950
:101F600038B1885881686A1A4068211A30690FF0C0
:101F700075F9B460F560BDE870400FF069BA0A49C0
:101F8000497CE1E60848407C6CE70748407C9CE7D8
:101F90000548407CB2E7044A527CBDE7DCA600104D
:101FA0005CA50010ED1C000058A40010FC3F0400CC
:101FB00010280BDA504A02EB8000C06C00E0006889
:101FC00020B1C26812688A42F9D170470020704778
:101FD000102801DB00207047474901EB8000C06CEE
:101FE00000E0006800281EBFC16809680029F8D118
:101FF0007047FFF7ABBAF8B504460F4615461E46C4
:10200000102E03DA1C20FFF7A9FA08B90020F2BD50
:102010000FB107610BE0384901EB8601C96C31B1A2
:1020200000E011460A68002AFBD109690161866156
:102030008582C4600021016041608160F2BD8169D8
:102040002D4A02EB8101CA6C824204BF0268CA6455
:10205000416809B102680A60016809B142684A60D2
:10206000002101604160704730B450B3816910298C
:1020700027DA214A02EB8102D16C11B9D06425E044
:1020800019464B68002BFBD1D9B1CB681B68C468DB
:1020900025689D42B8BF0968F6DBAB4204BF838A5E
:1020A000012B06D10B6823B11946CB681B68AB42E4
:1020B000F8DA4B68002B1DBF18604A684260D06494
:1020C00002E0012030BC704748600160002030BC55
:1020D000704738B51C46FFF78EFF050018BFFFF7A5
:1020E000C3FFE868006820B9034800EB8400C0F82B
:1020F0008C50284632BD000058A4001080B5002046
:102100000DF07FFE6FF07F400DF083FE01200DF09B
:102110008CFD00200DF0CEFE00200DF0D9FE002039
:102120000DF082FE044800680DF08AFE0020BDE834
:1021300002400DF093BE00007403001080B50FF054
:102140008FF9FFF7DBFFBDE801400FF081B9000018
:1021500080B5C06900F20E00009000A80FF05EFD8F
:1021600002BD2DE9F04182B007460C469046FFF7CC
:10217000EFFF0646F8691030009000EB860700A8D4
:102180000FF04CFD054600A80FF048FDAC42A8BF7B
:10219000A04204DB601B00FB0870BDE8F681401B19
:1021A000401C00FB0877761EE9D10020BDE8F681CF
:1021B00038B50C4600250C2201463348C069FFF7AC
:1021C000D0FF009058B124B100A80FF027FD206087
:1021D00001E0801C009000A80FF020FD0546284675
:1021E00032BD10B582B00C46C069001D009000A839
:1021F0000FF014FDA07000A80FF010FDE07000A813
:102200000FF00CFD20710120208013BD80B50C2241
:102210001D48C069FFF7A5FF00B1012002BD38B518
:102220000C4615460090E06100A80FF0FEFC17492F
:10223000884228D100A80FF0F1FC207600A80FF00A
:10224000EDFC607600A80FF0E9FC84F8200000A8FF
:102250000FF0E4FC84F8210000A80FF0DFFC84F804
:1022600022000120A076E07628682060686860601F
:10227000A868A060E868E06028692061686960611A
:1022800020460DF0DDFD31BD58A4001047554950E2
:10229000704700002DE9F04788B0304C0C22014611
:1022A000E069FFF75EFF0690002854D006A80FF003
:1022B000B5FC054606A80FF0B1FC804606A80FF055
:1022C000ADFC064606A80FF0A9FC06A80FF0ADFC71
:1022D000E169C9694718B4F92AA050460FF0BCFD5E
:1022E0008146E0691E49096805910497039601211A
:1022F0000291C17E0191817E0091037E2A46B4F94C
:102300002410B4F922000FF023FFE069417E027E21
:102310008A421AD2C07E00FB01F600FB02F7BAF136
:10232000020F12D00DF056FB82460DF047FB0DF068
:1023300070FDB4F92200B4F9241073182A18791822
:102340000FF002FE50460DF064FD48460FF084FD8C
:10235000608C4044608408B0BDE8F08758A4001049
:10236000DC0500101DF046BC2DE9F04104461DF0CF
:1023700041FC2418134D17E00FF072F82F68FFF797
:10238000C5F92FB1B8460FF063F8B8F10108FAD1DA
:1023900030461DF01DFC1FB10FF062F87F1EFBD10F
:1023A000FFF7B9F90FF054F81DF024FC261A012E9E
:1023B00005DBFDF77BFF062EDEDB0526DCE7BDE84F
:1023C000F0810000A005001070478449C861704783
:1023D0008248406970478148806970477F48002182
:1023E00041608160C160016170472DE9F04780461E
:1023F0000C4615461E46DFF8E89199F81100774F14
:10240000397F490707D400F087F9824699F811000F
:1024100000F084F906E000F081F9824699F8110095
:1024200000F07AF9B8F1000F0CBFAAF10100401ECC
:10243000089AB11A48BF4942142904DB611B48BFFE
:102440004942142902DA0120BDE8F08707EBC801F0
:102450002B1B921B04FB02F595FBF3F5751B4D60DE
:10246000001B504390FBF3F080198860B8687968CE
:102470008142BABF0A4601460246B9627A623869A9
:10248000F9688142BABF0A46014602463963FA62D8
:10249000012038620020BDE8F087504B03EBC000FC
:1024A00043680B608068106070472DE9F0414B4C29
:1024B000206A48B96060A060E0602061A06260624C
:1024C0002063E06201202062207838B91DF06CFBA7
:1024D000A0611DF061FB2078401C7CE01DF05EFBDC
:1024E00060611DF055FB6069616A8842A4BFA16A02
:1024F000814206DBA169E26A9142A4BF226B8A4253
:1025000005DA4FF0FF306063A063014660E0616868
:10251000451A334E707C217F490702D400F0FCF845
:1025200001E000F0FBF8401E6843A1686268891A68
:1025300090FBF1F5A069E168471A707C217F49079B
:1025400002D400F0EBF801E000F0E6F8401E78431A
:102550002169E268891A90FBF1F7707C217F4907B5
:1025600011D400F0D9F88046707C00F0D7F8E1690A
:10257000CA0744BFA8EB0502551E890752BF3A4659
:10258000C01B421E11E000F0C9F88046707C00F0CC
:10259000C3F8E169CA0746BFA8EB0502521E2A46E6
:1025A000890746BFC01B451E3D4615F1010F18BFE8
:1025B00012F1010F07D0606B10F1010F1CBFA16B6E
:1025C00011F1010F02D14FF0FF3001466563A263A4
:1025D0000EF0D6FF00202070BDE8F08178030010D7
:1025E00058A4001001780A061CD501F0E002C02AA8
:1025F00007D101F01F01407800F03F0040EA81114F
:1026000010E001F0F002E02A0BD110F8012F02F0E7
:102610003F02920142EA0131407800F03F0001435D
:1026200000E0012188B27047007801060BD500F068
:10263000E001C02901D10220704700F0F000E0283D
:1026400001D103207047012070474FF478410842C0
:1026500001D0032070474FF68071084201D002205C
:1026600070470120704738B504460D462846FFF7ED
:10267000ECFF012804D01BD3032808D002D332BDBD
:10268000257032BDA90941F0C00121700AE0290B73
:1026900041F0E0012170A90901F03F0141F0800102
:1026A00004F8011F05F03F0141F0800104F8011F0B
:1026B00032BD80B50EF0D4FE03480FF21001016068
:1026C000BDE801400EF0C4BE70030010E525000017
:1026D000292600004B2600006726000038B50C466E
:1026E0000025102807DAFFF773FC20B12146C268E5
:1026F000926A90470546284632BD70B504460025CB
:102700000F2621463046FFF7E9FF8542B8BF054650
:10271000761EF6D5284670BD0121DFE70221DDE7F0
:102720000321DBE70421D9E70821D7E70921D5E711
:102730000A21D3E70B21D1E70C21CFE70D21CDE70B
:102740000E21CBE7012100E002212348407CC5E7B0
:102750000321FAE70421F8E70821F6E70921F4E765
:102760000A21F2E70B21F0E70C21EEE70D21ECE75F
:102770000E21EAE7184901EB8000C06C0821C2680D
:10278000926A104780B5FFF723FC28B10221C26886
:10279000D26ABDE80840104702BD0F48407CF1E70F
:1027A00080B5FFF715FC08B10069406802BD0A4911
:1027B00001EB8000C06C00694068704780B5FFF78E
:1027C00007FC08B10069006802BD034901EB800005
:1027D000C06C00690068704758A4001001208CE7A5
:1027E00002208AE7032088E7042086E7082084E7A0
:1027F000B0B34108490001D1012070478108890028
:1028000001D102207047C108C90001D103207047DF
:102810000109090101D1042070474109490101D191
:1028200005207047010A090201D108207047410ABA
:10283000490208D0010B090305D0C10BC90302D01E
:10284000010C090401D110207047810C890401D1C9
:102850001220704710F07F4F01D1182070472020C0
:10286000704710B50024FFF7C3FF012808BF0124FB
:102870000ED0811E072938BF082409D3A0F1090111
:10288000082938BF102403D31138102838BF20245A
:10289000204610BD38B50C460125FFF799FB009086
:1028A00058B1022100A8009AD268526A90470200EB
:1028B00003D02146009890470025284632BD38B500
:1028C0000C460125FFF784FB009058B1092100A8B0
:1028D000009AD268526A9047020003D021460098BD
:1028E00090470025284632BD70B582B00C4615468B
:1028F0000126FFF76DFB009060B10A2100A8009A45
:10290000D268526A9047030004D02A4621460098B4
:1029100098470026304676BD70B582B00C46154605
:102920000126FFF755FB009060B10B2100A8009A2B
:10293000D268526A9047030004D02A462146009884
:1029400098470026304676BD38B50C460125FFF77E
:102950003FFB009058B1062100A8009AD268526A45
:102960009047020003D02146009890470025284652
:1029700032BD70B582B00C4615460126FFF728FB24
:10298000009060B1032100A8009AD268526A904773
:10299000030004D02A462146009898470026304676
:1029A00076BD38B50C460125FFF712FB009058B1F3
:1029B000132100A8009AD268526A9047020003D0FF
:1029C0002146009890470025284632BD38B50C4670
:1029D0000125FFF7FDFA009058B1142100A8009AD4
:1029E000D268526A9047020003D02146009890476F
:1029F0000025284632BD70B582B00C46154601262A
:102A0000FFF7E6FA009060B1152100A8009AD2689D
:102A1000526A9047030004D02A46214600989847FE
:102A20000026304676BD70B582B00C4615460126AC
:102A3000FFF7CEFA009060B1102100A8009AD2688A
:102A4000526A9047030004D02A46214600989847CE
:102A50000026304676BD70B582B00C46154601267C
:102A6000FFF7B6FA009060B1042100A8009AD2687E
:102A7000526A9047030004D02A462146009898479E
:102A80000026304676BD10B582B00124FFF7A0FACB
:102A9000009050B1172100A8009AD268526A90475E
:102AA000010002D0009888470024204616BD014648
:102AB0001948407CEEE601461748407CFFE60A468E
:102AC00001461548407C0FE70A4601461248407C03
:102AD00022E701461048407C36E70A4601460E4888
:102AE000407C46E701460C48407C5AE701460A48CC
:102AF000407C6BE70A4601460748407C7BE70A4674
:102B000001460548407C8EE70A4601460248407C63
:102B1000A1E70148407CB6E758A4001070B582B028
:102B20000C4615460126FFF753FA009060B11621B6
:102B300000A8009AD268526A9047030004D02A463F
:102B40002146009898470026304676BD10B50446C9
:102B5000A06838B94020FEF701FDA06040220021A6
:102B60000FF032F8A06808B1002010BD012010BDA0
:102B7000806800220A804A804269521E8A808069E9
:102B8000401EC88070477CB504460D4616460FF6B9
:102B90007030D0E90023CDE900232046FFF7D6FFAF
:102BA000A06840B1056246620095019600AA08211E
:102BB000A0691DF0E7F973BD70B504460D461646D1
:102BC000FFF7C4FFA06818B1016A2960406A30604D
:102BD00070BD38B504460D460FF62C3000680090E5
:102BE0002046FFF7B3FFA06830B18562009500AAC8
:102BF0000A21A0691DF0C6F931BD38B504460D465D
:102C00000FF60830006800902046FFF79FFFA0688D
:102C100030B1C562009500AA0921A0691DF0B2F982
:102C200031BD38B50446FFF791FF0546002201216A
:102C3000A0691DF0A7F9284332BD0022052101E05B
:102C40000022062180691DF09DB980B5009100AA7F
:102C50000B2103E080B5009100AA0C2180691DF0D2
:102C600091F901BD30B583B00FF6A423D3E9004537
:102C7000CDE900450091019200AA0D2180691DF067
:102C800081F903B030BD2DE9F04104460D46904670
:102C9000FFF75CFFA768002F18BF45451AD0082131
:102CA0002046E268926A9047F9683A69514348437E
:102CB000C208786808FB02067B6B190004D0424604
:102CC0002946A069984704E005FB020130461BF045
:102CD0005FF83E60BDE8F08138B504460D460FF65A
:102CE0003820006800902046FFF730FFA06828B128
:102CF000009500AA0E21A0691DF044F931BD70B500
:102D000004460D461646FFF721FFA06878B1192D3D
:102D100008D0202D08D0212D02D0232D06D070BD43
:102D2000466370BD066370BD866370BDC66370BDCB
:102D30002DE9FC4104460D4616460FF6E010D0E999
:102D40000023CDE90023A768A069FFF7F5FC8046C2
:102D5000A069FFF7F3FC48EA4008A069FFF7F0FC20
:102D600048EA8000072833D8DFE800F004060D1396
:102D70001D1F2628009504E07869F968401A401B59
:102D80000090019624E00095B8693969401A801BCB
:102D90001DE07869F968401A401B0090B8693969EC
:102DA000401A801B13E0009604E0B8693969401AA4
:102DB000801B009001950BE0009604E0B86939692A
:102DC000401A801B00907869F968401A401B0190F6
:102DD00000AA0321A0691DF0D5F8BDE8F38138B53C
:102DE00004460D460FF63C10006800902046FFF7A1
:102DF000ADFEA06838B145600560009500AA0221CB
:102E0000A0691DF0BFF831BDF8B504460D46164661
:102E1000FFF79CFEA7684FB1A069FFF791FC00285F
:102E20007D61BE6101D0FE61F1BDFD61F1BDF0B516
:102E300083B004460D4616460FF6EC00D0E9002399
:102E4000CDE900232046FFF781FEA7688FB1F8691E
:102E500030B9A069FFF774FC002814BFFE61FD6162
:102E6000FD603E610095019600AA0721A0691DF052
:102E700089F803B0F0BDF0B4049F8668DFF8280835
:102E800000680568F06940104FEA510C00FB02CC65
:102E9000366806EB8C065B1A5B1CBA1A521CDFF80C
:102EA0000C783F7CFF0739D5C9070DD51100344692
:102EB00008D0DFF8FC5727686F40276004EB8004D8
:102EC000491EF8D1361D5B1E022B17DB110011D0F5
:102ED0001F46491E01FB00F406EB84044FF0FF3C43
:102EE00025688CEA050544F8045BBF1E022FF7DA5B
:102EF0000029EDD1264623F001015B1A012B66DB88
:102F00001100344663D04FF6FF72236853402360AC
:102F100004EB8004491EF8D1F0BC7047C9070CD5FA
:102F20001100344607D0276865F31F47276004EB7C
:102F30008004491EF7D1361D5B1E05EB054C102B96
:102F400022DB103B110019D01F46491E01FB00F483
:102F500006EB840444F804CB44F804CB44F804CBD7
:102F600044F804CB44F804CB44F804CB44F804CB35
:102F700044F804CB103FEDD50029E5D1264603F1F6
:102F8000100121F00F03CB1A022B12DB11000CD021
:102F90001F46491E01FB00F406EB840444F804CBF1
:102FA000BF1E022FFADA0029F2D1264623F00101D2
:102FB0005B1A012B0BDB1100344608D02268120C7F
:102FC00055EA0242226004EB8004491EF6D1F0BCAF
:102FD00070478068D0F81CC00CFB0211006820F814
:102FE000113070478068C36903FB0211006830F834
:102FF00011007047F8B505460E461746FFF7F2FF79
:103000000446286980688047A968CA6902FB07628C
:103010000968604021F81200F1BD7CB58468256B19
:10302000069C2E0008D0DFF8806636683668019668
:1030300000948069A84773BD0094FFF71CFF73BD1F
:1030400080B5009202E080B500930B46FFF7E5FFE4
:1030500001BD2DE9F0479A4685680A9E3368D6F887
:1030600004C0DDF820E0EE6906FB02110EEB01065C
:10307000CEF10807DFF83C869AF8001011F8081026
:1030800041FA0EF9099CDFF82416097C11F00301BE
:1030900006D0022924D037D3032935D0BDE8F087E4
:1030A0003846A74288BF204601462A6802EB4602FE
:1030B0005FEAC97E4CBFE6469E4622F802EB761CCC
:1030C0004FEA5909491EF3D13F1A241A27B91AF8B1
:1030D000010F10F808900827002CE1D1BDE8F08717
:1030E0005FEAC97044BF286820F816C0761C7F1EAE
:1030F0004FEA590904D11AF8010F10F8089008276F
:10310000641EEDD1BDE8F0870069806880472968BA
:1031100001EB46015FEAC97202D50A8842400A8083
:103120007F1E4FEA590904D11AF8012F12F80890AE
:103130000827641E891C002CECD1BDE8F0872DE91E
:10314000F04793F80080089C6118099EDDF828E09C
:10315000DFF858753F7C17F0030703D0022F47D0E4
:10316000BDE8F087C027BEF1000F22D0C4F1030CE8
:103170004FEA4C0CD0F80890D9F81C5005FB02150A
:10318000D9F80090CCF1060A47FA0AFA0AEA080AC6
:103190002AFA0CFC5EF82CC029F815C0491C641CE6
:1031A000042C04BF002413F8018F761EDED1BDE885
:1031B000F087C4F1030C4FEA4C0C8568D5F81CE08D
:1031C0000EFB021E2D68CCF1060947FA09F909EA3F
:1031D000080929FA0CFC25F81EC0491C641C042CA3
:1031E00004BF002413F8018F761EE2D1BDE8F087FA
:1031F000C027BEF1000F21D0C4F1030C4FEA4C0CE4
:10320000CCF1060547FA05F505EA080535FA0CFC88
:1032100009D08568D5F81C9009FB02192D685EF865
:103220002CC025F819C0491C641C042C04BF0024C0
:1032300013F8018F761EDFD1BDE8F087C4F1030CCF
:103240004FEA4C05C5F1060E47FA0EFE0EEA080ECF
:103250003EFA05FC09D0D0F808E0DEF81C5005FB6A
:103260000215DEF800E02EF815C0491C641C042C81
:1032700004BF002413F8018F761EDFD1BDE8F0876C
:103280002DE9F04793F80080089C6118099EDDF84D
:1032900028E0DFF818743F7C17F0030703D0022FF3
:1032A00047D0BDE8F087F027BEF1000F22D0C4F16F
:1032B000010C4FEA8C0CD0F80890D9F81C5005FB93
:1032C0000215D9F80090CCF1040A47FA0AFA0AEA82
:1032D000080A2AFA0CFC5EF82CC029F815C0491C13
:1032E000641C022C04BF002413F8018F761EDED16B
:1032F000BDE8F087C4F1010C4FEA8C0C8568D5F865
:103300001CE00EFB021E2D68CCF1040947FA09F9F6
:1033100009EA080929FA0CFC25F81EC0491C641C9E
:10332000022C04BF002413F8018F761EE2D1BDE801
:10333000F087F027BEF1000F21D0C4F1010C4FEA55
:103340008C0CCCF1040547FA05F505EA080535FAB9
:103350000CFC09D08568D5F81C9009FB02192D6872
:103360005EF82CC025F819C0491C641C022C04BF4F
:10337000002413F8018F761EDFD1BDE8F087C4F179
:10338000010C4FEA8C05C5F1040E47FA0EFE0EEA59
:10339000080E3EFA05FC09D0D0F808E0DEF81C5013
:1033A00005FB0215DEF800E02EF815C0491C641C70
:1033B000022C04BF002413F8018F761EDFD1BDE874
:1033C000F08730B4039C002C76D08068C56905FB7B
:1033D0000211006800EB41000299B44A127C12F01D
:1033E000030234D0022A65D030BC704713F8012B99
:1033F00054F8222020F8022B13F8012B54F8222035
:1034000020F8022B13F8012B54F8222020F8022B6D
:1034100013F8012B54F8222020F8022B13F8012B6B
:1034200054F8222020F8022B13F8012B54F8222004
:1034300020F8022B13F8012B54F8222020F8022B3D
:1034400013F8012B54F8222020F8022B0839082900
:10345000CCDA04291ADB13F8012B54F8222020F8C7
:10346000022B13F8012B54F8222020F8022B13F81A
:10347000012B54F8222020F8022B13F8012B54F8CA
:10348000222020F8022B091F0429E4DA00291FBF9B
:1034900013F8012B54F8222020F8022B491EF5D1F5
:1034A00030BC70471A7812B154F822200280491EAD
:1034B0005B1C801C0129F5DA30BC70472DE9F04F08
:1034C00083B081468B4614461F460D980C9EDDF84E
:1034D0003880DDF83CA010991091119D012808D08A
:1034E000022817D0042826D0082835D0102842D02A
:1034F00054E0012E52DB029501971098009053463C
:10350000224659464846FFF7A4FDC244641C761E75
:10351000F1D143E0012E41DB029501971098009014
:103520005346224659464846FFF709FEC244641CEA
:10353000761EF1D132E0012E30DB02950197109812
:1035400000905346224659464846FFF799FEC2442A
:10355000641C761EF1D121E0012E1FDB019500973E
:103560005346224659464846FFF72BFFC244641C87
:10357000761EF3D112E0012E10DB7F00D9F808008F
:103580003A465146C36903FB04B3006800EB4300AD
:103590001AF0FEFBC244641C761EEFD103B0BDE8F6
:1035A000F08F00008068491E0D2916D8DFE801F071
:1035B00007090B0D1515150F131111131313C068FF
:1035C00070470069704740697047806970471020F4
:1035D000704701207047002070474FF0FF30704760
:1035E000012901D13448704700207047F0B4059C90
:1035F00080680D46049E5F1A7F1CD0F81CC00CFB2F
:1036000002114900D0F800C031F80CC024F802CBF8
:103610007F1E891C002FF5D1294617467A1CB74218
:10362000E9DBF0BC70470000491E222939D8DFE8E9
:1036300001F0361C181A381E383812141620382299
:103640002438383826282A30383838383838383846
:1036500038382C2E320019487047194870471948DD
:1036600070471948704719487047194870471948FA
:1036700070471948704719487047194870471948EA
:1036800070471948704719487047194870471948DA
:1036900070471948704700688068C06B70471748CA
:1036A0007047002070470000E005001058A400108B
:1036B0000000FFFF94420400D0310100DF2D000024
:1036C000092E00002F2E0000872B0000B92B0000D0
:1036D000D32B0000FB2B0000232C00003B2C000010
:1036E000412C00004B2C0000552C0000652C0000E4
:1036F000872C0000D92C0000FF2C0000ED350000C5
:1037000000000000000000000000000000000000B9
:1037100000000000000000000000000000000000A9
:103720000000000000000000000000000000000099
:1037300038B504464FF4807112F03AFB2046FDF78D
:103740007CFF0090856A00A8FDF782FFA80703D5DB
:103750000121204613F0D4F831BDF8B504460D46DA
:103760004FF4807112F03FFB2046FDF766FF00909A
:10377000866A078E00A8FDF76BFF022D04BF38464E
:103780000CF0E1F9B00703D52946204613F0B8F84C
:10379000F1BD70B582B004460D46FDF74EFF0090B6
:1037A000468E00A8FDF754FFE86840B1007A10B1DA
:1037B000F00508D43DE0F00505D5022100E0032125
:1037C0002046FFF7CAFF73BD70B582B004460D46B0
:1037D000FDF733FF0090468E00A8FDF739FFE8683B
:1037E00018B1007A28B9F00503D503212046FFF768
:1037F000B4FF73BD70B582B004460D46FDF71DFFE2
:103800000090468E00A8FDF723FFE868417A21B9B1
:10381000007A68B1F0050BD40BE0012904BF007AEF
:10382000002805D1F00503D502212046FFF795FFBA
:1038300073BD2046FFF77CFF73BD564856490160B3
:103840005649416070475348554901600021416025
:10385000704738B505466C682946204612F0E4FAF0
:1038600000285BD028680B2826D00C2810D00E2802
:1038700032D00F2812D0112802D0282845D04AE093
:1038800044484268100049D029462046904731BD3F
:10389000294620463F4A1268904731BD2046FDF731
:1038A000CCFE0090406E056800A8FDF7D1FE280010
:1038B00034D02046A84731BD2046FDF7BEFE00901B
:1038C0006830FDF76EFF032100986C30FDF776FF3E
:1038D00000A8FDF7BDFE1EE0E868416800680D28FD
:1038E00002D0202806D010E001290EDB2046FFF789
:1038F0001FFF05E0012903DB2046FFF719FF31BD5B
:1039000002212046FFF729FF31BDE86818B90021E0
:10391000204600F09EF8284609F067FD31BD2DE9EC
:10392000F04F85B081468A46934698460E9D0F9E7D
:10393000119C129F0DF094FD07F14C000390194863
:1039400002900196009543465A465146484608F073
:10395000DBFF050017D0FDF770FE04901022214612
:1039600012F05BFA104C04983430214630221AF0E1
:103970000FFA0498216B416604A8FDF769FE2846FA
:10398000216B496888470DF063FD284605B0BDE806
:10399000F08F0000E8030010C9370000F537000081
:1039A0009337000053380000B4030010F0B585B021
:1039B0000A9C0B9D0C9E0D9F4FF0000CCDF810C083
:1039C0000397029601950094FFF7A9FF05B0F0BD9B
:1039D000F0B583B004460E4601250CB30DF040FD52
:1039E0002046FDF72AFE0090876E019700A8FDF79C
:1039F0002FFE314601A80EF027F978B10025019875
:103A0000B84208D02046FDF718FE00900199816663
:103A100000A8FDF71DFE204608F074FF0DF018FD0C
:103A2000284603B0F0BD38B504000D460ED00DF0A9
:103A300017FD2046FDF701FE0090456500A8FDF743
:103A400007FE204608F05EFF0DF002FD31BD12F0CA
:103A500086B900294FF4807118BF12F0A9B912F08D
:103A6000C2B900291CBF102112F0A2B9102112F016
:103A7000BAB970B582B004000D46164611D00DF0EB
:103A8000EFFC2046FDF7D9FD0090A0F85E50A0F8AD
:103A9000606000A8FDF7DCFD204608F033FF0DF064
:103AA000D7FC73BD782313F025BC782313F004BC36
:103AB00070B582B004460D4600267CB10DF0D0FCF6
:103AC0002046FDF7BAFD0090032D3CBF00EB8500BA
:103AD000466B00A8FDF7BCFD0DF0BAFC304676BD84
:103AE00070B582B004000D46164612D00DF0B8FC39
:103AF0002046FDF7A2FD0090032D3CBF00EB8500A2
:103B0000466300A8FDF7A4FD204608F0FBFE0DF07B
:103B10009FFC73BD70B582B004460D4600267CB193
:103B20000DF09EFC2046FDF788FD0090032D3CBF64
:103B300000EB8500066C00A8FDF78AFD0DF088FCFF
:103B4000304676BD70B582B004000D46164612D0E0
:103B50000DF086FC2046FDF770FD0090032D3CBF64
:103B600000EB8500066400A8FDF772FD204608F012
:103B7000C9FE0DF06DFC73BD38B5044600255CB17F
:103B80000DF06EFC2046FDF758FD0090056D00A875
:103B9000FDF75EFD0DF05CFC284632BD38B5040033
:103BA0000D460ED00DF05CFC2046FDF746FD009062
:103BB000056500A8FDF74CFD204608F0A3FE0DF0BA
:103BC00047FC31BD30B585B0044610461D46A2699C
:103BD0000492B4F908200392628A029200220192B0
:103BE0000091B4F91030B4F90E20B4F90C10691832
:103BF000B4F90A504019FFF792FE05466168FFF7D5
:103C0000E7FE284605B030BD184908627047174ADC
:103C10009169906108467047032903D2134A02EB69
:103C20008101C860704703293CBF104A42F8210057
:103C300070470E49088570470C48006A70476FF05E
:103C40007041032803D2094901EB8000C16808468E
:103C500070476FF0704103283CBF044951F82010B1
:103C6000084670470148B0F928007047B4030010B7
:103C7000034800687047024A1168106008467047A0
:103C8000F003001070B584B000AA002300241D4684
:103C90001E4678C22A220092039100A908F0CBFDAB
:103CA00004B070BD30B585B000A9002200231446D1
:103CB00015463CC12A21009100A908F0BCFD0398DB
:103CC00005B030BD2DE9F84304460E4617465FEABD
:103CD0000308089DDDF8249002D109F079FC8046A4
:103CE00000974B462A46414620462768B8470700BA
:103CF0001DD012F05EFC0546618A384612F058F875
:103D0000384612F0DDFF284612F0DAFF761E012E4B
:103D100014DB1C3400200090002302462946204674
:103D2000D4F800C0E04728B9384608F0A2FE0020C9
:103D3000BDE8F28312F0C4FF761EEAD11D212846A9
:103D400012F0E8FD18F1010F1CBF384612F0E0FE3A
:103D50003846BDE8F28338B504460D46FFF7A2FFAA
:103D600010B14560012101600DF07AFB204609F099
:103D700073FABDE831400DF06BBB00B583B00FF2B4
:103D80004001D1E90023CDE9002300A9FFF77AFF24
:103D900004E0FCF78BFA08B90DF09FFC00980028AE
:103DA000F7D0019803B000BD30B583B0069C079DE5
:103DB00001950094FFF786FF03B0BDE83040DCE7D3
:103DC000000000000000000070B582B004000D4645
:103DD00018BF002D16D00DF043FB2046FDF72DFC3B
:103DE0000090C66B00A8FDF733FC28461AF002F8D5
:103DF000421C2946304610F0DBFE204608F082FDCA
:103E00000DF026FB73BDF8B504000D4628D00DF06B
:103E100027FB2046FDF711FC0090D0F88860C06CAD
:103E20000BF0FAFD07460098C56400A8FDF710FCEA
:103E300020460FF099FD204608F064FD76B1284633
:103E40000BF0EAFD874205D020460FF0D3FE204656
:103E50000FF0ECFE2946304611F082F90DF0F8FA29
:103E6000F1BD00002DE9FC410C4616461D4600211F
:103E7000009113F079FA04EB8007786F0EF0BBFA2B
:103E8000F86E0EF0BCFA04F1540778690BF0D8FF15
:103E90003146204611F024FF606B10B1FDF7CDFBD9
:103EA0000090D6E90001C5E9000128883969491C5C
:103EB00008182880A8883969401A401EA880DDF8B3
:103EC0002080FB684246294600980DF039FC0A9D87
:103ED00094F83200C00762D5787800B901202860D4
:103EE00000980DF0B3FD0746009800285ED0002032
:103EF000019004F134060B9894F8541021B9F1693B
:103F0000002918BF002829D0B169B94233DAF26913
:103F1000002A18BF002818D000202860B4690BE0E0
:103F200000233A46214600980DF07FFD0BF04BF937
:103F3000296840182860641CB069F1690818844237
:103F4000EEDB2868B8B9012006E001AB3A460098DC
:103F50000DF06BFD0BF037F928600CE0DFF8000581
:103F60000068012807D1B26939460098DFF8F434B7
:103F70001B6898470190099CD8E90001C4E9000139
:103F8000019818B120882968401A20803A46B16902
:103F900000980DF03EFD21884018208001E00020AF
:103FA0002860009810B100A8FDF752FBBDE8F3812E
:103FB00030B58FB005460C46002005902846FDF729
:103FC0003CFB0490039406A8029007A801900BA85C
:103FD00000900DAB09AA04992846FFF743FF049807
:103FE000406B10B1FDF729FB0590002008F0ADFEF5
:103FF00018B309A812F03AFE2CB10BAB0DAA09A90F
:10400000059812F0DBF8049890F83200C0070AD542
:10401000BDF91C00BDF92230069941184A1EBDF9B0
:104020001E100BF01DFD002012F020FE049812F06F
:1040300079F808F070FE0028DBD124B10021049843
:10404000C06F12F0E7FE04A8FDF702FB059810B15F
:1040500005A8FDF7FDFA0FB030BDF0B583B00446FA
:104060000D46FDF7EAFA0090466B408F2D1800A828
:10407000FDF7EEFA294630460BF0F0FD070014D0AC
:104080003EB9FDF7DAFA01900021017001A8FDF7B1
:10409000DFFA2046FDF7D1FA00904587476300A874
:1040A000FDF7D6FA012003B0F0BD002003B0F0BD4B
:1040B0007CB50446FDF7C1FA0190456BC66C01A8BA
:1040C000FDF7C6FA05B32846FDF7B7FA0546009591
:1040D00031460DF0AEFA0646284619F08BFE8642B0
:1040E0000FD2751928460DF067FA4119284619F0C4
:1040F00095FE00A8FDF7ACFA0521204612F000FC61
:1041000073BD00A8FDF7A4FA73BD2DE9F04184B09A
:1041100004468846FDF791FA00900646B6F9380045
:10412000012812DB0027706B40B1FDF786FA019081
:104130000DF08CFC074601A8FDF78AFAB6F93800A5
:10414000791C8842B8BF002700DB01270098C66CA5
:1041500000A8FDF77DFA002F49D040460DF054FA33
:10416000074600252046FDF768FA0290406B40B1F3
:10417000FDF763FA019019F03DFE054601A8FDF731
:1041800067FAE819401C0299498F451A02A8FDF701
:104190005FFA012D05DB05F110012046FFF75DFFF9
:1041A00028B32046FDF749FA0090456B00A8FDF7BB
:1041B0004FFA2846FDF741FA0546039531460DF0C2
:1041C00038FA4619304619F015FE421C3146B81926
:1041D00019F0DEFD414630460DF006FA03A8FDF762
:1041E00037FA0521204612F08BFB012000E0002069
:1041F00004B0BDE8F08170B582B004000D461646EB
:1042000034D00DF02DF92046FDF717FA0090C06B61
:104210003EB1854238BF05460098006CA84209D2DD
:1042200007E08542B8BF0546284600990D6C8542D7
:1042300000DD05460098806CA84212D00098856485
:104240000098C16D08001CBF20468847204608F032
:1042500059FB00A8FDF7FCF90521204612F050FBA0
:1042600002E000A8FDF7F4F90DF0F2F873BD38B5DF
:1042700004460025606B68B1FDF7DFF9054600953F
:10428000E16C0DF0D6F940190DF0A0F9054600A833
:10429000FDF7DEF9284632BD1CB50C46FDF7CDF919
:1042A0000090406B08B3FDF7C8F901900DF0CEFB0C
:1042B000009938310B7F5A1E9241D243002C48BFDF
:1042C0000024A042D8BF04460098B0F93800B0EBF3
:1042D000D270A042B8BF04464869A04218BF4C61E2
:1042E0000020886101A8FDF7B3F900A8FDF7B0F937
:1042F00013BD01227FE77CB504466568284613F0AC
:1043000033F806462146284611F08EFD08B3206892
:104310000B2835D00C281DD00E283AD00F282AD0D3
:1043200040F21311884211D1284608F036FC0021D2
:104330002846FFF73DFE2846FDF77FF90090002153
:10434000C06F12F067FD00A8FDF782F9204609F062
:104350004CF873BDE06860B1017A41B1016828464C
:1043600000F09CF80121284612F0CAFAEEE702217B
:10437000F9E70321F7E701212846FFF719FE73BD8E
:104380002846FDF75AF901903430FDF70AFA01A8E2
:10439000DAE7002EDAD0E06841680129D6DB01684F
:1043A000092918BF0A29D1D00D2918BF1B29CDD042
:1043B000284600F0D3F873BD2DE9F04F85B00546CF
:1043C0000E4617469846DDF83890DDF83CA0119C63
:1043D000DDF84CB00DF044F80BF154000390224886
:1043E00002904AF480500190CDF8009043463A463E
:1043F0003146284608F088FA05002BD0FDF71DF954
:1044000000901022214611F008FD009860301749F5
:10441000B1E8DC50A0E8DC500098012180F855108C
:10442000129800B908200099088700980021418758
:10443000009841630098B0F93800441C00A8FDF7CB
:1044400007F921462846FFF708FE18B9284608F064
:1044500010FB00250CF0FCFF284605B0BDE8F08FEE
:1044600094A800109CA80010F7420000F40300106C
:10447000F0B587B00C9C0D9D0E9E0F9FDDF840C0DF
:104480004FF0000ECDF814E0CDF810C0039702965F
:1044900001950094FFF790FF07B0F0BD2DE9FC41B6
:1044A00004000D4658D00CF0DBFF2046FDF7C5F8A0
:1044B0000090406B00284AD0FDF7BFF801900098AB
:1044C000806E0BF0BDFC8046204612F061F9064676
:1044D00001980BF095FA0746009890F8600000F0FC
:1044E0000300012808D002280DD1F01B401C00EB6E
:1044F000D070A5EB60050EE0A81B38180099496E36
:104500000818451C07E00098406E281A0099C96AEF
:104510000968401A451E01980DF098FA0146002DD1
:1045200048BF002107D4AF4205DB0A46294601985F
:104530000DF075FA01462046FFF7AEFE01A8FDF723
:1045400087F840460BF07CFC204608F0DBF900A819
:10455000FDF77EF80CF07CFFBDE8F3812DE9F04318
:1045600083B05FEA00080E4600F09D800CF078FFF3
:104570004046FDF762F80090D0F8589090F854400B
:10458000476BC56C00A8FDF763F85FEA090003D02C
:1045900031464046C84781E0082E52D0102E4ED0FA
:1045A000112E08D0122E75D0132E30D01D2E51D0C2
:1045B0001E2E4BD063E0002F70D03846FDF73DF83B
:1045C0000290064629460DF034F8851928460CF06D
:1045D000FDFF064601A80021016030460DF014F8E9
:1045E0000746761CB0B20DF00FF80446A7420CD176
:1045F000B1B201A80CF0F8FF224601A9284619F033
:10460000C7FB0521404612F07BF902A834E0002FD9
:1046100044D03846FDF711F80290064629460DF0C1
:1046200008F8851928460CF0D1FF064601A800219C
:10463000016030460CF0E8FF0746761ED2E7691E9F
:1046400029E05DB3691E4046FFF726FE4046FFF7AE
:104650002FFD23E04046FCF7F0FF0090012C03D132
:10466000002180F8541006E0012180F854102946FA
:104670004046FFF711FE00A8FCF7EAFF0EE0202EEF
:104680000CDB14B14046FFF713FDB1B24046FFF713
:104690003CFD18B1691C4046FFF7FEFD404608F09E
:1046A00031F90CF0D5FE03B0BDE8F08310B582B04F
:1046B00004000DD00CF0D4FE2046FCF7BEFF0090A5
:1046C000846E00A8FCF7C4FF0CF0C2FE204616BDA5
:1046D000002016BD38B504000D460FD00CF0C0FE0A
:1046E0002046FCF7AAFF009018B18566204608F026
:1046F00009F900A8FCF7ACFF0CF0AAFE31BD70B5BB
:1047000082B004460D46002684B10CF0A9FE204676
:10471000FCF793FF009020B1022D3CBF00EB850019
:10472000466F00A8FCF794FF0CF092FE304676BD71
:1047300070B582B004000D46164613D00CF090FE02
:104740002046FCF77AFF009038B1022D05D200EB2D
:1047500085004667204608F0D5F800A8FCF778FFEA
:104760000CF076FE73BD70B582B004460D4600268F
:1047700084B10CF075FE2046FCF75FFF009020B17D
:10478000022D3CBF00EB8500C66E00A8FCF760FF61
:104790000CF05EFE304676BD70B582B004000D466A
:1047A000164613D00CF05CFE2046FCF746FF009046
:1047B00038B1022D05D200EB8500C666204608F010
:1047C000A1F800A8FCF744FF0CF042FE73BD2DE9F0
:1047D000F04385B0804689460024B8F1000F72D0BE
:1047E0000CF03EFE4046FCF728FF0090466BB0F907
:1047F000387000A8FCF72CFFB9F1000F55D04EB16E
:104800003046FCF71AFF019019F0F4FA441C01A895
:10481000FCF71EFF48460DF019F98742C8BF07464E
:10482000394648460CF005FF461C341B002540461F
:10483000FCF703FF0290406B40B1FCF7FEFE0390D3
:1048400019F0D8FA054603A8FCF702FF2819401C06
:104850000299498F441A02A8FCF7FAFE012C05DBE5
:1048600004F110014046FFF7F8FB38B34046FCF76F
:10487000E4FE0090406BFCF7E0FE019032464946B2
:1048800019F086FA009838304761009AB2F938205A
:10489000974201BF027F012A791E416100A8FCF7FF
:1048A000D7FE01A8FCF7D4FE08E000983430FCF7EE
:1048B00078FF0098002141870098C164404608F0C5
:1048C00021F80CF0C5FD05B0BDE8F0837CB50546C8
:1048D0000C00164618BF002D27D00CF0C1FD28464D
:1048E000FCF7ABFE0190002020700198406BB8B13E
:1048F000FCF7A3FE00900DF0A9F8014600980CF01B
:1049000098FE0546701EA842B8BF05462A46009983
:10491000204619F03DFA00A8FCF79AFE0020285521
:1049200001A8FCF795FE0CF093FD73BD38B5044665
:1049300000255CB10CF094FD2046FCF77EFE009053
:10494000856C00A8FCF784FE0CF082FD284632BD81
:10495000002250E47CB504000D4635D00CF080FDFB
:104960002046FCF76AFE0090468FB0F93800854279
:1049700025D0854213DA0098406B80B1FCF75DFECC
:1049800001900DF063F8854206DA294601980CF093
:1049900050FE01990022425401A8FCF759FE00A8DC
:1049A000FCF756FEA81B411C2046FFF756FB20468D
:1049B000FCF743FE00900587204607F0A3FF00A800
:1049C000FCF746FE0CF044FD73BD38B504000D46FF
:1049D0000FD00CF045FD2046FCF72FFE009018B1DB
:1049E0000566204607F08EFF00A8FCF731FE0CF0AC
:1049F0002FFD31BD802312F07DBC802312F05CBC02
:104A00002DE9F04F83B006000D4614469B464AD070
:104A10000CF026FD0C9F4E4850F8270019F00EFCB4
:104A20008246294619F003FA19F02CFC0022494B62
:104A300019F073FA21F070FF8046894650462146EE
:104A400019F0F5F919F01EFC0022424B19F065FA35
:104A500021F062FF04460D465046594619F0E7F929
:104A600019F010FC00223B4B19F057FA21F054FFCB
:104A70009DF834200192009719F0E5FB0746204687
:104A8000294619F0E0FB04464046494619F0DBFB95
:104A900001463B46224630460FF063FC03B0BDE8BA
:104AA000F04F0CF0D5BC03B0BDE8F08F38B504462C
:104AB0000025DCB10CF0D4FC2046FCF7BEFD04461A
:104AC0000094A06C19F0B1FB054694F8440020490D
:104AD00051F8200019F0B2FB0146284619F0DDF923
:104AE000054600A8FCF7B4FD0CF0B2FC284632BD28
:104AF000E0B582B006000F4628D00CF0B1FC30467D
:104B0000FCF79BFD009090F84400114951F82000FB
:104B100019F094FB394619F08AF9074600A8FCF70A
:104B200097FD3846002119F0C1FB94BF094D0A4D8D
:104B300019F0A8FB00222B4619F0EFF919F083FBBE
:104B400001463046FFF704FF0CF082FCE3BD000095
:104B5000D8F000000000E03F0000E0BF30B587B0B3
:104B6000044610461D46A269059262690492B4F992
:104B700008200392628A0292002201920091B4F905
:104B80001030B4F90E20B4F90C106918B4F90A50B9
:104B90004019FFF711FC05001CBF618AFFF715FFE4
:104BA000284607B030BD000015498860704714489A
:104BB0008068704712490860704711480068704764
:104BC000032803D20E4A02EB8000C160704703281D
:104BD00003D20B4A02EB8000416170470021032899
:104BE00003D2074901EB8000C168084670470021E5
:104BF000032803D2024901EB80004169084670474F
:104C0000F403001038B504460D46FCF716FD00907D
:104C1000B0F87C0000F0080125B169B9009940F0B6
:104C2000080004E041B100994FF6F7721040A1F876
:104C30007C00204607F066FE00A8FCF709FD31BDA8
:104C40002DE9F04385B006467568284611F03AFD17
:104C50000746FCF7F2FC0090D0F86480D0F848904A
:104C6000D0F8804000A8FCF7F3FC30680E282FD065
:104C70000F280BD014281CBF152817284DD01E282C
:104C800017D01F281FD022283DD03FE06FF0704082
:104C9000814504D048460DF0AEFBFCF79BFF5FEA70
:104CA00008003DD001A81ECE1EC0029501A8C04735
:104CB00036E0F068A0B3002C18BFAC4215D02046F7
:104CC00008F0D8FC2CE03146384611F0ADF827E06A
:104CD000F0684168012919DB0068092805D00A2815
:104CE00014D1284611F022FF02E0284611F010FFEF
:104CF00004463846FCF7A1FC0090C0F8804000A8AC
:104D0000FCF7A6FC0CE0C6F80C9009E05FEA08008E
:104D100003D077603046C04702E0304608F065FBBC
:104D200005B0BDE8F08370B58AB005460E46FCF7C5
:104D300084FC0090C06D846800A8FCF789FC019594
:104D40002EB1022E07D004D3032E06D007E0182080
:104D500004E0162002E0152000E01720029001A8D0
:104D6000616888470AB070BD0146002091F8322082
:104D7000920600D4704780B5B1F9540018B9486B59
:104D80000AF048FE801C02BD2DE9F04383B0814645
:104D90000C461546FCF751FC0190C06D87680198E0
:104DA000B0F90060B0F9028001A8FCF751FC0021C5
:104DB00048463A6890470746484611F006FC0AE024
:104DC00020688142A4BF481C206000A8FCF740FC7A
:104DD000484611F06AFC5FEA00091BD0FCF72DFC85
:104DE0000090B0F90000801B0099B1F90410891BF4
:104DF000009AB2F90220A2EB0802BA42E5D1009A69
:104E000092F828201206DBD529688142DDDB401E9E
:104E10002860DAE703B0BDE8F0832DE9F04F87B0F2
:104E200080460D4600260396FCF707FC0090C06DF7
:104E30008468012140462268904707460321404686
:104E400022689047059002214046226890470490CE
:104E500000214046226890470446009811F08CFCDF
:104E60008146009811F08DFC8246009890F832003F
:104E7000800603D50098B0F9580003900098FFF71A
:104E800073FF83460098C06E10B111F095FC064682
:104E9000A5F800B06E80AF800598A9EB0000401E19
:104EA00028810399091959447118E9800499AAEBDA
:104EB0000101491E6981AF812882EC810BEB04005E
:104EC000401E688200A8FCF7C3FBB5F90C000290F5
:104ED000B5F91000019001AA02A94046FFF754FF5E
:104EE0000298A8810198288207B0BDE8F08F70B5BC
:104EF00086B00646FCF7A1FB0090846EC56E00A844
:104F0000FCF7A6FB55EA040025D001A93046FFF7BF
:104F100084FFACB1BDF90A20BDF90810204611F09C
:104F2000C0FCBDF90E00BDF90A10401A421CBDF9C3
:104F30000C00BDF90810401A411C204611F070FE0B
:104F40004DB1BDF90A00BDF90610421ABDF90810AD
:104F5000284611F0A6FC06B070BD2DE9F0478CB0D4
:104F600004460026D4F804804046FCF766FB009017
:104F70005C30C56A476AD0F80C90B0F820A0009861
:104F8000C06D00B1066800A8FCF762FB06E0204691
:104F900069688847002840F000812D68002DF6D10F
:104FA00020680B2800F0E7800C283BD00D2800F08B
:104FB000B6800F2830D011280DD0142866D01728BD
:104FC0006ED01E287DD0202800F0B78026286AD019
:104FD0002A2813D0D9E0E6684046FCF72EFB019062
:104FE000717A002904BF317A012905D1B0F87C100B
:104FF00041F48071A0F87C1001A8C4E04046FCF7A1
:105000001CFB0090E168002912BFC0F88410D0F8A2
:105010008400E06000A836E0300000F0B680404632
:10502000B047B2E0E6684046FCF707FB0190B0F8F5
:105030007C7001A8FCF70CFBE068002800F0AD8054
:10504000307AA0B138075CBF404608F013FB4046F9
:1050500011F0F2F907F4C870B0F5887F40F09D8038
:10506000002305223146404611F0CAFC95E0404637
:10507000FCF7E3FA0190B0F87C104FF6FF621140A4
:10508000A0F87C1001A8FCF7E3FA86E006A94046E8
:10509000FFF7C3FEE068DDE90723C0E900237CE0F9
:1050A000C4F80C9079E0E068022876D1CDF8108041
:1050B000E06805902720029002A9A06812F060F92C
:1050C0006BE0E068012825D1384611F0BDFB58B1EE
:1050D000384608F0CFFA384611F096FB88B1012126
:1050E000384610F065FE0CE0484611F011FD074609
:1050F0004046FCF7A2FA0090C0F8807000A8FCF7C8
:10510000A7FA0121404600F03FF9002F45D10020C9
:10511000E06042E00021404600F036F93DE05FEA01
:105120000A7032D4E068C06800281CBF007A0028EA
:105130002BD0404608F09EFA27E0E6682EB34146A1
:10514000706812F00BF920B101214046FFF75AFDBB
:105150001BE000214046FFF755FD4146306812F044
:10516000EBF890B14046FCF768FA01903168C0F85E
:10517000801001A807E04046FCF75FFA009070300D
:10518000FCF70FFB00A8FCF763FA2146404610F03D
:105190004BFE10B1204608F028F90CB0BDE8F087AE
:1051A0002DE9F74F8AB09946DDF858A0179D189F52
:1051B000199CDDF868801B9EDDF870B00CF050F98A
:1051C00045F480550BF16000039031480290019541
:1051D000CDF800A04B460C9A0B990A9807F094FB67
:1051E0005FEA00094ED0FCF728FA049030222146ED
:1051F00010F013FE274C049834302146282218F072
:10520000C7FD04985C30866007840021416201611B
:10521000C1620498A16AC16504A8FCF719FA05A93E
:105220004846FFF7FAFDBDF91800BDF91A10002233
:105230000392194A029241F282720192CDF80090D3
:10524000BDF91E20521A531CBDF91C20121A521C03
:1052500007F05AFB07464846A16A4968884748460E
:10526000FCF7EBF90490876604A8FCF7F1F942F229
:105270000400054204BF484611F0FFFA4146484683
:1052800000F028F80CF0E4F848460DB0BDE8F08FC7
:105290005B4F000010040010414C00002DE9F0416C
:1052A00088B00E9C0F9D109E119FDDF848C0DDF860
:1052B0004CE04FF00008CDF81880CDF814E0CDF8A0
:1052C00010C00397029601950094FFF769FF08B09C
:1052D000BDE8F08130B583B004000D461DD00CF060
:1052E000BFF82046FCF7A9F90090006F019000A8D4
:1052F000FCF7AEF9294601A80CF0A6FC58B12046EF
:10530000FCF79BF900900199016700A8FCF7A0F950
:10531000204607F0F7FA0CF09BF803B030BD38B523
:1053200004000D4614D00CF09BF82046FCF785F9DC
:105330000090B0F95A00A84205D00098A0F85A5041
:10534000204607F0DFFA00A8FCF782F90CF080F89D
:1053500031BD38B504000D4615D00CF081F820465B
:10536000FCF76BF90090B0F87C10002D12BF41F0F3
:1053700010014FF6EF721140A0F87C1000A8FCF766
:1053800067F90CF065F831BD38B504000D4609D059
:105390000CF066F829462046FFF734FCBDE83140A2
:1053A0000CF056B831BD8C2311F0A4BF8C2311F042
:1053B00083BF00000168272918BFFEF74ABA002101
:1053C0008068FEF7C8BC30B583B0044600200AF000
:1053D00020FD00A9204611F005F92648016CBDF812
:1053E00000208A18ADF80020406CBDF80220821819
:1053F000ADF80220BDF804208918ADF80410BDF8FE
:1054000006208018ADF8060009B2BDF90000081AA0
:10541000841E00A807F099FCD8B10225032C14DBE8
:10542000BDF900002818421CBDF9021069180CF0E3
:1054300045FDBDF90400421BBDF902002918501EAC
:105440000CF03CFD6D1CA542EADB07F064FC002873
:10545000E3D103B030BD10B505230EF0C5FF0446FF
:10546000054A00210EF08EF90449204611F072FA27
:10547000204610BD58A40010C7530000B5530000CB
:1054800038B50168272912D184682046FCF7D5F881
:105490000090B0F87C5000A8FCF7DAF82806204607
:1054A00002D50FF00DF931BD0FF0FCF831BDFEF75C
:1054B000D0F931BD00B583B000A911F093F886484A
:1054C000016CBDF800208A18ADF80020406CBDF8D2
:1054D00002208218ADF80220BDF804208918ADF82A
:1054E0000410BDF806104018ADF8060000A807F03B
:1054F0002CFC00283AD0BDF90400421EBDF9020080
:10550000411CBDF90000401C0CF0D8FCBDF90400A2
:10551000421EBDF90200811CBDF90000401C0CF0C8
:10552000CDFCBDF90400421EBDF90600411EBDF9C7
:105530000000401C0CF0C2FCBDF90600421EBDF983
:105540000200411CBDF90000401C0CF0DAFCBDF962
:105550000600421EBDF90200411CBDF90400401EB8
:105560000CF0CFFC07F0D7FB0028C4D103B000BD7E
:105570001CB500A911F036F85748016CBDF80020A1
:105580008A18ADF80020406CBDF802208218ADF8F2
:105590000220BDF804208918ADF80410BDF80620DB
:1055A0008018ADF8060009B2BDF90000081A401CC9
:1055B0004000032190FBF1F400A807F0C6FB00288F
:1055C00062D0BDF90400421EBDF90210491C001B47
:1055D0000CF074FCBDF90400421EBDF90210891CD8
:1055E000001B0CF06BFCBDF90400421EBDF902006B
:1055F0002118BDF9000020180CF060FCBDF9060070
:10560000021BBDF90200411CBDF90400001B0CF097
:1056100078FCBDF902002218411CBDF90400401EAF
:105620000CF06FFCBDF900002218BDF90610091B33
:10563000401C0CF043FCBDF900002218BDF9061017
:10564000091B491C401C0CF039FCBDF90000221854
:10565000BDF90610491E401C0CF030FCBDF90600D7
:10566000421E011BBDF90000401C0CF04AFCBDF9B4
:105670000600421E011BBDF9000020180CF041FC81
:1056800007F049FB00289CD113BD38B5044611F042
:1056900019F8FBF7D2FF0090B0F87C5000A8FBF798
:1056A000D7FF00200AF0B5FB2806204602D5FFF7F9
:1056B0005FFF31BDFFF7FEFE31BD10B507230EF0D1
:1056C00093FE0446054A00210EF05CF8044920468A
:1056D00011F040F9204610BD58A400108B56000070
:1056E0008154000038B50168272912D1846820460A
:1056F000FBF7A3FF0090B0F87C5000A8FBF7A8FFD1
:105700006806204602D50EF0DBFF31BD0EF0C0FF6B
:1057100031BDFEF79EF831BD70B584B0054610F07E
:10572000D1FFFBF78AFF0290B0F87C6002A8FBF77C
:105730008FFF00200AF06DFB454C700600A928463B
:105740003CD510F04FFF206CBDF800104118ADF8AB
:105750000010616CBDF802208A18ADF80220BDF877
:1057600004208018ADF80400BDF806208918ADF8B3
:10577000061000B2BDF90010401A401C441000A8E9
:1057800007F0E3FA002852D00125022C10DB60104C
:10579000461CBDF90400421BBDF902008119BDF988
:1057A000000028180CF08AFB6D1C761CA542F0DB6B
:1057B00007F0B1FA0028E7D104B070BD10F012FF75
:1057C000206CBDF800104118ADF80010616CBDF8F8
:1057D00002208A18ADF80220BDF804208018ADF828
:1057E0000400BDF806208918ADF8061000B2BDF916
:1057F0000010401A401C441000A807F0A6FAB0B1EF
:105800000125022C0FDBBDF90400421BBDF9060087
:10581000401BB0EB6401BDF9000028180CF04EFBF2
:105820006D1CA542EFDB07F076FA0028E8D104B042
:1058300070BD10B508230EF0D7FD0446054A0021BF
:105840000DF0A0FF0449204611F084F8204610BD59
:1058500058A4001019570000E556000030B587B075
:1058600014461D460A9A836906930592426804927B
:10587000B0F908200392428A02920022019200911C
:10588000B0F91030B0F90E20B0F90C106918B0F969
:105890000A002018FFF784FC07B030BD70B582B055
:1058A00004000D46164612D00BF0DAFD2046FBF739
:1058B000C4FE0090022D05D200EB850086632046D1
:1058C00007F020F800A8FBF7C3FE0BF0C1FD73BD85
:1058D00038B504000D460FD00BF0C2FD2046FBF793
:1058E000ACFE00900564456400A8FBF7B1FE2046BD
:1058F00007F008F80BF0ACFD31BD70B582B00400C4
:105900000D46164612D00BF0ABFD2046FBF795FE78
:105910000090022D05D200EB85000664204606F0BB
:10592000F1FF00A8FBF794FE0BF092FD73BD38B5B4
:1059300004000D4613D00BF093FD2046FBF77DFECF
:105940000090806CA84205D0009885640098806E15
:1059500006F0D8FF00A8FBF77BFE0BF079FD31BD08
:105960002DE9FC4104460F460BF07AFD54B3204666
:10597000FBF763FE0190C06D86680198FFF7F4F9AC
:1059800005460198476301A8FBF762FE0121204606
:105990003268904707460321204632689047804688
:1059A000002120463268904706462046FFF79FFABE
:1059B000009643463A46294620460FF045F82046D1
:1059C00006F0A0FF0BF044FDBDE8F3812DE9F043A4
:1059D00083B004460F4600259CB30BF041FD2046E2
:1059E000FBF72BFE0190B0F95450AF4224D0FFF7E3
:1059F000BBF906460198A0F854700198C06D8768FD
:105A0000012120463A6890478046032120463A68A3
:105A100090478146002120463A6890470746204635
:105A2000FFF765FA00974B464246314620460FF095
:105A30000BF8204606F066FF01A8FBF709FE0BF005
:105A400007FD284603B0BDE8F08300002DE9F84FBC
:105A500006460C4615461F464FF0FF384FF000092A
:105A6000002F43D410F0A8FE87423FDA002E3DD02D
:105A7000E06C0FF090F80646A06E002814BFA76DEA
:105A80000027CA4696B35146E06C0FF050F90090DB
:105A90000068C71900A8FBF7DBFDA06E824538BF80
:105AA000B94604D318B1824504BFA06D3F1A4F45D3
:105AB000A1BF281F8742281DB84213DBD046701EA5
:105AC00082450FD2BD420DDA0AF10101E06C0FF000
:105AD0002EF90090D0F800B000A8FBF7B9FDBBF19B
